:100000000C9472000C9493000C9493000C94930045
:100010000C9493000C9493000C9493000C94210482
:100020000C94B0030C9493000C9493000C949300E4
:100030000C9493000C9493000C9493000C949300F4
:100040000C9493000C9493000C9493000C949300E4
:100050000C9493000C9493000C9493000C949300D4
:100060000C9493000C94F3040C9429050C949300C5
:100070000C9493000C9493000C9493000C949300B4
:100080000C9493000C9493000C9493000C949300A4
:100090000C9493000C9493000C9493000C94930094
:1000A0000C9493000C9493000C9493000C94930084
:1000B0000C9493000C9493000C9493000C94930074
:1000C0000C9493000C9493000C9493000C94930064
:1000D0000C9493000C9493000C9493000C94930054
:1000E0000C94930011241FBECFEFD1E2DEBFCDBF31
:1000F00000E00CBF12E0A0E0B2E0E2EFF3E100E0CC
:100100000BBF02C007900D92A034B107D9F716E0DB
:10011000A0E4B2E001C01D92A036B107E1F70E9451
:1001200095000C94F7090C9400000E9465060E944B
:10013000EE0083E390E068E040E021E00E94750576
:100140000E94CF080E941A0778940E94AE0080E0B7
:1001500092E00E947901FBCF089508958CE00E94FF
:1001600094018BE10E9494018FE40E94940181E04C
:100170000E94940181E00E9494018BE10E9494010D
:100180008BE70E94940180913002909131020E948D
:10019000790180913202909133020E94790180911D
:1001A0003402909135020E9479010E946B018823EC
:1001B000E1F3D4CF813041F0813018F0823069F41E
:1001C00008C082B1805803C082B190E4892782B907
:1001D000089585B190E1892785B908950F931F93FC
:1001E000CF93DF9381B1806C81B9249A82B1806C06
:1001F00082B92C9AC0E0D0E000E911E080E00E94D2
:10020000DA0081E00E94DA0082E00E94DA00C33066
:10021000D10539F082E09DE0F8013197F1F70197BF
:10022000D9F72196C430D10549F7DF91CF911F91BD
:100230000F910895662369F0813039F0813018F00C
:10024000823099F404C017980895169808952C9850
:100250000895813039F0813018F0823031F404C0D3
:10026000179A0895169A08952C9A0895282F8A307F
:1002700048F46AE00E94D208905D90935802109270
:10028000590226C0843678F46AE00E94D208805D64
:1002900080935802822F0E94D208905D9093590259
:1002A00010925A0215C064E60E94D208805D8093C5
:1002B0005802822F6AE00E94D208805D8093590222
:1002C000822F0E94D208905D90935A0210925B0296
:1002D00088E592E008951F9387E60E946B060E94CE
:1002E000D606182F0E94E0060E94BC06812F1F919F
:1002F0000895CF93DF93EC0186E60E9491060AC031
:100300008D3041F08A3021F48DE00E94C4068AE0ED
:100310000E94C40621968A912196882389F70E941B
:10032000BC06DF91CF9108951F93182F86E60E9497
:100330009106812F0E94C4060E94BC061F91089559
:10034000EF92FF920F931F93DF93CF9300D00F9202
:10035000CDB7DEB700E07E010894E11CF11C0E94DD
:100360006B01182F8823D9F38A3269F0833259F050
:10037000053048F40E949401F701E00FF11D10537D
:1003800010830F5FECCF86E392E00E947901023088
:1003900081F0033018F4013029F407C0033081F0F4
:1003A0000430F1F040E050E037C08981482F50E040
:1003B00033C089819AE0899FA00111248A810DC0F0
:1003C000998184E6989FA00111248A812AE0829F66
:1003D000C0011124480F591F8B81480F511D1CC0AB
:1003E000898190E028EE33E0829FA001839F500D29
:1003F000929F500D11248A8124E6829FC00111240E
:10040000480F591F8C81480F511D8B812AE0829F14
:10041000C0011124480F591FCA010F900F900F906F
:100420000F90CF91DF911F910F91FF90EF90089562
:1004300070934B0260934A0290934D0280934C025A
:10044000089580914A0290914B02892B11F020E08F
:100450000AC080914C0290914D0220E0892B09F056
:1004600021E081E02827822F089584B1806684B935
:10047000EAE0F1E08081806C8083E4E0F1E080815B
:10048000806C8083E0E8F0E08081806A80838081F6
:1004900081608083E1E8F0E080818A608083EAE621
:1004A000F0E08081806F80838DB3806C8DBB089578
:1004B000EF92FF920F931F9390914102809140021F
:1004C000981709F022C180914102882309F41DC1C7
:1004D00020914202309143024091440250914502E2
:1004E0008091460290914702A0914802B091490242
:1004F000281739074A075B0709F407C180914202B0
:1005000090914302A0914402B09145020297A10547
:10051000B1050CF4FAC0609141028091380281303B
:1005200021F0809138028230B1F58091380281301B
:1005300089F420914202309143024091440250914B
:1005400045028091460290914702A0914802B091E5
:10055000490210C020914602309147024091480262
:10056000509149028091420290914302A09144022D
:10057000B0914502281B390B4A0B5B0B1216130670
:10058000140615060CF449C0211531054105510525
:1005900009F4ABC076C080913802843029F0809194
:1005A0003802833009F0A1C0809138028430A9F468
:1005B0008091420290914302A0914402B091450281
:1005C000E0904602F09047020091480210914902E3
:1005D000E80EF91E0A1F1B1F1BC08091420290915A
:1005E0004302A0914402B09145022091460230910D
:1005F00047024091480250914902EE24FF248701AE
:10060000E81AF90A0A0B1B0BE21AF30A040B150B82
:100610001E141F04100611067CF520918A003091EB
:100620008B00462F50E0CA0149962817390768F415
:1006300080918A0090918B008F3F910530F48091DA
:100640008A0090918B0001964CC080918800909117
:100650008900029708F449C0809188009091890030
:10066000495150404817590708F03FC08091880011
:100670009091890001971CC0E114F1040105110556
:10068000A1F12091880030918900462F50E0CA01E5
:1006900049962817390788F480918800909189003D
:1006A0008F3F910550F480918800909189000196C8
:1006B000909389008093880018C080918A0090915F
:1006C0008B00029790F080918A0090918B004951A5
:1006D00050404817590748F480918A0090918B0048
:1006E000019790938B0080938A001092460210929B
:1006F0004702109248021092490210924202109250
:10070000430210924402109245021F910F91FF90F4
:10071000EF9008952FB7F8948093410260934002C0
:100720008091410290E090938B0080938A008091A9
:10073000400290E0909389008093880010924202DA
:100740001092430210924402109245021092460207
:100750001092470210924802109249022FBF08954A
:100760001F920F920FB60F920BB60F9211242F9378
:100770003F934F935F936F937F938F939F93AF9329
:10078000BF93EF93FF9380913802813021F08091E5
:100790003802833061F48091460290914702A09123
:1007A0004802B09149020196A11DB11D13C080916C
:1007B0003802823021F080913802843099F480919F
:1007C000460290914702A0914802B09149020197D8
:1007D000A109B1098093460290934702A093480271
:1007E000B093490280914C0290914D02892BB1F057
:1007F00080914C0290914D02019790934D0280930D
:100800004C0280914C0290914D02892B39F4109248
:1008100041026091400280E00E948A03FF91EF91C3
:10082000BF91AF919F918F917F916F915F914F9108
:100830003F912F910F900BBE0F900FBE0F901F9006
:1008400018951F920F920FB60F920BB60F921124AC
:100850002F933F934F935F936F937F938F939F93C8
:10086000AF93BF93EF93FF9380913802813021F0D3
:1008700080913802843061F4809142029091430269
:10088000A0914402B09145020196A11DB11D13C073
:1008900080913802823021F080913802833099F4BF
:1008A0008091420290914302A0914402B09145028E
:1008B0000197A109B1098093420290934302A0934A
:1008C0004402B093450280914A0290914B02892BD9
:1008D000B1F080914A0290914B02019790934B02A4
:1008E00080934A0280914A0290914B02892B39F4FD
:1008F000109240028091410260E00E948A030E94AF
:100900005802FF91EF91BF91AF919F918F917F918D
:100910006F915F914F913F912F910F900BBE0F9070
:100920000FBE0F901F9018958FB7F89410928B0000
:1009300010928A0010928900109288001092410251
:10094000109240021092420210924302109244020E
:1009500010924502109246021092470210924802ED
:10096000109249028FBF0895982F823099F08330FA
:1009700018F48130C9F405C0833019F08430A1F433
:1009800009C080910B018F7380930B0180910B0143
:10099000806408C080910B018F7380930B0180915C
:1009A0000B01806880930B01943028F4923070F42E
:1009B0009130B1F402C0943099F4809105018F73A5
:1009C0008093050180910501806808C08091050130
:1009D0008F738093050180910501806480930501E8
:1009E0009093380208951F920F920FB60F920BB694
:1009F0000F9211242F938F939F93EF93FF93E09186
:100A00005002F09151028091C600E45AFD4F80835C
:100A100080915002909151028F5F914050F48091EB
:100A2000500290915102019690935102809350028E
:100A300004C01092510210925002FF91EF919F91C9
:100A40008F912F910F900BBE0F900FBE0F901F90A4
:100A500018951F920F920FB60F920BB60F9211249A
:100A60002F933F938F939F93EF93FF932091520285
:100A70003091530280915402909155022817390702
:100A8000F9F0E0915202F0915302E45AFB4F808159
:100A90008093C60080915202909153028F5F9140E3
:100AA00050F4809152029091530201969093530218
:100AB000809352020DC0109253021092520208C04D
:100AC00081E0809356028091C1008F7D8093C100A8
:100AD000FF91EF919F918F913F912F910F900BBEBE
:100AE0000F900FBE0F901F901895FC01433008F037
:100AF00041C0862F85508430E8F5822F81508230A6
:100B0000C8F5442361F08091C20080628093C200E6
:100B1000423029F48091C20080618093C20022306B
:100B200029F48091C20088608093C2006530B9F0DA
:100B3000663011F0683028F08091C20082608093A6
:100B4000C200673060F08091C20084608093C20070
:100B5000693029F48091C10084608093C100F093D2
:100B6000C500E093C4008091C10088698093C100F2
:100B700080E0089581E0089520914E0230914F0267
:100B8000809150029091510240E02817390709F0F6
:100B900041E0842F089520914E0230914F028091C0
:100BA0005002909151022817390711F420E023C018
:100BB000E0914E02F0914F02E45AFD4F2081E09106
:100BC0004E02F0914F02E45AFD4F108280914E0286
:100BD00090914F028F5F914050F480914E0290911E
:100BE0004F02019690934F0280934E0204C01092E0
:100BF0004F0210924E02822F0895482F8091540286
:100C00009091550220915202309153020196821721
:100C10009307A1F38091520290915302892B39F4EA
:100C200080915402909155028F5F914039F3E09189
:100C30005402F0915502E45AFB4F408380915402D4
:100C4000909155028F5F914050F4809154029091A1
:100C500055020196909355028093540204C010925D
:100C600055021092540280915602813039F410924C
:100C700056028091C10080628093C1000895CF9395
:100C8000DF93EC0103C021960E94FD058881882333
:100C9000D1F7DF91CF9108951092C1001092C20058
:100CA0001092C5001092C40010924F0210924E0292
:100CB000109253021092520210925102109250025E
:100CC000109255021092540208951092B90088E4CF
:100CD0008093B8000895982F84EA8093BC00809197
:100CE000BC0087FFFCCF8091B900887F883021F05D
:100CF000803111F081E008959093BB0084E88093E7
:100D0000BC008091BC0087FFFCCF9091B900987F18
:100D1000983111F480E0089580E0903409F081E08A
:100D20000895982F44EA34E824E94093BC00809168
:100D3000BC0087FFFCCF8091B900887F883011F01C
:100D4000803199F79093BB003093BC008091BC0038
:100D500087FFFCCF8091B900887F803211F0883501
:100D600039F42093BC008091BC0084FDFCCFDDCF22
:100D700008950E946B06089584E98093BC008091D9
:100D8000BC0084FDFCCF08958093BB0084E8809371
:100D9000BC008091BC0087FFFCCF8091B90090E03F
:100DA000887F883209F091E0892F089584EC809340
:100DB000BC008091BC0087FFFCCF8091BB000895F0
:100DC00084E88093BC008091BC0087FFFCCF8091B9
:100DD000BB000895982F803110F090E008C0883053
:100DE00030F0985080917B00886080937B008091E8
:100DF0007C00892B80937C0080917A0080648093B2
:100E00007A00089580917A0090E026E09695879583
:100E10002A95E1F78170089580917A0086FD02C0DD
:100E200080E0089580917A00806480937A008091B8
:100E300079000895809164008E7F80936400109201
:100E40007C0080917C00806680937C0080917A0099
:100E5000806C80937A0080917A0086FFFCCF0E949C
:100E60000C070895EAE7F0E080818F7B8083E4E659
:100E7000F0E08081816080830895982F813011F4A3
:100E8000119A0895882311F411980895823019F465
:100E900082B1892782B90895129881E00E943D07A6
:100EA00085E08A95F1F7129A80E00E943D07089547
:100EB0001F93162F882311F0149A01C0149881E013
:100EC0000E943D071111139A85E08A95F1F780E0A1
:100ED0000E943D0713981F910895AF92BF92CF9241
:100EE000DF92EF92FF920F931F93CF93DF937C01DA
:100EF00000E011E097E0A92EB12C81E0C82ED12CA2
:100F0000812F847060E00E945807812F827060E01A
:100F10000E945807812F817060E00E945807C0E04E
:100F2000D0E0C5018C1B9D0B960102C0220F331F20
:100F30008A95E2F7F701EC0FFD1FE081E22360E004
:100F4000C73009F461E08E2F0E9458072196C830FF
:100F5000D10539F7173010F010E001C01F5F0F5FA7
:100F6000083071F6DF91CF911F910F91FF90EF90B4
:100F7000DF90CF90BF90AF900895159A81E00E94C6
:100F80003D0785E08A95F1F7159880E00E943D07BE
:100F900008951F9315E00EC081E00E943D07812F48
:100FA0008A95F1F7009908C080E00E943D07812FE3
:100FB0008A95F1F7009BF0CF1F9108951092570288
:100FC0000E944C070895DF92EF92FF920F931F93B8
:100FD000CF93DF93EC0181B18E6381B90898FF2430
:100FE000F394F09257020E944C07209721F0CE0113
:100FF0000E946D0717C088E090E00E94F2088C0103
:1010000080E1F801808311828AE58283F382148271
:10101000F58216828FEB8783C8010E946D07C80195
:101020000E949F090E94BD070E94C90780E090E4CA
:101030000E94F208F92ED82E282F3F2DE90125E035
:10104000E22E8E010050104C81E00E943D078BE0A3
:101050000E94EA068E2D8A95F1F70E940C0789936B
:1010600080E00E943D078E2D8A95F1F7C017D107C9
:1010700059F78D2D9F2DDF91CF911F910F91FF90EB
:10108000EF90DF900895DF92EF92FF920F931F93FE
:10109000CF93DF9380915702882331F480E090E072
:1010A0000E94E3077C0131C00E94BD070E94C9076E
:1010B00080E090E40E94F208182F092FE82EF92E04
:1010C0008BE00E94EA06812F902FEC0135E0D32EB1
:1010D0008E010050104C0E9402078823E1F30E9409
:1010E0000C07888381E00E943D078D2D8A95F1F7DA
:1010F00003C081E00E943D0780E00E943D07009907
:10110000F8CF2196C017D10731F7C701DF91CF91F2
:101110001F910F91FF90EF90DF9008950E942102A0
:1011200008950F931F939C01062F142FB9010E945D
:101130001802812F0E94B404802F602F0E948A031E
:101140001F910F9108959C01462F02C028563140EF
:1011500061E029363607D0F72115310519F420E072
:1011600030E018C08CE390E0BC01269FC001279FAF
:10117000900D369F900D112468E671E00E94DE0804
:101180009B01CB0168E671E00E94DE08892B11F01B
:101190002F5F3F4FC90160E80E94910808950E94A7
:1011A00035020895991B79E004C0991F961708F03D
:1011B000961B881F7A95C9F780950895AA1BBB1BBB
:1011C00051E107C0AA1FBB1FA617B70710F0A61B47
:1011D000B70B881F991F5A95A9F780959095BC0168
:1011E000CD010895CF93DF93BC018230910510F4B7
:1011F00062E070E0A0915E06B0915F06ED01E0E074
:10120000F0E040E050E021C088819981861797077F
:1012100069F48A819B81309719F09383828304C09B
:1012200090935F0680935E06FE0134C068177907CD
:1012300038F44115510519F08417950708F4AC01ED
:10124000FE018A819B819C01E9012097E9F6411505
:101250005105A9F1CA01861B970B049708F4BA013E
:10126000E0E0F0E02AC08D919C91119784179507DA
:10127000F9F46417750781F412968D919C91139778
:10128000309719F09383828304C090935F06809314
:101290005E06FD0132964FC0CA01861B970BFD0109
:1012A000E80FF91F6193719302978D939C9343C04C
:1012B000FD01828193819C01D9011097A1F6809153
:1012C0005C0690915D06892B41F480913B029091E0
:1012D0003C0290935D0680935C0640913D025091E4
:1012E0003E024115510541F44DB75EB78091390278
:1012F00090913A02481B590B20915C0630915D0693
:1013000024173507B0F4CA01821B930B8617970781
:1013100080F0AB014E5F5F4F8417950750F0420F8E
:10132000531F50935D0640935C06F90161937193DE
:1013300002C0E0E0F0E0CF01DF91CF910895CF93BC
:10134000DF93009709F450C0EC0122971B821A82A8
:10135000A0915E06B0915F06109709F140E050E061
:10136000AC17BD0708F1BB83AA83FE01219131911F
:10137000E20FF31FAE17BF0779F48D919C9111977F
:10138000280F391F2E5F3F4F3983288312968D9186
:101390009C9113979B838A834115510571F4D093D7
:1013A0005F06C0935E0620C012968D919C911397A4
:1013B000AD01009711F0DC01D3CFFA01D383C283D2
:1013C00021913191E20FF31FCE17DF0769F4888175
:1013D0009981280F391F2E5F3F4FFA0131832083F7
:1013E0008A819B8193838283DF91CF910895F894C2
:0213F000FFCF2D
:1013F2000A5245534554204D4521007879526F6277
:101402006F7420426574610A003129204472697642
:10141200696E670A0032292043616D6572610A00B4
:101422000B02190225020A000120006006000000DA
:00000001FF
