:100000000C9472000C9493000C9493000C94930045
:100010000C9493000C9493000C9493000C94AA03FA
:100020000C9401040C9493000C9493000C94930092
:100030000C9493000C9493000C9493000C949300F4
:100040000C9493000C9493000C9493000C949300E4
:100050000C9493000C9493000C9493000C949300D4
:100060000C9493000C94C7040C94FD040C9493001E
:100070000C9493000C9493000C9493000C949300B4
:100080000C9493000C9493000C9493000C949300A4
:100090000C9493000C9493000C9493000C94930094
:1000A0000C9493000C9493000C9493000C94930084
:1000B0000C9493000C9493000C9493000C94930074
:1000C0000C9493000C9493000C9493000C94930064
:1000D0000C9493000C9493000C9493000C94930054
:1000E0000C94930011241FBECFEFD1E2DEBFCDBF31
:1000F00000E00CBF12E0A0E0B2E0EAEEF2E100E0C6
:100100000BBF02C007900D92A032B107D9F716E0DD
:10011000A0E2B2E001C01D92A837B107E1F70E944A
:1001200095000C9473090C940000CF92DF92EF922B
:10013000FF920F931F93DF93CF93CDB7DEB728972E
:100140000FB6F894DEBF0FBECDBFDE011196EEE014
:10015000F2E088E001900D928150E1F70E943906AB
:100160000E940B0183E390E068E040E021E00E9400
:1001700049050E94EE06789480E29EE420E931E091
:10018000F9013197F1F70197D9F7CE0101960E9455
:10019000B7077C0100E010E080E4C82E8CE9D82E7F
:1001A000F701E00FF11F80810E94D101C601019784
:1001B000F1F70F5F1F4F80E40030180789F7C70180
:1001C0000E941B096E010894C11CD11C0E9490055D
:1001D0008823E1F30E949F058336B1F4C6010E9493
:1001E000B7077C0100E010E0F701E00FF11F80810C
:1001F0000E94D1050F5F1F4F80E400301807A1F760
:10020000C7010E941B09E2CF8F3301F780E092E023
:100210000E941306DBCF81B1806C81B9249A82B130
:10022000806C82B92C9A0895813041F0813018F0A9
:10023000823069F408C082B1805803C082B190E472
:10024000892782B9089585B190E1892785B90895F4
:10025000662369F0813039F0813018F0823099F4EA
:1002600004C017980895169808952C980895813021
:1002700039F0813018F0823031F404C0179A0895B3
:10028000169A08952C9A0895282F8A3048F46AE027
:100290000E946208905D909370021092710226C0D5
:1002A000843678F46AE00E946208805D8093700270
:1002B000822F0E946208905D9093710210927202E8
:1002C00015C064E60E946208805D80937002822FF0
:1002D0006AE00E946208805D80937102822F0E9412
:1002E0006208905D909372021092730280E792E030
:1002F00008951F93CF93DF93182FC0E0D0E020C064
:100300000E9490058823F9F012E00E94900588234E
:1003100031F00E949F05CC33D10540F003C012306C
:1003200079F411C010926F0281E00EC0FE01EC5C06
:10033000FD4F8A3019F4108280E006C08083219638
:100340001123F1F2E2CF83E0DF91CF911F91089565
:100350001F9387E60E943F060E94AA06182F0E945C
:10036000B4060E949006812F1F910895CF93DF93CA
:10037000EC0186E60E9465060AC08D3041F08A30A5
:1003800021F48DE00E9498068AE00E94980621964A
:100390008A912196882389F70E949006DF91CF9158
:1003A00008951F93182F86E60E946506812F0E94EC
:1003B00098060E9490061F910895EF92FF920F9366
:1003C0001F93DF93CF9300D00F92CDB7DEB700E03D
:1003D0007E010894E11CF11C0E94A801182F8823BB
:1003E000D9F38A3269F0833259F0053048F40E941B
:1003F000D101F701E00FF11D105310830F5FECCF17
:1004000086E192E00E94B601023081F0033018F4D8
:10041000013029F407C0033081F00430F1F040E0EE
:1004200050E037C08981482F50E033C089819AE07D
:10043000899FA00111248A810DC0998184E6989F2B
:10044000A00111248A812AE0829FC0011124480F53
:10045000591F8B81480F511D1CC0898190E028EEE7
:1004600033E0829FA001839F500D929F500D112475
:100470008A8124E6829FC0011124480F591F8C8174
:10048000480F511D8B812AE0829FC0011124480F23
:10049000591FCA010F900F900F900F90CF91DF91CD
:1004A0001F910F91FF90EF90089584B1806684B9F9
:1004B000EAE0F1E08081806C8083E4E0F1E080811B
:1004C000806C8083E0E8F0E08081806A80838081B6
:1004D00081608083E1E8F0E080818A608083EAE6E1
:1004E000F0E08081806F80838DB3806C8DBB089538
:1004F000EF92FF920F931F9390912102809120021F
:10050000981709F022C180912102882309F41DC1A6
:100510002091220230912302409124025091250221
:100520008091260290912702A0912802B091290281
:10053000281739074A075B0709F407C1809122028F
:1005400090912302A0912402B09125020297A10567
:10055000B1050CF4FAC0609121028091180281303B
:1005600021F0809118028230B1F58091180281301B
:1005700089F420912202309123024091240250916B
:1005800025028091260290912702A0912802B09125
:10059000290210C0209126023091270240912802A2
:1005A000509129028091220290912302A09124026D
:1005B000B0912502281B390B4A0B5B0B1216130650
:1005C000140615060CF449C02115310541055105E5
:1005D00009F4ABC076C080911802843029F0809174
:1005E0001802833009F0A1C0809118028130A9F46B
:1005F0008091220290912302A0912402B0912502C1
:10060000E0902602F0902702009128021091290222
:10061000E80EF91E0A1F1B1F1BC080912202909139
:100620002302A0912402B09125022091260230914C
:1006300027024091280250912902EE24FF248701CD
:10064000E81AF90A0A0B1B0BE21AF30A040B150B42
:100650001E141F04100611067CF520918A003091AB
:100660008B00462F50E0CA0149962817390768F4D5
:1006700080918A0090918B008F3F910530F480919A
:100680008A0090918B0001964CC0809188009091D7
:100690008900029708F449C08091880090918900F0
:1006A000495150404817590708F03FC080918800D1
:1006B0009091890001971CC0E114F1040105110516
:1006C000A1F12091880030918900462F50E0CA01A5
:1006D00049962817390788F48091880090918900FD
:1006E0008F3F910550F48091880090918900019688
:1006F000909389008093880018C080918A0090911F
:100700008B00029790F080918A0090918B00495164
:1007100050404817590748F480918A0090918B0007
:10072000019790938B0080938A001092260210927A
:10073000270210922802109229021092220210928F
:10074000230210922402109225021F910F91FF9014
:10075000EF9008951F920F920FB60F920BB60F9263
:1007600011242F933F934F935F936F937F938F93B6
:100770009F93AF93BF93EF93FF93809118028130C3
:1007800021F080911802843061F4809122029091CE
:100790002302A0912402B09125020196A11DB11D52
:1007A00013C080911802823021F0809118028330AA
:1007B00099F48091220290912302A0912402B09199
:1007C00025020197A109B109809322029093230287
:1007D000A0932402B09325020E947802FF91EF912A
:1007E000BF91AF919F918F917F916F915F914F9149
:1007F0003F912F910F900BBE0F900FBE0F901F9047
:1008000018951F920F920FB60F9211248F939F93FA
:10081000AF93BF9380911802813021F0809118022C
:10082000833061F48091260290912702A0912802E2
:10083000B09129020196A11DB11D13C0809118022B
:10084000823021F080911802843099F48091260240
:1008500090912702A0912802B09129020197A10945
:10086000B1098093260290932702A0932802B093A7
:100870002902BF91AF919F918F910F900FBE0F9062
:100880001F9018952FB7F89480932102609320024F
:100890008091210290E090938B0080938A00809158
:1008A000200290E0909389008093880010922202A9
:1008B0001092230210922402109225021092260216
:1008C0001092270210922802109229022FBF089539
:1008D0008FB7F894109289001092880010928B00C4
:1008E00010928A001092210210922002109222028D
:1008F00010922302109224021092250210922602D6
:100900001092270210922802109229028FBF089598
:10091000982F823099F0833018F48130C9F405C0E3
:10092000833019F08430A1F409C080910B018F73DA
:1009300080930B0180910B01806408C080910B01B2
:100940008F7380930B0180910B01806880930B0162
:10095000943028F4923070F49130B1F402C09430A5
:1009600099F4809105018F738093050180910501B1
:10097000806808C0809105018F7380930501809184
:1009800005018064809305019093180208951F92D9
:100990000F920FB60F920BB60F9211242F938F93D5
:1009A0009F93EF93FF93E0912C02F0912D028091A1
:1009B000C600EC58FD4F808380912C0290912D024F
:1009C0008F5F914050F480912C0290912D020196FE
:1009D00090932D0280932C0204C010922D0210924D
:1009E0002C02FF91EF919F918F912F910F900BBE51
:1009F0000F900FBE0F901F9018951F920F920FB679
:100A00000F920BB60F9211242F933F938F939F93C6
:100A1000EF93FF9320912E0230912F0280913002AC
:100A20009091310228173907F9F0E0912E02F091E8
:100A30002F02EC58FB4F80818093C60080912E02DC
:100A400090912F028F5F914050F480912E029091EF
:100A50002F02019690932F0280932E020DC01092C8
:100A60002F0210922E0208C081E080933202809102
:100A7000C1008F7D8093C100FF91EF919F918F9175
:100A80003F912F910F900BBE0F900FBE0F901F90B4
:100A90001895FC01433008F041C0862F8550843002
:100AA000E8F5822F81508230C8F5442361F08091AF
:100AB000C20080628093C200423029F48091C2005B
:100AC00080618093C200223029F48091C200886046
:100AD0008093C2006530B9F0663011F0683028F0BC
:100AE0008091C20082608093C200673060F0809184
:100AF000C20084608093C200693029F48091C100F3
:100B000084608093C100F093C500E093C40080919D
:100B1000C10088698093C10080E0089581E0089554
:100B200020912A0230912B0280912C0290912D026B
:100B300040E02817390709F041E0842F08952091FB
:100B40002A0230912B0280912C0290912D022817BD
:100B5000390711F420E023C0E0912A02F0912B0222
:100B6000EC58FD4F2081E0912A02F0912B02EC58C5
:100B7000FD4F108280912A0290912B028F5F91404D
:100B800050F480912A0290912B02019690932B02AF
:100B900080932A0204C010922B0210922A02822F04
:100BA0000895482F809130029091310220912E02B9
:100BB00030912F02019682179307A1F380912E02A4
:100BC00090912F02892B39F480913002909131025B
:100BD0008F5F914039F3E0913002F0913102EC588F
:100BE000FB4F408380913002909131028F5F9140A2
:100BF00050F480913002909131020196909331022D
:100C00008093300204C01092310210923002809121
:100C10003202813039F4109232028091C100806238
:100C20008093C1000895CF93DF93EC0103C0219618
:100C30000E94D10588818823D1F7DF91CF91089553
:100C40001092C1001092C2001092C5001092C40010
:100C500010922B0210922A0210922F0210922E0252
:100C600010922D0210922C0210923102109230023A
:100C700008951092B90088E48093B8000895982FE1
:100C800084EA8093BC008091BC0087FFFCCF8091F8
:100C9000B900887F883021F0803111F081E008951B
:100CA0009093BB0084E88093BC008091BC0087FFD8
:100CB000FCCF9091B900987F983111F480E00895AD
:100CC00080E0903409F081E00895982F44EA34E8F8
:100CD00024E94093BC008091BC0087FFFCCF809149
:100CE000B900887F883011F0803199F79093BB006C
:100CF0003093BC008091BC0087FFFCCF8091B9008D
:100D0000887F803211F0883539F42093BC008091BF
:100D1000BC0084FDFCCFDDCF08950E943F060895FE
:100D200084E98093BC008091BC0084FDFCCF0895D1
:100D30008093BB0084E88093BC008091BC0087FF57
:100D4000FCCF8091B90090E0887F883209F091E073
:100D5000892F089584EC8093BC008091BC0087FFAC
:100D6000FCCF8091BB00089584E88093BC00809103
:100D7000BC0087FFFCCF8091BB000895982F803185
:100D800010F090E008C0883030F0985080917B00DF
:100D9000886080937B0080917C00892B80937C000D
:100DA00080917A00806480937A00089580917A001F
:100DB00090E026E0969587952A95E1F78170089551
:100DC00080917A0086FD02C080E0089580917A00CB
:100DD000806480937A008091790008958091640006
:100DE0008E7F8093640010927C0080917C008066EE
:100DF00080937C0080917A00806C80937A0080914F
:100E00007A0086FFFCCF0E94E0060895EAE7F0E052
:100E100080818F7B8083E4E6F0E080818160808345
:100E20000895982F813011F4119A0895882311F4B0
:100E300011980895823019F482B1892782B90895F2
:100E4000129881E00E94110785E08A95F1F7129AC5
:100E500080E00E94110708951F93162F882311F038
:100E6000149A01C0149881E00E9411071111139A7D
:100E700085E08A95F1F780E00E94110713981F9191
:100E80000895AF92BF92CF92DF92EF92FF920F93AD
:100E90001F93CF93DF937C0100E011E097E0A92E30
:100EA000B12C81E0C82ED12C812F847060E00E948B
:100EB0002C07812F827060E00E942C07812F8170A7
:100EC00060E00E942C07C0E0D0E0C5018C1B9D0BA8
:100ED000960102C0220F331F8A95E2F7F701EC0F4B
:100EE000FD1FE081E22360E0C73009F461E08E2F4E
:100EF0000E942C072196C830D10539F7173010F021
:100F000010E001C01F5F0F5F083071F6DF91CF91D5
:100F10001F910F91FF90EF90DF90CF90BF90AF9017
:100F20000895159A81E00E94110785E08A95F1F7EE
:100F3000159880E00E94110708951F9315E00EC0D8
:100F400081E00E941107812F8A95F1F7009908C06E
:100F500080E00E941107812F8A95F1F7009BF0CF66
:100F60001F910895109233020E9420070895DF9286
:100F7000EF92FF920F931F93CF93DF93EC0181B118
:100F80008E6381B90898FF24F394F09233020E9493
:100F90002007209721F0CE010E94410717C088E06A
:100FA00090E00E946E088C0180E1F801808311823C
:100FB0008AE58283F3821482F58216828FEB87831F
:100FC000C8010E944107C8010E941B090E949107A5
:100FD0000E949D0780E090E40E946E08F92ED82EB2
:100FE000282F3F2DE90125E0E22E8E010050104C04
:100FF00081E00E9411078BE00E94BE068E2D8A952B
:10100000F1F70E94E006899380E00E9411078E2D7F
:101010008A95F1F7C017D10759F78D2D9F2DDF91D4
:10102000CF911F910F91FF90EF90DF900895DF9285
:10103000EF92FF920F931F93CF93DF938091330230
:10104000882331F480E090E00E94B7077C0131C032
:101050000E9491070E949D0780E090E40E946E0824
:10106000182F092FE82EF92E8BE00E94BE06812F43
:10107000902FEC0135E0D32E8E010050104C0E94D1
:10108000D6068823E1F30E94E006888381E00E946F
:1010900011078D2D8A95F1F703C081E00E94110799
:1010A00080E00E9411070099F8CF2196C017D10760
:1010B00031F7C701DF91CF911F910F91FF90EF9012
:1010C000DF900895991B79E004C0991F961708F0E6
:1010D000961B881F7A95C9F780950895CF93DF9363
:1010E000BC018230910510F462E070E0A0917606B8
:1010F000B0917706ED01E0E0F0E040E050E021C083
:10110000888199818617970769F48A819B81309736
:1011100019F09383828304C09093770680937606B8
:10112000FE0134C06817790738F44115510519F0EC
:101130008417950708F4AC01FE018A819B819C010C
:10114000E9012097E9F641155105A9F1CA01861B6D
:10115000970B049708F4BA01E0E0F0E02AC08D9103
:101160009C91119784179507F9F46417750781F41A
:1011700012968D919C911397309719F093838283E7
:1011800004C09093770680937606FD0132964FC097
:10119000CA01861B970BFD01E80FF91F619371933C
:1011A00002978D939C9343C0FD01828193819C01A2
:1011B000D9011097A1F68091740690917506892B3C
:1011C00041F480911B0290911C02909375068093CC
:1011D000740640911D0250911E024115510541F4C3
:1011E0004DB75EB78091190290911A02481B590BB6
:1011F000209174063091750624173507B0F4CA01A2
:10120000821B930B8617970780F0AB014E5F5F4FF1
:101210008417950750F0420F531F50937506409363
:101220007406F9016193719302C0E0E0F0E0CF0130
:10123000DF91CF910895CF93DF93009709F450C0C9
:10124000EC0122971B821A82A0917606B091770654
:10125000109709F140E050E0AC17BD0708F1BB83DF
:10126000AA83FE0121913191E20FF31FAE17BF0750
:1012700079F48D919C911197280F391F2E5F3F4F64
:101280003983288312968D919C9113979B838A832F
:101290004115510571F4D0937706C093760620C0AE
:1012A00012968D919C911397AD01009711F0DC017E
:1012B000D3CFFA01D383C28321913191E20FF31F7F
:1012C000CE17DF0769F488819981280F391F2E5FB7
:1012D0003F4FFA01318320838A819B8193838283EC
:0A12E000DF91CF910895F894FFCF3D
:1012EA007879526F626F7420424554410A000E06A3
:1012FA000001000107800A000120007806000000B2
:00000001FF
