:100000000C941B010C943C010C943C010C943C019D
:100010000C943C010C943C010C943C010C945D0745
:100020000C94E8060C943C010C943C010C943C01AB
:100030000C943C010C943C010C943C010C943C014C
:100040000C943C010C943C010C943C010C943C013C
:100050000C943C010C943C010C943C010C943C012C
:100060000C943C010C943A080C9471080C943C01DB
:100070000C943C010C943C010C943C010C943C010C
:100080000C943C010C943C010C943C010C943C01FC
:100090000C943C010C943C010C943C010C943C01EC
:1000A0000C943C010C943C010C943C010C943C01DC
:1000B0000C943C010C943C010C943C010C943C01CC
:1000C0000C943C010C943C010C943C010C943C01BC
:1000D0000C943C010C943C010C943C010C943C01AC
:1000E0000C943C010A7879526F626F7420426574F7
:1000F00061000A31292044726976696E67000A320C
:10010000292043616D657261000A332920426C75B4
:1001100065746F6F7468000A342920536572766FB6
:100120007300E400F200FE00090117010A302920E3
:100130004E6578742070616765000A446972656372
:1001400074696F6E3A2032203420362038000A4617
:100150006F727761726473000A4C656674000A52AC
:1001600069676874000A4261636B77617264730047
:100170000A44697374616E63653F20000A446567D1
:10018000726565733F20000A536572766F20436F76
:100190006E74726F6C0A312955702D446F776E0A38
:1001A00032294C6566742D52696768740A30294596
:1001B000786974000A552D443F20000A4C2D523FA7
:1001C00020000A496E697469616C697A696E6720FA
:1001D00043616D657261000A496E697469616C6999
:1001E0007A6564000A7879526F622047616D6562B2
:1001F0006F792043616D65726100313A2053656EFD
:100200006420426C7565746F6F7468000A323A201E
:100210005072696E742068657265000A53656E6479
:10022000696E672E2E2E007879526F626F742042AD
:100230004554410A000011241FBECFEFD1E2DEBFBA
:10024000CDBF00E00CBF12E0A0E0B2E0ECEDFBE1BE
:1002500000E00BBF02C007900D92A433B107D9F79D
:1002600016E0A4E3B2E001C01D92A839B107E1F79E
:100270000E943E010C94EC0D0C9400000E94E003DF
:1002800089E190E068E040E021E00E94BE080E9421
:10029000D40B0E94860A78940E94FD0380E092E0CD
:1002A0000E94AE090E945B0C82E00E94E903FACF33
:1002B0008EE092E00E9498040E94C0048823C1F35B
:1002C0000895CF93DF938BE492E067E871E00E949A
:1002D000BF0D8BE492E00E9498048FEF99E6A8E1AD
:1002E00081509040A040E1F700C000000E94C0048F
:1002F0008823E1F390E0C0978130910539F0823096
:10030000910531F1009709F44EC0DDCF8BE492E006
:1003100064EB71E00E94BF0D8BE492E00E949804B0
:100320008FEF91EEA4E081509040A040E1F700C033
:1003300000000E94CE04EC018F3F910509F0C8F740
:100340000E943E050E9498048C2F0E94C40B21C07D
:100350008BE492E06BEB71E00E94BF0D8BE492E0C6
:100360000E9498048FEF91EEA4E081509040A0404D
:10037000E1F700C000000E94CE04EC018F3F910520
:1003800009F0C8F70E943E050E9498048C2F0E9435
:10039000CC0B8FEF93EDA0E381509040A040E1F7AC
:1003A00000C0000090CFDF91CF9108950F931F936D
:1003B000CF93DF938BE492E06AE371E00E94BF0D7C
:1003C0008BE492E00E9498048FEF91EEA4E08150BC
:1003D0009040A040E1F700C000000E94C0048823C4
:1003E000E1F390E0C09784309105E9F08530910504
:1003F0003CF4009709F473C082309105D9F607C028
:1004000086309105E1F088309105A1F624C08BE497
:1004100092E06EE471E00E94BF0D8BE492E00E94D6
:10042000980411E023C08BE492E068E571E00E943B
:10043000BF0D8BE492E00E94980414E017C08BE497
:1004400092E06EE571E00E94BF0D8BE492E00E94A5
:10045000980413E00BC08BE492E065E671E00E9423
:10046000BF0D8BE492E00E94980412E08FEF91EEB2
:10047000A4E081509040A040E1F700C00000012FAF
:100480000350023028F48BE492E06CE771E004C082
:100490008BE492E060E771E00E94BF0D8BE492E094
:1004A0000E9498048FEF91EEA4E081509040A0400C
:1004B000E1F700C000000E94CE04EC010E943E055E
:1004C0000E949804023028F4CE01612F0E94F80B9C
:1004D00071CFCE0168EC412F0E94DF0B6BCFDF9113
:1004E000CF911F910F9108950F931F93CF93DF9397
:1004F00010E003E001C010E086E0189FE001112445
:10050000FE01EE5DFE4F259134918BE492E0B9013E
:100510000E94BF0D8BE492E00E9498048FEF93EC51
:10052000A9E081509040A040E1F700C00000FE012A
:10053000EC5DFE4F259134918BE492E0B9010E946D
:10054000BF0D8BE492E00E9498048FEF93ECA9E03A
:1005500081509040A040E1F700C00000109FC00112
:10056000112483309105C1F0CA5DDE4FFE01259153
:1005700034918BE492E0B9010E94BF0D8BE492E0CC
:100580000E9498048FEF93ECA9E081509040A04026
:10059000E1F700C0000004C08CE192E00E949804E2
:1005A0008BE492E06CE271E00E94BF0D8BE492E07C
:1005B0000E9498048FEF93ECA9E081509040A040F6
:1005C000E1F700C000000E94C00490E08033910574
:1005D00029F4112309F08FCF11E08ECF8F339105CD
:1005E00009F48ACF8A32910509F486CF83329105C6
:1005F00009F482CF009709F47FCFC0978530910529
:1006000008F07ACFFC01EE0FFF1FEF5DFD4F019068
:10061000F081E02D309709F46FCF19956DCFCF930E
:10062000DF93C0E0D0E40E949B0B0E9464092197F5
:10063000D1F7DF91CF910895FF920F931F93CF933E
:10064000DF938CE192E00E949804FF24C0E0D0E0A8
:100650008E01037010700115110551F48F2D805E0D
:100660000E9434048F2D8E3510F4F39401C0FF24C2
:100670008EE192E00E9498040E949B0B0E94490523
:100680000E9498040330110521F080E20E94340496
:1006900009C08FEF90E7A2E081509040A040E1F7C1
:1006A00000C00000219690E4C030D90789F6DF91A0
:1006B000CF911F910F91FF9008958BE492E062EC2F
:1006C00071E00E94BF0D8BE492E00E94980480E0EC
:1006D00090E00E945B0B8BE492E067ED71E00E947A
:1006E000BF0D8BE492E00E9498048FEF91EEA4E09E
:1006F00081509040A040E1F700C000008BE492E000
:1007000064EE71E00E94BF0D8BE492E00E949804B9
:100710008FEF91EEA4E081509040A040E1F700C03F
:1007200000008BE492E06AEF71E00E94BF0D8BE461
:1007300092E00E9498048FEF91EEA4E081509040E7
:10074000A040E1F700C000008BE492E06CE072E0B2
:100750000E94BF0D8BE492E00E9498048FEF91EE0F
:10076000A4E081509040A040E1F700C000000E944A
:10077000C0048823E1F38053813031F08130F8F0F8
:10078000823009F0BBCF0FC00E948D0B8BE492E04A
:100790006BE172E00E94BF0D8BE492E00E9498042E
:1007A0000E940F03ABCF0E948D0B0E941C038FEFA2
:1007B00093EDA0E381509040A040E1F79DCF0895D4
:1007C00081B1806C81B9249A82B1806C82B92C9AF3
:1007D0000895813041F0813018F0823069F408C00A
:1007E00082B1805803C082B190E4892782B908950C
:1007F00085B190E1892785B90895CF93C0E080E065
:100800000E94E90381E00E94E90382E00E94E9037B
:10081000C33049F08FE792E4A0E181509040A040BE
:10082000E1F700C00000CF5FC43049F7CF910895D1
:10083000662369F0813039F0813018F0823099F404
:1008400004C017980895169808952C98089581303B
:1008500039F0813018F0823031F404C0179A0895CD
:10086000169A08952C9A0895CF93C82F82E40E9477
:10087000FF098C2F0E94310A0E94290ACF91089506
:10088000CF93C82F8BE10E9434048CE40E9434047F
:10089000CC2339F480E00E943404809193028E7F4F
:1008A00006C081E00E9434048091930281608093AD
:1008B0009302CF9108959091930281E090FD80E0A2
:1008C0000E9440048FEF99E6A8E181509040A0403B
:1008D000E1F700C000009091930281E090FD80E07C
:1008E0000E9440048FEF99E6A8E181509040A0401B
:1008F000E1F700C00000089581E0809393028CE04E
:100900000E9434048BE10E9434048FE40E9434047A
:1009100081E00E94340481E00E9434048BE10E9453
:1009200034048BE70E94340481E00E94400408955F
:100930000F931F93DF93CF930F92CDB7DEB7082F9E
:1009400082E499830E94FF099981402F592F8A01DF
:100950000AC08D3041F08A3021F48DE00E94310AC6
:100960008AE00E94310AF80181918F01882389F77A
:100970000E94290A0F90CF91DF911F910F91089546
:10098000CF9383E40E94DA090E94420AC82F0E9492
:100990004C0A0E94290A8C2FCF9108950F931F9320
:1009A000DF93CF9300D00F920F92CDB7DEB790E0D8
:1009B0008E010F5F1F4F9D830E94C0049D8188237D
:1009C000D1F38A3259F0833249F0953038F4F80186
:1009D000E90FF11D805380839F5FEDCF923069F066
:1009E000933018F49130E9F505C0933069F09430F4
:1009F000C1F51AC0298130E036C029818AE0289FDC
:100A0000900111248A810DC0298184E6289F9001DC
:100A100011249A818AE0989FC0011124280F391F60
:100A20008B81280F311D1FC0498150E088EE93E073
:100A3000489F9001499F300D589F300D11249A8195
:100A400084E6989FC0011124280F391F8C81280F3C
:100A5000311D9B818AE0989FC0011124280F391F06
:100A600002C020E030E0C9010F900F900F900F906E
:100A70000F90CF91DF911F910F9108956BE872E075
:100A80004AE050E00E94C60D089590E00E943E05A5
:100A9000089590E06BE872E040E150E00E94C60DDE
:100AA000089570933F0260933E02909341028093B9
:100AB0004002089580913E0290913F02009751F4C8
:100AC000209140023091410281E02115310519F059
:100AD00080E0089580E0089584B1806684B9EAE0FA
:100AE000F1E08081806C8083E4E0F1E08081806CC3
:100AF0008083E0E8F0E08081806A8083808181608B
:100B00008083E1E8F0E080818A608083EAE6F0E0BB
:100B10008081806F80838DB3806C8DBB0E94E003E9
:100B200008959091350280913402981709F014C10C
:100B300080913502882309F40FC12091360230914B
:100B40003702409138025091390280913A029091D7
:100B50003B02A0913C02B0913D02281739074A0799
:100B60005B0709F4F9C08091360290913702A09199
:100B70003802B091390282309105A105B1050CF41B
:100B8000EBC06091350280912B02813021F0809181
:100B90002B02823031F580912B02813089F48091D3
:100BA000360290913702A0913802B091390220911B
:100BB0003A0230913B0240913C0250913D024AC0C2
:100BC00080913A0290913B02A0913C02B0913D028B
:100BD000209136023091370240913802509139020B
:100BE00039C080912B02843029F080912B02833010
:100BF00009F0A2C080912B028430A9F42091360222
:100C000030913702409138025091390280913A0276
:100C100090913B02A0913C02B0913D02820F931F44
:100C2000A41FB51F1BC08091360290913702A0917E
:100C30003802B091390220913A0230913B02409142
:100C40003C0250913D02B095A095909581959F4FA3
:100C5000AF4FBF4F821B930BA40BB50B1816190691
:100C60001A061B0684F540918A0050918B00862F4E
:100C700090E09C01275E3F4F4217530768F4209194
:100C80008A0030918B002F3F310530F480918A002B
:100C900090918B0001964CC0209188003091890082
:100CA0002230310508F448C0209188003091890035
:100CB00049978217930708F03FC080918800909170
:100CC000890001971CC00097A105B105A9F14091C9
:100CD000880050918900862F90E09C01275E3F4F4D
:100CE0004217530788F420918800309189002F3FE4
:100CF000310550F48091880090918900019690937D
:100D000089008093880018C020918A0030918B0060
:100D10002230310588F020918A0030918B0049976C
:100D20008217930748F480918A0090918B00019775
:100D300090938B0080938A0010923A0210923B02AB
:100D400010923C0210923D0210923602109237022D
:100D500010923802109239020895CF93C62F9FB790
:100D6000F89480933502609334022091350230E08C
:100D700030938B0020938A002091340230E030932E
:100D80008900209388001092360210923702109248
:100D900038021092390210923A0210923B021092DD
:100DA0003C0210923D029FBF882319F080E061E071
:100DB00002C080E060E00E941804CC2319F081E0BA
:100DC00061E002C081E060E00E941804CF910895C4
:100DD0001F920F920FB60F920BB60F9211242F9302
:100DE0003F934F935F936F937F938F939F93AF93B3
:100DF000BF93EF93FF9380912B02813021F080917C
:100E00002B02833061F480913A0290913B02A091D1
:100E10003C02B0913D020196A11DB11D13C080910D
:100E20002B02823021F080912B02843099F4809142
:100E30003A0290913B02A0913C02B0913D02019791
:100E4000A109B10980933A0290933B02A0933C021E
:100E5000B0933D0280914002909141020097D1F001
:100E600080914002909141020197909341028093BA
:100E700040028091400290914102009759F41092F3
:100E800035026091340280E00E94AD0680E060E0AF
:100E90000E941804FF91EF91BF91AF919F918F91A4
:100EA0007F916F915F914F913F912F910F900BBE6A
:100EB0000F900FBE0F901F9018951F920F920FB6B4
:100EC0000F920BB60F9211242F933F934F935F9382
:100ED0006F937F938F939F93AF93BF93EF93FF9302
:100EE00080912B02813021F080912B02843061F4BB
:100EF0008091360290913702A0913802B091390268
:100F00000196A11DB11D13C080912B02823021F0EA
:100F100080912B02833099F48091360290913702B0
:100F2000A0913802B09139020197A109B1098093CB
:100F3000360290933702A0933802B0933902809121
:100F40003E0290913F020097D1F080913E02909135
:100F50003F02019790933F0280933E0280913E02B0
:100F600090913F02009759F410923402809135021B
:100F700060E00E94AD0681E060E00E9418040E94DB
:100F80009105FF91EF91BF91AF919F918F917F91CB
:100F90006F915F914F913F912F910F900BBE0F90EA
:100FA0000FBE0F901F9018958FB7F89410928B007A
:100FB00010928A00109289001092880010923502D7
:100FC00010923402109236021092370210923802B8
:100FD0001092390210923A0210923B0210923C0297
:100FE00010923D028FBF80E060E00E94180481E013
:100FF00060E00E9418040895823099F0833018F45C
:101000008130C9F405C0833019F08430A1F409C0DF
:1010100090910B019F7390930B0190910B01906441
:1010200008C090910B019F7390930B0190910B015D
:10103000906890930B01843028F4823070F48130F2
:10104000B1F402C0843099F4909105019F7390939C
:10105000050190910501906808C0909105019F736A
:101060009093050190910501906490930501809300
:101070002B0208951F920F920FB60F920BB60F928C
:1010800011242F938F939F93EF93FF93E09144024A
:10109000F09145028091C600EC56FD4F808380910F
:1010A00044029091450221E08F3F920750F48091D5
:1010B0004402909145020196909345028093440228
:1010C00004C01092450210924402FF91EF919F914B
:1010D0008F912F910F900BBE0F900FBE0F901F900E
:1010E00018951F920F920FB60F920BB60F92112404
:1010F0002F933F938F939F93EF93FF9320914602FB
:10110000309147028091480290914902281739078F
:1011100001F1E0914602F0914702EC56FB4F8081CD
:101120008093C600809146029091470221E08F3F54
:10113000920750F480914602909147020196909355
:101140004702809346020DC0109247021092460259
:1011500008C081E080932C028091C1008F7D809334
:10116000C100FF91EF919F918F913F912F910F902F
:101170000BBE0F900FBE0F901F9018954330D0F507
:10118000362F35503430B0F5322F31503230A0F593
:10119000442361F03091C20030623093C20042308B
:1011A00029F43091C20030613093C200223029F41A
:1011B0002091C20028602093C200653081F0663023
:1011C00011F0683039F42091C20022602093C200EF
:1011D000663029F02091C20024602093C2009093D1
:1011E000C5008093C4008091C10088698093C100CC
:1011F00080E0089581E0089581E0089540914202E1
:1012000050914302209144023091450281E04217FF
:10121000530709F480E0089520914202309143027F
:1012200080914402909145022817390731F1E091ED
:101230004202F0914302EC56FD4F8081E091420260
:10124000F0914302EC56FD4F108220914202309102
:10125000430291E02F3F390758F420914202309128
:1012600043022F5F3F4F3093430220934202089581
:101270001092430210924202089580E008958091F6
:10128000480290914902209146023091470201960E
:101290008217930799F08091460290914702009738
:1012A00081F4209148023091490281E090E041E0D0
:1012B0002F3F340741F080E090E0089581E090E016
:1012C000089580E090E0089520914802309149020D
:1012D00040914602509147022F5F3F4F2417350738
:1012E00099F320914602309147022115310541F4CE
:1012F000209148023091490291E02F3F390721F3B4
:10130000E0914802F0914902EC56FB4F80838091B6
:1013100048029091490221E08F3F920750F480915A
:1013200048029091490201969093490280934802A5
:1013300004C0109249021092480280912C02813020
:1013400061F410922C028091C10080628093C100F0
:101350008091C00080628093C0000895CF93DF9396
:10136000C82FD92F02C00E94640989918823D9F718
:10137000DF91CF9108951092C1001092C200109297
:10138000C5001092C40010924302109242021092C3
:1013900047021092460210924502109244021092A7
:1013A00049021092480208951092B90088E480938F
:1013B000B800089594EA9093BC009091BC0097FF08
:1013C000FCCF9091B900987F983011F0903199F44A
:1013D0008093BB0084E88093BC008091BC0087FFB1
:1013E000FCCF9091B900987F983139F081E090342A
:1013F00029F480E0089581E0089580E0089544EAAA
:1014000034E824E94093BC009091BC0097FFFCCFE6
:101410009091B900987F983011F0903199F78093AE
:10142000BB003093BC009091BC0097FFFCCF909123
:10143000B900987F903211F0983539F42093BC00B0
:101440009091BC0094FDFCCFDDCF08950E94DA0995
:10145000089584E98093BC008091BC0084FDFCCF9A
:1014600008958093BB0084E88093BC008091BC0009
:1014700087FFFCCF9091B900987F81E0983209F402
:1014800080E0089584EC8093BC008091BC0087FFCD
:10149000FCCF8091BB00089584E88093BC008091CC
:1014A000BC0087FFFCCF8091BB000895803148F4D9
:1014B000883040F0885090917B00986090937B003A
:1014C00001C080E090917C00982B90937C008091EB
:1014D0007A00806480937A00089590917A0081E088
:1014E00096FD80E00895CF93C82F0E946D0A88234F
:1014F00051F080917900CC2339F090917A0090647A
:1015000090937A0001C080E0CF91089580916400AB
:101510008E7F8093640080E680937C0080917A00C7
:10152000806C80937A000E946D0A8823E1F380E04A
:101530000E94730A0895EAE7F0E080818F7B808340
:10154000A4E6B0E08C9181608C9380818F7780835A
:10155000089595E39A95F1F70000813011F4119AFE
:1015600009C0882311F4119805C0823019F492B192
:10157000982792B985E38A95F1F7000008951298AB
:1015800081E00E94A90A85E38A95F1F70000129A8A
:1015900080E00E94A90A0895DF93CF930F92CDB700
:1015A000DEB7882311F0149A01C0149881E0698392
:1015B0000E94A90A69816111139A85E38A95F1F75E
:1015C000000080E00E94A90AE5E3EA95F1F7000037
:1015D00013980F90CF91DF910895AF92BF92DF9251
:1015E000EF92FF920F931F93DF93CF930F92CDB79C
:1015F000DEB75C01DD2481E0E82EF12C8D2D8470B6
:1016000060E00E94CC0A8D2D827060E00E94CC0ABE
:101610008D2D817060E00E94CC0A07E010E090E020
:101620009701002E02C0220F331F0A94E2F7F50142
:101630008081822361E0973009F060E099830E9405
:10164000CC0A99819F5F01501040983049F7D3949C
:101650000894A11CB11CFD2DF83081F60F90CF919C
:10166000DF911F910F91FF90EF90DF90BF90AF90AF
:101670000895159A81E00E94A90A85E38A95F1F7F9
:101680000000159880E00E94A90A08950EC081E02C
:101690000E94A90A85E38A95F1F7000080E00E9484
:1016A000A90A85E38A95F1F70000009BF0CF089521
:1016B00080B1817008951F93CF93DF93EC0181B1C6
:1016C0008E6381B9089811E010934A020E94BF0A04
:1016D000209721F0CE010E94ED0A17C088E090E02B
:1016E0000E948C0CEC018FE7888382E089831A8248
:1016F0008AE58B831C831D821E8384E08F83CE0149
:101700000E94ED0ACE010E94260D0E94390B0E9414
:10171000460BDF91CF911F91089580914A02882353
:1017200029F480E090E00E945B0B08950E94390B41
:101730000E94460B089580B180FD02C00E948D0B6F
:1017400081E00E94A90A80E00E94A90A8BE00E9421
:10175000560A0E946D0A8823E1F380E00E94730A12
:10176000089510924A020E94BF0A0E949B0A08959F
:1017700084B5836084BD84B5806A84BD85B5856089
:1017800085BD279A9D9A08959FE0899FC0011124E5
:10179000892F805F87BD08959FE0899FC001112434
:1017A000892F805F88BD08950E946C050E94B80B48
:1017B00084E60E94CC0B80E00E94C40B08951F9326
:1017C000DF93CF930F92CDB7DEB79C01162FB901EF
:1017D00049830E9451054981842F0E94FC07812F73
:1017E000612F0E94AD060F90CF91DF911F91089558
:1017F0009C01462F02C02856314081E02936380727
:10180000D0F72115310579F0ECE3F0E02E9FC0010F
:101810002F9F900D3E9F900D112468E671E00E946D
:10182000780C9B0102C020E030E0C90160E80E9412
:10183000DF0B08950E945A050895EF92FF920F93CF
:101840001F93DF93CF93CDB7DEB728970FB6F894E9
:10185000DEBF0FBECDBF8E010F5F1F4F89E0E82EA8
:10186000F12CEC0EFD1E0E94FE088823E1F30E947D
:101870000C09F80181938F01EE15FF05A1F7CE0148
:1018800001960E945B0B00E010E40E949B0B0E94FB
:10189000640901501040C9F70E94B10B28960FB699
:1018A000F894DEBF0FBECDBFCF91DF911F910F9196
:1018B000FF90EF9008950E94FE088823C1F00E94D7
:1018C0000C09833679F0803891F08F3371F48BE412
:1018D00092E067E272E00E94BF0D8BE492E00E940A
:1018E000AE0908950E941D0C08950E946409089590
:1018F000AA1BBB1B51E107C0AA1FBB1FA617B70736
:1019000010F0A61BB70B881F991F5A95A9F7809551
:101910009095BC01CD010895CF93DF93823091055E
:1019200010F482E090E0E0919606F091970640E096
:1019300050E020E030E026C06081718168177907AF
:10194000E0F06817790781F48281938121153105D0
:1019500031F0D90113969C938E9312972BC09093DC
:1019600097068093960626C04115510519F0641715
:10197000750718F4AB01E901DF019F0172816381F2
:10198000E72FF62F3097C1F64115510501F1481B9D
:10199000590B4430510580F412968D919C91139708
:1019A000209719F09B838A8304C0909397068093B5
:1019B0009606FD01329646C0FD01E40FF51F8193A6
:1019C00091934250504011965C934E933BC02091AE
:1019D0009406309195062115310541F420912F028E
:1019E0003091300230939506209394062091310275
:1019F000309132022115310541F42DB73EB74091A7
:101A00002D0250912E02241B350BE0919406F0918B
:101A10009506E217F307A0F42E1B3F0B2817390792
:101A200078F0AC014E5F5F4F2417350748F04E0F3A
:101A30005F1F50939506409394068193919302C043
:101A4000E0E0F0E0CF01DF91CF910895CF93DF93F5
:101A5000009709F491C0FC013297138212826091C1
:101A60009606709197066115710581F42081318188
:101A7000280F391F8091940690919506821793073D
:101A800099F5F0939506E093940676C0DB0180E02B
:101A900090E002C0CD01D901AE17BF0748F41296FD
:101AA0002D913C91139721153105A1F7CD0121C04E
:101AB000B383A283EF01499159919E01240F351FF1
:101AC000A217B30779F42D913C911197240F351F7C
:101AD0002E5F3F4F3183208312962D913C911397B7
:101AE00033832283009729F4F0939706E0939606B8
:101AF00043C0DC011396FC93EE9312974D915D91D8
:101B0000A40FB51FEA17FB0769F420813181240F68
:101B1000351F2E5F3F4FEC013983288322813381AB
:101B20003B832A83E0E0F0E002C0FB01BC01DB0163
:101B300012968D919C9113970097B9F79B012E5F98
:101B40003F4F8D919C911197820F931F4091940666
:101B5000509195064817590779F4309729F4109257
:101B600097061092960602C01382128222503040CD
:101B70003093950620939406DF91CF910895FB0151
:101B8000DC0105900D920020E1F70895FB019F0113
:101B9000423074F0453264F4642F77270E94780C49
:101BA000805D8A330CF0895D8193CB010097A1F7AA
:101BB0001082C9010C94DC0DDC01FC01672F7191CE
:101BC0007723E1F7329704C07C916D937083629123
:0C1BD000AE17BF07C8F30895F894FFCFCC
:101BDC00496E697469616C697A6564210A000A420C
:101BEC006C7565746F6F74682E2E2E000A00307839
:101BFC00000000D6015D035801610101012000982D
:041C0C0006000000CE
:00000001FF
