:100000000C94A4000C94C5000C94C5000C94C5007D
:100010000C94C5000C94C5000C94C5000C94C50745
:100020000C9450070C94C5000C94C5000C94C500AA
:100030000C94C5000C945F0C0C94C5000C94C50086
:100040000C94C5000C94C5000C94C5000C94C5001C
:100050000C94C5000C94920B0C94C5000C94C50034
:100060000C94C5000C943C080C9473080C94C500C7
:100070000C94C5000C94C5000C94C5000C94C500EC
:100080000C94C5000C94C5000C94C5000C94C500DC
:100090000C94C5000C94C5000C94C5000C94C500CC
:1000A0000C94C5000C94C5000C94C5000C94C500BC
:1000B0000C94C5000C94C5000C94C5000C94C500AC
:1000C0000C94C5000C94C5000C94C5000C94C5009C
:1000D0000C94C5000C94C5000C94C5000C94C5008C
:1000E0000C94C5007879526F626F74204245544178
:1000F0000A000A7879526F626F7420426574610059
:100100000A31292044726976696E67000A32292013
:1001100043616D657261000A332920426C75657414
:100120006F6F7468000A342920536572766F73000C
:10013000F20000010C01170125010A3029204E654B
:10014000787420706167650011241FBECFEFD1E283
:10015000DEBFCDBF00E00CBF13E0A0E0B2E0EAEFED
:10016000FDE200E00BBF02C007900D92A23AB1077A
:10017000D9F718E0A2EAB3E001C01D92AE34B1078E
:10018000E1F70E9437030C94FB160C9400008823BF
:1001900009F05DC02091A20383E0289FC0011124D3
:1001A000853091058CF4E6E02E9FF0011124E05D8E
:1001B000FE4F2591349187EC93E0B9010E94CB1654
:1001C00087EC93E00E941F042091A20383E0289F04
:1001D000C00111248430910584F4E6E02E9FF001E3
:1001E0001124EE5CFE4F2591349187EC93E0B90128
:1001F0000E94CB1687EC93E002C080E092E00E9460
:100200001F042091A20383E0289FC00111248330A2
:10021000910584F4E6E02E9FF0011124EC5CFE4F82
:100220002591349187EC93E0B9010E94CB1687ECBD
:1002300093E002C080E092E00E941F0487EC93E00C
:100240006AE371E00E94CB1687EC93E004C0813032
:1002500029F482E092E00E941F040895823041F068
:10026000833031F0843021F481E392E00E941F0456
:1002700008951F93CF93DF930E946604C82FD0E0A8
:100280008091A303882309F041C0C033D10559F4FC
:100290008091A203882321F481E08093A2033EC0D1
:1002A0001092A2033BC0CF33D10509F4B6C0CA32C5
:1002B000D10509F4B2C0C332D10509F4AEC020970C
:1002C00009F4ABC0CE01C0974091A20323E0429F46
:1002D000900111242830310584F0342F330F340F6E
:1002E0003E5F20E002C03A502F5F3A30E0F73AE03C
:1002F000239F90011124820F931F8530910508F0F0
:100300008CC08093A3030E94C70087C0813009F08E
:1003100047C0C033D10521F41092A30380E0F3CF8E
:10032000CE01C19782309105F0F489E592E00E94F8
:100330001F040E947404182F84E692E00E941F0498
:10034000C133D10539F40E947404682F812F90E0E5
:1003500041E006C00E947404682F812F90E042E0C3
:100360000E940E0C1AC0C333D10509F056C08CE6AA
:1003700092E00E941F040E947404EC0186E792E060
:100380000E941F040E947404813019F4CE0164E0BD
:1003900002C0CE0163E00E94270C8091A303B3CF7B
:1003A0008230D9F18330C9F18430B9F5C033D10539
:1003B00009F4B2CFC133D10519F40E9474042BC0E3
:1003C000C333D10519F40E94740411C0C233D1059E
:1003D00031F480919502823B00F58D5F08C0C833EF
:1003E000D10541F4809195028330B8F08350809319
:1003F000950213C0C433D10531F480919602833045
:1004000060F0835008C0C633D10539F4809196025C
:10041000823B18F48D5F80939602DF91CF911F91FC
:100420000895EF92FF920F931F93DF93CF93CDB771
:10043000DEB728970FB6F894DEBF0FBECDBF8E0192
:100440000F5F1F4F89E0E82EF12CEC0EFD1E0E947D
:1004500000098823E1F30E940E09F80181938F01BE
:10046000EE15FF05A1F7CE0101960E944F0B00E0AB
:1004700010E40E94790B0E94640901501040C9F7F2
:100480000E948F0B28960FB6F894DEBF0FBECDBF2B
:10049000CF91DF911F910F91FF90EF900895EF9210
:1004A000FF920F931F93DF93CF93CDB7DEB72897BB
:1004B0000FB6F894DEBF0FBECDBF8E010F5F1F4F8A
:1004C00099E0E92EF12CEC0EFD1E0E940009882314
:1004D000E1F30E940E09F80181938F01EE15FF05EB
:1004E000A1F7CE0101960E944F0B00E010E20E949E
:1004F000790BE82E0E94790B82958F709E2D907F4C
:10050000892B0E9464090150104089F70E948F0BCB
:1005100028960FB6F894DEBF0FBECDBFCF91DF9106
:100520001F910F91FF90EF9008951F93DF93CF934A
:100530000F92CDB7DEB70E940009882309F492C05C
:100540000E940E09803809F455C0813880F4843641
:10055000E1F1853630F48F33E9F0813609F080C05F
:100560003AC0833741F1873709F07AC01EC083381B
:1005700009F451C0843838F4813809F442C0823813
:1005800009F06EC045C0843809F458C0853809F0B8
:1005900067C063C087EC93E064EE70E00E94CB1606
:1005A00087EC93E00E94AE095DC080919502803B8C
:1005B00048F48B5F05C080919502853018F0855016
:1005C00080939502809195020FC080919602803BA6
:1005D00048F48B5F05C080919602853018F08550F5
:1005E00080939602809196020E942D050E94AE098A
:1005F0008AE036C00E940E09853BA0F580939502E3
:1006000031C00E940E09853B68F5809396022AC08E
:100610000E94110227C00E940E09182F0E940E0985
:1006200089830E940E096981882311F041E001C08D
:1006300042E0812F90E00E940E0C14C00E940E092F
:10064000182F0E940E09882311F063E001C064E0B6
:10065000812F90E00E94270C05C00E944F0202C02B
:100660000E9464090F90CF91DF911F9108950E941D
:10067000670382E00E9470030E94090C0E94D40963
:100680000E94030489E190E068E040E021E00E94DC
:10069000C0080E94860A0E94410B0E94060D82E05B
:1006A0000E947003789480E00E94C70087E892E07F
:1006B0000E94AE090E9439010E9495028091950224
:1006C0000E94E50B809196020E94D90BF3CF81B175
:1006D000806C81B9249A82B1806C82B92C9A089579
:1006E000813041F0813018F0823069F408C082B165
:1006F000805803C082B190E4892782B9089585B1FA
:1007000090E1892785B90895CF93C0E080E00E94E9
:10071000700381E00E94700382E00E947003C33086
:1007200049F08FE792E4A0E181509040A040E1F7CA
:1007300000C00000CF5FC43049F7CF910895662311
:1007400069F0813039F0813018F0823099F404C0BA
:1007500017980895169808952C980895813039F0C7
:10076000813018F0823031F404C0179A0895169A37
:1007700008952C9A0895CF93C82F82E40E94FF0910
:100780008C2F0E94310A0E94290ACF910895CF939D
:10079000C82F8BE10E94BB038CE40E94BB03CC23D7
:1007A00039F480E00E94BB03809147048E7F06C02D
:1007B00081E00E94BB0380914704816080934704DD
:1007C000CF9108959091470481E090FD80E00E94D0
:1007D000C7038FEF99E6A8E181509040A040E1F770
:1007E00000C000009091470481E090FD80E00E94ED
:1007F000C7038FEF99E6A8E181509040A040E1F750
:1008000000C00000089581E0809347048CE00E94BE
:10081000BB038BE10E94BB038FE40E94BB0381E01A
:100820000E94BB0381E00E94BB038BE10E94BB03DB
:100830008BE70E94BB0381E00E94C70308950F93DA
:100840001F93DF93CF930F92CDB7DEB7082F82E4CB
:1008500099830E94FF099981402F592F8A011BC05B
:100860008091A4038F5F8093A403D8018D918D01A3
:100870008D3041F08A3021F48DE00E94310A8AE007
:100880000E94310A8FEF99EFA0E081509040A04084
:10089000E1F700C00000D8018C91882309F70E947D
:1008A000290A8091A4038A3058F01092A4038FEF94
:1008B00091EEA4E081509040A040E1F700C000001C
:1008C0000F90CF91DF911F910F910895CF9383E403
:1008D0000E94DA090E94420AC82F0E944C0A0E9414
:1008E000290A8C2FCF9108950F931F93DF93CF93F5
:1008F00000D00F920F92CDB7DEB790E08E010F5F60
:100900001F4F9D830E9466049D818823D1F38A3204
:1009100059F0833249F0953038F4F801E90FF11DB0
:10092000805380839F5FEDCF923069F0933018F44D
:100930009130E9F505C0933069F09430C1F51AC0E3
:10094000298130E036C029818AE0289F9001112456
:100950008A810DC0298184E6289F900111249A8103
:100960008AE0989FC0011124280F391F8B81280F1E
:10097000311D1FC0498150E088EE93E0489F9001EF
:10098000499F300D589F300D11249A8184E6989F1D
:10099000C0011124280F391F8C81280F311D9B8124
:1009A0008AE0989FC0011124280F391F02C020E05F
:1009B00030E0C9010F900F900F900F900F90CF91E2
:1009C000DF911F910F910895FF920F931F93CF9383
:1009D000DF93FF240E9400098823E1F3CF2DD0E0AC
:1009E0000E940E098E0109531C4FF80180830E945A
:1009F0006409F80180818A3019F0FF2DFF3359F422
:100A0000C953DC4F188287EC93E0DF91CF911F919F
:100A10000F91FF9008958D30E9F2883011F4FA9427
:100A2000D9CFF394D7CFDF93CF930F92CDB7DEB763
:100A300089830E94E40460E070E0498150E00E94F4
:100A4000B515CB010F90CF91DF91089567EC73E05E
:100A50004AE050E00E94D216089590E00E942605D8
:100A6000089590E067EC73E040E150E00E94D216F8
:100A700008957093B0036093AF039093B203809393
:100A8000B10308958091AF039091B003009751F4A2
:100A90002091B1033091B20381E02115310519F0A5
:100AA00080E0089580E0089584B1806684B9EAE02A
:100AB000F1E08081806C8083E4E0F1E08081806CF3
:100AC0008083E0E8F0E08081806A808380818160BB
:100AD0008083E1E8F0E080818A608083EAE6F0E0EC
:100AE0008081806F80838DB3806C8DBB08959091E1
:100AF000A6038091A503981709F014C18091A6035D
:100B0000882309F40FC12091A7033091A8034091D5
:100B1000A9035091AA038091AB039091AC03A091DB
:100B2000AD03B091AE03281739074A075B0709F4F4
:100B3000F9C08091A7039091A803A091A903B09157
:100B4000AA0382309105A105B1050CF4EBC06091B8
:100B5000A60380919702813021F080919702823024
:100B600031F580919702813089F48091A7039091AB
:100B7000A803A091A903B091AA032091AB033091DF
:100B8000AC034091AD035091AE034AC08091AB03DA
:100B90009091AC03A091AD03B091AE032091A70357
:100BA0003091A8034091A9035091AA0339C08091C4
:100BB0009702843029F080919702833009F0A2C017
:100BC000809197028430A9F42091A7033091A80363
:100BD0004091A9035091AA038091AB039091AC037B
:100BE000A091AD03B091AE03820F931FA41FB51F58
:100BF0001BC08091A7039091A803A091A903B09175
:100C0000AA032091AB033091AC034091AD03509106
:100C1000AE03B095A095909581959F4FAF4FBF4F74
:100C2000821B930BA40BB50B181619061A061B068C
:100C300084F540918A0050918B00862F90E09C01B2
:100C4000275E3F4F4217530768F420918A00309186
:100C50008B002F3F310530F480918A0090918B00FA
:100C600001964CC0209188003091890022303105D6
:100C700008F448C020918800309189004997821774
:100C8000930708F03FC080918800909189000197F8
:100C90001CC00097A105B105A9F1409188005091B1
:100CA0008900862F90E09C01275E3F4F4217530733
:100CB00088F420918800309189002F3F310550F44D
:100CC000809188009091890001969093890080938B
:100CD000880018C020918A0030918B0022303105A5
:100CE00088F020918A0030918B00499782179307F2
:100CF00048F480918A0090918B00019790938B002B
:100D000080938A001092AB031092AC031092AD0353
:100D10001092AE031092A7031092A8031092A90399
:100D20001092AA030895833071F0843028F4813042
:100D300051F08230F9F410C08530B9F0853060F0A0
:100D40008730C1F412C090910B019F7390930B01F7
:100D500090910B0190640CC090910B019F73909344
:100D60000B0190910B01906803C090910B019F7350
:100D700090930B01843028F4823088F48130E9F4B8
:100D800005C0843019F08730C0F412C0909105017D
:100D90009F73909305019091050190680CC090910C
:100DA00005019F739093050190910501906403C024
:100DB000909105019F739093050180939702089588
:100DC0008FB7F89410928B0010928A0010928900CD
:100DD000109288001092A6031092A5031092A70308
:100DE0001092A8031092A9031092AA031092AB03C9
:100DF0001092AC031092AD031092AE038FBF85E04A
:100E00000E94930680E060E00E949F0381E060E022
:100E10000E949F030895CF93C62F9FB7F8948093A5
:100E2000A6036093A5032091A60330E030938B00C6
:100E300020938A002091A50330E03093890020930D
:100E400088001092A7031092A8031092A903109291
:100E5000AA031092AB031092AC031092AD03109250
:100E6000AE039FBF882329F080E061E00E949F03CA
:100E700007C080E060E00E949F0387E00E94930625
:100E8000CC2329F081E061E00E949F0307C081E04C
:100E900060E00E949F0386E00E949306CF91089530
:100EA0001F920F920FB60F920BB60F9211242F9331
:100EB0003F934F935F936F937F938F939F93AF93E2
:100EC000BF93EF93FF9380919702813021F080913F
:100ED0009702833061F48091AB039091AC03A091B1
:100EE000AD03B091AE030196A11DB11D13C0809159
:100EF0009702823021F080919702843099F480919A
:100F0000AB039091AC03A091AD03B091AE030197F8
:100F1000A109B1098093AB039093AC03A093AD03F7
:100F2000B093AE038091B1039091B2030097D1F0DA
:100F30008091B1039091B20301979093B203809393
:100F4000B1038091B1039091B203009759F41092CC
:100F5000A6036091A50380E00E940B0780E060E09B
:100F60000E949F03FF91EF91BF91AF919F918F914D
:100F70007F916F915F914F913F912F910F900BBE99
:100F80000F900FBE0F901F9018951F920F920FB6E3
:100F90000F920BB60F9211242F933F934F935F93B1
:100FA0006F937F938F939F93AF93BF93EF93FF9331
:100FB00080919702813021F080919702843061F412
:100FC0008091A7039091A803A091A903B091AA03CF
:100FD0000196A11DB11D13C080919702823021F0AE
:100FE00080919702833099F48091A7039091A80390
:100FF000A091A903B091AA030197A109B109809317
:10100000A7039093A803A093A903B093AA03809188
:10101000AF039091B0030097D1F08091AF0390910E
:10102000B00301979093B0038093AF038091AF0317
:101030009091B003009759F41092A5038091A603F4
:1010400060E00E940B0781E060E00E949F030E9425
:101050007705FF91EF91BF91AF919F918F917F9114
:101060006F915F914F913F912F910F900BBE0F9019
:101070000FBE0F901F9018951F920F920FB60F92F0
:101080000BB60F9211242F938F939F93EF93FF939F
:10109000E091B503F091B6038091C600E85BFB4F89
:1010A00080838091B5039091B60321E08F3F920732
:1010B00050F48091B5039091B60301969093B603D6
:1010C0008093B50304C01092B6031092B503FF914C
:1010D000EF919F918F912F910F900BBE0F900FBEAC
:1010E0000F901F9018951F920F920FB60F920BB68C
:1010F0000F9211242F933F938F939F93EF93FF931E
:101100002091B7033091B8038091B9039091BA034D
:101110002817390701F1E091B703F091B803E85BB4
:10112000F94F80818093C6008091B7039091B803F6
:1011300021E08F3F920750F48091B7039091B8035C
:1011400001969093B8038093B7030DC01092B80333
:101150001092B70308C081E0809398028091C1008B
:101160008F7D8093C100FF91EF919F918F913F916F
:101170002F910F900BBE0F900FBE0F901F901895E0
:101180004330D0F5362F35503430B0F5322F315052
:101190003230A0F5442361F03091C20030623093C8
:1011A000C200423029F43091C20030613093C20055
:1011B000223029F42091C20028602093C2006530BB
:1011C00081F0663011F0683039F42091C20022605D
:1011D0002093C200663029F02091C2002460209341
:1011E000C2009093C5008093C4008091C1008869BB
:1011F0008093C10080E0089581E0089581E0089522
:101200004091B3035091B4032091B5033091B603DC
:1012100081E04217530709F480E008952091B30359
:101220003091B4038091B5039091B6032817390724
:10123000A9F3E091B303F091B403E85BFB4F808125
:10124000E091B303F091B403E85BFB4F108220916F
:10125000B3033091B40391E02F3F390758F4209144
:10126000B3033091B4032F5F3F4F3093B403209307
:10127000B30308951092B4031092B30308958091BC
:10128000B9039091BA032091B7033091B803019646
:101290008217930799F08091B7039091B803009754
:1012A00081F42091B9033091BA0381E090E041E0EC
:1012B0002F3F340741F080E090E0089581E090E016
:1012C000089580E090E008952091B9033091BA0329
:1012D0004091B7035091B8032F5F3F4F2417350754
:1012E00099F32091B7033091B8032115310541F4EA
:1012F0002091B9033091BA0391E02F3F390721F3D0
:10130000E091B903F091BA03E85BF94F80838091D3
:10131000B9039091BA0321E08F3F920750F4809176
:10132000B9039091BA0301969093BA038093B903DD
:1013300004C01092BA031092B903809198028130D0
:1013400061F4109298028091C10080628093C10084
:101350008091C00080628093C0000895CF93DF9396
:10136000C82FD92F02C00E94640989918823D9F718
:10137000DF91CF9108951092C1001092C200109297
:10138000C5001092C4001092B4031092B3031092DF
:10139000B8031092B7031092B6031092B5031092DF
:1013A000BA031092B90308951092B90088E48093AB
:1013B000B800089594EA9093BC009091BC0097FF08
:1013C000FCCF9091B900987F983011F0903199F44A
:1013D0008093BB0084E88093BC008091BC0087FFB1
:1013E000FCCF9091B900987F983139F081E090342A
:1013F00029F480E0089581E0089580E0089544EAAA
:1014000034E824E94093BC009091BC0097FFFCCFE6
:101410009091B900987F983011F0903199F78093AE
:10142000BB003093BC009091BC0097FFFCCF909123
:10143000B900987F903211F0983539F42093BC00B0
:101440009091BC0094FDFCCFDDCF08950E94DA0995
:10145000089584E98093BC008091BC0084FDFCCF9A
:1014600008958093BB0084E88093BC008091BC0009
:1014700087FFFCCF9091B900987F81E0983209F402
:1014800080E0089584EC8093BC008091BC0087FFCD
:10149000FCCF8091BB00089584E88093BC008091CC
:1014A000BC0087FFFCCF8091BB000895803148F4D9
:1014B000883040F0885090917B00986090937B003A
:1014C00001C080E090917C00982B90937C008091EB
:1014D0007A00806480937A00089590917A0081E088
:1014E00096FD80E00895CF93C82F0E946D0A88234F
:1014F00051F080917900CC2339F090917A0090647A
:1015000090937A0001C080E0CF91089580916400AB
:101510008E7F8093640080E680937C0080917A00C7
:10152000806C80937A000E946D0A8823E1F380E04A
:101530000E94730A0895EAE7F0E080818F7B808340
:10154000A4E6B0E08C9181608C9380818F7780835A
:1015500008959AE09A95F1F700C0813011F4119A3C
:101560000895882311F411980895823019F492B1E6
:10157000982792B9089581E00E94A90A80E00E940C
:10158000A90A81E00E94A90A80E00E94A90A129893
:1015900081E00E94A90A129A80E00E94A90A089597
:1015A000882311F0149A01C014986111139A81E0F4
:1015B0000E94A90A80E00E94A90A13980895AF9298
:1015C000BF92DF92EF92FF920F931F93DF93CF931F
:1015D0000F92CDB7DEB75C01DD2481E0E82EF12C5F
:1015E0008D2D847060E00E94D00A8D2D827060E0A5
:1015F0000E94D00A8D2D817060E00E94D00A07E021
:1016000010E090E09701002E02C0220F331F0A94D1
:10161000E2F7F5018081822361E0973009F060E014
:1016200099830E94D00A99819F5F015010409830A1
:1016300049F7D3940894A11CB11CFD2DF83081F614
:101640000F90CF91DF911F910F91FF90EF90DF905E
:10165000BF90AF900895159A81E00E94A90A15984D
:1016600080E00E94A90A089506C081E00E94A90AAC
:1016700080E00E94A90A009BF8CF089580B1817094
:10168000089581B18E6381B9089882B1857C82B951
:10169000129A08950E942B0B0E94340B0895CF9349
:1016A000DF93EC010E94410B0E94BB0A209721F0BE
:1016B000CE010E94DF0A18C088E090E00E948214E8
:1016C000EC018FE7888382E089831A828AE58B8325
:1016D00081E08C831D828E8384E08F83CE010E9403
:1016E000DF0ACE010E941C150E944A0BDF91CF91A8
:1016F000089580B180FD02C00E944A0B81E00E94E3
:10170000A90A80E00E94A90A8BE00E94560A0E9462
:101710006D0A8823E1F380E00E94730A08950E9415
:10172000BB0A08951F920F920FB60F9211242F93A8
:101730003F934F935F938F939F938091BD039091BD
:10174000BE032091990230E02817390710F4A598BC
:1017500001C0A59A2091BB033091BC0340919A022D
:1017600050E04217530710F42F9801C02F9A883C7D
:10177000910560F401969093BE038093BD032F5FA3
:101780003F4F3093BC032093BB0308C01092BE03AD
:101790001092BD031092BC031092BB039F918F91D6
:1017A0005F914F913F912F910F900FBE0F901F901F
:1017B000189593E5899FC001112468EE73E00E949B
:1017C000F6136B5F60939902089593E5899FC001BA
:1017D000112468EE73E00E94F6136B5F60939A0227
:1017E00008958FE50E94D90B82E30E94E50B84B532
:1017F000826084BD85B5826085BD88EC87BDEEE6DC
:10180000F0E0808182608083279A9D9A2F98A59826
:1018100008950E9454050E94F10B08951F93DF93D1
:10182000CF930F92CDB7DEB79C01162FB901498334
:101830000E9439054981842F0E949306812F612FD0
:101840000E940B070F90CF91DF911F9108959C018B
:10185000462F02C02856314081E029363807D0F79C
:101860002115310579F0ECE3F0E02E9FC0012F9FA8
:10187000900D3E9F900D112468E671E00E94F613D2
:101880009B0102C020E030E0C90160E80E940E0C1C
:1018900008950E9442050895E0EBF0E080818260A7
:1018A0008083E1EBF0E08081846080838AEF809325
:1018B000B300E0E7F0E080818260808308951F92AA
:1018C0000F920FB60F920BB60F9211242F933F93E6
:1018D0004F935F936F937F938F939F93AF93EF9308
:1018E000FF934091BF033091C0032091C1039091B9
:1018F000C2038091C303F091C403E091C503A0919A
:10190000C603642F6F5F51E0641708F050E0530F77
:1019100041E0531708F040E0420F31E0421708F071
:1019200030E0390F21E0391708F020E0280F91E06E
:10193000281708F090E09F0F81E09F1708F080E0E3
:101940008E0F71E08E1708F070E07A0F6093BF037E
:101950005093C0034093C1033093C2032093C30349
:101960009093C4038093C5037093C603FF91EF91D6
:10197000AF919F918F917F916F915F914F913F9127
:101980002F910F900BBE0F900FBE0F901F901895C8
:101990002091BF033091C0034091C1035091C20315
:1019A0006091C3037091C4038091C5039091C603F5
:1019B0000895AF92BF92CF92DF92EF92FF920F9372
:1019C0001F932091BF033091C0034091C1035091F8
:1019D000C2036091C3037091C4038091C5039091C9
:1019E000C603F8EEAF2EE3E0BE2ECC24DD24EE24B9
:1019F000FF2400E010E00E94C20D1F910F91FF90A4
:101A0000EF90DF90CF90BF90AF9008958FEF87B9A0
:101A1000E4E0F1E080818F638083E7E0F1E08081A2
:101A200080638083E5E0F1E080818F7D8083E8E062
:101A3000F1E08081806180830895909105019C7F11
:101A400090930501882331F4809105018160809392
:101A500005010895813029F4809105018260809309
:101A600005010895DF93CF930F92CDB7DEB7698359
:101A70000E941D0D698168B90F90CF91DF91089583
:101A8000AF92BF92CF92DF92EF92FF920F931F938C
:101A90005B016C0180E00E941D0DA8B881E00E94EE
:101AA0001D0DB8B883E00E941D0DC0FE04C08091DA
:101AB0000501846003C0809105018B7F809305013F
:101AC000C1FE04C080910501886003C080910501BA
:101AD000877F80930501C2FE04C08091050180616B
:101AE00003C0809105018F7E809305011F910F91A6
:101AF000FF90EF90DF90CF90BF90AF90089560304F
:101B000020E0720728E0820720E0920720F06FEFC4
:101B10007FEF87E090E00E94400D17B886B19FEFFD
:101B200097B99091080120E29227909308010895B7
:101B3000DF93CF930F92CDB7DEB7603020E072070E
:101B400028E0820720E0920720F06FEF7FEF87E028
:101B500090E049830E94400D809108018F7E809320
:101B60000801498148B9809108018061809308018A
:101B70008091080190E28927809308010F90CF910E
:101B8000DF910895A8E3B0E0E8ECFDE00C944B147D
:101B900029833A834B835C836D837E838F8398870D
:101BA000A986BA86CB86DC86ED86FE860F87188BE3
:101BB000E984FA840B851C852D853E854F855889DF
:101BC00029803A804B805C802DA23EA24FA258A66D
:101BD000AD80BE80CF80D8842115310541055105E7
:101BE00009F0A6C3AE14BF04C006D10608F03FC179
:101BF00020E0E21620E0F20621E0020720E01207D2
:101C000058F43FEFE316F1040105110509F090F4D3
:101C100020E030E0A90117C040E0E41640E0F406FF
:101C200040E0040741E0140750F420E130E040E0D8
:101C300050E009C028E030E040E050E004C028E176
:101C400030E040E050E0D801C701022E04C0B69554
:101C5000A795979587950A94D2F785569D4FDC01F5
:101C60006C9180E290E0A0E0B0E0821B930BA40BAB
:101C7000B50B861B9109A109B1090097A105B10512
:101C8000A1F1082E04C0EE0CFF1C001F111F0A94C6
:101C9000D2F7A6019501082E04C0220F331F441F5E
:101CA000551F0A94D2F760E270E0681B790BADA073
:101CB000BEA0CFA0D8A404C0D694C794B794A794CC
:101CC0006A95D2F7A22AB32AC42AD52A2DA03EA00B
:101CD0004FA058A404C0220C331C441C551C8A95E8
:101CE000D2F72DA23EA24FA258A6380188249924EB
:101CF000A801970140705070298F3A8F4B8F5C8FED
:101D0000C601B501A40193010E942914222E532E6D
:101D1000442E352E6D8F7E8F8F8F98A3C601B5010F
:101D2000A40193010E942914822D952DA42DB32D79
:101D30001C012D01C201B101298D3A8D4B8D5C8DA5
:101D40000E940A145B016C014D8D5E8D6F8D78A130
:101D5000DA01992788274DA15EA16FA178A59B0183
:101D600044275527822B932BA42BB52B8A159B0533
:101D7000AC05BD05E0F4089421083108410851087C
:101D80008E0D9F1DA01FB11F8E159F05A007B107C7
:101D900070F08A159B05AC05BD0548F40894210830
:101DA0003108410851088E0D9F1DA01FB11F9C01D5
:101DB000AD012A193B094C095D0959016A01CA01A3
:101DC000B901A40193010E94291429A739A349ABA1
:101DD0005DA76D8F7E8F8F8F98A3C601B501A4017B
:101DE00093010E942914A9A4B9A0C9A8DDA4C60121
:101DF000B501298D3A8D4B8D5C8D0E940A143B01F3
:101E00004C016D8D7E8D8F8D98A1AB0133272227DC
:101E10008DA19EA1AFA1B8A5A070B070282B392BC1
:101E20004A2B5B2B2615370548055905C0F4089445
:101E3000A108B108C108D1082E0D3F1D401F511F38
:101E40002E153F054007510750F026153705480568
:101E5000590528F40894A108B108C108D1088101E6
:101E6000FF24EE24EA28FB280C291D29A1C4E11433
:101E7000F1040105110559F461E070E080E090E0A3
:101E8000A80197010E94291479018A0110C070E00D
:101E9000E71670E0F70671E0070770E0170758F4DF
:101EA0008FEFE816F1040105110509F090F420E028
:101EB00030E0A90117C090E0E91690E0F90690E043
:101EC000090791E0190750F420E130E040E050E0CC
:101ED00009C028E030E040E050E004C028E130E0F4
:101EE00040E050E0D801C701022E04C0B695A79586
:101EF000979587950A94D2F785569D4FDC018C9172
:101F0000280F311D411D511D80E290E0A0E0B0E09E
:101F1000821B930BA40BB50B61F4150126012E183F
:101F20003F08400A510A81E0A82EB12CC12CD12CC7
:101F300023C1082E04C0EE0CFF1C001F111F0A94C1
:101F4000D2F715012601022E04C056944794379407
:101F500027940A94D2F735014601082E04C0660C76
:101F6000771C881C991C0A94D2F76D8E7E8E8F8EFA
:101F700098A28DA09EA0AFA0B8A404C0B694A794C8
:101F8000979487942A95D2F7A5019401AD8CBE8CC5
:101F9000CF8CD8A0A22AB32AC42AD52AAD8EBE8E51
:101FA000CF8ED8A22DA13EA14FA158A504C0220FCB
:101FB000331F441F551F8A95D2F72DA33EA34FA36D
:101FC00058A7380188249924B801A701607070705F
:101FD00049A75AA76BA77CA7C201B101A40193012D
:101FE0000E942914298F39AB4DA75DAB69A37AA351
:101FF0008BA39CA3C201B101A40193010E942914E7
:10200000A98CB9A8CDA4DDA8A98EBA8ECB8EDC8E02
:10201000C601B50129A53AA54BA55CA50E940A14E5
:102020005B016C0129A03AA04BA05CA0D1019927CB
:1020300088272D8C3E8C4F8C58A092014427552721
:10204000822B932BA42BB52B8A159B05AC05BD05C4
:1020500030F5298D3A8D4B8D5C8D215030404040BC
:102060005040298F3A8F4B8F5C8F8E0D9F1DA01F84
:10207000B11F8E159F05A007B10788F08A159B0533
:10208000AC05BD0560F42150304040405040298FE0
:102090003A8F4B8F5C8F8E0D9F1DA01FB11FAC011F
:1020A000BD014A195B096C097D095A016B01CB011D
:1020B000BA01A40193010E942914522E432E342EFA
:1020C000252E69A37AA38BA39CA3C601B501A40105
:1020D00093010E942914652C742C832C922CC4012A
:1020E000B30129A53AA54BA55CA50E940A149B0142
:1020F000AC0169A17AA18BA19CA16B01BB24AA248C
:102100008D8D9E8DAF8DB8A1A070B070A82AB92A10
:10211000CA2ADB2AA216B306C406D506E0F4089440
:102120006108710881089108AE0CBF1CC01ED11E49
:10213000AE14BF04C006D10670F0A216B306C406E2
:10214000D50648F408946108710881089108AE0C1E
:10215000BF1CC01ED11E15012601221A330A440AD3
:10216000550A898D9A8DAB8DBC8D6C01BB24AA2438
:10217000A628B728C828D9283801882499246D8E24
:102180007E8E8F8E98A2A80197014070507029A76B
:102190003AA74BA75CA7C201B101A40193010E9419
:1021A0002914922E832E742E652E69A37AA38BA3F5
:1021B0009CA3C201B1012D8D3E8D4F8D58A10E946F
:1021C0002914892D982DA72DB62D898F9A8FAB8F25
:1021D000BC8FBC01CD0129A53AA54BA55CA50E94E9
:1021E0000A143B014C0149A15AA16BA17CA1DA015F
:1021F000992788272DA03EA04FA058A492014427DC
:102200005527822B932BA42BB52B86159705A80554
:10221000B90530F5298D3A8D4B8D5C8D21503040BC
:1022200040405040298F3A8F4B8F5C8F8E0D9F1D01
:10223000A01FB11F8E159F05A007B10788F0861556
:102240009705A805B90560F4215030404040504042
:10225000298F3A8F4B8F5C8F8E0D9F1DA01FB11F52
:10226000AC01BD0146195709680979093A014B01CA
:10227000CB01BA012D8D3E8D4F8D58A10E9429149E
:10228000522E432E342E252E69A37AA38BA39CA312
:10229000C401B3012D8D3E8D4F8D58A10E9429148C
:1022A000652C742C832C922CC401B30129A53AA56A
:1022B0004BA55CA50E940A141B012C0169A17AA1FF
:1022C0008BA19CA1AB01332722278DA19EA1AFA199
:1022D000B8A5A070B070282B392B4A2B5B2B221588
:1022E000330544055505C0F4089461087108810858
:1022F00091082E0D3F1D401F511F2E153F05400711
:10230000510750F0221533054405550528F408946B
:102310006108710881089108898D9A8DAB8DBC8DFB
:102320008C01FF24EE24E628F7280829192943C246
:10233000A216B306C406D50608F42AC2203090E0DF
:10234000390791E0490790E0590750F42F3F3105D4
:102350004105510509F090F466247724430119C022
:102360002030A0E03A07A0E04A07A1E05A0760F455
:1023700090E1692E712C812C912C0BC088E0682E85
:10238000712C812C912C05C0B8E16B2E712C812C05
:10239000912CDA01C901062C04C0B695A795979532
:1023A00087950A94D2F785569D4FFC018081680E6F
:1023B000711C811C911C80E290E0A0E0B0E08619C5
:1023C0009709A809B90989F42A153B054C055D054B
:1023D00008F4E5C12DA03EA04FA058A42E143F0440
:1023E0004006510608F0DBC1D3C189A719012A01B3
:1023F00004C0220C331C441C551C8A95D2F7D8010A
:10240000C701062C04C0B695A795979587950A94A1
:10241000D2F7282A392A4A2A5B2AA801970109A457
:1024200004C0220F331F441F551F0A94D2F729A35B
:102430003AA34BA35CA386017501062C04C0169534
:102440000795F794E7940A94D2F7B601A50109A479
:1024500004C0440F551F661F771F0A94D2F74D8F93
:102460005E8F6F8F78A36DA17EA18FA198A504C008
:1024700096958795779567956A94D2F73B014C01BD
:102480008D8D9E8DAF8DB8A186299729A829B92950
:102490008D8F9E8FAF8FB8A35201CC24DD24A20173
:1024A00091014070507029AB3AAB4BAB5CABC801AB
:1024B000B701A60195010E942914622E932E842E45
:1024C000752E6DA77EA78FA798ABC801B701A6018F
:1024D00095010E942914E62CF92C082D172DE98E60
:1024E000FA8E0B8F1C8FC801B70129A93AA94BA9F5
:1024F0005CA90E940A146DA47EA48FA498A88301ED
:10250000FF24EE246D8C7E8C8F8C98A09401442740
:102510005527E22AF32A042B152BE616F70608079F
:10252000190730F5298D3A8D4B8D5C8D2150304047
:1025300040405040298F3A8F4B8F5C8FE20CF31C48
:10254000041D151DE214F3040405150588F0E616B4
:10255000F7060807190760F421503040404050400A
:10256000298F3A8F4B8F5C8FE20CF31C041D151DD5
:10257000E61AF70A080B190BC801B701A601950165
:102580000E9429142DAB3EAB4FAB58AF6DA77EA771
:102590008FA798ABC801B701A60195010E94291425
:1025A0006DA87EA88FA898ACC401B30129A93AA947
:1025B0004BA95CA90E940A149B01AC01ADA4BEA466
:1025C000CFA4D8A8D50199278827AD8CBE8CCF8CF5
:1025D000D8A06FEFE62E6FEFF62E012D112DAE2055
:1025E000BF20C022D1228A299B29AC29BD2982176C
:1025F0009307A407B507E0F40894610871088108FF
:102600009108820D931DA41DB51D82159305A40587
:10261000B50570F082179307A407B50748F408942E
:102620006108710881089108820D931DA41DB51DD4
:102630001C012D01221A330A440A550A2D8E3E8EA2
:102640004F8E58A2A98CBA8CCB8CDC8C8501FF24D0
:10265000EE24E628F72808291929AFEFAA2EAFEFB4
:10266000BA2EC12CD12CAE20BF20C022D1221801FD
:102670004424552469A07AA08BA09CA02FEF3FEFA3
:1026800040E050E0622273228422952269A17AA15F
:102690008BA19CA1AC0166277727498F5A8F6B8F3E
:1026A0007C8FC601B501A40193010E940A1469A39D
:1026B0007AA38BA39CA3C601B501298D3A8D4B8DBE
:1026C0005C8D0E940A145B016C01C201B101A4017E
:1026D00093010E940A143B014C01C201B101298DF2
:1026E0003A8D4B8D5C8D0E940A149B01AC01A60CA7
:1026F000B71CC81CD91C29A03AA04BA05CA0C201E1
:10270000AA27BB27A80EB91ECA1EDB1EA614B70433
:10271000C804D90420F4205030404F4F5F4FC60109
:10272000AA27BB27820F931FA41FB51F4D8C5E8C59
:102730006F8C78A0481659066A067B0618F1841536
:102740009505A605B705A1F56501BB24AA2489A1B5
:102750009AA1ABA1BCA1A070B070A80EB91ECA1EF0
:10276000DB1E8DA19EA1AFA1B8A509A404C0880F4E
:10277000991FAA1FBB1F0A94D2F78A159B05AC05A7
:10278000BD05B0F40894E108F1080109110910C071
:10279000AA24BB246501EE24FF2487010CC0AA24CF
:1027A000BB24650181E0E82EF12C012D112D03C021
:1027B000AA24BB246501FE01719688E0DF011D9209
:1027C0008A95E9F7E98AFA8A0B8B1C8BAD8ABE8A57
:1027D000CF8AD88E2E2D3A894B895C896A2D7E89C5
:1027E0008F89988DE896E2E10C946714AA1BBB1BB5
:1027F00051E107C0AA1FBB1FA617B70710F0A61B01
:10280000B70B881F991F5A95A9F780959095BC0121
:10281000CD010895629FD001739FF001829FE00D6A
:10282000F11D649FE00DF11D929FF00D839FF00D4F
:10283000749FF00D659FF00D9927729FB00DE11DFB
:10284000F91F639FB00DE11DF91FBD01CF011124D8
:102850000895A1E21A2EAA1BBB1BFD010DC0AA1FE1
:10286000BB1FEE1FFF1FA217B307E407F50720F0F9
:10287000A21BB30BE40BF50B661F771F881F991F74
:102880001A9469F760957095809590959B01AC01BD
:10289000BD01CF0108952F923F924F925F926F92A8
:1028A0007F928F929F92AF92BF92CF92DF92EF92E0
:1028B000FF920F931F93CF93DF93CDB7DEB7CA1B61
:1028C000DB0B0FB6F894DEBF0FBECDBF19942A887C
:1028D000398848885F846E847D848C849B84AA8434
:1028E000B984C884DF80EE80FD800C811B81AA81C1
:1028F000B981CE0FD11D0FB6F894DEBF0FBECDBF8C
:10290000ED010895CF93DF938230910510F482E0BA
:1029100090E0E0914A08F0914B0840E050E020E060
:1029200030E026C06081718168177907E0F0681790
:10293000790781F4828193812115310531F0D90124
:1029400013969C938E9312972BC090934B08809371
:102950004A0826C04115510519F06417750718F487
:10296000AB01E901DF019F0172816381E72FF62F3F
:102970003097C1F64115510501F1481B590B443000
:10298000510580F412968D919C911397209719F020
:102990009B838A8304C090934B0880934A08FD016F
:1029A000329646C0FD01E40FF51F8193919342508A
:1029B000504011965C934E933BC020914808309153
:1029C00049082115310541F420919D0330919E0362
:1029D000309349082093480820919F033091A00329
:1029E0002115310541F42DB73EB740919B0350911D
:1029F0009C03241B350BE0914808F0914908E2172D
:102A0000F307A0F42E1B3F0B2817390778F0AC0111
:102A10004E5F5F4F2417350748F04E0F5F1F5093EE
:102A20004908409348088193919302C0E0E0F0E0A8
:102A3000CF01DF91CF910895CF93DF93009709F4F1
:102A400091C0FC0132971382128260914A08709102
:102A50004B086115710581F420813181280F391FE0
:102A600080914808909149088217930799F5F0934F
:102A70004908E093480876C0DB0180E090E002C09E
:102A8000CD01D901AE17BF0748F412962D913C91A4
:102A9000139721153105A1F7CD0121C0B383A2837E
:102AA000EF01499159919E01240F351FA217B307D9
:102AB00079F42D913C911197240F351F2E5F3F4FD4
:102AC0003183208312962D913C9113973383228377
:102AD000009729F4F0934B08E0934A0843C0DC01C7
:102AE0001396FC93EE9312974D915D91A40FB51F31
:102AF000EA17FB0769F420813181240F351F2E5F0F
:102B00003F4FEC0139832883228133813B832A8321
:102B1000E0E0F0E002C0FB01BC01DB0112968D9108
:102B20009C9113970097B9F79B012E5F3F4F8D91B2
:102B30009C911197820F931F40914808509149082A
:102B40004817590779F4309729F410924B081092DE
:102B50004A0802C013821282225030403093490842
:102B600020934808DF91CF9108952F923F924F9282
:102B70005F926F927F929F92AF92BF92CF92DF92BD
:102B8000EF92FF920F931F93CF93DF933B01EA01E4
:102B90006115710519F0FB0180839183209739F04D
:102BA0009E01225030402332310508F0D5C0C82E96
:102BB000D92EF60111916F017F01812F90E00E94C3
:102BC000C3160097B1F71D3231F4F60111917F0160
:102BD0009924939406C01B3219F4F60111917F01D8
:102BE0009924209719F0C031D105D1F4103389F41C
:102BF000F7018081883711F0883559F4F701118188
:102C000082E090E0E80EF91E92E0992AC0E1D0E05F
:102C100007C0209729F41033B1F0CAE0D0E02BC0F0
:102C2000CA30D10541F1C031D10521F0C830D105FC
:102C3000A9F409C02FEFA22E2FEFB22E2FEFC22E34
:102C40002FE0D22E20C0C8E0D0E09FEFA92E9FEF4A
:102C5000B92E9FEFC92E9FE1D92E15C09E014427A2
:102C600037FD4095542F6FEF7FEFCB010E94291461
:102C700059016A0108C089E9A82E89E9B82E89E9B5
:102C8000C82E89E1D82E60E020E030E0A9011E01C5
:102C9000442437FC4094542C012F00530A3060F038
:102CA000812F81548A3110F4075006C0812F81563C
:102CB0008A3150F5012F0755802F90E08C179D0722
:102CC0001CF56F3FE9F0A216B306C406D506A8F0BE
:102CD000CA01B901A20191010E940A149B01AC0131
:102CE000802F90E0A0E0B0E0280F391F4A1F5B1F43
:102CF000281739074A075B0710F46FEF01C061E03E
:102D0000F70111917F01C8CF6114710481F066232E
:102D100039F00894E108F108F301F182E08207C07C
:102D200091FE05C0C7010297F3019183808390FE55
:102D300007C050954095309521953F4F4F4F5F4FBD
:102D400067FF0DC082E290E090934D0880934C089D
:102D50002FEF3FEFA90103C020E030E0A901B90146
:102D6000CA01DF91CF911F910F91FF90EF90DF90FB
:102D7000CF90BF90AF909F907F906F905F904F905B
:102D80003F902F900895911123C0803219F08950FF
:102D90008550D0F70895FB01DC0105900D920020CD
:102DA000E1F70895FB019F01423074F0453264F46D
:102DB000642F77270E94F613805D8A330CF0895DBB
:102DC0008193CB010097A1F71082C9010C94EB16F7
:102DD000992788270895DC01FC01672F71917723DB
:102DE000E1F7329704C07C916D9370836291AE17C6
:0A2DF000BF07C8F30895F894FFCF61
:102DFA000A000A312920466F7277617264730A32B7
:102E0A0029204261636B77617264730A3329205403
:102E1A0075726E0A3029204D61696E204D656E7596
:102E2A00000A3129204C6566742D52696768740A54
:102E3A0033292055702D446F776E0A0A3029204DA8
:102E4A0061696E204D656E75000A44697374616E1E
:102E5A0063653F000A53706565643F000A4465670D
:102E6A00726565733F000A313D4C656674202032F5
:102E7A003D526967687400496E697469616C697A60
:102E8A006564210A00325F010164640001020203E1
:102E9A0003030304040404040404040505050505E6
:102EAA0005050505050505050505050606060606C3
:102EBA0006060606060606060606060606060606A8
:102ECA000606060606060606060606070707070793
:102EDA000707070707070707070707070707070778
:102EEA000707070707070707070707070707070768
:102EFA000707070707070707070707070707070758
:102F0A000707070707070707070707080808080842
:102F1A000808080808080808080808080808080827
:102F2A000808080808080808080808080808080817
:102F3A000808080808080808080808080808080807
:102F4A0008080808080808080808080808080808F7
:102F5A0008080808080808080808080808080808E7
:102F6A0008080808080808080808080808080808D7
:102F7A0008080808080808080808080808080808C7
:102F8A00080808080808080808080820004E080069
:022F9A00000035
:00000001FF
