:100000000C9472000C9493000C9493000C94930045
:100010000C9493000C9493000C9493000C949E0603
:100020000C9429060C9493000C9493000C94930068
:100030000C9493000C9493000C9493000C949300F4
:100040000C9493000C9493000C9493000C949300E4
:100050000C9493000C941B0B0C94A70A0C94930023
:100060000C9493000C943A070C9470070C94930032
:100070000C9493000C9493000C9493000C949300B4
:100080000C9493000C9493000C9493000C949300A4
:100090000C9493000C9493000C9493000C94930094
:1000A0000C9493000C9493000C9493000C94930084
:1000B0000C9493000C9493000C9493000C94930074
:1000C0000C9493000C9493000C9493000C94930064
:1000D0000C9493000C9493000C9493000C94930054
:1000E0000C94930011241FBECFEFD1E2DEBFCDBF31
:1000F00000E00CBF13E0A0E0B2E0EAE6F9E100E0C6
:100100000BBF02C007900D92A237B107D9F717E0D5
:10011000A2E7B3E001C01D92AB39B107E1F70E943D
:1001200095000C94B30C0C9400000E94AC080E9443
:100130001C040E94CF0283E390E068E040E021E0ED
:100140000E94BC070E946C0B0E94610978940E9477
:10015000EC020E94B90080E092E00E94BB03FBCF5A
:100160008BE092E00E94BB030E943E038823C1F310
:100170000895EF92FF920F931F93CF93DF93FF2485
:1001800043E0E42E00E911E001C0FF24FE9CE00101
:100190001124FE01EE0FFF1FE95AFC4F808191816F
:1001A0000E94BB0380ED97E0F8013197F1F70197CA
:1001B000D9F7FE01EE0FFF1FE75AFC4F80819181B6
:1001C0000E94BB0380ED97E0F8013197F1F70197AA
:1001D000D9F7C330D10589F0FE01EE0FFF1FE55AB4
:1001E000FC4F808191810E94BB0380ED97E0F80174
:1001F0003197F1F70197D9F704C089E192E00E94A5
:10020000BB038BE192E00E94BB0380ED97E0F80115
:100210003197F1F70197D9F70E943E0390E00097DC
:10022000D9F38033910531F4FF2009F0AECFFF24DC
:10023000F394ACCF8F33910509F4A8CF8A3291059E
:1002400009F4A4CF8332910509F4A0CFFC01F09703
:10025000E530F10508F09ACFEE0FFF1FEF59FC4F84
:100260000190F081E02D309709F490CF19958ECF51
:10027000CF92DF92EF92FF921F93CF93DF9389E1AA
:1002800092E00E94BB03C0E0D0E010E060E9C62E1F
:1002900061E0D62E53E0E52EF12CEC22FD22E11494
:1002A000F10449F4812F805E0E94D6031E3510F0C0
:1002B00010E001C01F5F89E292E00E94BB030E9430
:1002C000870A0E9427030E94BB0383E0E816F1041B
:1002D00021F080E20E94D60307C084EF91E0F6018E
:1002E0003197F1F70197D9F7219680E4C030D8070C
:1002F00089F6DF91CF911F91FF90EF90DF90CF9023
:100300000895CF93DF93C0E0D0E00E94870A0E9457
:100310004408219680E4C030D807B9F7DF91CF9127
:100320000895CF93DF938CE292E00E94BB0380E0BC
:1003300090E00E942C0A81E492E00E94BB0388EEC8
:1003400093E020E931E0F9013197F1F70197D9F70E
:10035000C0E9D1E08EE492E00E94BB0388EE93E016
:10036000FE013197F1F70197D9F784E692E00E94F8
:10037000BB0388EE93E0FE013197F1F70197D9F7BF
:1003800086E792E00E94BB0388EE93E0FE0131977E
:10039000F1F70197D9F70E943E038823E1F38053D8
:1003A000813029F08130C0F08230A1F609C00E946E
:1003B000770A85E892E00E94BB030E948101CACFC0
:1003C0000E94770A0E94380180E197E2FE0131978E
:1003D000F1F70197D9F7BECFDF91CF9108950F9331
:1003E0001F93CF93DF9300E911E081E992E00E942F
:1003F000BB0388E893E1F8013197F1F70197D9F74A
:100400000E943E038823E1F390E0C097813091057C
:1004100039F08230910529F1892B09F443C0E5CFE9
:100420008EEB92E00E94BB0388EE93E0F8013197D7
:10043000F1F70197D9F70E944C03EC018F3F91052A
:1004400009F0C8F70E942F030E94BB038C2F0E9463
:10045000E00A80E197E2F8013197F1F70197D9F7C7
:10046000C4CF85EC92E00E94BB0388EE93E0F801D4
:100470003197F1F70197D9F70E944C03EC018F3FB8
:10048000910509F0C8F70E942F030E94BB038C2F2F
:100490000E94E20A80E197E2F8013197F1F70197B3
:1004A000D9F7A3CFDF91CF911F910F910895EF92CC
:1004B000FF920F931F93CF93DF9370E9E72E71E0C4
:1004C000F72E8CEC92E00E94BB0388EE93E0F701DC
:1004D0003197F1F70197D9F70E943E038823E1F3A2
:1004E00090E0C09784309105A9F08530910534F4EF
:1004F000009709F44DC0029721F706C08630910598
:1005000079F00897F1F612C080EE92E00E94BB03EA
:1005100011E011C08AEE92E00E94BB0314E00BC010
:1005200080EF92E00E94BB0313E005C087EF92E0EA
:100530000E94BB0312E088EE93E0F7013197F1F7D8
:100540000197D9F7012F0350023018F482E093E0AD
:1005500002C08DE093E00E94BB0388EE93E0F701B8
:100560003197F1F70197D9F70E944C03EC010E94F3
:100570002F030E94BB03023028F4CE01612F0E949A
:10058000F90A9FCFCE0168EC412F0E94E70A99CF6C
:10059000DF91CF911F910F91FF90EF90089581B15E
:1005A000806C81B9249A82B1806C82B92C9A0895AA
:1005B000813041F0813018F0823069F408C082B196
:1005C000805803C082B190E4892782B9089585B12B
:1005D00090E1892785B908951F93CF93DF9310E0A9
:1005E000C0E9D1E080E00E94D80281E00E94D802F8
:1005F00082E00E94D802133039F082E09DE0FE01D3
:100600003197F1F70197D9F71F5F143059F7DF9150
:10061000CF911F910895662369F0813039F08130C0
:1006200018F0823099F404C0179808951698089528
:100630002C980895813039F0813018F0823031F4EF
:1006400004C0179A0895169A08952C9A089590E078
:100650006EE873E040E150E00E948D0C08956EE872
:1006600073E04AE050E00E948D0C089590E06EE83F
:1006700073E04AE050E00E948D0C08951F9383E4DC
:100680000E94B2080E941D09182F0E9427090E948B
:100690000309812F1F910895EF92FF921F93DF931B
:1006A000CF9300D00F92CDB7DEB710E07E01089453
:1006B000E11CF11C0E943E038823E1F38A3259F0C9
:1006C000833249F0153038F4F701E10FF11D805302
:1006D00080831F5FEFCF123081F0133018F4113098
:1006E00029F407C0133081F01430F1F040E050E0FD
:1006F00037C08981482F50E033C089819AE0899FB3
:10070000A00111248A810DC0998184E6989FA001DF
:1007100011248A812AE0829FC0011124480F591FA9
:100720008B81480F511D1CC0898190E028EE33E079
:10073000829FA001839F500D929F500D11248A81AA
:1007400024E6829FC0011124480F591F8C81480F55
:10075000511D8B812AE0829FC0011124480F591F2F
:10076000CA010F900F900F900F90CF91DF911F91C2
:10077000FF90EF900895CF93DF93EC0182E40E9405
:10078000D8080AC08D3041F08A3021F48DE00E94F3
:100790000B098AE00E940B0921968A9121968823F1
:1007A00089F70E940309DF91CF9108951F93182FB5
:1007B00082E40E94D808812F0E940B090E9403093D
:1007C0001F9108951F93182F8BE10E94D6038CE48C
:1007D0000E94D603112339F480E00E94D603809151
:1007E00096038E7F06C081E00E94D6038091960317
:1007F0008160809396031F91089580919603809560
:1008000081700E94E20388E893E120E931E0F90178
:100810003197F1F70197D9F7809196038095817010
:100820000E94E20388E893E120E931E0F901319781
:10083000F1F70197D9F7089581E0809396038CE052
:100840000E94D6038BE10E94D6038FE40E94D60358
:1008500081E00E94D60381E00E94D6038BE10E94D2
:10086000D6038BE70E94D60381E00E94E20308953D
:1008700070937D0360937C0390937F0380937E034A
:10088000089580917C0390917D03892B11F020E0E5
:100890000AC080917E0390917F0320E0892B09F0AC
:1008A00021E081E02827822F0895EF92FF920F9395
:1008B0001F939091730380917203981709F022C1DE
:1008C00080917303882309F41DC120917403309132
:1008D000750340917603509177038091780390914E
:1008E0007903A0917A03B0917B03281739074A074F
:1008F0005B0709F407C18091740390917503A0917F
:100900007603B09177030297A105B1050CF4FAC004
:100910006091730380916B03813021F080916B03B0
:100920008230B1F580916B03813089F4209174039A
:10093000309175034091760350917703809178034D
:1009400090917903A0917A03B0917B0310C020911C
:1009500078033091790340917A0350917B03809121
:10096000740390917503A0917603B0917703281BCF
:10097000390B4A0B5B0B12161306140615060CF402
:1009800049C0211531054105510509F4ABC076C0B8
:1009900080916B03843029F080916B03833009F0E0
:1009A000A1C080916B038430A9F48091740390916D
:1009B0007503A0917603B0917703E0907803F090EF
:1009C000790300917A0310917B03E80EF91E0A1F48
:1009D0001B1F1BC08091740390917503A091760337
:1009E000B0917703209178033091790340917A0395
:1009F00050917B03EE24FF248701E81AF90A0A0BC1
:100A00001B0BE21AF30A040B150B1E141F0410062D
:100A100011067CF520918A0030918B00462F50E022
:100A2000CA0149962817390768F480918A00909185
:100A30008B008F3F910530F480918A0090918B005C
:100A400001964CC08091880090918900029708F42B
:100A500049C08091880090918900495150404817C1
:100A6000590708F03FC08091880090918900019754
:100A70001CC0E114F10401051105A1F120918800C9
:100A800030918900462F50E0CA014996281739074E
:100A900088F480918800909189008F3F910550F4EF
:100AA00080918800909189000196909389008093AD
:100AB000880018C080918A0090918B00029790F076
:100AC00080918A0090918B004951504048175907F6
:100AD00048F480918A0090918B00019790938B004D
:100AE00080938A00109278031092790310927A030F
:100AF00010927B0310927403109275031092760388
:100B0000109277031F910F91FF90EF900895982F07
:100B1000823099F0833018F48130C9F405C08330F5
:100B200019F08430A1F409C080910B018F73809378
:100B30000B0180910B01806408C080910B018F73C1
:100B400080930B0180910B01806880930B0194309E
:100B500028F4923070F49130B1F402C0943099F4DA
:100B6000809105018F738093050180910501806854
:100B700008C0809105018F73809305018091050164
:100B800080648093050190936B0308958FB7F89468
:100B900010928B0010928A001092890010928800A7
:100BA00010927303109272031092740310927503E3
:100BB00010927603109277031092780310927903C3
:100BC00010927A0310927B038FBF80E060E00E9456
:100BD0000B0381E060E00E940B0308951F93162F22
:100BE0009FB7F8948093730360937203209173030B
:100BF00030E030938B0020938A002091720330E024
:100C0000309389002093880010927403109275032A
:100C10001092760310927703109278031092790362
:100C200010927A0310927B039FBF882319F080E013
:100C300061E002C080E060E00E940B03112319F024
:100C400081E061E002C081E060E00E940B031F913F
:100C500008951F920F920FB60F920BB60F921124A8
:100C60002F933F934F935F936F937F938F939F93B4
:100C7000AF93BF93EF93FF9380916B03813021F08B
:100C800080916B03833061F48091780390917903B4
:100C9000A0917A03B0917B030196A11DB11D13C0F1
:100CA00080916B03823021F080916B03843099F442
:100CB0008091780390917903A0917A03B0917B039E
:100CC0000197A109B1098093780390937903A093C8
:100CD0007A03B0937B0380917E0390917F03892BED
:100CE000D1F080917E0390917F03019790937F03D1
:100CF00080937E0380917E0390917F03892B59F42A
:100D0000109273036091720380E00E94EE0580E010
:100D100060E00E940B03FF91EF91BF91AF919F9113
:100D20008F917F916F915F914F913F912F910F9094
:100D30000BBE0F900FBE0F901F9018951F920F9231
:100D40000FB60F920BB60F9211242F933F934F9330
:100D50005F936F937F938F939F93AF93BF93EF9323
:100D6000FF9380916B03813021F080916B0384307D
:100D700061F48091740390917503A0917603B09112
:100D800077030196A11DB11D13C080916B038230C2
:100D900021F080916B03833099F4809174039091DA
:100DA0007503A0917603B09177030197A109B1096A
:100DB0008093740390937503A0937603B0937703A5
:100DC00080917C0390917D03892BD1F080917C03ED
:100DD00090917D03019790937D0380937C03809194
:100DE0007C0390917D03892B59F4109272038091BA
:100DF000730360E00E94EE0581E060E00E940B0357
:100E00000E945504FF91EF91BF91AF919F918F91F7
:100E10007F916F915F914F913F912F910F900BBEFA
:100E20000F900FBE0F901F90189584B1806684B903
:100E3000EAE0F1E08081806C8083E4E0F1E0808191
:100E4000806C8083E0E8F0E08081806A808380812C
:100E500081608083E1E8F0E080818A608083EAE657
:100E6000F0E08081806F80838DB3806C8DBB0E94A9
:100E7000CF0208951F920F920FB60F920BB60F92EA
:100E800011242F938F939F93EF93FF93E09182030D
:100E9000F09183038091C600E956FC4F80838091D6
:100EA0008203909183038F5F914050F4809182037D
:100EB000909183030196909383038093820304C0EF
:100EC0001092830310928203FF91EF919F918F9173
:100ED0002F910F900BBE0F900FBE0F901F90189583
:100EE0001F920F920FB60F920BB60F9211242F93F1
:100EF0003F938F939F93EF93FF93209184033091BF
:100F00008503809186039091870328173907F9F0AC
:100F1000E0918403F0918503E956FA4F8081809334
:100F2000C60080918403909185038F5F914050F4B7
:100F3000809184039091850301969093850380931B
:100F400084030DC0109285031092840308C081E0D1
:100F5000809388038091C1008F7D8093C100FF91B1
:100F6000EF919F918F913F912F910F900BBE0F901A
:100F70000FBE0F901F901895FC01433008F041C040
:100F8000862F85508430E8F5822F81508230C8F555
:100F9000442361F08091C20080628093C20042309D
:100FA00029F48091C20080618093C200223029F42C
:100FB0008091C20088608093C2006530B9F06630CD
:100FC00011F0683028F08091C20082608093C200E6
:100FD000673060F08091C20084608093C200693005
:100FE00029F48091C10084608093C100F093C50012
:100FF000E093C4008091C10088698093C10080E0C3
:10100000089581E0089520918003309181038091BB
:1010100082039091830340E02817390709F041E0EB
:10102000842F089520918003309181038091820361
:10103000909183032817390711F420E023C0E09131
:101040008003F0918103E956FC4F2081E0918003F9
:10105000F0918103E956FC4F1082809180039091BA
:1010600081038F5F914050F48091800390918103C0
:101070000196909381038093800304C010928103B2
:1010800010928003822F0895482F809186039091BB
:10109000870320918403309185030196821793077B
:1010A000A1F38091840390918503892B39F4809179
:1010B0008603909187038F5F914039F3E091860317
:1010C000F0918703E956FA4F40838091860390910F
:1010D00087038F5F914050F480918603909187033E
:1010E0000196909387038093860304C01092870330
:1010F0001092860380918803813039F4109288031E
:101100008091C10080628093C1000895CF93DF93E6
:10111000EC0103C021960E94440888818823D1F7FE
:10112000DF91CF9108951092C1001092C2001092E9
:10113000C5001092C4001092810310928003109297
:1011400085031092840310928303109282031092FD
:1011500087031092860308951092B90088E4809363
:10116000B8000895982F84EA8093BC008091BC0059
:1011700087FFFCCF8091B900887F883021F08031D3
:1011800011F081E008959093BB0084E88093BC0047
:101190008091BC0087FFFCCF9091B900987F983177
:1011A00011F480E0089580E0903409F081E0089522
:1011B000982F44EA34E824E94093BC008091BC00B5
:1011C00087FFFCCF8091B900887F883011F0803193
:1011D00099F79093BB003093BC008091BC0087FFCF
:1011E000FCCF8091B900887F803211F0883539F4C6
:1011F0002093BC008091BC0084FDFCCFDDCF08951E
:101200000E94B208089584E98093BC008091BC00DC
:1012100084FDFCCF08958093BB0084E88093BC00DC
:101220008091BC0087FFFCCF8091B90090E0887F5F
:10123000883209F091E0892F089584EC8093BC00F6
:101240008091BC0087FFFCCF8091BB00089584E8AB
:101250008093BC008091BC0087FFFCCF8091BB00D5
:101260000895982F803110F090E008C0883030F059
:10127000985080917B00886080937B0080917C00F7
:10128000892B80937C0080917A00806480937A001F
:10129000089580917A0090E026E0969587952A95AA
:1012A000E1F78170089580917A0086FD02C080E0A8
:1012B000089580917A00806480937A00809179000B
:1012C0000895809164008E7F8093640010927C006A
:1012D00080917C00806680937C0080917A00806C95
:1012E00080937A0080917A0086FFFCCF0E94530998
:1012F0000895EAE7F0E080818F7B8083E4E6F0E008
:101300008081816080830895982F813011F4119A33
:101310000895882311F411980895823019F482B148
:10132000892782B90895129881E00E94840985E096
:101330008A95F1F7129A80E00E94840908951F931C
:10134000162F882311F0149A01C0149881E00E948E
:1013500084091111139A85E08A95F1F780E00E94C3
:10136000840913981F910895AF92BF92CF92DF9294
:10137000EF92FF920F931F93CF93DF937C0100E0D6
:1013800011E097E0A92EB12C81E0C82ED12C812F3D
:10139000847060E00E949F09812F827060E00E944B
:1013A0009F09812F817060E00E949F09C0E0D0E01A
:1013B000C5018C1B9D0B960102C0220F331F8A951D
:1013C000E2F7F701EC0FFD1FE081E22360E0C73098
:1013D00009F461E08E2F0E949F092196C830D10543
:1013E00039F7173010F010E001C01F5F0F5F0830B1
:1013F00071F6DF91CF911F910F91FF90EF90DF90E9
:10140000CF90BF90AF900895159A81E00E94840913
:1014100085E08A95F1F7159880E00E948409089587
:101420001F9315E00EC081E00E948409812F8A95E8
:10143000F1F7009908C080E00E948409812F8A9505
:10144000F1F7009BF0CF1F910895109289030E943D
:1014500093090E9479090895FF920F931F93CF93E8
:10146000DF93EC0181B18E6381B90898FF24F39476
:10147000F09289030E949309209721F0CE010E94E7
:10148000B40917C088E090E00E94880B8C0180E1CD
:10149000F801808311828AE58283F3821482F582C7
:1014A00016828FEB8783C8010E94B409C8010E948D
:1014B000350C0E94040A0E94100AC0E0D0E005E04A
:1014C00081E00E948409802F8A95F1F780E00E94D4
:1014D0008409802F8A95F1F72196F0E4C030DF0768
:1014E00079F7DF91CF911F910F91FF90089580912F
:1014F0008903882321F480E090E00E942C0A0E9456
:10150000040A0E94100A8BE00E94310908951F937B
:1015100080918903882311F40E94770A0E94490967
:101520008823E1F30E945309182F81E00E94840967
:1015300085E08A95F1F703C081E00E94840980E08C
:101540000E9484090099F8CF812F1F9108951F925E
:101550000F920FB60F9211248F9380918D038823E1
:1015600031F480918D038F5F80938D031AC01092A8
:101570008D0380918C038F5F80938C038150813029
:1015800049F0813028F0823039F0843051F407C0BE
:10159000A59A07C0A59805C08EEF88BD02C010921D
:1015A0008C038F910F900FBE0F901F9018959D9AEE
:1015B000279A84B5826084BD85B5836085BD089512
:1015C00087BD089588BD08950E94410408950F9332
:1015D0001F939C01062F142FB9010E943804812FFC
:1015E0000E948705802F602F0E94EE051F910F91AA
:1015F00008959C01462F02C02856314061E02936EB
:101600003607D0F72115310519F480E090E00FC0BE
:101610008CE390E0BC01269FC001279F900D369F70
:10162000900D112468E671E00E94740BCB0160E814
:101630000E94E70A08951F920F920FB60F920BB601
:101640000F9211242F933F934F935F936F937F9348
:101650008F939F93AF93BF93EF93FF9380918B03EF
:10166000843630F480918B038F5F80938B0321C08D
:1016700010928B0380918A03843038F4823088F48E
:10168000882331F08130A9F407C0843091F40FC071
:101690002F9A82E060E003C02F9882E061E00E9410
:1016A0000B0380918A038F5F80938A0302C010929C
:1016B0008A03FF91EF91BF91AF919F918F917F919D
:1016C0006F915F914F913F912F910F900BBE0F90B3
:1016D0000FBE0F901F9018950E9415070E94D70A01
:1016E0008CEB88BD87BD0895AA1BBB1B51E107C0C9
:1016F000AA1FBB1FA617B70710F0A61BB70B881FA2
:10170000991F5A95A9F780959095BC01CD01089530
:10171000CF93DF93BC018230910510F462E070E05A
:10172000A0919907B0919A07ED01E0E0F0E040E068
:1017300050E021C0888199818617970769F48A81D2
:101740009B81309719F09383828304C090939A070A
:1017500080939907FE0134C06817790738F4411562
:10176000510519F08417950708F4AC01FE018A8130
:101770009B819C01E9012097E9F641155105A9F1EA
:10178000CA01861B970B049708F4BA01E0E0F0E069
:101790002AC08D919C91119784179507F9F46417CD
:1017A000750781F412968D919C911397309719F0DB
:1017B0009383828304C090939A0780939907FD01D5
:1017C00032964FC0CA01861B970BFD01E80FF91F27
:1017D0006193719302978D939C9343C0FD01828125
:1017E00093819C01D9011097A1F680919707909160
:1017F0009807892B41F480916E0390916F03909329
:101800009807809397074091700350917103411599
:10181000510541F44DB75EB780916C0390916D0313
:10182000481B590B209197073091980724173507CB
:10183000B0F4CA01821B930B8617970780F0AB01A7
:101840004E5F5F4F8417950750F0420F531F509320
:10185000980740939707F9016193719302C0E0E004
:10186000F0E0CF01DF91CF910895CF93DF93009700
:1018700009F450C0EC0122971B821A82A0919907AB
:10188000B0919A07109709F140E050E0AC17BD07FE
:1018900008F1BB83AA83FE0121913191E20FF31F6E
:1018A000AE17BF0779F48D919C911197280F391FBE
:1018B0002E5F3F4F3983288312968D919C91139709
:1018C0009B838A834115510571F4D0939A07C09385
:1018D000990720C012968D919C911397AD010097A6
:1018E00011F0DC01D3CFFA01D383C283219131916E
:1018F000E20FF31FCE17DF0769F488819981280F63
:10190000391F2E5F3F4FFA01318320838A819B81EB
:1019100093838283DF91CF910895FB019F01423031
:1019200074F0453264F4642F77270E94740B805D55
:101930008A330CF0895D8193CB010097A1F7108267
:10194000C9010C94A30CDC01FC01672F7191772372
:10195000E1F7329704C07C916D9370836291AE176A
:0A196000BF07C8F30895F894FFCF05
:10196A000A5245534554204D4521000A426C75657B
:10197A00746F6F74682E2E2E000A000A3029204ECA
:10198A006578742070616765003078000A496E696D
:10199A007469616C697A696E672063616D657261E9
:1019AA00000A496E697469616C697A6564000A782B
:1019BA0079526F622047616D65626F792043616D6C
:1019CA0065726100313A2053656E6420426C756518
:1019DA00746F6F7468000A323A205072696E74200C
:1019EA0068657265000A53656E64696E672E2E2EED
:1019FA00000A536572766F20436F6E74726F6C0AB9
:101A0A00312955702D446F776E0A32294C656674F8
:101A1A002D52696768740A302945786974000A5535
:101A2A002D443F20000A4C2D523F20000A4469727F
:101A3A00656374696F6E3A2032203420362038008C
:101A4A000A466F727761726473000A4C65667400A5
:101A5A000A5269676874000A4261636B776172644B
:101A6A0073000A446567726565733F20000A44691A
:101A7A007374616E63653F20000A7879526F626FF2
:101A8A00742042657461000A3129204472697669BA
:101A9A006E67000A32292043616D657261000A335C
:101AAA002920426C7565746F6F7468000A342920A6
:101ABA00536572766F73001903270333033E034C91
:101ACA0003000057029101B000EF010120009B07BB
:021ADA0000000A
:00000001FF
