:100000000C941B010C943C010C943C010C943C019D
:100010000C943C010C943C010C943C010C94C107E1
:100020000C944C070C943C010C943C010C943C0146
:100030000C943C010C943C010C943C010C943C014C
:100040000C943C010C943C010C943C010C943C013C
:100050000C943C010C943C010C943C010C943C012C
:100060000C943C010C945D080C9493080C943C0196
:100070000C943C010C943C010C943C010C943C010C
:100080000C943C010C943C010C943C010C943C01FC
:100090000C943C010C943C010C943C010C943C01EC
:1000A0000C943C010C943C010C943C010C943C01DC
:1000B0000C943C010C943C010C943C010C943C01CC
:1000C0000C943C010C943C010C943C010C943C01BC
:1000D0000C943C010C943C010C943C010C943C01AC
:1000E0000C943C010A7879526F626F7420426574F7
:1000F00061000A31292044726976696E67000A320C
:10010000292043616D657261000A332920426C75B4
:1001100065746F6F7468000A342920536572766FB6
:100120007300E400F200FE00090117010A302920E3
:100130004E6578742070616765000A446972656372
:1001400074696F6E3A2032203420362038000A4617
:100150006F727761726473000A4C656674000A52AC
:1001600069676874000A4261636B77617264730047
:100170000A44697374616E63653F20000A446567D1
:10018000726565733F20000A536572766F20436F76
:100190006E74726F6C0A312955702D446F776E0A38
:1001A00032294C6566742D52696768740A30294596
:1001B000786974000A552D443F20000A4C2D523FA7
:1001C00020000A496E697469616C697A696E6720FA
:1001D00043616D657261000A496E697469616C6999
:1001E0007A6564000A7879526F622047616D6562B2
:1001F0006F792043616D65726100313A2053656EFD
:100200006420426C7565746F6F7468000A323A201E
:100210005072696E742068657265000A53656E6479
:10022000696E672E2E2E007879526F626F742042AD
:100230004554410A000011241FBECFEFD1E2DEBFBA
:10024000CDBF00E00CBF12E0A0E0B2E0E0EBFBE1CC
:1002500000E00BBF02C007900D92A632B107D9F79C
:1002600016E0A6E2B2E001C01D92AA38B107E1F79C
:100270000E943E010C94D60D0C9400000E94F203E3
:1002800083E390E068E040E021E00E94DF080E9404
:10029000280C0E94B20A78940E940F040E94740CE9
:1002A000FDCF80E092E00E94DE040E94610488237A
:1002B000C1F30895CF92DF92EF92FF921F93CF93F5
:1002C000DF938EE092E00E94DE04C0E0D0E010E018
:1002D00090E9C92E91E0D92E83E0E82EF12CEC2292
:1002E000FD22E114F10449F4812F805E0E94F9049B
:1002F0001E3510F010E001C01F5F80E192E00E9407
:10030000DE040E94C00B0E944A040E94DE0483E0C7
:10031000E816F10421F080E20E94F90407C084EF9E
:1003200091E0F6013197F1F70197D9F7219680E432
:10033000C030D80789F6DF91CF911F91FF90EF90E1
:10034000DF90CF900895CF93DF93C0E0D0E00E947C
:10035000C00B0E948C09219680E4C030D807B9F701
:10036000DF91CF910895CF92DF92EF92FF920F939A
:100370001F93CF93DF93FF24E0E9CE2EE1E0DE2E42
:1003800073E0E72E01C0FF24CF2DD0E08E01000FD7
:10039000111F0C0F1D1F000F111FF801EE5DFE4F06
:1003A000659174918DE392E00E94A90D8DE392E036
:1003B0000E94DE0480ED97E0F6013197F1F7019796
:1003C000D9F7FE01EE0FFF1FEC0FFD1FEE0FFF1F11
:1003D000EC5DFE4F659174918DE392E00E94A90D52
:1003E0008DE392E00E94DE0480ED97E0F601319704
:1003F000F1F70197D9F7FE9CC00111240397A9F0EA
:10040000F801EA5DFE4F659174918DE392E00E94E0
:10041000A90D8DE392E00E94DE0480ED97E0F601E5
:100420003197F1F70197D9F704C08EE092E00E946E
:10043000DE048DE392E06CE271E00E94A90D8DE391
:1004400092E00E94DE0480ED97E0F6013197F1F72B
:100450000197D9F70E94610490E08033910531F44F
:10046000FF2009F090CFFF24F3948ECF8F339105B6
:1004700009F48ACF8A32910509F486CF8332910537
:1004800009F482CF009709F47FCFFC01F097E530A3
:10049000F10508F079CFEE0FFF1FED5EFD4F0190E3
:1004A000F081E02D309709F46FCF19956DCFCF9380
:1004B000DF938DE392E062EC71E00E94A90D8DE381
:1004C00092E00E94DE0480E090E00E947A0B8DE3CF
:1004D00092E067ED71E00E94A90D8DE392E00E9429
:1004E000DE0488EE93E020E931E0F9013197F1F77D
:1004F0000197D9F7C0E9D1E08DE392E064EE71E0B5
:100500000E94A90D8DE392E00E94DE0488EE93E044
:10051000FE013197F1F70197D9F78DE392E06AEF89
:1005200071E00E94A90D8DE392E00E94DE0488EE46
:1005300093E0FE013197F1F70197D9F78DE392E04F
:100540006CE072E00E94A90D8DE392E00E94DE044F
:1005500088EE93E0FE013197F1F70197D9F70E94F9
:1005600061048823E1F38053813031F08130F8F069
:10057000823009F0C1CF0FC00E94B20B8DE392E030
:100580006BE172E00E94A90D8DE392E00E94DE040F
:100590000E94A301B1CF0E94B20B0E945A0180E1D8
:1005A00097E2FE013197F1F70197D9F7A5CFDF91D7
:1005B000CF9108950F931F93CF93DF9300E911E03C
:1005C0008DE392E067E871E00E94A90D8DE392E06F
:1005D0000E94DE0488E893E1F8013197F1F7019772
:1005E000D9F70E9461048823E1F390E0C09781303D
:1005F000910539F08230910559F1892B09F44FC0EA
:10060000DFCF8DE392E064EB71E00E94A90D8DE3F2
:1006100092E00E94DE0488EE93E0F8013197F1F752
:100620000197D9F70E946F04EC018F3F910509F003
:10063000C8F70E9452040E94DE048C2F0E94E10B36
:1006400080E197E2F8013197F1F70197D9F7B8CF38
:100650008DE392E06BEB71E00E94A90D8DE392E0D7
:100660000E94DE0488EE93E0F8013197F1F70197DC
:10067000D9F70E946F04EC018F3F910509F0C8F78C
:100680000E9452040E94DE048C2F0E94E90B80E13C
:1006900097E2F8013197F1F70197D9F791CFDF9100
:1006A000CF911F910F910895EF92FF920F931F9397
:1006B000CF93DF93F0E9EF2EF1E0FF2E8DE392E090
:1006C0006AE371E00E94A90D8DE392E00E94DE04CE
:1006D00088EE93E0F7013197F1F70197D9F70E947F
:1006E00061048823E1F390E0C09784309105D9F04C
:1006F0008530910534F4009709F46DC00297F1F646
:1007000006C086309105D9F00897C1F624C08DE364
:1007100092E06EE471E00E94A90D8DE392E00E94E8
:10072000DE0411E023C08DE392E068E571E00E94F1
:10073000A90D8DE392E00E94DE0414E017C08DE362
:1007400092E06EE571E00E94A90D8DE392E00E94B7
:10075000DE0413E00BC08DE392E065E671E00E94D9
:10076000A90D8DE392E00E94DE0412E088EE93E092
:10077000F7013197F1F70197D9F7012F03500230B4
:1007800028F48DE392E06CE771E004C08DE392E021
:1007900060E771E00E94A90D8DE392E00E94DE0403
:1007A00088EE93E0F7013197F1F70197D9F70E94AE
:1007B0006F04EC010E9452040E94DE04023028F40F
:1007C000CE01612F0E94060C79CFCE0168EC412F3B
:1007D0000E94F40B73CFDF91CF911F910F91FF9087
:1007E000EF90089581B1806C81B9249A82B1806CB8
:1007F00082B92C9A0895813041F0813018F082300E
:1008000069F408C082B1805803C082B190E489279E
:1008100082B9089585B190E1892785B908951F931C
:10082000CF93DF9310E0C0E9D1E080E00E94FB03AA
:1008300081E00E94FB0382E00E94FB03133039F049
:1008400082E09DE0FE013197F1F70197D9F71F5F34
:10085000143059F7DF91CF911F910895662369F005
:10086000813039F0813018F0823099F404C0179843
:100870000895169808952C980895813039F08130A4
:1008800018F0823031F404C0179A0895169A08952A
:100890002C9A089590E06DE772E040E150E00E94EC
:1008A000B00D08956DE772E04AE050E00E94B00D8F
:1008B000089590E06DE772E04AE050E00E94B00DCC
:1008C00008951F9383E40E94FF090E946A0A182F6B
:1008D0000E94740A0E94500A812F1F910895EF927E
:1008E000FF921F93DF93CF9300D00F92CDB7DEB767
:1008F00010E07E010894E11CF11C0E946104882331
:10090000E1F38A3259F0833249F0153038F4F701B7
:10091000E10FF11D805380831F5FEFCF123081F014
:10092000133018F4113029F407C0133081F014305B
:10093000F1F040E050E037C08981482F50E033C0EB
:1009400089819AE0899FA00111248A810DC0998133
:1009500084E6989FA00111248A812AE0829FC00129
:100960001124480F591F8B81480F511D1CC08981CC
:1009700090E028EE33E0829FA001839F500D929F6C
:10098000500D11248A8124E6829FC0011124480F52
:10099000591F8C81480F511D8B812AE0829FC00115
:1009A0001124480F591FCA010F900F900F900F90FC
:1009B000CF91DF911F91FF90EF900895CF93DF9338
:1009C000EC0182E40E94250A0AC08D3041F08A3091
:1009D00021F48DE00E94580A8AE00E94580A21966C
:1009E0008A912196882389F70E94500ADF91CF913E
:1009F00008951F93182F82E40E94250A812F0E94D8
:100A0000580A0E94500A1F9108951F93182F8BE1D6
:100A10000E94F9048CE40E94F904112339F480E067
:100A20000E94F904809185028E7F06C081E00E94B9
:100A3000F904809185028160809385021F91089559
:100A400080918502809581700E94050588E893E178
:100A500020E931E0F9013197F1F70197D9F7809159
:100A60008502809581700E94050588E893E120E960
:100A700031E0F9013197F1F70197D9F7089581E055
:100A8000809385028CE00E94F9048BE10E94F904B6
:100A90008FE40E94F90481E00E94F90481E00E9441
:100AA000F9048BE10E94F9048BE70E94F90481E0CC
:100AB0000E9405050895709331026093300290936F
:100AC0003302809332020895809130029091310276
:100AD000892B11F020E00AC08091320290913302FC
:100AE00020E0892B09F021E081E02827822F08955A
:100AF000EF92FF920F931F9390912702809126020D
:100B0000981709F022C180912702882309F41DC19A
:100B1000209128023091290240912A0250912B0203
:100B200080912C0290912D02A0912E02B0912F0263
:100B3000281739074A075B0709F407C18091280283
:100B400090912902A0912A02B0912B020297A1054F
:100B5000B1050CF4FAC06091270280911D0281302A
:100B600021F080911D028230B1F580911D0281300B
:100B700089F4209128023091290240912A02509153
:100B80002B0280912C0290912D02A0912E02B09107
:100B90002F0210C020912C0230912D0240912E0284
:100BA00050912F028091280290912902A0912A024F
:100BB000B0912B02281B390B4A0B5B0B1216130644
:100BC000140615060CF449C02115310541055105DF
:100BD00009F4ABC076C080911D02843029F0809169
:100BE0001D02833009F0A1C080911D028430A9F458
:100BF0008091280290912902A0912A02B0912B02A3
:100C0000E0902C02F0902D0200912E0210912F0204
:100C1000E80EF91E0A1F1B1F1BC08091280290912D
:100C20002902A0912A02B0912B0220912C0230912E
:100C30002D0240912E0250912F02EE24FF248701B5
:100C4000E81AF90A0A0B1B0BE21AF30A040B150B3C
:100C50001E141F04100611067CF520918A003091A5
:100C60008B00462F50E0CA0149962817390768F4CF
:100C700080918A0090918B008F3F910530F4809194
:100C80008A0090918B0001964CC0809188009091D1
:100C90008900029708F449C08091880090918900EA
:100CA000495150404817590708F03FC080918800CB
:100CB0009091890001971CC0E114F1040105110510
:100CC000A1F12091880030918900462F50E0CA019F
:100CD00049962817390788F48091880090918900F7
:100CE0008F3F910550F48091880090918900019682
:100CF000909389008093880018C080918A00909119
:100D00008B00029790F080918A0090918B0049515E
:100D100050404817590748F480918A0090918B0001
:100D2000019790938B0080938A0010922C0210926E
:100D30002D0210922E0210922F0210922802109271
:100D4000290210922A0210922B021F910F91FF90FC
:100D5000EF900895982F823099F0833018F4813005
:100D6000C9F405C0833019F08430A1F409C0809122
:100D70000B018F7380930B0180910B01806408C07D
:100D800080910B018F7380930B0180910B01806820
:100D900080930B01943028F4923070F49130B1F4C8
:100DA00002C0943099F4809105018F7380930501FE
:100DB00080910501806808C0809105018F73809340
:100DC00005018091050180648093050190931D02C7
:100DD00008958FB7F89410928B0010928A001092A9
:100DE0008900109288001092270210922602109219
:100DF00028021092290210922A0210922B021092BD
:100E00002C0210922D0210922E0210922F028FBFF0
:100E100080E060E00E942E0481E060E00E942E04E9
:100E200008951F93162F9FB7F8948093270260931D
:100E300026022091270230E030938B0020938A0015
:100E40002091260230E03093890020938800109290
:100E500028021092290210922A0210922B0210925C
:100E60002C0210922D0210922E0210922F029FBF80
:100E7000882319F080E061E002C080E060E00E9419
:100E80002E04112319F081E061E002C081E060E0EE
:100E90000E942E041F9108951F920F920FB60F9279
:100EA0000BB60F9211242F933F934F935F936F9341
:100EB0007F938F939F93AF93BF93EF93FF93809113
:100EC0001D02813021F080911D02833061F48091F8
:100ED0002C0290912D02A0912E02B0912F0201962A
:100EE000A11DB11D13C080911D02823021F080919F
:100EF0001D02843099F480912C0290912D02A091D2
:100F00002E02B0912F020197A109B10980932C0202
:100F100090932D02A0932E02B0932F028091320263
:100F200090913302892BD1F080913202909133025B
:100F30000197909333028093320280913202909114
:100F40003302892B59F4109227026091260280E027
:100F50000E94110780E060E00E942E04FF91EF9153
:100F6000BF91AF919F918F917F916F915F914F91C1
:100F70003F912F910F900BBE0F900FBE0F901F90BF
:100F800018951F920F920FB60F920BB60F92112465
:100F90002F933F934F935F936F937F938F939F9381
:100FA000AF93BF93EF93FF9380911D02813021F0A7
:100FB00080911D02843061F4809128029091290271
:100FC000A0912A02B0912B020196A11DB11D13C060
:100FD00080911D02823021F080911D02833099F4AE
:100FE0008091280290912902A0912A02B0912B02AF
:100FF0000197A109B1098093280290932902A09337
:101000002A02B0932B028091300290913102892BF9
:10101000D1F080913002909131020197909331028A
:10102000809330028091300290913102892B59F4E3
:10103000109226028091270260E00E94110781E051
:1010400060E00E942E040E947805FF91EF91BF910D
:10105000AF919F918F917F916F915F914F913F9150
:101060002F910F900BBE0F900FBE0F901F901895F1
:1010700084B1806684B9EAE0F1E08081806C80838D
:10108000E4E0F1E08081806C8083E0E8F0E0808142
:10109000806A8083808181608083E1E8F0E08081E4
:1010A0008A608083EAE6F0E08081806F80838DB380
:1010B000806C8DBB0E94F20308951F920F920FB6B1
:1010C0000F920BB60F9211242F938F939F93EF9350
:1010D000FF93E0913602F09137028091C600EA5703
:1010E000FD4F808380913602909137028F5F91404F
:1010F00050F4809136029091370201969093370216
:101100008093360204C01092370210923602FF918B
:10111000EF919F918F912F910F900BBE0F900FBE6B
:101120000F901F9018951F920F920FB60F920BB64B
:101130000F9211242F933F938F939F93EF93FF93DD
:10114000209138023091390280913A0290913B020D
:1011500028173907F9F0E0913802F0913902EA577F
:10116000FB4F80818093C6008091380290913902B4
:101170008F5F914050F4809138029091390201962E
:1011800090933902809338020DC010923902109268
:10119000380208C081E080931E028091C1008F7DDB
:1011A0008093C100FF91EF919F918F913F912F917B
:1011B0000F900BBE0F900FBE0F901F901895FC0163
:1011C000433008F041C0862F85508430E8F5822FE7
:1011D00081508230C8F5442361F08091C200806262
:1011E0008093C200423029F48091C20080618093D4
:1011F000C200223029F48091C20088608093C2002E
:101200006530B9F0663011F0683028F08091C20086
:1012100082608093C200673060F08091C200846079
:101220008093C200693029F48091C100846080936A
:10123000C100F093C500E093C4008091C1008869AB
:101240008093C10080E0089581E0089520913402E8
:1012500030913502809136029091370240E0281794
:10126000390709F041E0842F08952091340230912C
:10127000350280913602909137022817390711F410
:1012800020E023C0E0913402F0913502EA57FD4F8F
:101290002081E0913402F0913502EA57FD4F10822F
:1012A00080913402909135028F5F914050F480918B
:1012B0003402909135020196909335028093340266
:1012C00004C01092350210923402822F089580914A
:1012D0003A0290913B0220913802309139020196F6
:1012E0008217930719F481E090E008958091380205
:1012F00090913902892B19F080E090E00895809157
:101300003A0290913B0220E030E08F5F914011F46F
:1013100021E030E0C9010895482F80913A02909170
:101320003B022091380230913902019682179307CF
:10133000A1F38091380290913902892B39F4809180
:101340003A0290913B028F5F914039F3E0913A026B
:10135000F0913B02EA57FB4F408380913A02909113
:101360003B028F5F914050F480913A0290913B0292
:10137000019690933B0280933A0204C010923B0284
:1013800010923A0280911E02813061F410921E0286
:101390008091C10080628093C1008091C000806212
:1013A0008093C0000895CF93DF93EC0103C0219692
:1013B0000E948C0988818823D1F7DF91CF9108950D
:1013C0001092C1001092C2001092C5001092C40089
:1013D00010923502109234021092390210923802A3
:1013E000109237021092360210923B0210923A028B
:1013F00008951092B90088E48093B8000895982F5A
:1014000084EA8093BC008091BC0087FFFCCF809170
:10141000B900887F883021F0803111F081E0089593
:101420009093BB0084E88093BC008091BC0087FF50
:10143000FCCF9091B900987F983111F480E0089525
:1014400080E0903409F081E00895982F44EA34E870
:1014500024E94093BC008091BC0087FFFCCF8091C1
:10146000B900887F883011F0803199F79093BB00E4
:101470003093BC008091BC0087FFFCCF8091B90005
:10148000887F803211F0883539F42093BC00809138
:10149000BC0084FDFCCFDDCF08950E94FF090895B4
:1014A00084E98093BC008091BC0084FDFCCF08954A
:1014B0008093BB0084E88093BC008091BC0087FFD0
:1014C000FCCF8091B90090E0887F883209F091E0EC
:1014D000892F089584EC8093BC008091BC0087FF25
:1014E000FCCF8091BB00089584E88093BC0080917C
:1014F000BC0087FFFCCF8091BB000895982F8031FE
:1015000010F090E008C0883030F0985080917B0057
:10151000886080937B0080917C00892B80937C0085
:1015200080917A00806480937A00089580917A0097
:101530008295869586958370809581700895982F01
:1015400080917A0086FF09C020E005C080917A0072
:10155000806480937A00822F0895209179009923E6
:10156000A9F7F9CF809164008E7F8093640080E6B4
:1015700080937C0080917A00806C80937A008091C7
:101580007A0086FDFCCF80E00E949F0A0895EAE77A
:10159000F0E080818F7B8083A4E6B0E08C91816055
:1015A0008C9380818F7780830895982F85E38A9527
:1015B000F1F7913011F4119A09C0992311F411989F
:1015C00005C0923019F482B1892782B985E38A95E2
:1015D000F1F70895129881E00E94D50A85E38A9573
:1015E000F1F7129A80E00E94D50A08951F93162FF2
:1015F000882311F0149A01C0149881E00E94D50A42
:101600001111139A15E3812F8A95F1F780E00E945A
:10161000D50A1A95F1F713981F910895CF92DF928A
:10162000EF92FF920F931F93CF93DF937C0100E023
:1016300081E0C82ED12C802F847060E00E94F60AD1
:10164000802F827060E00E94F60A802F817060E037
:101650000E94F60A10E0C7E0D0E0C6010C2E02C0DE
:10166000880F991F0A94E2F7F7019081982360E0B0
:10167000173009F461E0892F0E94F60A1F5F219755
:10168000183059F70F5F0894E11CF11C083099F6E7
:10169000DF91CF911F910F91FF90EF90DF90CF904E
:1016A0000895159A81E00E94D50A85E38A95F1F79D
:1016B000159880E00E94D50A08951F9315E30CC089
:1016C00081E00E94D50A812F8A95F1F780E00E947F
:1016D000D50A812F8A95F1F7009BF2CF1F910895CB
:1016E00080B18170089510923C020E94EA0A0E9423
:1016F000C70A0895FF920F931F93CF93DF93EC01D6
:1017000081B18E6381B90898FF24F394F0923C0272
:101710000E94EA0A209721F0CE010E940E0B18C009
:1017200088E090E00E94A40C8C018FE7F801808390
:1017300082E0818312828AE58383F4821582F682B5
:1017400084E08783C8010E940E0BC8010E94510DDE
:101750000E94510B0E945D0BDF91CF911F910F9161
:10176000FF90089580913C02882329F480E090E066
:101770000E947A0B08950E94510B0E945D0B089500
:10178000009902C00E94B20B81E00E94D50A80E05D
:101790000E94D50A8BE00E947E0A0E94960A882346
:1017A000E1F380E00E949F0A089584B5836084BDC0
:1017B00084B5806A84BD85B5856085BD279A9D9A6C
:1017C00008959FE0899FC0011124892F805F87BD04
:1017D00008959FE0899FC0011124892F805F88BDF3
:1017E00008950E94640508950F931F939C01062F8E
:1017F000142FB9010E945B05812F0E94AA06802F39
:10180000602F0E9411071F910F9108959C01462F90
:1018100002C02856314061E029363607D0F721153D
:10182000310519F480E090E00FC08CE390E0BC013A
:10183000269FC001279F900D369F900D112468E6CA
:1018400071E00E94900CCB0160E80E94F40B0895B7
:101850000E9438080E94D50B84E60E94E90B80E0C4
:101860000E94E10B0895EF92FF920F931F93DF9375
:10187000CF93CDB7DEB728970FB6F894DEBF0FBE73
:10188000CDBF8E010F5F1F4F89E0E82EF12CEC0ECB
:10189000FD1E0E9426098823E1F30E943509F80104
:1018A00081938F01EE15FF05A1F7CE0101960E94ED
:1018B0007A0B00E010E00E94C00B0E948C090F5FC1
:1018C0001F4FF0E400301F07B1F70E94730B2896FA
:1018D0000FB6F894DEBF0FBECDBFCF91DF911F9141
:1018E0000F91FF90EF9008950E9426098823B9F088
:1018F0000E9435098F3319F0833679F40BC08DE3DC
:1019000092E067E272E00E94A90D8DE392E00E94EE
:10191000D30908950E94330C08950E948C090895FC
:10192000AA1BBB1B51E107C0AA1FBB1FA617B70705
:1019300010F0A61BB70B881F991F5A95A9F7809521
:101940009095BC01CD010895CF93DF93BC01823007
:10195000910510F462E070E0A0918806B0918906CC
:10196000ED01E0E0F0E040E050E021C088819981A5
:101970008617970769F48A819B81309719F09383C2
:10198000828304C09093890680938806FE0134C048
:101990006817790738F44115510519F08417950730
:1019A00008F4AC01FE018A819B819C01E90120972A
:1019B000E9F641155105A9F1CA01861B970B049759
:1019C00008F4BA01E0E0F0E02AC08D919C911197F3
:1019D00084179507F9F46417750781F412968D91B1
:1019E0009C911397309719F09383828304C090934E
:1019F000890680938806FD0132964FC0CA01861B76
:101A0000970BFD01E80FF91F6193719302978D9376
:101A10009C9343C0FD01828193819C01D901109761
:101A2000A1F68091860690918706892B41F48091DA
:101A3000210290912202909387068093860640911E
:101A40002302509124024115510541F44DB75EB770
:101A500080911F0290912002481B590B209186060D
:101A60003091870624173507B0F4CA01821B930B07
:101A70008617970780F0AB014E5F5F4F841795077D
:101A800050F0420F531F5093870640938606F9018A
:101A90006193719302C0E0E0F0E0CF01DF91CF915C
:101AA0000895CF93DF93009709F450C0EC0122977B
:101AB0001B821A82A0918806B0918906109709F1BD
:101AC00040E050E0AC17BD0708F1BB83AA83FE01DC
:101AD00021913191E20FF31FAE17BF0779F48D9179
:101AE0009C911197280F391F2E5F3F4F3983288310
:101AF00012968D919C9113979B838A834115510572
:101B000071F4D0938906C093880620C012968D91F7
:101B10009C911397AD01009711F0DC01D3CFFA012E
:101B2000D383C28321913191E20FF31FCE17DF07D8
:101B300069F488819981280F391F2E5F3F4FFA0180
:101B4000318320838A819B8193838283DF91CF912C
:101B50000895FB01DC0105900D920020E1F7089546
:101B6000FB019F01423074F0453264F4642F772703
:101B70000E94900C805D8A330CF0895D8193CB01CB
:101B80000097A1F71082C9010C94C60DDC01FC017D
:101B9000672F71917723E1F7329704C07C916D93A1
:101BA00070836291AE17BF07C8F30895F894FFCF12
:101BB0000A426C7565746F6F74682E2E2E000A00D1
:101BC0003078000000540357025101DA020101206D
:061BD000008A060000007F
:00000001FF
