:100000000C94AA000C94CB000C94CB000C94CB0065
:100010000C94CB000C94CB000C94CB000C94600897
:100020000C94EB070C94CB000C94CB000C94CB00FD
:100030000C94CB000C94060E0C94CB000C94CB00CB
:100040000C94CB000C94CB000C94CB000C94CB0004
:100050000C94CB000C943B0D0C94CB000C94CB0077
:100060000C94CB000C94D7080C940E090C94CB0084
:100070000C94CB000C94CB000C94CB000C94CB00D4
:100080000C94CB000C94CB000C94CB000C94CB00C4
:100090000C94CB000C94CB000C94CB000C94CB00B4
:1000A0000C94CB000C94CB000C94CB000C94CB00A4
:1000B0000C94CB000C94CB000C94CB000C94CB0094
:1000C0000C94CB000C94CB000C94CB000C94CB0084
:1000D0000C94CB000C94CB000C94CB000C94CB0074
:1000E0000C94CB007879526F626F74204245544172
:1000F0000A000A7879526F626F7420426574610059
:100100000A312920426C7565746F6F7468000A3279
:1001100029205352414D000A3329204472697669DF
:100120006E67000A342920536572766F73000A35B2
:10013000292043616D65726100F20000010E011714
:100140000123012E010A3029204E65787420706148
:100150006765000011241FBECFEFD1E2DEBFCDBF27
:1001600000E00CBF14E0A0E0B2E0E4E7F3E300E05D
:100170000BBF02C007900D92AE34B107D9F719E05A
:10018000AEE4B4E001C01D92A930B107E1F70E94CE
:100190004D040C94B8190C940000882309F05DC03C
:1001A00020914E0483E0289FC001112486309105E0
:1001B0008CF4E6E02E9FF0011124E75CFE4F2591C0
:1001C000349183E894E0B9010E94881983E894E0AF
:1001D0000E94050520914E0483E0289FC001112450
:1001E0008530910584F4E6E02E9FF0011124E55C52
:1001F000FE4F2591349183E894E0B9010E9488195B
:1002000083E894E002C080E092E00E94050520911E
:100210004E0483E0289FC00111248430910584F4AA
:10022000E6E02E9FF0011124E35CFE4F259134910E
:1002300083E894E0B9010E94881983E894E002C041
:1002400080E092E00E94050583E894E065E471E0B7
:100250000E94881983E894E067C0833019F482E033
:1002600092E062C0853019F481E392E05DC0813094
:1002700009F056C080915004882359F089E592E036
:100280000E94050584E794E00E94050580E692E05F
:100290004BC080E792E00E94050582E892E00E9450
:1002A00005058AE892E00E941E0B26E930E040E056
:1002B00050E060E070E080E090E00E94490A83E84E
:1002C00094E00E94050526E930E040E050E060E05F
:1002D00070E080E090E00E94490A80E992E00E948C
:1002E000050587E992E00E941E0B26E930E040E018
:1002F00050E060E070E080E090E00E94490A83E80E
:1003000094E00E94050526E930E040E050E060E01E
:1003100070E080E090E00E94490A8EE992E004C01B
:10032000843029F48CEA92E00E9405050895823019
:10033000B1F484ED92E00E9405058AEE92E00E94FD
:1003400005050E9426100E94C8050E94050587EF3A
:1003500092E00E94050589EF92E00E94050508954C
:100360001F93CF93DF930E944305C82FD0E0809165
:100370004F04882309F048C0C033D105A1F440914F
:100380004E04842F90E001969C01220F331F280F0A
:10039000391F2630310524F44F5F40934E04CEC000
:1003A00010924E04CBC0CF33D10509F4CEC0CA326F
:1003B000D10509F4CAC0C332D10509F4C6C02097DB
:1003C00009F4C3C0CE01C09740914E0423E0429F80
:1003D000900111242830310584F0342F330F340F6D
:1003E0003E5F20E002C03A502F5F3A30E0F73AE03B
:1003F000239F90011124820F931F8630910508F0EE
:10040000A4C080934F049FC0833009F044C0C03320
:10041000D10509F491C0CE01C19782309105F0F465
:1004200084E193E00E9405050E945105182F8FE199
:1004300093E00E940505C133D10539F40E945105AE
:10044000682F812F90E041E006C00E945105682F7F
:10045000812F90E042E00E94B50D1AC0C333D10550
:1004600009F073C087E293E00E9405050E945105E0
:10047000EC0181E393E00E9405050E945105813063
:1004800019F4CE0164E002C0CE0163E00E94CE0DFB
:1004900080914F0458C0853011F0813029F4C03369
:1004A000D10509F052C048C0843009F040C0C033C3
:1004B000D10509F441C0C133D10519F40E94510599
:1004C00029C0C333D10519F40E9451052DC0C23390
:1004D000D10531F480914203893AB8F5845F24C094
:1004E000C833D10531F4809142038C3070F18C50C7
:1004F0001BC0C433D10531F4809143038C3028F103
:100500008C5008C0C633D10541F480914303893A29
:10051000E0F4845F8093430318C0C533D105A9F488
:100520008FE58093430388E2809342030EC08230BC
:1005300061F4C033D10521F410924F0480E003C070
:10054000209719F082E00E94CD00DF91CF911F919A
:1005500008953F924F925F926F927F928F929F92F7
:10056000AF92BF92CF92DF92EF92FF920F931F93C1
:10057000CF93DF930E946F0E322E432E542E652EA2
:10058000762E872E982ED92FC9E00E949B098823AA
:1005900019F00E94A909C1500E946F0E59016A0109
:1005A0007B018C01232D342D452D562D672D782D63
:1005B000892D9D2F0E94AD0E9923C9F58823B9F589
:1005C0007723A9F5662399F5552389F5442379F511
:1005D000343068F5333011F4293E48F5CC23A9F6C0
:1005E00042C00E94A909809374040E946F0E5901B1
:1005F0006A017B018C01232D342D452D562D672D4D
:10060000782D892D9D2F0E94AD0E992381F488238A
:1006100071F4772361F4662351F4552341F44423A4
:1006200031F4343020F43330F1F4293EE0F084E545
:10063000809374049DE490937504809376041092E3
:100640007704DF91CF911F910F91FF90EF90DF9092
:10065000CF90BF90AF909F908F907F906F905F9062
:100660004F903F9008950E949B09882309F4BDCFC5
:10067000B8CFEF92FF920F931F93DF93CF93CDB735
:10068000DEB728970FB6F894DEBF0FBECDBF8E0140
:100690000F5F1F4F69E0E62EF12CEC0EFD1E0E944D
:1006A0009B098823E1F30E94A909F80181938F0136
:1006B000EE15FF05A1F7CE0101960E94BF0C00E0E8
:1006C00010E40E94E90C0E94FF0901501040C9F794
:1006D0000E94FF0C28960FB6F894DEBF0FBECDBF68
:1006E000CF91DF911F910F91FF90EF900895EF92BE
:1006F000FF920F931F93DF93CF93CDB7DEB7289769
:100700000FB6F894DEBF0FBECDBF8E010F5F1F4F37
:1007100079E0E72EF12CEC0EFD1E0E949B09882348
:10072000E1F30E94A909F80181938F01EE15FF05FD
:10073000A1F7CE0101960E94BF0C00E010E20E94DA
:10074000E90CE82E0E94E90C82958F709E2D907F17
:10075000892B0E94FF090150104089F70E94FF0C6D
:1007600028960FB6F894DEBF0FBECDBFCF91DF91B4
:100770001F910F91FF90EF9008951F93DF93CF93F8
:100780000F92CDB7DEB70E949B09882309F480C081
:100790000E94A909803809F43FC0813880F484346C
:1007A00041F1853430F48F3361F1833409F070C046
:1007B0001AC0853419F18F3409F06AC01FC083381C
:1007C000F1F1843830F4813879F1823809F060C071
:1007D00033C0853809F455C0853808F443C08638DD
:1007E00009F056C051C00E94A90281E080935004D4
:1007F0004FC00E94000B109250044AC00E94000B90
:1008000047C083E894E064EE70E00E94881983E8B2
:1008100094E00E941E0B3CC00E94A909853B08F091
:1008200088E28093420334C00E94A909853B08F006
:100830008FE5809343032CC00E94390329C00E9496
:10084000A909182F0E94A90989830E94A909698111
:10085000882311F041E001C042E0812F90E00E9426
:10086000B50D16C00E94A909182F0E94A909882356
:1008700011F063E001C064E0812F90E00E94CE0D92
:1008800007C00E94770304C00E94020D0E94FF0966
:100890000F90CF91DF911F9108950E947B0482E019
:1008A0000E9484040E94B00D0E94440B0E94EC043C
:1008B00089E190E068E040E021E00E945B090E944D
:1008C000F60B0E94B10C0E94930F0E94F30D7894D6
:1008D00080E00E94CD0082E00E9484040E94B0016A
:1008E0000E94BD03809142030E948F0D80914303BB
:1008F0000E94820DF3CF81B1806C81B9249A82B1BC
:10090000806C82B92C9A0895813041F0813018F0C2
:10091000823069F408C082B1805803C082B190E48B
:10092000892782B9089585B190E1892785B908950D
:10093000CF93C0E080E00E94840481E00E948404A0
:1009400082E00E948404C33049F08FE792E4A0E182
:1009500081509040A040E1F700C00000CF5FC4305C
:1009600049F7CF910895662369F0813039F08130DD
:1009700018F0823099F404C01798089516980895D5
:100980002C980895813039F0813018F0823031F49C
:1009900004C0179A0895169A08952C9A0895CF9333
:1009A000C82F82E40E946F0B8C2F0E94A10B0E9423
:1009B000990BCF910895CF93C82F8BE10E94CF045C
:1009C0008CE40E94CF04CC2311F480E001C081E0CC
:1009D0000E94CF04CF9108958CE00E94CF048BE158
:1009E0000E94CF048FE40E94CF0481E00E94CF04D4
:1009F00081E00E94CF048BE10E94CF048BE70E942C
:100A0000CF0481E00E94DB0408950F931F93DF93CE
:100A1000CF930F92CDB7DEB7082F82E499830E945F
:100A20006F0B9981402F592F8A0112C08091510478
:100A30008F5F80935104D8018D918D018D3041F0ED
:100A40008A3021F48DE00E94A10B8AE00E94A10B64
:100A5000F8018081882351F70E94990B80915104FD
:100A6000853058F0109251048FEF93ECA9E081503B
:100A70009040A040E1F700C000000F90CF91DF91BF
:100A80001F910F910895CF9383E40E944A0B0E9417
:100A9000B20BC82F0E94BC0B0E94990B8C2FCF91D8
:100AA00008950F931F93DF93CF9300D00F920F926F
:100AB000CDB7DEB790E08E010F5F1F4F9D830E9480
:100AC00043059D818823D1F38A3259F0833249F05E
:100AD000953038F4F801E90FF11D805380839F5F52
:100AE000EDCF923069F0933018F49130E9F505C0FC
:100AF000933069F09430C1F51AC0298130E036C0D6
:100B000029818AE0289F900111248A810DC02981C2
:100B100084E6289F900111249A818AE0989FC00161
:100B20001124280F391F8B81280F311D1FC04981C7
:100B300050E088EE93E0489F9001499F300D589F08
:100B4000300D11249A8184E6989FC0011124280F4A
:100B5000391F8C81280F311D9B818AE0989FC0012D
:100B60001124280F391F02C020E030E0C9010F9086
:100B70000F900F900F900F90CF91DF911F910F91D9
:100B8000089563E874E04AE050E00E948F190895E8
:100B900090E00E94C105089590E063E874E040E1B0
:100BA00050E00E948F19089570935D0460935C0477
:100BB00090935F0480935E04089580915C0490910B
:100BC0005D04009751F420915E0430915F0481E050
:100BD0002115310519F080E0089580E0089584B171
:100BE000806684B9EAE0F1E08081806C8083E4E093
:100BF000F1E08081806C8083E0E8F0E08081806AB1
:100C00008083808181608083E1E8F0E080818A6078
:100C10008083EAE6F0E08081806F80838DB3806C12
:100C20008DBB08959091530480915204981709F058
:100C300014C180915304882309F40FC120915404F6
:100C400030915504409156045091570480915804B6
:100C500090915904A0915A04B0915B042817390768
:100C60004A075B0709F4F9C0809154049091550438
:100C7000A0915604B091570482309105A105B105A9
:100C80000CF4EBC06091530480914403813021F057
:100C900080914403823031F580914403813089F49E
:100CA0008091540490915504A0915604B09157043A
:100CB000209158043091590440915A0450915B049A
:100CC0004AC08091580490915904A0915A04B0915F
:100CD0005B04209154043091550440915604509186
:100CE000570439C080914403843029F08091440333
:100CF000833009F0A2C0809144038430A9F420918C
:100D000054043091550440915604509157048091F9
:100D1000580490915904A0915A04B0915B04820F39
:100D2000931FA41FB51F1BC08091540490915504BC
:100D3000A0915604B0915704209158043091590461
:100D400040915A0450915B04B095A095909581957F
:100D50009F4FAF4FBF4F821B930BA40BB50B1816C1
:100D600019061A061B0684F540918A0050918B00E3
:100D7000862F90E09C01275E3F4F4217530768F48F
:100D800020918A0030918B002F3F310530F4809103
:100D90008A0090918B0001964CC020918800309180
:100DA00089002230310508F448C020918800309134
:100DB000890049978217930708F03FC08091880007
:100DC0009091890001971CC00097A105B105A9F178
:100DD0004091880050918900862F90E09C01275E09
:100DE0003F4F4217530788F42091880030918900C3
:100DF0002F3F310550F48091880090918900019631
:100E0000909389008093880018C020918A003091C7
:100E10008B002230310588F020918A0030918B00C0
:100E200049978217930748F480918A0090918B002C
:100E3000019790938B0080938A001092580410922F
:100E4000590410925A0410925B04109254041092A8
:100E5000550410925604109257040895833071F08F
:100E6000843028F4813051F08230F9F410C085309C
:100E7000B9F0853060F08730C1F412C090910B0159
:100E80009F7390930B0190910B0190640CC0909113
:100E90000B019F7390930B0190910B01906803C01D
:100EA00090910B019F7390930B01843028F4823052
:100EB00088F48130E9F405C0843019F08730C0F43B
:100EC00012C0909105019F739093050190910501C7
:100ED00090680CC0909105019F73909305019091CB
:100EE0000501906403C0909105019F7390930501E3
:100EF0008093440308958FB7F89410928B0010925A
:100F00008A00109289001092880010925304109267
:100F100052041092540410925504109256041092E8
:100F20005704109258041092590410925A041092C7
:100F30005B048FBF85E00E942E0780E060E00E9486
:100F4000B30481E060E00E94B3040895CF93C62FFC
:100F50009FB7F894809353046093520420915304F4
:100F600030E030938B0020938A002091520430E0CF
:100F700030938900209388001092540410925504F5
:100F8000109256041092570410925804109259046B
:100F900010925A0410925B049FBF882329F080E0CE
:100FA00061E00E94B30407C080E060E00E94B304E7
:100FB00087E00E942E07CC2329F081E061E00E94A7
:100FC000B30407C081E060E00E94B30486E00E94A1
:100FD0002E07CF9108951F920F920FB60F920BB666
:100FE0000F9211242F933F934F935F936F937F93AF
:100FF0008F939F93AF93BF93EF93FF93809144039D
:10100000813021F080914403833061F48091580451
:1010100090915904A0915A04B0915B040196A11DCE
:10102000B11D13C080914403823021F080914403AC
:10103000843099F48091580490915904A0915A04F5
:10104000B0915B040197A109B10980935804909372
:101050005904A0935A04B0935B0480915E0490916C
:101060005F040097D1F080915E0490915F04019736
:1010700090935F0480935E0480915E0490915F047E
:10108000009759F4109253046091520480E00E943A
:10109000A60780E060E00E94B304FF91EF91BF914A
:1010A000AF919F918F917F916F915F914F913F9100
:1010B0002F910F900BBE0F900FBE0F901F901895A1
:1010C0001F920F920FB60F920BB60F9211242F930F
:1010D0003F934F935F936F937F938F939F93AF93C0
:1010E000BF93EF93FF9380914403813021F080916F
:1010F0004403843061F48091540490915504A0918C
:101100005604B09157040196A11DB11D13C08091E2
:101110004403823021F080914403833099F480911C
:10112000540490915504A0915604B091570401972E
:10113000A109B1098093540490935504A0935604D7
:10114000B093570480915C0490915D040097D1F0B6
:1011500080915C0490915D04019790935D0480936D
:101160005C0480915C0490915D04009759F41092A6
:1011700052048091530460E00E94A60781E060E081
:101180000E94B3040E941206FF91EF91BF91AF91AC
:101190009F918F917F916F915F914F913F912F918F
:1011A0000F900BBE0F900FBE0F901F9018951F92BF
:1011B0000F920FB60F920BB60F9211242F938F93AD
:1011C0009F93EF93FF93E0916204F0916304809109
:1011D000C600ED5FFA4F80838091620490916304B2
:1011E00021E08F3F920750F4809162049091630454
:1011F0000196909363048093620404C01092630488
:1012000010926204FF91EF919F918F912F910F9017
:101210000BBE0F900FBE0F901F9018951F920F924C
:101220000FB60F920BB60F9211242F933F938F930B
:101230009F93EF93FF932091640430916504809114
:101240006604909167042817390701F1E09164045E
:10125000F0916504ED5FF84F80818093C600809126
:1012600064049091650421E08F3F920750F48091CF
:1012700064049091650401969093650480936404DE
:101280000DC0109265041092640408C081E0809340
:1012900045038091C1008F7D8093C100FF91EF9144
:1012A0009F918F913F912F910F900BBE0F900FBE8A
:1012B0000F901F9018954330D0F5362F35503430AD
:1012C000B0F5322F31503230A0F5442361F0309127
:1012D000C20030623093C200423029F43091C20023
:1012E00030613093C200223029F42091C20028607E
:1012F0002093C200653081F0663011F0683039F417
:101300002091C20022602093C200663029F0209113
:10131000C20024602093C2009093C5008093C40053
:101320008091C10088698093C10080E0089581E0C8
:10133000089581E0089540916004509161042091E6
:1013400062043091630481E04217530709F480E09E
:10135000089520916004309161048091620490911D
:10136000630428173907A9F3E0916004F091610440
:10137000ED5FFA4F8081E0916004F0916104ED5FD0
:10138000FA4F1082209160043091610491E02F3F68
:10139000390758F420916004309161042F5F3F4F6A
:1013A00030936104209360040895109261041092B8
:1013B000600408958091660490916704209164040C
:1013C0003091650401968217930799F08091640427
:1013D00090916504009781F4209166043091670430
:1013E00081E090E041E02F3F340741F080E090E061
:1013F000089581E090E0089580E090E008952091C4
:1014000066043091670440916404509165042F5F35
:101410003F4F2417350799F32091640430916504F8
:101420002115310541F4209166043091670491E063
:101430002F3F390721F3E0916604F0916704ED5FD7
:10144000F84F8083809166049091670421E08F3F7C
:10145000920750F4809166049091670401969093EE
:1014600067048093660404C01092670410926604B7
:1014700080914503813061F4109245038091C10051
:1014800080628093C1008091C00080628093C00020
:1014900008952F923F924F925F926F927F928F9218
:1014A0009F92AF92BF92CF92DF92EF92FF920F93F3
:1014B0001F93DF93CF93CDB7DEB72A970FB6F8947B
:1014C000DEBF0FBECDBF222E932E842E752E662E2C
:1014D000572E482E392E0E946F0E29833A834B8354
:1014E0005C836D837E838F83988790E0822D89292A
:1014F0008829872986298529842983299A878987A4
:101500000E949B09882319F18A85082F10E00E9408
:10151000A90993E8E92E94E0F92EE00EF11EF701F7
:1015200080830E94FF09F70180818A3019F0FA85D3
:10153000FF3711F4F80146C08D3049F0883021F4AE
:101540008A8581508A8703C09A859F5F9A87E9853B
:10155000EE23B1F20E946F0E59016A017B018C01EA
:1015600029813A814B815C816D817E818F81988553
:101570000E94AD0E931520F2391609F5841508F472
:10158000BFCF4816E1F4751508F4BACF5716B9F471
:10159000661508F4B5CF661691F4571508F4B0CF68
:1015A000751669F4481508F4ABCF841641F4391563
:1015B00008F4A6CF931619F4221508F4A1CF9A8542
:1015C000E92FF0E0ED57FB4F108283E894E02A9674
:1015D0000FB6F894DEBF0FBECDBFCF91DF911F9144
:1015E0000F91FF90EF90DF90CF90BF90AF909F90C2
:1015F0008F907F906F905F904F903F902F900895C5
:1016000020E030E040E050E060E070E080E090E01A
:101610000E94490A0895DF93CF930F92CDB7DEB7AA
:1016200089830E94000B60E070E0498150E00E94D5
:101630007218CB010F90CF91DF910895CF93DF9374
:10164000C82FD92F02C00E94FF0989918823D9F79A
:10165000DF91CF9108951092C1001092C2001092B4
:10166000C5001092C40010926104109260041092A0
:101670006504109264041092630410926204109244
:1016800067041092660408951092B90088E480936C
:10169000B800089594EA9093BC009091BC0097FF25
:1016A000FCCF9091B900987F983011F0903199F467
:1016B0008093BB0084E88093BC008091BC0087FFCE
:1016C000FCCF9091B900987F983139F081E0903447
:1016D00029F480E0089581E0089580E0089544EAC7
:1016E00034E824E94093BC009091BC0097FFFCCF04
:1016F0009091B900987F983011F0903199F78093CC
:10170000BB003093BC009091BC0097FFFCCF909140
:10171000B900987F903211F0983539F42093BC00CD
:101720009091BC0094FDFCCFDDCF08950E944A0B40
:10173000089584E98093BC008091BC0084FDFCCFB7
:1017400008958093BB0084E88093BC008091BC0026
:1017500087FFFCCF9091B900987F81E0983209F41F
:1017600080E0089584EC8093BC008091BC0087FFEA
:10177000FCCF8091BB00089584E88093BC008091E9
:10178000BC0087FFFCCF8091BB000895803148F4F6
:10179000883040F0885090917B00986090937B0057
:1017A00001C080E090917C00982B90937C00809108
:1017B0007A00806480937A00089590917A0081E0A5
:1017C00096FD80E00895CF93C82F0E94DD0B8823FB
:1017D00051F080917900CC2339F090917A00906497
:1017E00090937A0001C080E0CF91089580916400C9
:1017F0008E7F8093640080E680937C0080917A00E5
:10180000806C80937A000E94DD0B8823E1F380E0F6
:101810000E94E30B0895EAE7F0E080818F7B8083EC
:10182000A4E6B0E08C9181608C9380818F77808377
:1018300008959AE09A95F1F700C0813011F4119A59
:101840000895882311F411980895823019F492B103
:10185000982792B9089581E00E94190C80E00E94B7
:10186000190C81E00E94190C80E00E94190C12985A
:1018700081E00E94190C129A80E00E94190C0895D0
:10188000882311F0149A01C014986111139A81E011
:101890000E94190C80E00E94190C13980895AF92D1
:1018A000BF92DF92EF92FF920F931F93DF93CF933C
:1018B0000F92CDB7DEB75C01DD2481E0E82EF12C7C
:1018C0008D2D847060E00E94400C8D2D827060E050
:1018D0000E94400C8D2D817060E00E94400C07E05A
:1018E00010E090E09701002E02C0220F331F0A94EF
:1018F000E2F7F5018081822361E0973009F060E032
:1019000099830E94400C99819F5F0150104098304C
:1019100049F7D3940894A11CB11CFD2DF83081F631
:101920000F90CF91DF911F910F91FF90EF90DF907B
:10193000BF90AF900895159A81E00E94190C1598F8
:1019400080E00E94190C089506C081E00E94190CE5
:1019500080E00E94190C009BF8CF089580B181703F
:10196000089581B18E6381B9089882B1857C82B96E
:10197000129A08950E949B0C0E94A40C0895CF9384
:10198000DF93EC010E94B10C0E942B0C209721F0F8
:10199000CE010E944F0C18C088E090E00E943F17D3
:1019A000EC018FE7888382E089831A828AE58B8342
:1019B00081E08C831D828E8384E08F83CE010E9420
:1019C0004F0CCE010E94D9170E94BA0CDF91CF9123
:1019D000089580B180FD02C00E94BA0C81E00E948F
:1019E000190C80E00E94190C8BE00E94C60B0E942B
:1019F000DD0B8823E1F380E00E94E30B08950E9451
:101A00002B0C08958AE00E94C60B80E00E94E30B35
:101A1000282F30E02538310540F52432310580F09B
:101A200044E250E0249FC001259F900D349F900D0B
:101A3000112464E670E00E94D2168AE390E012C09E
:101A400024313105A8F04BED50E0249FC001259FC3
:101A5000900D349F900D112464E670E00E94D21620
:101A60008CE790E0861B970B089580E590E0089541
:101A700080E090E008951F920F920FB60F9211240C
:101A80002F933F934F935F938F939F9380916A041B
:101A900090916B042091460330E02817390710F429
:101AA000A59801C0A59A20916804309169044091DD
:101AB000470350E04217530710F42F9801C02F9AA4
:101AC000883C910560F4019690936B0480936A04BE
:101AD0002F5F3F4F309369042093680408C0109231
:101AE0006B0410926A0410926904109268049F912A
:101AF0008F915F914F913F912F910F900FBE0F905B
:101B00001F90189524EB30E0281B3109C9016CE0C7
:101B100070E00E94D2166B5F60934603089590E0D8
:101B20006CE070E00E94D2166B5F609347030895EB
:101B30008FE50E94820D88E20E948F0D84B582603D
:101B400084BD85B5826085BD88EC87BDEEE6F0E09A
:101B5000808182608083279A9D9A2F98A598089506
:101B60000E94EF050E94980D08951F93DF93CF9375
:101B70000F92CDB7DEB79C01162FB90149830E94A1
:101B8000D4054981842F0E942E07812F612F0E9446
:101B9000A6070F90CF91DF911F9108959C01462FCA
:101BA00002C02856314081E029363807D0F7211588
:101BB000310579F0ECE3F0E02E9FC0012F9F900DEE
:101BC0003E9F900D112468E671E00E94D2169B01A1
:101BD00002C020E030E0C90160E80E94B50D089520
:101BE0000E94DD050895E0EBF0E080818260808353
:101BF000E1EBF0E08081846080838AEF8093B30022
:101C0000E0E7F0E080818260808308951F920F9268
:101C10000FB60F920BB60F9211242F933F934F9351
:101C20005F936F937F938F939F93AF93EF93FF9304
:101C300040916C0430916D0420916E0490916F047A
:101C400080917004F0917104E0917204A09173048A
:101C5000642F6F5F51E0641708F050E0530F41E0CC
:101C6000531708F040E0420F31E0421708F030E02F
:101C7000390F21E0391708F020E0280F91E02817EC
:101C800008F090E09F0F81E09F1708F080E08E0F32
:101C900071E08E1708F070E07A0F60936C04509337
:101CA0006D0440936E0430936F04209370049093FE
:101CB00071048093720470937304FF91EF91AF915C
:101CC0009F918F917F916F915F914F913F912F9154
:101CD0000F900BBE0F900FBE0F901F901895209184
:101CE0006C0430916D0440916E0450916F046091CA
:101CF000700470917104809172049091730408953E
:101D0000AF92BF92CF92DF92EF92FF920F931F9309
:101D100020916C0430916D0440916E0450916F04D9
:101D200060917004709171048091720490917304B9
:101D3000F8EEAF2EE3E0BE2ECC24DD24EE24FF240B
:101D400000E010E00E947F101F910F91FF90EF9034
:101D5000DF90CF90BF90AF900895AF92BF92CF9297
:101D6000DF92EF92FF920F931F93191720F19117B3
:101D700009F078C00817F8F0801709F073C0F7165B
:101D8000D0F07F1509F06EC0E616A8F06E1509F0C8
:101D900069C0D51680F05D1509F064C0C41658F00E
:101DA0004C1509F05FC0B31630F03B1509F05AC06E
:101DB000A21608F057C0B22FBA19A1E02B1708F0ED
:101DC000A0E0E32FEB19F1E03E1708F0F0E03E2F22
:101DD0003A1B21E0E31708F020E0F22BA42FAC1906
:101DE000E1E04A1708F0E0E04A2F4F1B21E0A4177A
:101DF00008F020E0E22BA52FAD19F1E05A1708F00A
:101E0000F0E05A2F5E1B21E0A51708F020E0F22B2E
:101E1000A62FAE19E1E06A1708F0E0E06A2F6F1B09
:101E200021E0A61708F020E0E22BA72FAF19F1E080
:101E30007A1708F0F0E07A2F7E1B21E0A71708F050
:101E400020E0F22BA82FA01BE1E08A1708F0E0E0C9
:101E50008A2F8F1B21E0A81708F020E0E22B911BAE
:101E60002B2F57C0EA2DE21B2E2FA1E0AE1608F053
:101E7000A0E0EB2DE31BF1E0BE1608F0F0E03E2FF2
:101E80003A1BA1E0E31708F0A0E0FA2BAC2DA41B4D
:101E9000E1E0CA1608F0E0E04A2F4F1BF1E0A4177A
:101EA00008F0F0E0EF2BAD2DA51BF1E0DA1608F0FD
:101EB000F0E05A2F5E1BE1E0A51708F0E0E0FE2BF2
:101EC000AE2DA61BE1E0EA1608F0E0E06A2F6F1BDA
:101ED000F1E0A61708F0F0E0EF2BAF2DA71BF1E023
:101EE000FA1608F0F0E07A2F7E1BE1E0A71708F061
:101EF000E0E0FE2BA02FA81BE1E00A1708F0E0E0CD
:101F00008A2F8F1BF1E0A81708F0F0E0EF2B191BC8
:101F1000912F9E1B1F910F91FF90EF90DF90CF901C
:101F2000BF90AF9008958FEF87B9E4E0F1E0808132
:101F30008F638083E7E0F1E080818063808318B85D
:101F4000E5E0F1E08081807C8083E8E0F1E0808161
:101F50008F7D808380818061808308952091050139
:101F600021602093050168B90000209105012E7FB2
:101F7000209305012091050122602093050178B985
:101F80000000209105012D7F2093050180FF04C0F2
:101F900020910501246003C0209105012B7F20932F
:101FA000050181FF04C020910501286003C0209134
:101FB0000501277F2093050182FF04C08091050160
:101FC000806103C0809105018F7E8093050180911F
:101FD000080190E28927809308010895603020E08D
:101FE000720728E0820720E0920720F06FEF7FEF72
:101FF00087E090E00E94AE0F17B8000086B19FEF17
:1020000097B90895DF93CF930F92CDB7DEB76030C5
:1020100020E0720728E0820720E0920720F06FEFAF
:102020007FEF87E090E049830E94AE0F8091080126
:102030008F7E80930801498148B9809108018061B1
:10204000809308010F90CF91DF9108956F927F9256
:102050008F929F92AF92BF92CF92DF92EF92FF92B8
:102060000F931F93AA24BB246501EE24FF2487014C
:102070008FEF682E712C812C912C6E207F20802276
:102080009122C801B701462D0E940210C801B70174
:102090000E94EE0F90E0A0E0B0E086159705A8053D
:1020A000B90529F00894A11CB11CC11CD11C0894CD
:1020B000E11CF11C011D111D8FEFE8168FEFF806D2
:1020C00087E0080780E0180799F6C601B50124E605
:1020D00030E040E050E00E94B316A80197010E9452
:1020E000E616822F1F910F91FF90EF90DF90CF9017
:1020F000BF90AF909F908F907F906F900895A8E3CE
:10210000B0E0E5E8F0E10C94081729833A834B83AB
:102110005C836D837E838F839887A986BA86CB86FE
:10212000DC86ED86FE860F87188BE984FA840B85A2
:102130001C852D853E854F85588929803A804B80A6
:102140005C802DA23EA24FA258A6AD80BE80CF805B
:10215000D884211531054105510509F0A6C3AE14F7
:10216000BF04C006D10608F03FC120E0E21620E01F
:10217000F20621E0020720E0120758F43FEFE316D1
:10218000F1040105110509F090F420E030E0A90107
:1021900017C040E0E41640E0F40640E0040741E0E8
:1021A000140750F420E130E040E050E009C028E09E
:1021B00030E040E050E004C028E130E040E050E092
:1021C000D801C701022E04C0B695A79597958795AB
:1021D0000A94D2F7885B9C4FDC016C9180E290E01E
:1021E000A0E0B0E0821B930BA40BB50B861B9109FA
:1021F000A109B1090097A105B105A1F1082E04C0FC
:10220000EE0CFF1C001F111F0A94D2F7A6019501C6
:10221000082E04C0220F331F441F551F0A94D2F703
:1022200060E270E0681B790BADA0BEA0CFA0D8A47F
:1022300004C0D694C794B794A7946A95D2F7A22AFB
:10224000B32AC42AD52A2DA03EA04FA058A404C06A
:10225000220C331C441C551C8A95D2F72DA23EA299
:102260004FA258A6380188249924A80197014070EC
:102270005070298F3A8F4B8F5C8FC601B501A40136
:1022800093010E94E616222E532E442E352E6D8F7A
:102290007E8F8F8F98A3C601B501A40193010E9480
:1022A000E616822D952DA42DB32D1C012D01C20102
:1022B000B101298D3A8D4B8D5C8D0E94B3165B0167
:1022C0006C014D8D5E8D6F8D78A1DA01992788277D
:1022D0004DA15EA16FA178A59B0144275527822BB4
:1022E000932BA42BB52B8A159B05AC05BD05E0F4FB
:1022F000089421083108410851088E0D9F1DA01F28
:10230000B11F8E159F05A007B10770F08A159B05B8
:10231000AC05BD0548F4089421083108410851086E
:102320008E0D9F1DA01FB11F9C01AD012A193B09F5
:102330004C095D0959016A01CA01B901A40193015F
:102340000E94E61629A739A349AB5DA76D8F7E8F42
:102350008F8F98A3C601B501A40193010E94E616D0
:10236000A9A4B9A0C9A8DDA4C601B501298D3A8DDB
:102370004B8D5C8D0E94B3163B014C016D8D7E8DA3
:102380008F8D98A1AB01332722278DA19EA1AFA1EC
:10239000B8A5A070B070282B392B4A2B5B2B2615C3
:1023A000370548055905C0F40894A108B108C108CB
:1023B000D1082E0D3F1D401F511F2E153F05400710
:1023C000510750F0261537054805590528F408949B
:1023D000A108B108C108D1088101FF24EE24EA2830
:1023E000FB280C291D29A1C4E114F10401051105E4
:1023F00059F461E070E080E090E0A80197010E944C
:10240000E61679018A0110C070E0E71670E0F70661
:1024100071E0070770E0170758F48FEFE816F10432
:102420000105110509F090F420E030E0A90117C082
:1024300090E0E91690E0F90690E0090791E01907AD
:1024400050F420E130E040E050E009C028E030E006
:1024500040E050E004C028E130E040E050E0D80126
:10246000C701022E04C0B695A795979587950A9443
:10247000D2F7885B9C4FDC018C91280F311D411DE8
:10248000511D80E290E0A0E0B0E0821B930BA40B12
:10249000B50B61F4150126012E183F08400A510AB8
:1024A00081E0A82EB12CC12CD12C23C1082E04C050
:1024B000EE0CFF1C001F111F0A94D2F71501260114
:1024C000022E04C056944794379427940A94D2F766
:1024D00035014601082E04C0660C771C881C991C27
:1024E0000A94D2F76D8E7E8E8F8E98A28DA09EA0BC
:1024F000AFA0B8A404C0B694A794979487942A95E3
:10250000D2F7A5019401AD8CBE8CCF8CD8A0A22AA5
:10251000B32AC42AD52AAD8EBE8ECF8ED8A22DA1C5
:102520003EA14FA158A504C0220F331F441F551FC1
:102530008A95D2F72DA33EA34FA358A7380188242C
:102540009924B801A7016070707049A75AA76BA7BA
:102550007CA7C201B101A40193010E94E616298F54
:1025600039AB4DA75DAB69A37AA38BA39CA3C20132
:10257000B101A40193010E94E616A98CB9A8CDA4CB
:10258000DDA8A98EBA8ECB8EDC8EC601B50129A539
:102590003AA54BA55CA50E94B3165B016C0129A06E
:1025A0003AA04BA05CA0D101992788272D8C3E8CA6
:1025B0004F8C58A0920144275527822B932BA42B94
:1025C000B52B8A159B05AC05BD0530F5298D3A8DD7
:1025D0004B8D5C8D2150304040405040298F3A8FC8
:1025E0004B8F5C8F8E0D9F1DA01FB11F8E159F05F9
:1025F000A007B10788F08A159B05AC05BD0560F4FE
:102600002150304040405040298F3A8F4B8F5C8F93
:102610008E0D9F1DA01FB11FAC01BD014A195B09A2
:102620006C097D095A016B01CB01BA01A401930128
:102630000E94E616522E432E342E252E69A37AA32D
:102640008BA39CA3C601B501A40193010E94E616C9
:10265000652C742C832C922CC401B30129A53AA5B6
:102660004BA55CA50E94B3169B01AC0169A17AA1A0
:102670008BA19CA16B01BB24AA248D8D9E8DAF8D57
:10268000B8A1A070B070A82AB92ACA2ADB2AA2165B
:10269000B306C406D506E0F4089461087108810801
:1026A0009108AE0CBF1CC01ED11EAE14BF04C006E4
:1026B000D10670F0A216B306C406D50648F40894F5
:1026C0006108710881089108AE0CBF1CC01ED11EA4
:1026D00015012601221A330A440A550A898D9A8D5A
:1026E000AB8DBC8D6C01BB24AA24A628B728C828B2
:1026F000D9283801882499246D8E7E8E8F8E98A2D9
:10270000A80197014070507029A73AA74BA75CA772
:10271000C201B101A40193010E94E616922E832EFC
:10272000742E652E69A37AA38BA39CA3C201B10169
:102730002D8D3E8D4F8D58A10E94E616892D982D26
:10274000A72DB62D898F9A8FAB8FBC8FBC01CD0181
:1027500029A53AA54BA55CA50E94B3163B014C01E7
:1027600049A15AA16BA17CA1DA01992788272DA044
:102770003EA04FA058A4920144275527822B932BAB
:10278000A42BB52B86159705A805B90530F5298D1D
:102790003A8D4B8D5C8D2150304040405040298F08
:1027A0003A8F4B8F5C8F8E0D9F1DA01FB11F8E1512
:1027B0009F05A007B10788F086159705A805B905FC
:1027C00060F42150304040405040298F3A8F4B8F69
:1027D0005C8F8E0D9F1DA01FB11FAC01BD0146195E
:1027E0005709680979093A014B01CB01BA012D8DCE
:1027F0003E8D4F8D58A10E94E616522E432E342E48
:10280000252E69A37AA38BA39CA3C401B3012D8DAC
:102810003E8D4F8D58A10E94E616652C742C832C9A
:10282000922CC401B30129A53AA54BA55CA50E9431
:10283000B3161B012C0169A17AA18BA19CA1AB014C
:10284000332722278DA19EA1AFA1B8A5A070B0709B
:10285000282B392B4A2B5B2B2215330544055505B4
:10286000C0F4089461087108810891082E0D3F1D7D
:10287000401F511F2E153F054007510750F02215EC
:1028800033054405550528F408946108710881084A
:102890009108898D9A8DAB8DBC8D8C01FF24EE241F
:1028A000E628F7280829192943C2A216B306C40648
:1028B000D50608F42AC2203090E0390791E0490794
:1028C00090E0590750F42F3F31054105510509F0BB
:1028D00090F466247724430119C02030A0E03A0721
:1028E000A0E04A07A1E05A0760F490E1692E712C3C
:1028F000812C912C0BC088E0682E712C812C912C9E
:1029000005C0B8E16B2E712C812C912CDA01C90124
:10291000062C04C0B695A795979587950A94D2F78B
:10292000885B9C4FFC018081680E711C811C911C8E
:1029300080E290E0A0E0B0E086199709A809B90903
:1029400089F42A153B054C055D0508F4E5C12DA069
:102950003EA04FA058A42E143F044006510608F094
:10296000DBC1D3C189A719012A0104C0220C331C81
:10297000441C551C8A95D2F7D801C701062C04C007
:10298000B695A795979587950A94D2F7282A392A5C
:102990004A2A5B2AA801970109A404C0220F331F09
:1029A000441F551F0A94D2F729A33AA34BA35CA353
:1029B00086017501062C04C016950795F794E794D7
:1029C0000A94D2F7B601A50109A404C0440F551F0B
:1029D000661F771F0A94D2F74D8F5E8F6F8F78A393
:1029E0006DA17EA18FA198A504C096958795779536
:1029F00067956A94D2F73B014C018D8D9E8DAF8D0A
:102A0000B8A186299729A829B9298D8F9E8FAF8FC4
:102A1000B8A35201CC24DD24A20191014070507072
:102A200029AB3AAB4BAB5CABC801B701A601950132
:102A30000E94E616622E932E842E752E6DA77EA719
:102A40008FA798ABC801B701A60195010E94E616B1
:102A5000E62CF92C082D172DE98EFA8E0B8F1C8F82
:102A6000C801B70129A93AA94BA95CA90E94B316CC
:102A70006DA47EA48FA498A88301FF24EE246D8CFE
:102A80007E8C8F8C98A0940144275527E22AF32A44
:102A9000042B152BE616F7060807190730F5298DC4
:102AA0003A8D4B8D5C8D2150304040405040298FF5
:102AB0003A8F4B8F5C8FE20CF31C041D151DE21442
:102AC000F3040405150588F0E616F706080719074C
:102AD00060F42150304040405040298F3A8F4B8F56
:102AE0005C8FE20CF31C041D151DE61AF70A080B97
:102AF000190BC801B701A60195010E94E6162DAB7E
:102B00003EAB4FAB58AF6DA77EA78FA798ABC80160
:102B1000B701A60195010E94E6166DA87EA88FA8B0
:102B200098ACC401B30129A93AA94BA95CA90E9498
:102B3000B3169B01AC01ADA4BEA4CFA4D8A8D50107
:102B400099278827AD8CBE8CCF8CD8A06FEFE62E4E
:102B50006FEFF62E012D112DAE20BF20C022D12205
:102B60008A299B29AC29BD2982179307A407B50799
:102B7000E0F408946108710881089108820D931DA2
:102B8000A41DB51D82159305A405B50570F0821727
:102B90009307A407B50748F40894610871088108F1
:102BA0009108820D931DA41DB51D1C012D01221A33
:102BB000330A440A550A2D8E3E8E4F8E58A2A98C98
:102BC000BA8CCB8CDC8C8501FF24EE24E628F72818
:102BD00008291929AFEFAA2EAFEFBA2EC12CD12C9C
:102BE000AE20BF20C022D12218014424552469A060
:102BF0007AA08BA09CA02FEF3FEF40E050E0622234
:102C000073228422952269A17AA18BA19CA1AC0197
:102C100066277727498F5A8F6B8F7C8FC601B50146
:102C2000A40193010E94B31669A37AA38BA39CA36A
:102C3000C601B501298D3A8D4B8D5C8D0E94B3166E
:102C40005B016C01C201B101A40193010E94B316A2
:102C50003B014C01C201B101298D3A8D4B8D5C8D38
:102C60000E94B3169B01AC01A60CB71CC81CD91C52
:102C700029A03AA04BA05CA0C201AA27BB27A80E9E
:102C8000B91ECA1EDB1EA614B704C804D90420F45A
:102C9000205030404F4F5F4FC601AA27BB27820FFD
:102CA000931FA41FB51F4D8C5E8C6F8C78A04816A7
:102CB00059066A067B0618F184159505A605B70521
:102CC000A1F56501BB24AA2489A19AA1ABA1BCA14D
:102CD000A070B070A80EB91ECA1EDB1E8DA19EA1E9
:102CE000AFA1B8A509A404C0880F991FAA1FBB1FD4
:102CF0000A94D2F78A159B05AC05BD05B0F408947B
:102D0000E108F1080109110910C0AA24BB246501DA
:102D1000EE24FF2487010CC0AA24BB24650181E0B6
:102D2000E82EF12C012D112D03C0AA24BB2465012E
:102D3000FE01719688E0DF011D928A95E9F7E98A24
:102D4000FA8A0B8B1C8BAD8ABE8ACF8AD88E2E2D29
:102D50003A894B895C896A2D7E898F89988DE8969E
:102D6000E2E10C942417629FD001739FF001829FCF
:102D7000E00DF11D649FE00DF11D929FF00D839F0A
:102D8000F00D749FF00D659FF00D9927729FB00DA7
:102D9000E11DF91F639FB00DE11DF91FBD01CF01BA
:102DA00011240895AA1BBB1B51E107C0AA1FBB1F1A
:102DB000A617B70710F0A61BB70B881F991F5A95C7
:102DC000A9F780959095BC01CD010895A1E21A2E36
:102DD000AA1BBB1BFD010DC0AA1FBB1FEE1FFF1FBF
:102DE000A217B307E407F50720F0A21BB30BE40B0F
:102DF000F50B661F771F881F991F1A9469F7609556
:102E00007095809590959B01AC01BD01CF0108950F
:102E10002F923F924F925F926F927F928F929F92EA
:102E2000AF92BF92CF92DF92EF92FF920F931F93D8
:102E3000CF93DF93CDB7DEB7CA1BDB0B0FB6F89489
:102E4000DEBF0FBECDBF19942A88398848885F84B9
:102E50006E847D848C849B84AA84B984C884DF803A
:102E6000EE80FD800C811B81AA81B981CE0FD11D1E
:102E70000FB6F894DEBF0FBECDBFED010895CF931E
:102E8000DF938230910510F482E090E0E091050933
:102E9000F091060940E050E020E030E026C060817B
:102EA000718168177907E0F06817790781F48281EA
:102EB00093812115310531F0D90113969C938E939E
:102EC00012972BC0909306098093050926C04115DF
:102ED000510519F06417750718F4AB01E901DF011A
:102EE0009F0172816381E72FF62F3097C1F641155C
:102EF000510501F1481B590B4430510580F41296DD
:102F00008D919C911397209719F09B838A8304C01D
:102F10009093060980930509FD01329646C0FD0194
:102F2000E40FF51F819391934250504011965C93AA
:102F30004E933BC0209103093091040921153105BE
:102F400041F420914A0430914B04309304092093BA
:102F5000030920914C0430914D042115310541F4B1
:102F60002DB73EB74091480450914904241B350BBE
:102F7000E0910309F0910409E217F307A0F42E1B76
:102F80003F0B2817390778F0AC014E5F5F4F2417CD
:102F9000350748F04E0F5F1F509304094093030913
:102FA0008193919302C0E0E0F0E0CF01DF91CF91F7
:102FB0000895CF93DF93009709F491C0FC013297F5
:102FC00013821282609105097091060961157105DD
:102FD00081F420813181280F391F8091030990915C
:102FE00004098217930799F5F0930409E093030904
:102FF00076C0DB0180E090E002C0CD01D901AE17C0
:10300000BF0748F412962D913C9113972115310575
:10301000A1F7CD0121C0B383A283EF01499159915A
:103020009E01240F351FA217B30779F42D913C910F
:103030001197240F351F2E5F3F4F31832083129647
:103040002D913C91139733832283009729F4F093B9
:103050000609E093050943C0DC011396FC93EE9347
:1030600012974D915D91A40FB51FEA17FB0769F404
:1030700020813181240F351F2E5F3F4FEC013983B2
:103080002883228133813B832A83E0E0F0E002C081
:10309000FB01BC01DB0112968D919C911397009767
:1030A000B9F79B012E5F3F4F8D919C911197820F35
:1030B000931F40910309509104094817590779F467
:1030C000309729F4109206091092050902C0138264
:1030D0001282225030403093040920930309DF917B
:1030E000CF9108952F923F924F925F926F927F926D
:1030F0009F92AF92BF92CF92DF92EF92FF920F9387
:103100001F93CF93DF933B01EA016115710519F01D
:10311000FB0180839183209739F09E01225030403B
:103120002332310508F0D5C0C82ED92EF6011191F1
:103130006F017F01812F90E00E9480190097B1F705
:103140001D3231F4F60111917F019924939406C048
:103150001B3219F4F60111917F019924209719F07F
:10316000C031D105D1F4103389F4F701808188375B
:1031700011F0883559F4F701118182E090E0E80EF2
:10318000F91E92E0992AC0E1D0E007C0209729F407
:103190001033B1F0CAE0D0E02BC0CA30D10541F104
:1031A000C031D10521F0C830D105A9F409C02FEFF5
:1031B000A22E2FEFB22E2FEFC22E2FE0D22E20C044
:1031C000C8E0D0E09FEFA92E9FEFB92E9FEFC92E48
:1031D0009FE1D92E15C09E01442737FD4095542FFD
:1031E0006FEF7FEFCB010E94E61659016A0108C01C
:1031F00089E9A82E89E9B82E89E9C82E89E1D82E57
:1032000060E020E030E0A9011E01442437FC409436
:10321000542C012F00530A3060F0812F81548A31E1
:1032200010F4075006C0812F81568A3150F5012FC6
:103230000755802F90E08C179D071CF56F3FE9F034
:10324000A216B306C406D506A8F0CA01B901A201A8
:1032500091010E94B3169B01AC01802F90E0A0E089
:10326000B0E0280F391F4A1F5B1F281739074A078C
:103270005B0710F46FEF01C061E0F70111917F016E
:10328000C8CF6114710481F0662339F00894E10815
:10329000F108F301F182E08207C091FE05C0C70189
:1032A0000297F3019183808390FE07C0509540956B
:1032B000309521953F4F4F4F5F4F67FF0DC082E222
:1032C00090E090930809809307092FEF3FEFA90141
:1032D00003C020E030E0A901B901CA01DF91CF911C
:1032E0001F910F91FF90EF90DF90CF90BF90AF9024
:1032F0009F907F906F905F904F903F902F90089598
:10330000911123C0803219F089508550D0F708956B
:10331000FB01DC0105900D920020E1F70895FB010F
:103320009F01423074F0453264F4642F77270E9485
:10333000D216805D8A330CF0895D8193CB010097B2
:10334000A1F71082C9010C94A8199927882708951C
:10335000DC01FC01672F71917723E1F7329704C0FC
:103360007C916D9370836291AE17BF07C8F3089587
:04337000F894FFCFFF
:103374000A000A312920466F7277617264730A3237
:1033840029204261636B77617264730A3329205484
:1033940075726E0A3029204D61696E204D656E7517
:1033A400000A31292053746F7265207069630A32F0
:1033B400292053656E64207069630A0A3029204D00
:1033C40061696E204D656E75000A436F6E3A200088
:1033D4000A0A0A3029204D61696E204D656E750018
:1033E4000A426C7565746F6F746820526561647904
:1033F40021000A4E616D653A200041544E3F0D0094
:103404000A50696E3A20000D4154503F0D000A30B5
:1034140029204D61696E204D656E75000A312920A1
:103424004C6566742D52696768740A332920557097
:103434002D446F776E0A0A3029204D61696E204D44
:10344400656E75000A5374617274696E6720524127
:103454004D20546573742E2E2E004572726F7220A7
:10346400526174653A200025000A3129205472798A
:1034740020416761696E0A3029204D61696E204DD3
:10348400656E75000A44697374616E63653F000A72
:1034940053706565643F000A446567726565733FF0
:1034A400000A313D4C6566742020323D52696768DC
:1034B4007400285F01016464000102020303030332
:1034C40004040404040404040505050505050505B0
:1034D4000505050505050505060606060606060690
:1034E4000606060606060606060606060606060678
:1034F4000606060606060606070707070707070760
:103504000707070707070707070707070707070747
:103514000707070707070707070707070707070737
:103524000707070707070707070707070707070727
:10353400070707070707070708080808080808080F
:1035440008080808080808080808080808080808F7
:1035540008080808080808080808080808080808E7
:1035640008080808080808080808080808080808D7
:1035740008080808080808080808080808080808C7
:1035840008080808080808080808080808080808B7
:1035940008080808080808080808080808080808A7
:1035A4000808080808080808080808080808080897
:0E35B400080808080808080820000909000097
:00000001FF
