:100000000C941B010C943C010C943C010C943C019D
:100010000C943C010C943C010C943C010C94590749
:100020000C94E4060C943C010C943C010C943C01AF
:100030000C943C010C943C010C943C010C943C014C
:100040000C943C010C943C010C943C010C943C013C
:100050000C943C010C943C010C943C010C943C012C
:100060000C943C010C9436080C946D080C943C01E3
:100070000C943C010C943C010C943C010C943C010C
:100080000C943C010C943C010C943C010C943C01FC
:100090000C943C010C943C010C943C010C943C01EC
:1000A0000C943C010C943C010C943C010C943C01DC
:1000B0000C943C010C943C010C943C010C943C01CC
:1000C0000C943C010C943C010C943C010C943C01BC
:1000D0000C943C010C943C010C943C010C943C01AC
:1000E0000C943C010A7879526F626F7420426574F7
:1000F00061000A31292044726976696E67000A320C
:10010000292043616D657261000A332920426C75B4
:1001100065746F6F7468000A342920536572766FB6
:100120007300E400F200FE00090117010A302920E3
:100130004E6578742070616765000A446972656372
:1001400074696F6E3A2032203420362038000A4617
:100150006F727761726473000A4C656674000A52AC
:1001600069676874000A4261636B77617264730047
:100170000A44697374616E63653F20000A446567D1
:10018000726565733F20000A536572766F20436F76
:100190006E74726F6C0A312955702D446F776E0A38
:1001A00032294C6566742D52696768740A30294596
:1001B000786974000A552D443F20000A4C2D523FA7
:1001C00020000A496E697469616C697A696E6720FA
:1001D00043616D657261000A496E697469616C6999
:1001E0007A6564000A7879526F622047616D6562B2
:1001F0006F792043616D65726100313A2053656EFD
:100200006420426C7565746F6F7468000A323A201E
:100210005072696E742068657265000A53656E6479
:10022000696E672E2E2E007879526F626F742042AD
:100230004554410A000011241FBECFEFD1E2DEBFBA
:10024000CDBF00E00CBF12E0A0E0B2E0E2EDFBE1C8
:1002500000E00BBF02C007900D92A632B107D9F79C
:1002600016E0A6E2B2E001C01D92AA38B107E1F79C
:100270000E943E010C94E70D0C9400000E94DC03E8
:1002800089E190E068E040E021E00E94BA080E9425
:10029000D00B0E94820A78940E94F9030E94570CA6
:1002A00082E00E94E503FACF80E092E00E9494048D
:1002B0000E94BC048823C1F30895CF93DF938DE39C
:1002C00092E067E871E00E94BA0D8DE392E00E942F
:1002D00094048FEF99E6A8E181509040A040E1F7A7
:1002E00000C000000E94BC048823E1F390E0C097A6
:1002F0008130910539F08230910531F1009709F490
:100300004EC0DDCF8DE392E064EB71E00E94BA0D48
:100310008DE392E00E9494048FEF91EEA4E081506F
:100320009040A040E1F700C000000E94CA04EC0128
:100330008F3F910509F0C8F70E943A050E94940486
:100340008C2F0E94C00B21C08DE392E06BEB71E01B
:100350000E94BA0D8DE392E00E9494048FEF91EE1B
:10036000A4E081509040A040E1F700C000000E944E
:10037000CA04EC018F3F910509F0C8F70E943A05C5
:100380000E9494048C2F0E94C80B8FEF93EDA0E382
:1003900081509040A040E1F700C0000090CFDF9175
:1003A000CF9108950F931F93CF93DF938DE392E046
:1003B0006AE371E00E94BA0D8DE392E00E9494041A
:1003C0008FEF91EEA4E081509040A040E1F700C093
:1003D00000000E94BC048823E1F390E0C0978430C1
:1003E0009105E9F0853091053CF4009709F473C05C
:1003F00082309105D9F607C086309105E1F088304A
:100400009105A1F624C08DE392E06EE471E00E94B4
:10041000BA0D8DE392E00E94940411E023C08DE3B5
:1004200092E068E571E00E94BA0D8DE392E00E94CF
:10043000940414E017C08DE392E06EE571E00E9431
:10044000BA0D8DE392E00E94940413E00BC08DE39B
:1004500092E065E671E00E94BA0D8DE392E00E94A1
:10046000940412E08FEF91EEA4E081509040A04000
:10047000E1F700C00000012F0350023028F48DE3A3
:1004800092E06CE771E004C08DE392E060E771E018
:100490000E94BA0D8DE392E00E9494048FEF91EEDA
:1004A000A4E081509040A040E1F700C000000E940D
:1004B000CA04EC010E943A050E949404023028F418
:1004C000CE01612F0E94F40B71CFCE0168EC412F59
:1004D0000E94DB0B6BCFDF91CF911F910F9108959D
:1004E0000F931F93CF93DF9310E003E001C010E060
:1004F00086E0189FE0011124FE01EE5DFE4F25917C
:1005000034918DE392E0B9010E94BA0D8DE392E03F
:100510000E9494048FEF93ECA9E081509040A0409A
:10052000E1F700C00000FE01EC5DFE4F2591349123
:100530008DE392E0B9010E94BA0D8DE392E00E9432
:1005400094048FEF93ECA9E081509040A040E1F734
:1005500000C00000109FC001112483309105C1F03C
:10056000CA5DDE4FFE01259134918DE392E0B90121
:100570000E94BA0D8DE392E00E9494048FEF93ECF9
:10058000A9E081509040A040E1F700C0000004C005
:100590008EE092E00E9494048DE392E06CE271E0C0
:1005A0000E94BA0D8DE392E00E9494048FEF93ECC9
:1005B000A9E081509040A040E1F700C000000E94F7
:1005C000BC0490E08033910529F4112309F08FCF0A
:1005D00011E08ECF8F33910509F48ACF8A329105CD
:1005E00009F486CF8332910509F482CF009709F48C
:1005F0007FCFC0978530910508F07ACFFC01EE0FD0
:10060000FF1FED5EFD4F0190F081E02D309709F462
:100610006FCF19956DCFCF93DF93C0E0D0E40E94E8
:10062000970B0E9460092197D1F7DF91CF91089530
:10063000FF920F931F93CF93DF938EE092E00E947F
:100640009404FF24C0E0D0E08E0103701070011507
:10065000110551F48F2D805E0E9430048F2D8E3550
:1006600010F4F39401C0FF2480E192E00E9494040E
:100670000E94970B0E9445050E94940403301105C7
:1006800021F080E20E94300409C08FEF90E7A2E0E1
:1006900081509040A040E1F700C00000219690E416
:1006A000C030D90789F6DF91CF911F910F91FF904C
:1006B00008958DE392E062EC71E00E94BA0D8DE343
:1006C00092E00E94940480E090E00E94570B8DE33A
:1006D00092E067ED71E00E94BA0D8DE392E00E9416
:1006E00094048FEF91EEA4E081509040A040E1F798
:1006F00000C000008DE392E064EE71E00E94BA0D4C
:100700008DE392E00E9494048FEF91EEA4E081507B
:100710009040A040E1F700C000008DE392E06AEF56
:1007200071E00E94BA0D8DE392E00E9494048FEF75
:1007300091EEA4E081509040A040E1F700C000009D
:100740008DE392E06CE072E00E94BA0D8DE392E0DE
:100750000E9494048FEF91EEA4E081509040A0405D
:10076000E1F700C000000E94BC048823E1F380533D
:10077000813031F08130F8F0823009F0BBCF0FC00A
:100780000E94890B8DE392E06BE172E00E94BA0D4A
:100790008DE392E00E9494040E940B03ABCF0E9471
:1007A000890B0E9418038FEF93EDA0E381509040D6
:1007B000A040E1F79DCF089581B1806C81B9249A62
:1007C00082B1806C82B92C9A0895813041F08130D9
:1007D00018F0823069F408C082B1805803C082B139
:1007E00090E4892782B9089585B190E1892785B978
:1007F0000895CF93C0E080E00E94E50381E00E946D
:10080000E50382E00E94E503C33049F08FE792E4FC
:10081000A0E181509040A040E1F700C00000CF5F10
:10082000C43049F7CF910895662369F0813039F0DB
:10083000813018F0823099F404C017980895169802
:1008400008952C980895813039F0813018F0823065
:1008500031F404C0179A0895169A08952C9A0895B1
:10086000CF93C82F82E40E94FB098C2F0E942D0A8F
:100870000E94250ACF910895CF93C82F8BE10E9443
:1008800030048CE40E943004CC2339F480E00E94D0
:100890003004809185028E7F06C081E00E94300482
:1008A00080918502816080938502CF910895909117
:1008B000850281E090FD80E00E943C048FEF99E684
:1008C000A8E181509040A040E1F700C00000909165
:1008D000850281E090FD80E00E943C048FEF99E664
:1008E000A8E181509040A040E1F700C000000895C9
:1008F00081E0809385028CE00E9430048BE10E94AD
:1009000030048FE40E94300481E00E94300481E0D2
:100910000E9430048BE10E9430048BE70E94300477
:1009200081E00E943C0408950F931F93DF93CF93BF
:100930000F92CDB7DEB7082F82E499830E94FB099E
:100940009981402F592F8A010AC08D3041F08A3099
:1009500021F48DE00E942D0A8AE00E942D0AF80100
:1009600081918F01882389F70E94250A0F90CF91EA
:10097000DF911F910F910895CF9383E40E94D609D0
:100980000E943E0AC82F0E94480A0E94250A8C2F06
:10099000CF9108950F931F93DF93CF9300D00F92C1
:1009A0000F92CDB7DEB790E08E010F5F1F4F9D8392
:1009B0000E94BC049D818823D1F38A3259F083328E
:1009C00049F0953038F4F801E90FF11D8053808328
:1009D0009F5FEDCF923069F0933018F49130E9F5D4
:1009E00005C0933069F09430C1F51AC0298130E018
:1009F00036C029818AE0289F900111248A810DC088
:100A0000298184E6289F900111249A818AE0989F89
:100A1000C0011124280F391F8B81280F311D1FC0E1
:100A2000498150E088EE93E0489F9001499F300D46
:100A3000589F300D11249A8184E6989FC00111249B
:100A4000280F391F8C81280F311D9B818AE0989FC8
:100A5000C0011124280F391F02C020E030E0C90175
:100A60000F900F900F900F900F90CF91DF911F91EB
:100A70000F9108956DE772E04AE050E00E94C10DC9
:100A8000089590E00E943A05089590E06DE772E0C5
:100A900040E150E00E94C10D0895709331026093CF
:100AA0003002909333028093320208958091300295
:100AB00090913102009751F420913202309133022B
:100AC00081E02115310519F080E0089580E0089556
:100AD00084B1806684B9EAE0F1E08081806C808333
:100AE000E4E0F1E08081806C8083E0E8F0E08081E8
:100AF000806A8083808181608083E1E8F0E080818A
:100B00008A608083EAE6F0E08081806F80838DB325
:100B1000806C8DBB0E94DC03089590912702809128
:100B20002602981709F014C180912702882309F43E
:100B30000FC1209128023091290240912A02509140
:100B40002B0280912C0290912D02A0912E02B09147
:100B50002F02281739074A075B0709F4F9C080916B
:100B6000280290912902A0912A02B0912B02823092
:100B70009105A105B1050CF4EBC0609127028091AD
:100B80001D02813021F080911D02823031F580916B
:100B90001D02813089F48091280290912902A09150
:100BA0002A02B0912B0220912C0230912D0240910B
:100BB0002E0250912F024AC080912C0290912D025A
:100BC000A0912E02B0912F0220912802309129028B
:100BD00040912A0250912B0239C080911D0284302D
:100BE00029F080911D02833009F0A2C080911D027E
:100BF0008430A9F4209128023091290240912A02E0
:100C000050912B0280912C0290912D02A0912E02E6
:100C1000B0912F02820F931FA41FB51F1BC080919C
:100C2000280290912902A0912A02B0912B022091D2
:100C30002C0230912D0240912E0250912F02B0953E
:100C4000A095909581959F4FAF4FBF4F821B930BFF
:100C5000A40BB50B181619061A061B0684F540914D
:100C60008A0050918B00862F90E09C01275E3F4FB9
:100C70004217530768F420918A0030918B002F3F70
:100C8000310530F480918A0090918B0001964CC020
:100C900020918800309189002230310508F448C045
:100CA000209188003091890049978217930708F0B6
:100CB0003FC0809188009091890001971CC00097E7
:100CC000A105B105A9F14091880050918900862FB6
:100CD00090E09C01275E3F4F4217530788F4209114
:100CE0008800309189002F3F310550F480918800B1
:100CF000909189000196909389008093880018C094
:100D000020918A0030918B002230310588F02091AB
:100D10008A0030918B0049978217930748F480919D
:100D20008A0090918B00019790938B0080938A00AA
:100D300010922C0210922D0210922E0210922F026D
:100D4000109228021092290210922A0210922B026D
:100D50000895CF93C62F9FB7F8948093270260938E
:100D600026022091270230E030938B0020938A00E6
:100D70002091260230E03093890020938800109261
:100D800028021092290210922A0210922B0210922D
:100D90002C0210922D0210922E0210922F029FBF51
:100DA000882319F080E061E002C080E060E00E94EA
:100DB0001404CC2319F081E061E002C081E060E01E
:100DC0000E941404CF9108951F920F920FB60F92B4
:100DD0000BB60F9211242F933F934F935F936F9312
:100DE0007F938F939F93AF93BF93EF93FF938091E4
:100DF0001D02813021F080911D02833061F48091C9
:100E00002C0290912D02A0912E02B0912F020196FA
:100E1000A11DB11D13C080911D02823021F080916F
:100E20001D02843099F480912C0290912D02A091A2
:100E30002E02B0912F020197A109B10980932C02D3
:100E400090932D02A0932E02B0932F028091320234
:100E5000909133020097D1F0809132029091330249
:100E600001979093330280933202809132029091E5
:100E70003302009759F4109227026091260280E015
:100E80000E94A90680E060E00E941404FF91EF91A7
:100E9000BF91AF919F918F917F916F915F914F9192
:100EA0003F912F910F900BBE0F900FBE0F901F9090
:100EB00018951F920F920FB60F920BB60F92112436
:100EC0002F933F934F935F936F937F938F939F9352
:100ED000AF93BF93EF93FF9380911D02813021F078
:100EE00080911D02843061F4809128029091290242
:100EF000A0912A02B0912B020196A11DB11D13C031
:100F000080911D02823021F080911D02833099F47E
:100F10008091280290912902A0912A02B0912B027F
:100F20000197A109B1098093280290932902A09307
:100F30002A02B0932B0280913002909131020097E7
:100F4000D1F080913002909131020197909331025B
:100F5000809330028091300290913102009759F4D1
:100F6000109226028091270260E00E94A90681E08B
:100F700060E00E9414040E948D05FF91EF91BF91E3
:100F8000AF919F918F917F916F915F914F913F9121
:100F90002F910F900BBE0F900FBE0F901F901895C2
:100FA0008FB7F89410928B0010928A0010928900EB
:100FB00010928800109227021092260210922802A6
:100FC0001092290210922A0210922B0210922C02E7
:100FD00010922D0210922E0210922F028FBF80E0ED
:100FE00060E00E94140481E060E00E94140408950F
:100FF000823099F0833018F48130C9F405C0833011
:1010000019F08430A1F409C090910B019F73909363
:101010000B0190910B01906408C090910B019F739C
:1010200090930B0190910B01906890930B01843089
:1010300028F4823070F48130B1F402C0843099F425
:10104000909105019F73909305019091050190681F
:1010500008C0909105019F7390930501909105013F
:1010600090649093050180931D0208951F920F9242
:101070000FB60F920BB60F9211242F938F939F935D
:10108000EF93FF93E0913602F09137028091C60012
:10109000EA57FD4F8083809136029091370221E01C
:1010A0008F3F920750F4809136029091370201965B
:1010B000909337028093360204C010923702109248
:1010C0003602FF91EF919F918F912F910F900BBE60
:1010D0000F900FBE0F901F9018951F920F920FB692
:1010E0000F920BB60F9211242F933F938F939F93E0
:1010F000EF93FF93209138023091390280913A02A8
:1011000090913B022817390701F1E0913802F091E4
:101110003902EA57FB4F80818093C60080913802E4
:101120009091390221E08F3F920750F4809138026C
:1011300090913902019690933902809338020DC044
:10114000109239021092380208C081E080931E028A
:101150008091C1008F7D8093C100FF91EF919F919D
:101160008F913F912F910F900BBE0F900FBE0F905C
:101170001F9018954330D0F5362F35503430B0F5E8
:10118000322F31503230A0F5442361F03091C2004B
:1011900030623093C200423029F43091C200306195
:1011A0003093C200223029F42091C200286020939D
:1011B000C200653081F0663011F0683039F420915A
:1011C000C20022602093C200663029F02091C20044
:1011D00024602093C2009093C5008093C400809146
:1011E000C10088698093C10080E0089581E008957E
:1011F00081E00895409134025091350220913602E9
:101200003091370281E04217530709F480E00895D6
:10121000209134023091350280913602909137024C
:101220002817390731F1E0913402F0913502EA577D
:10123000FD4F8081E0913402F0913502EA57FD4F75
:101240001082209134023091350291E02F3F39070E
:1012500058F420913402309135022F5F3F4F309384
:101260003502209334020895109235021092340210
:10127000089580E0089580913A0290913B02209178
:1012800038023091390201968217930799F08091C4
:10129000380290913902009781F420913A023091FE
:1012A0003B0281E090E041E02F3F340741F080E0D5
:1012B00090E0089581E090E0089580E090E0089546
:1012C00020913A0230913B0240913802509139020C
:1012D0002F5F3F4F2417350799F320913802309143
:1012E00039022115310541F420913A0230913B0237
:1012F00091E02F3F390721F3E0913A02F0913B0250
:10130000EA57FB4F808380913A0290913B0221E0A3
:101310008F3F920750F480913A0290913B020196E0
:1013200090933B0280933A0204C010923B021092C9
:101330003A0280911E02813061F410921E02809167
:10134000C10080628093C1008091C0008062809360
:10135000C0000895CF93DF93C82FD92F02C00E94F9
:10136000600989918823D9F7DF91CF910895109270
:10137000C1001092C2001092C5001092C4001092D9
:1013800035021092340210923902109238021092F3
:1013900037021092360210923B0210923A020895E0
:1013A0001092B90088E48093B800089594EA90936D
:1013B000BC009091BC0097FFFCCF9091B900987F42
:1013C000983011F0903199F48093BB0084E88093B9
:1013D000BC008091BC0087FFFCCF9091B900987F42
:1013E000983139F081E0903429F480E0089581E06B
:1013F000089580E0089544EA34E824E94093BC006D
:101400009091BC0097FFFCCF9091B900987F9830E5
:1014100011F0903199F78093BB003093BC0090910C
:10142000BC0097FFFCCF9091B900987F903211F0EB
:10143000983539F42093BC009091BC0094FDFCCF0A
:10144000DDCF08950E94D609089584E98093BC00F9
:101450008091BC0084FDFCCF08958093BB0084E89C
:101460008093BC008091BC0087FFFCCF9091B900B5
:10147000987F81E0983209F480E0089584EC8093AD
:10148000BC008091BC0087FFFCCF8091BB00089519
:1014900084E88093BC008091BC0087FFFCCF8091E2
:1014A000BB000895803148F4883040F08850909116
:1014B0007B00986090937B0001C080E090917C005D
:1014C000982B90937C0080917A00806480937A00BE
:1014D000089590917A0081E096FD80E00895CF9381
:1014E000C82F0E94690A882351F080917900CC238B
:1014F00039F090917A00906490937A0001C080E076
:10150000CF910895809164008E7F8093640080E67F
:1015100080937C0080917A00806C80937A000E9496
:10152000690A8823E1F380E00E946F0A0895EAE7E0
:10153000F0E080818F7B8083A4E6B0E08C918160B5
:101540008C9380818F778083089595E39A95F1F746
:101550000000813011F4119A09C0882311F4119808
:1015600005C0823019F492B1982792B985E38A9523
:10157000F1F700000895129881E00E94A50A85E322
:101580008A95F1F70000129A80E00E94A50A08955A
:10159000DF93CF930F92CDB7DEB7882311F0149A63
:1015A00001C0149881E069830E94A50A69816111D4
:1015B000139A85E38A95F1F7000080E00E94A50A5E
:1015C000E5E3EA95F1F7000013980F90CF91DF91D2
:1015D0000895AF92BF92DF92EF92FF920F931F9305
:1015E000DF93CF930F92CDB7DEB75C01DD2481E0AE
:1015F000E82EF12C8D2D847060E00E94C80A8D2D9C
:10160000827060E00E94C80A8D2D817060E00E94A7
:10161000C80A07E010E090E09701002E02C0220FF8
:10162000331F0A94E2F7F5018081822361E097304D
:1016300009F060E099830E94C80A99819F5F015078
:101640001040983049F7D3940894A11CB11CFD2D8B
:10165000F83081F60F90CF91DF911F910F91FF909D
:10166000EF90DF90BF90AF900895159A81E00E94AF
:10167000A50A85E38A95F1F70000159880E00E949D
:10168000A50A08950EC081E00E94A50A85E38A9507
:10169000F1F7000080E00E94A50A85E38A95F1F742
:1016A0000000009BF0CF089580B1817008951F93D2
:1016B000CF93DF93EC0181B18E6381B9089811E07B
:1016C00010933C020E94BB0A209721F0CE010E9499
:1016D000E90A17C088E090E00E94870CEC018FE7D0
:1016E000888382E089831A828AE58B831C831D822A
:1016F0001E8384E08F83CE010E94E90ACE010E94FE
:10170000210D0E94350B0E94420BDF91CF911F915A
:10171000089580913C02882329F480E090E00E94A3
:10172000570B08950E94350B0E94420B089580B11B
:1017300080FD02C00E94890B81E00E94A50A80E022
:101740000E94A50A8BE00E94520A0E94690A88231F
:10175000E1F380E00E946F0A089510923C020E941B
:10176000BB0A0E94970A089584B5836084BD84B53E
:10177000806A84BD85B5856085BD279A9D9A089548
:101780009FE0899FC0011124892F805F87BD089544
:101790009FE0899FC0011124892F805F88BD089533
:1017A0000E9468050E94B40B84E60E94C80B80E08A
:1017B0000E94C00B08951F93DF93CF930F92CDB774
:1017C000DEB79C01162FB90149830E944D0549815E
:1017D000842F0E94F807812F612F0E94A9060F9085
:1017E000CF91DF911F9108959C01462F02C028568A
:1017F000314081E029363807D0F72115310579F0DD
:10180000ECE3F0E02E9FC0012F9F900D3E9F900DC6
:10181000112468E671E00E94730C9B0102C020E075
:1018200030E0C90160E80E94DB0B08950E94560574
:101830000895EF92FF920F931F93DF93CF93CDB74D
:10184000DEB728970FB6F894DEBF0FBECDBF8E016E
:101850000F5F1F4F89E0E82EF12CEC0EFD1E0E9459
:10186000FA088823E1F30E940809F80181938F01A7
:10187000EE15FF05A1F7CE0101960E94570B00E07F
:1018800010E40E94970B0E94600901501040C9F7B4
:101890000E94AD0B28960FB6F894DEBF0FBECDBFE9
:1018A000CF91DF911F910F91FF90EF9008950E94CB
:1018B000FA088823B9F00E9408098F3319F083369B
:1018C00079F40BC08DE392E067E272E00E94BA0DFA
:1018D0008DE392E00E94AA0908950E94190C0895D0
:1018E0000E9460090895AA1BBB1B51E107C0AA1FF3
:1018F000BB1FA617B70710F0A61BB70B881F991FB1
:101900005A95A9F780959095BC01CD010895CF9384
:10191000DF938230910510F482E090E0E091880638
:10192000F091890640E050E020E030E026C0608180
:10193000718168177907E0F06817790781F482816F
:1019400093812115310531F0D90113969C938E9323
:1019500012972BC0909389068093880626C0411564
:10196000510519F06417750718F4AB01E901DF019F
:101970009F0172816381E72FF62F3097C1F64115E1
:10198000510501F1481B590B4430510580F4129662
:101990008D919C911397209719F09B838A8304C0A3
:1019A0009093890680938806FD01329646C0FD011A
:1019B000E40FF51F819391934250504011965C9330
:1019C0004E933BC020918606309187062115310544
:1019D00041F4209121023091220230938706209316
:1019E000860620912302309124022115310541F40D
:1019F0002DB73EB740911F0250912002241B350B9A
:101A0000E0918606F0918706E217F307A0F42E1BFB
:101A10003F0B2817390778F0AC014E5F5F4F241752
:101A2000350748F04E0F5F1F509387064093860698
:101A30008193919302C0E0E0F0E0CF01DF91CF917C
:101A40000895CF93DF93009709F491C0FC0132977A
:101A50001382128260918806709189066115710562
:101A600081F420813181280F391F80918606909161
:101A700087068217930799F5F0938706E093860609
:101A800076C0DB0180E090E002C0CD01D901AE1745
:101A9000BF0748F412962D913C91139721153105FB
:101AA000A1F7CD0121C0B383A283EF0149915991E0
:101AB0009E01240F351FA217B30779F42D913C9195
:101AC0001197240F351F2E5F3F4F318320831296CD
:101AD0002D913C91139733832283009729F4F0933F
:101AE0008906E093880643C0DC011396FC93EE93CD
:101AF00012974D915D91A40FB51FEA17FB0769F48A
:101B000020813181240F351F2E5F3F4FEC01398337
:101B10002883228133813B832A83E0E0F0E002C006
:101B2000FB01BC01DB0112968D919C9113970097EC
:101B3000B9F79B012E5F3F4F8D919C911197820FBA
:101B4000931F40918606509187064817590779F4EC
:101B5000309729F4109289061092880602C01382E9
:101B60001282225030403093870620938606DF9100
:101B7000CF910895FB01DC0105900D920020E1F763
:101B80000895FB019F01423074F0453264F4642FE4
:101B900077270E94730C805D8A330CF0895D8193F6
:101BA000CB010097A1F71082C9010C94D70DDC017D
:101BB000FC01672F71917723E1F7329704C07C9184
:101BC0006D9370836291AE17BF07C8F30895F894C0
:021BD000FFCF45
:101BD2000A426C7565746F6F74682E2E2E000A00AF
:101BE2003078000000D201590354015D0101012047
:061BF200008A060000005D
:00000001FF
