:100000000C94AA000C94CB000C94CB000C94CB0065
:100010000C94CB000C94CB000C94CB000C94ED070B
:100020000C9478070C94CB000C94CB000C94CB0070
:100030000C94CB000C94D10E0C94CB000C94CB0000
:100040000C94CB000C94CB000C94CB000C94CB0004
:100050000C94CB000C94060E0C94CB000C94CB00AB
:100060000C94CB000C948A080C94C1080C94CB001F
:100070000C94CB000C94CB000C94CB000C94CB00D4
:100080000C94CB000C94CB000C94CB000C94CB00C4
:100090000C94CB000C94CB000C94CB000C94CB00B4
:1000A0000C94CB000C94CB000C94CB000C94CB00A4
:1000B0000C94CB000C94CB000C94CB000C94CB0094
:1000C0000C94CB000C94CB000C94CB000C94CB0084
:1000D0000C94CB000C94CB000C94CB000C94CB0074
:1000E0000C94CB007879526F626F74204245544172
:1000F0000A000A7879526F626F7420426574610059
:100100000A312920426C7565746F6F7468000A3279
:1001100029205352414D000A3329204472697669DF
:100120006E67000A342920536572766F73000A35B2
:10013000292043616D65726100F20000010E011714
:100140000123012E010A3029204E65787420706148
:100150006765000011241FBECFEFD1E2DEBFCDBF27
:1001600000E00CBF14E0A0E0B2E0E0E3F5E300E063
:100170000BBF02C007900D92A235B107D9F719E065
:10018000A2E5B4E001C01D92AD30B107E1F70E94D5
:1001900006040C94961A0C940000882309F05DC0A4
:1001A0002091520483E0289FC001112486309105DC
:1001B0008CF4E6E02E9FF0011124E75CFE4F2591C0
:1001C000349187E894E0B9010E94661A87E894E0C8
:1001D0000E94BE042091520483E0289FC001112494
:1001E0008530910584F4E6E02E9FF0011124E55C52
:1001F000FE4F2591349187E894E0B9010E94661A78
:1002000087E894E002C080E092E00E94BE04209162
:10021000520483E0289FC00111248430910584F4A6
:10022000E6E02E9FF0011124E35CFE4F259134910E
:1002300087E894E0B9010E94661A87E894E002C05A
:1002400080E092E00E94BE0487E894E065E471E0FB
:100250000E94661A87E894E067C0833019F482E050
:1002600092E062C0853019F481E392E05DC0813094
:1002700009F056C080915404882359F089E592E032
:100280000E94BE0488E794E00E94BE0480E692E0EB
:100290004BC080E792E00E94BE0482E892E00E9498
:1002A000BE048AE892E00E94D10A26E930E040E0EC
:1002B00050E060E070E080E090E00E94FC0987E898
:1002C00094E00E94BE0426E930E040E050E060E0A7
:1002D00070E080E090E00E94FC0980E992E00E94DA
:1002E000BE0487E992E00E94D10A26E930E040E0AE
:1002F00050E060E070E080E090E00E94FC0987E858
:1003000094E00E94BE0426E930E040E050E060E066
:1003100070E080E090E00E94FC098EE992E004C069
:10032000843029F48CEA92E00E94BE040895823061
:10033000B1F484ED92E00E94BE048AEE92E00E9445
:10034000BE040E94F1100E9481050E94BE0487EF46
:1003500092E00E94BE0489EF92E00E94BE040895DC
:100360001F93CF93DF930E94FC04C82FD0E08091AD
:100370005304882309F048C0C033D105A1F440914B
:100380005204842F90E001969C01220F331F280F06
:10039000391F2630310524F44F5F40935204CEC0FC
:1003A00010925204CBC0CF33D10509F4CEC0CA326B
:1003B000D10509F4CAC0C332D10509F4C6C02097DB
:1003C00009F4C3C0CE01C0974091520423E0429F7C
:1003D000900111242830310584F0342F330F340F6D
:1003E0003E5F20E002C03A502F5F3A30E0F73AE03B
:1003F000239F90011124820F931F8630910508F0EE
:10040000A4C0809353049FC0833009F044C0C0331C
:10041000D10509F491C0CE01C19782309105F0F465
:1004200084E193E00E94BE040E940A05182F8FE128
:1004300093E00E94BE04C133D10539F40E940A053D
:10044000682F812F90E041E006C00E940A05682FC6
:10045000812F90E042E00E94800E1AC0C333D10584
:1004600009F073C087E293E00E94BE040E940A056F
:10047000EC0181E393E00E94BE040E940A058130F2
:1004800019F4CE0164E002C0CE0163E00E94990E2F
:100490008091530458C0853011F0813029F4C03365
:1004A000D10509F052C048C0843009F040C0C033C3
:1004B000D10509F441C0C133D10519F40E940A05E0
:1004C00029C0C333D10519F40E940A052DC0C233D7
:1004D000D10531F480914203893AB8F5845F24C094
:1004E000C833D10531F4809142038C3070F18C50C7
:1004F0001BC0C433D10531F4809143038C3028F103
:100500008C5008C0C633D10541F480914303893A29
:10051000E0F4845F8093430318C0C533D105A9F488
:100520008FE58093430388E2809342030EC08230BC
:1005300061F4C033D10521F41092530480E003C06C
:10054000209719F082E00E94CD00DF91CF911F919A
:1005500008953F924F925F926F927F928F929F92F7
:10056000AF92BF92CF92DF92EF92FF920F931F93C1
:10057000CF93DF930E943A0F322E432E542E652ED6
:10058000762E872E982ED92FC9E00E944E098823F7
:1005900019F00E945C09C1500E943A0F59016A018A
:1005A0007B018C01232D342D452D562D672D782D63
:1005B000892D9D2F0E94780F9923C9F58823B9F5BD
:1005C0007723A9F5662399F5552389F5442379F511
:1005D000343068F5333011F4293E48F5CC23A9F6C0
:1005E00042C00E945C09809378040E943A0F59012E
:1005F0006A017B018C01232D342D452D562D672D4D
:10060000782D892D9D2F0E94780F992381F48823BE
:1006100071F4772361F4662351F4552341F44423A4
:1006200031F4343020F43330F1F4293EE0F084E545
:10063000809378049DE49093790480937A041092D7
:100640007B04DF91CF911F910F91FF90EF90DF908E
:10065000CF90BF90AF909F908F907F906F905F9062
:100660004F903F9008950E944E09882309F4BDCF12
:10067000B8CFDF92EF92FF920F931F93DF93CF9348
:10068000CDB7DEB728970FB6F894DEBF0FBECDBF4B
:10069000D82E8E010F5F1F4F69E0E62EF12CEC0E75
:1006A000FD1E0E944E098823E1F30E945C09F801B7
:1006B00081938F01EE15FF05A1F7CE0101966D2DF7
:1006C0000E94910D28960FB6F894DEBF0FBECDBFE5
:1006D000CF91DF911F910F91FF90EF90DF900895E0
:1006E0001F93DF93CF930F92CDB7DEB70E944E09D1
:1006F000882309F486C00E945C09813809F449C046
:10070000823890F4843451F1853430F48F3371F1B0
:10071000833409F076C01CC08F3429F1803889F108
:10072000853409F06EC01FC08538E9F1863838F489
:10073000833809F440C0843808F050C032C087388C
:10074000A1F1873808F459C0883809F05AC02FC081
:100750000E94A90281E08093540453C00E94B30A0E
:10076000109254044EC00E94B30A4BC087E894E034
:1007700064EE70E00E94661A87E894E00E94D10A55
:1007800040C00E945C09853B08F088E280934203E8
:1007900038C00E945C09853B08F08FE580934303D5
:1007A00030C088E005C084E003C082E001C081E081
:1007B0000E94390326C00E945C09182F0E945C0920
:1007C00089830E945C096981882311F041E001C09E
:1007D00042E0812F90E00E94800E13C00E945C09CD
:1007E000182F0E945C09882311F063E001C064E0C7
:1007F000812F90E00E94990E04C00E94C30D0E94B8
:10080000B2090F90CF91DF911F9108950E94340497
:1008100082E00E943D040E947B0E0E94F70A0E9423
:10082000A50489E190E068E040E021E00E940E0923
:100830000E94A90B0E94640C0E945E100E94BE0ED2
:10084000789480E00E94CD0082E00E943D040E94E6
:10085000B0010E947003809142030E945A0E809161
:1008600043030E944D0EF3CF81B1806C81B9249A6D
:1008700082B1806C82B92C9A0895813041F0813028
:1008800018F0823069F408C082B1805803C082B188
:1008900090E4892782B9089585B190E1892785B9C7
:1008A0000895CF93C0E080E00E943D0481E00E9463
:1008B0003D0482E00E943D04C33049F08FE792E49A
:1008C000A0E181509040A040E1F700C00000CF5F60
:1008D000C43049F7CF910895662369F0813039F02B
:1008E000813018F0823099F404C017980895169852
:1008F00008952C980895813039F0813018F08230B5
:1009000031F404C0179A0895169A08952C9A089500
:10091000CF93C82F82E40E94220B8C2F0E94540B8D
:100920000E944C0BCF910895CF93C82F8BE10E946A
:1009300088048CE40E948804CC2311F480E001C078
:1009400081E00E948804CF9108958CE00E94880481
:100950008BE10E9488048FE40E94880481E00E9459
:10096000880481E00E9488048BE10E9488048BE760
:100970000E94880481E00E94940408950F931F93BD
:10098000DF93CF930F92CDB7DEB7082F82E4998320
:100990000E94220B9981402F592F8A0112C0809109
:1009A00055048F5F80935504D8018D918D018D3052
:1009B00041F08A3021F48DE00E94540B8AE00E94BD
:1009C000540BF8018081882351F70E944C0B8091D1
:1009D0005504853058F0109255048FEF93ECA9E040
:1009E00081509040A040E1F700C000000F90CF91EF
:1009F000DF911F910F910895CF9383E40E94FD0A28
:100A00000E94650BC82F0E946F0B0E944C0B8C2F0D
:100A1000CF9108950F931F93DF93CF9300D00F9240
:100A20000F92CDB7DEB790E08E010F5F1F4F9D8311
:100A30000E94FC049D818823D1F38A3259F08332CD
:100A400049F0953038F4F801E90FF11D80538083A7
:100A50009F5FEDCF923069F0933018F49130E9F553
:100A600005C0933069F09430C1F51AC0298130E097
:100A700036C029818AE0289F900111248A810DC007
:100A8000298184E6289F900111249A818AE0989F09
:100A9000C0011124280F391F8B81280F311D1FC061
:100AA000498150E088EE93E0489F9001499F300DC6
:100AB000589F300D11249A8184E6989FC00111241B
:100AC000280F391F8C81280F311D9B818AE0989F48
:100AD000C0011124280F391F02C020E030E0C901F5
:100AE0000F900F900F900F900F90CF91DF911F916B
:100AF0000F91089567E874E04AE050E00E946D1A93
:100B0000089590E00E947A05089590E067E874E007
:100B100040E150E00E946D1A089570936104609363
:100B2000600490936304809362040895809160044C
:100B300090916104009751F4209162043091630414
:100B400081E02115310519F080E0089580E00895D5
:100B50009091570480915604981709F00BC1809129
:100B60005704882309F406C1209158043091590490
:100B700040915A0450915B0480915C0490915D0413
:100B8000A0915E04B0915F04281739074A075B07FC
:100B900009F4F0C08091580490915904A0915A042E
:100BA000B0915B0482309105A105B1050CF4E2C05F
:100BB0006091570480914403813089F480915804F6
:100BC00090915904A0915A04B0915B0420915C0467
:100BD00030915D0440915E0450915F0445C0809166
:100BE0004403823089F480915C0490915D04A0916B
:100BF0005E04B0915F0420915804309159044091F3
:100C00005A0450915B0430C0809144038430A9F4AD
:100C1000209158043091590440915A0450915B043A
:100C200080915C0490915D04A0915E04B0915F049A
:100C3000820F931FA41FB51F1BC080915804909171
:100C40005904A0915A04B0915B0420915C04309146
:100C50005D0440915E0450915F04B095A09590951D
:100C600081959F4FAF4FBF4F821B930BA40BB50BCA
:100C700010925C0410925D0410925E0410925F0466
:100C8000109258041092590410925A0410925B0466
:100C9000181619061A061B06A4F540918A005091F1
:100CA0008B00862F90E09C01275E3F4F4217530731
:100CB00088F420918A0030918B002D3F310550F44B
:100CC00080918A0090918B00039690938B00809383
:100CD0008A000895209188003091890024303105E0
:100CE00008F448C020918800309189004997821704
:100CF000930708F03FC08091880090918900039786
:100D00001CC00097A105B105A9F140918800509140
:100D10008900862F90E09C01275E3F4F42175307C2
:100D200088F420918800309189002D3F310550F4DE
:100D30008091880090918900039690938900809318
:100D40008800089520918A0030918B00243031056D
:100D500088F020918A0030918B0049978217930781
:100D600048F480918A0090918B00039790938B00B8
:100D700080938A000895833071F0843028F48130A4
:100D800051F08230F9F410C08530B9F0853060F050
:100D90008730C1F412C090910B019F7390930B01A7
:100DA00090910B0190640CC090910B019F739093F4
:100DB0000B0190910B01906803C090910B019F7300
:100DC00090930B01843028F4823088F48130E9F468
:100DD00005C0843019F08730C0F412C0909105012D
:100DE0009F73909305019091050190680CC09091BC
:100DF00005019F739093050190910501906403C0D4
:100E0000909105019F739093050180934403089589
:100E10008FB7F89410928B0010928A00109289007C
:100E200010928800109257041092560410925804A1
:100E30001092590410925A0410925B0410925C04B0
:100E400010925D0410925E0410925F048FBF85E0E3
:100E50000E94BB0680E060E00E946C0481E060E0DC
:100E60000E946C040895CF93C62F9FB7F894809387
:100E70005704609356042091570430E030938B0060
:100E800020938A002091560430E03093890020930B
:100E90008800109258041092590410925A0410922B
:100EA0005B0410925C0410925D0410925E04109238
:100EB0005F049FBF882329F080E061E00E946C04FA
:100EC00007C080E060E00E946C0487E00E94BB06DF
:100ED000CC2329F081E061E00E946C0407C081E02E
:100EE00060E00E946C0486E00E94BB06CF910895EA
:100EF0001F920F920FB60F920BB60F9211242F93E1
:100F00003F934F935F936F937F938F939F93AF9391
:100F1000BF93EF93FF9380914403813021F0809140
:100F20004403833061F480915C0490915D04A0914E
:100F30005E04B0915F040196A11DB11D13C08091A4
:100F40004403823021F080914403843099F48091ED
:100F50005C0490915D04A0915E04B0915F040197E0
:100F6000A109B10980935C0490935D04A0935E0491
:100F7000B0935F0480916204909163040097D1F074
:100F8000809162049091630401979093630480932D
:100F900062048091620490916304009759F4109266
:100FA00057046091560480E00E94330780E060E0BF
:100FB0000E946C04FF91EF91BF91AF919F918F912F
:100FC0007F916F915F914F913F912F910F900BBE49
:100FD0000F900FBE0F901F9018951F920F920FB693
:100FE0000F920BB60F9211242F933F934F935F9361
:100FF0006F937F938F939F93AF93BF93EF93FF93E1
:1010000080914403813021F080914403843061F465
:101010008091580490915904A0915A04B0915B04B6
:101020000196A11DB11D13C080914403823021F0AF
:1010300080914403833099F480915804909159042D
:10104000A0915A04B0915B040197A109B109809362
:10105000580490935904A0935A04B0935B04809170
:101060006004909161040097D1F0809160049091A8
:1010700061040197909361048093600480916004FF
:1010800090916104009759F410925604809157048E
:1010900060E00E94330781E060E00E946C040E94DF
:1010A000A805FF91EF91BF91AF919F918F917F9193
:1010B0006F915F914F913F912F910F900BBE0F90C9
:1010C0000FBE0F901F90189584B1806684B9EAE036
:1010D000F1E08081806C8083E4E0F1E08081806CCD
:1010E0008083E0E8F0E08081806A80838081816095
:1010F0008083E1E8F0E080818A608083EAE6F0E0C6
:101100008081806F80838DB3806C8DBB85E00E9471
:10111000BB0608951F920F920FB60F920BB60F9257
:1011200011242F938F939F93EF93FF93E091660485
:10113000F09167048091C600E95FFA4F8083809147
:1011400066049091670421E08F3F920750F48091EC
:1011500066049091670401969093670480936604F7
:1011600004C01092670410926604FF91EF919F9162
:101170008F912F910F900BBE0F900FBE0F901F906D
:1011800018951F920F920FB60F920BB60F92112463
:101190002F933F938F939F93EF93FF932091680436
:1011A0003091690480916A0490916B042817390783
:1011B00001F1E0916804F0916904E95FF84F8081E2
:1011C0008093C600809168049091690421E08F3F6C
:1011D000920750F48091680490916904019690936D
:1011E0006904809368040DC0109269041092680429
:1011F00008C081E0809345038091C1008F7D80937A
:10120000C100FF91EF919F918F913F912F910F908E
:101210000BBE0F900FBE0F901F9018954330D0F566
:10122000362F35503430B0F5322F31503230A0F5F2
:10123000442361F03091C20030623093C2004230EA
:1012400029F43091C20030613093C200223029F479
:101250002091C20028602093C200653081F0663082
:1012600011F0683039F42091C20022602093C2004E
:10127000663029F02091C20024602093C200909330
:10128000C5008093C4008091C10088698093C1002B
:1012900080E0089581E0089581E00895409164041C
:1012A00050916504209166043091670481E04217F3
:1012B000530709F480E00895209164043091650497
:1012C000809166049091670428173907A9F3E0918B
:1012D0006404F0916504E95FFA4F8081E091640451
:1012E000F0916504E95FFA4F108220916404309117
:1012F000650491E02F3F390758F420916404309140
:1013000065042F5F3F4F3093650420936404089574
:101310001092650410926404089580916A0490917B
:101320006B04209168043091690401968217930739
:1013300099F08091680490916904009781F420915C
:101340006A0430916B0481E090E041E02F3F340764
:1013500041F080E090E0089581E090E0089580E021
:1013600090E0089520916A0430916B0440916804E4
:10137000509169042F5F3F4F2417350799F320914F
:101380006804309169042115310541F420916A0403
:1013900030916B0491E02F3F390721F3E0916A040B
:1013A000F0916B04E95FF84F808380916A0490911B
:1013B0006B0421E08F3F920750F480916A04909172
:1013C0006B04019690936B0480936A0404C010929E
:1013D0006B0410926A0480914503813061F410928D
:1013E00045038091C10080628093C1008091C0005C
:1013F00080628093C00008952F923F924F925F9237
:101400006F927F928F929F92AF92BF92CF92DF9214
:10141000EF92FF920F931F93DF93CF93CDB7DEB779
:101420002A970FB6F894DEBF0FBECDBF222E932EA3
:10143000842E752E662E572E482E392E0E943A0F76
:1014400029833A834B835C836D837E838F83988764
:1014500090E0822D89298829872986298529842950
:1014600083299A8789870E944E09882319F18A85E2
:10147000082F10E00E945C0997E8E92E94E0F92E0D
:10148000E00EF11EF70180830E94B209F70180810E
:101490008A3019F0FA85FF3711F4F80146C08D3013
:1014A00049F0883021F48A8581508A8703C09A8563
:1014B0009F5F9A87E985EE23B1F20E943A0F5901A6
:1014C0006A017B018C0129813A814B815C816D81AC
:1014D0007E818F8198850E94780F931520F23916AE
:1014E00009F5841508F4BFCF4816E1F4751508F422
:1014F000BACF5716B9F4661508F4B5CF661691F44D
:10150000571508F4B0CF751669F4481508F4ABCF39
:10151000841641F4391508F4A6CF931619F4221550
:1015200008F4A1CF9A85E92FF0E0E957FB4F10822C
:1015300087E894E02A960FB6F894DEBF0FBECDBFC1
:10154000CF91DF911F910F91FF90EF90DF90CF909F
:10155000BF90AF909F908F907F906F905F904F90D3
:101560003F902F90089520E030E040E050E060E0B0
:1015700070E080E090E00E94FC090895DF93CF9333
:101580000F92CDB7DEB789830E94B30A60E070E0A6
:10159000498150E00E945019CB010F90CF91DF910B
:1015A0000895CF93DF93C82FD92F02C00E94B209AC
:1015B00089918823D9F7DF91CF9108951092C100C6
:1015C0001092C2001092C5001092C40010926504DF
:1015D00010926404109269041092680410926704D7
:1015E0001092660410926B0410926A04089510928F
:1015F000B90088E48093B800089594EA9093BC0001
:101600009091BC0097FFFCCF9091B900987F9830E3
:1016100011F0903199F48093BB0084E88093BC0072
:101620008091BC0087FFFCCF9091B900987F9831E2
:1016300039F081E0903429F480E0089581E0089544
:1016400080E0089544EA34E824E94093BC00909196
:10165000BC0097FFFCCF9091B900987F983011F0B3
:10166000903199F78093BB003093BC009091BC00FF
:1016700097FFFCCF9091B900987F903211F0983588
:1016800039F42093BC009091BC0094FDFCCFDDCFD9
:1016900008950E94FD0A089584E98093BC0080911A
:1016A000BC0084FDFCCF08958093BB0084E8809348
:1016B000BC008091BC0087FFFCCF9091B900987F5F
:1016C00081E0983209F480E0089584EC8093BC00B6
:1016D0008091BC0087FFFCCF8091BB00089584E817
:1016E0008093BC008091BC0087FFFCCF8091BB0041
:1016F0000895803148F4883040F0885090917B0004
:10170000986090937B0001C080E090917C00982BC2
:1017100090937C0080917A00806480937A00089591
:1017200090917A0081E096FD80E00895CF93C82FD4
:101730000E94900B882351F080917900CC2339F0DE
:1017400090917A00906490937A0001C080E0CF91EC
:101750000895809164008E7F8093640080E680937A
:101760007C0080917A00806C80937A000E94900BBC
:101770008823E1F380E00E94960B0895EAE7F0E009
:1017800080818F7B8083A4E6B0E08C9181608C9314
:1017900080818F77808308959AE09A95F1F700C051
:1017A000813011F4119A0895882311F41198089545
:1017B000823019F492B1982792B9089581E00E947D
:1017C000CC0B80E00E94CC0B81E00E94CC0B80E02F
:1017D0000E94CC0B129881E00E94CC0B129A80E000
:1017E0000E94CC0B0895882311F0149A01C014981C
:1017F0006111139A81E00E94CC0B80E00E94CC0B17
:1018000013980895AF92BF92DF92EF92FF920F93D9
:101810001F93DF93CF930F92CDB7DEB75C01DD242A
:1018200081E0E82EF12C8D2D847060E00E94F30B96
:101830008D2D827060E00E94F30B8D2D817060E031
:101840000E94F30B07E010E090E09701002E02C029
:10185000220F331F0A94E2F7F5018081822361E0B1
:10186000973009F060E099830E94F30B99819F5FA4
:1018700001501040983049F7D3940894A11CB11C32
:10188000FD2DF83081F60F90CF91DF911F910F91D0
:10189000FF90EF90DF90BF90AF900895159A81E090
:1018A0000E94CC0B159880E00E94CC0B089506C0D6
:1018B00081E00E94CC0B80E00E94CC0B009BF8CF13
:1018C000089580B18170089581B18E6381B90898BF
:1018D00082B1857C82B9129A08950E944E0C0E94B2
:1018E000570C0895CF93DF93EC010E94640C0E9483
:1018F000DE0B209711F0CE0113C088E090E00E942B
:101900001D18FC018FE7808382E0818312828AE5C3
:10191000838381E084831582868384E08783CF017B
:101920000E94020C0E946D0CDF91CF91089580B14E
:1019300080FD02C00E946D0C81E00E94CC0B80E013
:101940000E94CC0B8BE00E94790B0E94900B8823A5
:10195000E1F380E00E94960B0895CF93DF9320E09F
:1019600030E090E0E82FF0E067E070E041E050E028
:10197000DF01022E02C0B595A7950A94E2F7A0FFF9
:101980000AC0DB01A21BB30BEA0102C0CC0FDD1FB2
:10199000AA95E2F79C2B2F5F3F4F2830310541F786
:1019A000892FDF91CF9108952F923F924F925F92AE
:1019B0006F927F928F929F92AF92BF92CF92DF925F
:1019C000EF92FF920F931F93DF93CF93CDB7DEB7C4
:1019D0002D970FB6F894DEBF0FBECDBF6C01B62EAB
:1019E000042F862F0E94AD0C8987EB2DE150E43047
:1019F00028F4F0E0EA5BFC4FA08002C0AA24A39484
:101A0000C114D10419F0C6010E94720C2A2C33248F
:101A100080E090E4B1010E94B1177B876A87F02EC5
:101A2000F294FF0CFF0C90ECF922EE24662477244C
:101A30002E010894411C511C8B2D90E09D878C87B2
:101A400044C0C114D10419F00E94970C05C0B40120
:101A500080E090E00E94B910F80180830F5F1F4F73
:101A60000894811C911C802F84198A1550F3FB2D3A
:101A7000F13018F1F33010F0F430F9F480E090E038
:101A800019C0492F50E0F201E40FF51F208139857C
:101A9000232330E0EC85FD854E9FB0014F9F700DF4
:101AA0005E9F700D112402C0359527956A95E2F767
:101AB000822B9F5F9A1528F301C089810E94B20989
:101AC0000894611C711CE20CF31C8A859B856816C6
:101AD000790618F447018201C6CFC114D10411F070
:101AE0000E94DE0B2D960FB6F894DEBF0FBECDBF61
:101AF000CF91DF911F910F91FF90EF90DF90CF90EA
:101B0000BF90AF909F908F907F906F905F904F901D
:101B10003F902F900895482F80E090E00E94D40CD1
:101B2000089540E00E94D40C0895EF92FF921F9315
:101B3000DF93CF930F92CDB7DEB76032D0F46983D5
:101B40000E94720C6981F62EF294FF0CFF0C20ECBF
:101B5000F222EE2410E00E94970C482FB701610F8B
:101B6000711D882777FD8095982F0E94CD101F5FEB
:101B7000F2CF0F90CF91DF911F91FF90EF900895DA
:101B80000E94DE0B0895CF938AE00E94790B81E0DA
:101B90000E94960BC82F80E00E94960B2C2F30E0FD
:101BA000280F311D369527952538310540F524320B
:101BB000310580F044E250E0249FC001259F900D44
:101BC000349F900D112464E670E00E949D178AE313
:101BD00090E012C024313105A8F04BED50E0249F75
:101BE000C001259F900D349F900D112464E670E094
:101BF0000E949D178CE790E0861B970B05C080E53F
:101C000090E002C080E090E0CF9108951F920F9283
:101C10000FB60F9211242F933F934F935F938F939F
:101C20009F9380916E0490916F0420914A0330E05D
:101C30002817390710F4A59801C0A59A20916C04C3
:101C400030916D0440914B0350E04217530710F45C
:101C50002F9801C02F9A883C910560F401969093CB
:101C60006F0480936E042F5F3F4F30936D04209379
:101C70006C0408C010926F0410926E0410926D04F0
:101C800010926C049F918F915F914F913F912F9192
:101C90000F900FBE0F901F90189524EB30E0281B7B
:101CA0003109C9016CE070E00E949D176B5F609381
:101CB0004A03089590E06CE070E00E949D176B5F0E
:101CC00060934B0308958FE50E944D0E88E20E94B9
:101CD0005A0E84B5826084BD85B5826085BD88EC6E
:101CE00087BDEEE6F0E0808182608083279A9D9A2E
:101CF0002F98A59808950E9464080E94630E089585
:101D00001F93DF93CF930F92CDB7DEB79C01162FB1
:101D1000B90149830E948D054981842F0E94BB0629
:101D2000812F612F0E9433070F90CF91DF911F9178
:101D300008959C01462F02C02856314081E0293683
:101D40003807D0F72115310579F0ECE3F0E02E9F4C
:101D5000C0012F9F900D3E9F900D112468E671E009
:101D60000E949D179B0102C020E030E0C90160E89D
:101D70000E94800E08950E9496050895E0EBF0E021
:101D8000808182608083E1EBF0E0808184608083E9
:101D90008AEF8093B300E0E7F0E080818260808387
:101DA00008951F920F920FB60F920BB60F92112447
:101DB0002F933F934F935F936F937F938F939F9353
:101DC000AF93EF93FF934091700430917104209191
:101DD00072049091730480917404F0917504E09101
:101DE0007604A0917704642F6F5F51E0641708F0C8
:101DF00050E0530F41E0531708F040E0420F31E04C
:101E0000421708F030E0390F21E0391708F020E0E0
:101E1000280F91E0281708F090E09F0F81E09F17AE
:101E200008F080E08E0F71E08E1708F070E07A0FF6
:101E30006093700450937104409372043093730460
:101E400020937404909375048093760470937704C0
:101E5000FF91EF91AF919F918F917F916F915F91E2
:101E60004F913F912F910F900BBE0F900FBE0F908F
:101E70001F90189520917004309171044091720464
:101E8000509173046091740470917504809176048C
:101E9000909177040895AF92BF92CF92DF92EF9224
:101EA000FF920F931F932091700430917104409121
:101EB0007204509173046091740470917504809160
:101EC000760490917704F8EEAF2EE3E0BE2ECC249A
:101ED000DD24EE24FF2400E010E00E944A111F914F
:101EE0000F91FF90EF90DF90CF90BF90AF9008954B
:101EF000AF92BF92CF92DF92EF92FF920F931F9318
:101F0000191720F1911709F078C00817F8F0801719
:101F100009F073C0F716D0F07F1509F06EC0E61611
:101F2000A8F06E1509F069C0D51680F05D1509F0AE
:101F300064C0C41658F04C1509F05FC0B31630F0F9
:101F40003B1509F05AC0A21608F057C0B22FBA19B3
:101F5000A1E02B1708F0A0E0E32FEB19F1E03E170A
:101F600008F0F0E03E2F3A1B21E0E31708F020E0F4
:101F7000F22BA42FAC19E1E04A1708F0E0E04A2F59
:101F80004F1B21E0A41708F020E0E22BA52FAD198C
:101F9000F1E05A1708F0F0E05A2F5E1B21E0A51778
:101FA00008F020E0F22BA62FAE19E1E06A1708F046
:101FB000E0E06A2F6F1B21E0A61708F020E0E22B7B
:101FC000A72FAF19F1E07A1708F0F0E07A2F7E1B07
:101FD00021E0A71708F020E0F22BA82FA01BE1E0DA
:101FE0008A1708F0E0E08A2F8F1B21E0A81708F07D
:101FF00020E0E22B911B2B2F57C0EA2DE21B2E2F46
:10200000A1E0AE1608F0A0E0EB2DE31BF1E0BE1658
:1020100008F0F0E03E2F3A1BA1E0E31708F0A0E043
:10202000FA2BAC2DA41BE1E0CA1608F0E0E04A2F21
:102030004F1BF1E0A41708F0F0E0EF2BAD2DA51B2E
:10204000F1E0DA1608F0F0E05A2F5E1BE1E0A51788
:1020500008F0E0E0FE2BAE2DA61BE1E0EA1608F04A
:10206000E0E06A2F6F1BF1E0A61708F0F0E0EF2B1D
:10207000AF2DA71BF1E0FA1608F0F0E07A2F7E1BD7
:10208000E1E0A71708F0E0E0FE2BA02FA81BE1E09D
:102090000A1708F0E0E08A2F8F1BF1E0A81708F07C
:1020A000F0E0EF2B191B912F9E1B1F910F91FF90BA
:1020B000EF90DF90CF90BF90AF9008958FEF87B9EA
:1020C000E4E0F1E080818F638083E7E0F1E08081EC
:1020D0008063808318B8E5E0F1E08081807C8083B4
:1020E000E8E0F1E080818F7D808380818061808362
:1020F00008952091050121602093050168B9000031
:10210000209105012E7F2093050120910501226079
:102110002093050178B90000209105012D7F2093BF
:10212000050180FF04C020910501246003C02091B7
:1021300005012B7F2093050181FF04C0209105013B
:10214000286003C020910501277F2093050182FFAD
:1021500004C080910501806103C0809105018F7EDC
:10216000809305018091080190E2892780930801FE
:102170000895603020E0720728E0820720E092078F
:1021800020F06FEF7FEF87E090E00E94791017B8A2
:10219000000086B19FEF97B90895DF93CF930F9218
:1021A000CDB7DEB7603020E0720728E0820720E07C
:1021B000920720F06FEF7FEF87E090E049830E9465
:1021C0007910809108018F7E80930801498148B978
:1021D000809108018061809308010F90CF91DF9179
:1021E00008956F927F928F929F92AF92BF92CF92FB
:1021F000DF92EF92FF920F931F93AA24BB246501F5
:10220000EE24FF2487018FEF682E712C812C912CF6
:102210006E207F2080229122C801B701462D0E94A6
:10222000CD10C801B7010E94B91090E0A0E0B0E065
:1022300086159705A805B90529F00894A11CB11CBD
:10224000C11CD11C0894E11CF11C011D111D8FEF54
:10225000E8168FEFF80687E0080780E0180799F680
:10226000C601B50124E630E040E050E00E947E1750
:10227000A80197010E94C417822F1F910F91FF9010
:10228000EF90DF90CF90BF90AF909F908F907F9016
:102290006F900895A8E3B0E0E0E5F1E10C94E61753
:1022A00029833A834B835C836D837E838F839887F6
:1022B000A986BA86CB86DC86ED86FE860F87188BCC
:1022C000E984FA840B851C852D853E854F855889C8
:1022D00029803A804B805C802DA23EA24FA258A656
:1022E000AD80BE80CF80D8842115310541055105D0
:1022F00009F0A6C3AE14BF04C006D10608F03FC162
:1023000020E0E21620E0F20621E0020720E01207BA
:1023100058F43FEFE316F1040105110509F090F4BC
:1023200020E030E0A90117C040E0E41640E0F406E8
:1023300040E0040741E0140750F420E130E040E0C1
:1023400050E009C028E030E040E050E004C028E15F
:1023500030E040E050E0D801C701022E04C0B6953D
:10236000A795979587950A94D2F7845B9C4FDC01DB
:102370006C9180E290E0A0E0B0E0821B930BA40B94
:10238000B50B861B9109A109B1090097A105B105FB
:10239000A1F1082E04C0EE0CFF1C001F111F0A94AF
:1023A000D2F7A6019501082E04C0220F331F441F47
:1023B000551F0A94D2F760E270E0681B790BADA05C
:1023C000BEA0CFA0D8A404C0D694C794B794A794B5
:1023D0006A95D2F7A22AB32AC42AD52A2DA03EA0F4
:1023E0004FA058A404C0220C331C441C551C8A95D1
:1023F000D2F72DA23EA24FA258A6380188249924D4
:10240000A801970140705070298F3A8F4B8F5C8FD5
:10241000C601B501A40193010E94C417222E532EB8
:10242000442E352E6D8F7E8F8F8F98A3C601B501F8
:10243000A40193010E94C417822D952DA42DB32DC4
:102440001C012D01C201B101298D3A8D4B8D5C8D8E
:102450000E947E175B016C014D8D5E8D6F8D78A1A2
:10246000DA01992788274DA15EA16FA178A59B016C
:1024700044275527822B932BA42BB52B8A159B051C
:10248000AC05BD05E0F40894210831084108510865
:102490008E0D9F1DA01FB11F8E159F05A007B107B0
:1024A00070F08A159B05AC05BD0548F40894210819
:1024B0003108410851088E0D9F1DA01FB11F9C01BE
:1024C000AD012A193B094C095D0959016A01CA018C
:1024D000B901A40193010E94C41729A739A349ABEC
:1024E0005DA76D8F7E8F8F8F98A3C601B501A40164
:1024F00093010E94C417A9A4B9A0C9A8DDA4C6016C
:10250000B501298D3A8D4B8D5C8D0E947E173B0164
:102510004C016D8D7E8D8F8D98A1AB0133272227C5
:102520008DA19EA1AFA1B8A5A070B070282B392BAA
:102530004A2B5B2B2615370548055905C0F408942E
:10254000A108B108C108D1082E0D3F1D401F511F21
:102550002E153F054007510750F026153705480551
:10256000590528F40894A108B108C108D1088101CF
:10257000FF24EE24EA28FB280C291D29A1C4E1141C
:10258000F1040105110559F461E070E080E090E08C
:10259000A80197010E94C41779018A0110C070E058
:1025A000E71670E0F70671E0070770E0170758F4C8
:1025B0008FEFE816F1040105110509F090F420E011
:1025C00030E0A90117C090E0E91690E0F90690E02C
:1025D000090791E0190750F420E130E040E050E0B5
:1025E00009C028E030E040E050E004C028E130E0DD
:1025F00040E050E0D801C701022E04C0B695A7956F
:10260000979587950A94D2F7845B9C4FDC018C9157
:10261000280F311D411D511D80E290E0A0E0B0E087
:10262000821B930BA40BB50B61F4150126012E1828
:102630003F08400A510A81E0A82EB12CC12CD12CB0
:1026400023C1082E04C0EE0CFF1C001F111F0A94AA
:10265000D2F715012601022E04C0569447943794F0
:1026600027940A94D2F735014601082E04C0660C5F
:10267000771C881C991C0A94D2F76D8E7E8E8F8EE3
:1026800098A28DA09EA0AFA0B8A404C0B694A794B1
:10269000979487942A95D2F7A5019401AD8CBE8CAE
:1026A000CF8CD8A0A22AB32AC42AD52AAD8EBE8E3A
:1026B000CF8ED8A22DA13EA14FA158A504C0220FB4
:1026C000331F441F551F8A95D2F72DA33EA34FA356
:1026D00058A7380188249924B801A7016070707048
:1026E00049A75AA76BA77CA7C201B101A401930116
:1026F0000E94C417298F39AB4DA75DAB69A37AA39C
:102700008BA39CA3C201B101A40193010E94C41731
:10271000A98CB9A8CDA4DDA8A98EBA8ECB8EDC8EEB
:10272000C601B50129A53AA54BA55CA50E947E1757
:102730005B016C0129A03AA04BA05CA0D1019927B4
:1027400088272D8C3E8C4F8C58A09201442755270A
:10275000822B932BA42BB52B8A159B05AC05BD05AD
:1027600030F5298D3A8D4B8D5C8D215030404040A5
:102770005040298F3A8F4B8F5C8F8E0D9F1DA01F6D
:10278000B11F8E159F05A007B10788F08A159B051C
:10279000AC05BD0560F42150304040405040298FC9
:1027A0003A8F4B8F5C8F8E0D9F1DA01FB11FAC0108
:1027B000BD014A195B096C097D095A016B01CB0106
:1027C000BA01A40193010E94C417522E432E342E45
:1027D000252E69A37AA38BA39CA3C601B501A401EE
:1027E00093010E94C417652C742C832C922CC40175
:1027F000B30129A53AA54BA55CA50E947E179B01B4
:10280000AC0169A17AA18BA19CA16B01BB24AA2474
:102810008D8D9E8DAF8DB8A1A070B070A82AB92AF9
:10282000CA2ADB2AA216B306C406D506E0F4089429
:102830006108710881089108AE0CBF1CC01ED11E32
:10284000AE14BF04C006D10670F0A216B306C406CB
:10285000D50648F408946108710881089108AE0C07
:10286000BF1CC01ED11E15012601221A330A440ABC
:10287000550A898D9A8DAB8DBC8D6C01BB24AA2421
:10288000A628B728C828D9283801882499246D8E0D
:102890007E8E8F8E98A2A80197014070507029A754
:1028A0003AA74BA75CA7C201B101A40193010E9402
:1028B000C417922E832E742E652E69A37AA38BA340
:1028C0009CA3C201B1012D8D3E8D4F8D58A10E9458
:1028D000C417892D982DA72DB62D898F9A8FAB8F70
:1028E000BC8FBC01CD0129A53AA54BA55CA50E94D2
:1028F0007E173B014C0149A15AA16BA17CA1DA01D1
:10290000992788272DA03EA04FA058A492014427C4
:102910005527822B932BA42BB52B86159705A8053D
:10292000B90530F5298D3A8D4B8D5C8D21503040A5
:1029300040405040298F3A8F4B8F5C8F8E0D9F1DEA
:10294000A01FB11F8E159F05A007B10788F086153F
:102950009705A805B90560F421503040404050402B
:10296000298F3A8F4B8F5C8F8E0D9F1DA01FB11F3B
:10297000AC01BD0146195709680979093A014B01B3
:10298000CB01BA012D8D3E8D4F8D58A10E94C417E9
:10299000522E432E342E252E69A37AA38BA39CA3FB
:1029A000C401B3012D8D3E8D4F8D58A10E94C417D7
:1029B000652C742C832C922CC401B30129A53AA553
:1029C0004BA55CA50E947E171B012C0169A17AA171
:1029D0008BA19CA1AB01332722278DA19EA1AFA182
:1029E000B8A5A070B070282B392B4A2B5B2B221571
:1029F000330544055505C0F4089461087108810841
:102A000091082E0D3F1D401F511F2E153F054007F9
:102A1000510750F0221533054405550528F4089454
:102A20006108710881089108898D9A8DAB8DBC8DE4
:102A30008C01FF24EE24E628F7280829192943C22F
:102A4000A216B306C406D50608F42AC2203090E0C8
:102A5000390791E0490790E0590750F42F3F3105BD
:102A60004105510509F090F466247724430119C00B
:102A70002030A0E03A07A0E04A07A1E05A0760F43E
:102A800090E1692E712C812C912C0BC088E0682E6E
:102A9000712C812C912C05C0B8E16B2E712C812CEE
:102AA000912CDA01C901062C04C0B695A79597951B
:102AB00087950A94D2F7845B9C4FFC018081680E55
:102AC000711C811C911C80E290E0A0E0B0E08619AE
:102AD0009709A809B90989F42A153B054C055D0534
:102AE00008F4E5C12DA03EA04FA058A42E143F0429
:102AF0004006510608F0DBC1D3C189A719012A019C
:102B000004C0220C331C441C551C8A95D2F7D801F2
:102B1000C701062C04C0B695A795979587950A948A
:102B2000D2F7282A392A4A2A5B2AA801970109A440
:102B300004C0220F331F441F551F0A94D2F729A344
:102B40003AA34BA35CA386017501062C04C016951D
:102B50000795F794E7940A94D2F7B601A50109A462
:102B600004C0440F551F661F771F0A94D2F74D8F7C
:102B70005E8F6F8F78A36DA17EA18FA198A504C0F1
:102B800096958795779567956A94D2F73B014C01A6
:102B90008D8D9E8DAF8DB8A186299729A829B92939
:102BA0008D8F9E8FAF8FB8A35201CC24DD24A2015C
:102BB00091014070507029AB3AAB4BAB5CABC80194
:102BC000B701A60195010E94C417622E932E842E90
:102BD000752E6DA77EA78FA798ABC801B701A60178
:102BE00095010E94C417E62CF92C082D172DE98EAB
:102BF000FA8E0B8F1C8FC801B70129A93AA94BA9DE
:102C00005CA90E947E176DA47EA48FA498A883015E
:102C1000FF24EE246D8C7E8C8F8C98A09401442729
:102C20005527E22AF32A042B152BE616F706080788
:102C3000190730F5298D3A8D4B8D5C8D2150304030
:102C400040405040298F3A8F4B8F5C8FE20CF31C31
:102C5000041D151DE214F3040405150588F0E6169D
:102C6000F7060807190760F42150304040405040F3
:102C7000298F3A8F4B8F5C8FE20CF31C041D151DBE
:102C8000E61AF70A080B190BC801B701A60195014E
:102C90000E94C4172DAB3EAB4FAB58AF6DA77EA7BC
:102CA0008FA798ABC801B701A60195010E94C41770
:102CB0006DA87EA88FA898ACC401B30129A93AA930
:102CC0004BA95CA90E947E179B01AC01ADA4BEA4D8
:102CD000CFA4D8A8D50199278827AD8CBE8CCF8CDE
:102CE000D8A06FEFE62E6FEFF62E012D112DAE203E
:102CF000BF20C022D1228A299B29AC29BD29821755
:102D00009307A407B507E0F40894610871088108E7
:102D10009108820D931DA41DB51D82159305A40570
:102D2000B50570F082179307A407B50748F4089417
:102D30006108710881089108820D931DA41DB51DBD
:102D40001C012D01221A330A440A550A2D8E3E8E8B
:102D50004F8E58A2A98CBA8CCB8CDC8C8501FF24B9
:102D6000EE24E628F72808291929AFEFAA2EAFEF9D
:102D7000BA2EC12CD12CAE20BF20C022D1221801E6
:102D80004424552469A07AA08BA09CA02FEF3FEF8C
:102D900040E050E0622273228422952269A17AA148
:102DA0008BA19CA1AC0166277727498F5A8F6B8F27
:102DB0007C8FC601B501A40193010E947E1769A30F
:102DC0007AA38BA39CA3C601B501298D3A8D4B8DA7
:102DD0005C8D0E947E175B016C01C201B101A401F0
:102DE00093010E947E173B014C01C201B101298D64
:102DF0003A8D4B8D5C8D0E947E179B01AC01A60C19
:102E0000B71CC81CD91C29A03AA04BA05CA0C201C9
:102E1000AA27BB27A80EB91ECA1EDB1EA614B7041C
:102E2000C804D90420F4205030404F4F5F4FC601F2
:102E3000AA27BB27820F931FA41FB51F4D8C5E8C42
:102E40006F8C78A0481659066A067B0618F184151F
:102E50009505A605B705A1F56501BB24AA2489A19E
:102E60009AA1ABA1BCA1A070B070A80EB91ECA1ED9
:102E7000DB1E8DA19EA1AFA1B8A509A404C0880F37
:102E8000991FAA1FBB1F0A94D2F78A159B05AC0590
:102E9000BD05B0F40894E108F1080109110910C05A
:102EA000AA24BB246501EE24FF2487010CC0AA24B8
:102EB000BB24650181E0E82EF12C012D112D03C00A
:102EC000AA24BB246501FE01719688E0DF011D92F2
:102ED0008A95E9F7E98AFA8A0B8B1C8BAD8ABE8A40
:102EE000CF8AD88E2E2D3A894B895C896A2D7E89AE
:102EF0008F89988DE896E2E10C940218629FD001C8
:102F0000739FF001829FE00DF11D649FE00DF11DA4
:102F1000929FF00D839FF00D749FF00D659FF00D53
:102F20009927729FB00DE11DF91F639FB00DE11D40
:102F3000F91FBD01CF0111240895AA1BBB1B51E14C
:102F400007C0AA1FBB1FA617B70710F0A61BB70B19
:102F5000881F991F5A95A9F780959095BC01CD01BE
:102F6000089597FB092E07260AD077FD04D0E5DFE8
:102F700006D000201AF4709561957F4F0895F6F7FA
:102F8000909581959F4F0895A1E21A2EAA1BBB1B15
:102F9000FD010DC0AA1FBB1FEE1FFF1FA217B30725
:102FA000E407F50720F0A21BB30BE40BF50B661F3B
:102FB000771F881F991F1A9469F7609570958095FF
:102FC00090959B01AC01BD01CF0108952F923F92D6
:102FD0004F925F926F927F928F929F92AF92BF9229
:102FE000CF92DF92EF92FF920F931F93CF93DF93D5
:102FF000CDB7DEB7CA1BDB0B0FB6F894DEBF0FBE32
:10300000CDBF19942A88398848885F846E847D846E
:103010008C849B84AA84B984C884DF80EE80FD8080
:103020000C811B81AA81B981CE0FD11D0FB6F894F6
:10303000DEBF0FBECDBFED010895CF93DF93823089
:10304000910510F482E090E0E0910909F0910A09FD
:1030500040E050E020E030E026C0608171816817D8
:103060007907E0F06817790781F48281938121154F
:10307000310531F0D90113969C938E9312972BC092
:1030800090930A098093090926C04115510519F04A
:103090006417750718F4AB01E901DF019F01728124
:1030A0006381E72FF62F3097C1F64115510501F1E5
:1030B000481B590B4430510580F412968D919C9118
:1030C0001397209719F09B838A8304C090930A0971
:1030D00080930909FD01329646C0FD01E40FF51FFA
:1030E000819391934250504011965C934E933BC014
:1030F00020910709309108092115310541F42091EB
:103100004E0430914F043093080920930709209111
:103110005004309151042115310541F42DB73EB7CB
:1031200040914C0450914D04241B350BE09107094C
:10313000F0910809E217F307A0F42E1B3F0B2817A4
:10314000390778F0AC014E5F5F4F2417350748F020
:103150004E0F5F1F50930809409307098193919385
:1031600002C0E0E0F0E0CF01DF91CF910895CF936E
:10317000DF93009709F491C0FC0132971382128209
:103180006091090970910A096115710581F4208126
:103190003181280F391F8091070990910809821702
:1031A000930799F5F0930809E093070976C0DB01CE
:1031B00080E090E002C0CD01D901AE17BF0748F40E
:1031C00012962D913C91139721153105A1F7CD0150
:1031D00021C0B383A283EF01499159919E01240F2D
:1031E000351FA217B30779F42D913C911197240F45
:1031F000351F2E5F3F4F3183208312962D913C91D6
:10320000139733832283009729F4F0930A09E093FC
:10321000090943C0DC011396FC93EE9312974D917C
:103220005D91A40FB51FEA17FB0769F42081318176
:10323000240F351F2E5F3F4FEC01398328832281F5
:1032400033813B832A83E0E0F0E002C0FB01BC0154
:10325000DB0112968D919C9113970097B9F79B0112
:103260002E5F3F4F8D919C911197820F931F40913C
:103270000709509108094817590779F4309729F43C
:1032800010920A091092090902C013821282225078
:1032900030403093080920930709DF91CF910895BA
:1032A0002F923F924F925F926F927F929F92AF9236
:1032B000BF92CF92DF92EF92FF920F931F93CF9323
:1032C000DF933B01EA016115710519F0FB01808371
:1032D0009183209739F09E012250304023323105EE
:1032E00008F0D5C0C82ED92EF60111916F017F01CB
:1032F000812F90E00E945E1A0097B1F71D3231F4E1
:10330000F60111917F019924939406C01B3219F4A0
:10331000F60111917F019924209719F0C031D10550
:10332000D1F4103389F4F7018081883711F08835A2
:1033300059F4F701118182E090E0E80EF91E92E065
:10334000992AC0E1D0E007C0209729F41033B1F0EA
:10335000CAE0D0E02BC0CA30D10541F1C031D1055F
:1033600021F0C830D105A9F409C02FEFA22E2FEF0C
:10337000B22E2FEFC22E2FE0D22E20C0C8E0D0E018
:103380009FEFA92E9FEFB92E9FEFC92E9FE1D92E57
:1033900015C09E01442737FD4095542F6FEF7FEFF6
:1033A000CB010E94C41759016A0108C089E9A82EFF
:1033B00089E9B82E89E9C82E89E1D82E60E020E09D
:1033C00030E0A9011E01442437FC4094542C012F05
:1033D00000530A3060F0812F81548A3110F4075075
:1033E00006C0812F81568A3150F5012F0755802F55
:1033F00090E08C179D071CF56F3FE9F0A216B3060D
:10340000C406D506A8F0CA01B901A20191010E9423
:103410007E179B01AC01802F90E0A0E0B0E0280F68
:10342000391F4A1F5B1F281739074A075B0710F42B
:103430006FEF01C061E0F70111917F01C8CF611406
:10344000710481F0662339F00894E108F108F30172
:10345000F182E08207C091FE05C0C7010297F30127
:103460009183808390FE07C05095409530952195BB
:103470003F4F4F4F5F4F67FF0DC082E290E0909348
:103480000C0980930B092FEF3FEFA90103C020E047
:1034900030E0A901B901CA01DF91CF911F910F91CD
:1034A000FF90EF90DF90CF90BF90AF909F907F9074
:1034B0006F905F904F903F902F900895911123C08F
:1034C000803219F089508550D0F70895FB01DC0156
:1034D00005900D920020E1F70895FB019F01423015
:1034E00074F0453264F4642F77270E949D17805D45
:1034F0008A330CF0895D8193CB010097A1F710828C
:10350000C9010C94861A992788270895DC01FC01CB
:10351000672F71917723E1F7329704C07C916D9307
:1035200070836291AE17BF07C8F30895F894FFCF78
:103530000A000A312920466F7277617264730A3279
:1035400029204261636B77617264730A33292054C6
:1035500075726E0A3029204D61696E204D656E7559
:10356000000A31292053746F7265207069630A3232
:10357000292053656E64207069630A0A3029204D42
:1035800061696E204D656E75000A436F6E3A2000CA
:103590000A0A0A3029204D61696E204D656E75005A
:1035A0000A426C7565746F6F746820526561647946
:1035B00021000A4E616D653A200041544E3F0D00D6
:1035C0000A50696E3A20000D4154503F0D000A30F8
:1035D00029204D61696E204D656E75000A312920E4
:1035E0004C6566742D52696768740A3329205570DA
:1035F0002D446F776E0A0A3029204D61696E204D87
:10360000656E75000A5374617274696E6720524169
:103610004D20546573742E2E2E004572726F7220E9
:10362000526174653A200025000A312920547279CC
:1036300020416761696E0A3029204D61696E204D15
:10364000656E75000A44697374616E63653F000AB4
:1036500053706565643F000A446567726565733F32
:10366000000A313D4C6566742020323D526967681E
:103670007400285F01010804010264640001020271
:1036800003030303040404040404040405050505FA
:1036900005050505050505050505050506060606D6
:1036A00006060606060606060606060606060606BA
:1036B00006060606060606060606060607070707A6
:1036C000070707070707070707070707070707078A
:1036D000070707070707070707070707070707077A
:1036E000070707070707070707070707070707076A
:1036F0000707070707070707070707070808080856
:103700000808080808080808080808080808080839
:103710000808080808080808080808080808080829
:103720000808080808080808080808080808080819
:103730000808080808080808080808080808080809
:1037400008080808080808080808080808080808F9
:1037500008080808080808080808080808080808E9
:1037600008080808080808080808080808080808D9
:1037700008080808080808080808080820000D09B3
:02378000000047
:00000001FF
