:100000000C94A4000C94C5000C94C5000C94C5007D
:100010000C94C5000C94C5000C94C5000C942706E4
:100020000C94B2050C94C5000C94C5000C94C5004A
:100030000C94C5000C94F80A0C94C5000C94C500EF
:100040000C94C5000C94C5000C94C5000C94C5001C
:100050000C94C5000C94C5000C94C5000C94C5000C
:100060000C94C5000C9404070C943B070C94C50039
:100070000C94C5000C94C5000C94C5000C94C500EC
:100080000C94C5000C94C5000C94C5000C94C500DC
:100090000C94C5000C94C5000C94C5000C94C500CC
:1000A0000C94C5000C94C5000C94C5000C94C500BC
:1000B0000C94C5000C94C5000C94C5000C94C500AC
:1000C0000C94C5000C94C5000C94C5000C94C5009C
:1000D0000C94C5000C94C5000C94C5000C94C5008C
:1000E0000C94C5007879526F626F74204245544178
:1000F0000A000A7879526F626F7420426574610059
:100100000A31292044726976696E67000A32292013
:1001100043616D657261000A332920426C75657414
:100120006F6F7468000A342920536572766F73000C
:10013000F20000010C01170125010A3029204E654B
:10014000787420706167650011241FBECFEFD1E283
:10015000DEBFCDBF00E00CBF12E0A0E0B2E0E4E8FB
:10016000FCE100E00BBF02C007900D92AA31B1077D
:10017000D9F716E0AAE1B2E001C01D92AD3CB1078B
:10018000E1F70E940F020C94400E0C9400002091A5
:10019000240283E0289FC0011124853091058CF44E
:1001A000E6E02E9FF0011124E05DFE4F2591349191
:1001B00086E492E0B9010E94CF0D86E492E00E94AD
:1001C00001032091240283E0289FC0011124843080
:1001D000910584F4E6E02E9FF0011124EE5CFE4FC1
:1001E0002591349186E492E0B9010E94CF0D86E416
:1001F00092E002C080E092E00E940103209124027C
:1002000083E0289FC00111248330910584F4E6E047
:100210002E9FF0011124EC5CFE4F2591349186E471
:1002200092E0B9010E94CF0D86E492E002C080E026
:1002300092E00E94010386E492E06AE371E00E948A
:10024000CF0D86E492E00E94010308950E944803C6
:1002500090E08033910569F480912402882321F491
:1002600081E08093240202C0109224020E94C70001
:1002700008958F33910581F18A32910569F18332B6
:10028000910551F1009741F1C0974091240223E07C
:10029000429F900111242830310584F0342F330F10
:1002A000340F3E5F20E002C03A502F5F3A30E0F753
:1002B0003AE0239F90011124820F931F853091050E
:1002C00058F4FC01EE0FFF1FE65EFD4F0190F08138
:1002D000E02D309709F019950895EF92FF920F9352
:1002E0001F93DF93CF93CDB7DEB728970FB6F8945F
:1002F000DEBF0FBECDBF8E010F5F1F4F99E0E92E0D
:10030000F12CEC0EFD1E0E94C8078823E1F30E9429
:10031000D607F80181938F01EE15FF05A1F7CE01F5
:1003200001960E94230A00E010E40E94630A0E94E2
:100330002C0801501040C9F70E94790A28960FB680
:10034000F894DEBF0FBECDBFCF91DF911F910F910B
:10035000FF90EF9008951F93DF93CF930F92CDB747
:10036000DEB70E94C807882309F454C00E94D6074C
:10037000813811F1823830F48F3361F0803809F020
:1003800047C013C0833811F18338E8F0843809F08E
:100390003FC02FC086E492E064EE70E00E94CF0D73
:1003A00086E492E00E94760835C00E94D607853B1D
:1003B00088F50E948C0A2EC00E94D607853B50F516
:1003C0000E94940A27C00E946D0124C00E94D60793
:1003D000182F0E94D60789830E94D6076981882337
:1003E00011F041E001C042E0812F90E00E94A70A95
:1003F00011C00E94D607182F0E94D607882311F03B
:1004000063E001C064E0812F90E00E94C00A02C056
:100410000E942C080F90CF91DF911F9108950E94A8
:10042000490280E00E94520281E00E94520282E072
:100430000E9452020E949C0A8FEF94E3ACE081502C
:100440009040A040E1F700C000000E949C080E947C
:10045000E50289E190E068E040E021E00E94880741
:100460000E944E090E94E50A80E00E94520281E04B
:100470000E94520282E00E94520278940E94C700B9
:1004800082E092E00E9476080E9426010E94AB0161
:10049000FBCF81B1806C81B9249A82B1806C82B922
:1004A0002C9A0895813041F0813018F0823069F43F
:1004B00008C082B1805803C082B190E4892782B914
:1004C000089585B190E1892785B90895CF93C0E05B
:1004D00080E00E94520281E00E94520282E00E946B
:1004E0005202C33049F08FE792E4A0E1815090407E
:1004F000A040E1F700C00000CF5FC43049F7CF91C2
:100500000895662369F0813039F0813018F0823027
:1005100099F404C017980895169808952C98089592
:10052000813039F0813018F0823031F404C0179AEC
:100530000895169A08952C9A0895CF93C82F82E4AF
:100540000E94C7088C2F0E94F9080E94F108CF91E1
:100550000895CF93C82F8BE10E949D028CE40E94E6
:100560009D02CC2339F480E00E949D028091C60256
:100570008E7F06C081E00E949D028091C60281604C
:100580008093C602CF9108959091C60281E090FDBC
:1005900080E00E94A9028FEF99E6A8E18150904087
:1005A000A040E1F700C000009091C60281E090FDFC
:1005B00080E00E94A9028FEF99E6A8E18150904067
:1005C000A040E1F700C00000089581E08093C602DA
:1005D0008CE00E949D028BE10E949D028FE40E94AC
:1005E0009D0281E00E949D0281E00E949D028BE1BC
:1005F0000E949D028BE70E949D0281E00E94A90259
:1006000008950F931F93DF93CF930F92CDB7DEB76B
:10061000082F82E499830E94C7089981402F592F9F
:100620008A011BC0809126028F5F80932602D80129
:100630008D918D018D3041F08A3021F48DE00E9442
:10064000F9088AE00E94F9088FEF99EFA0E0815045
:100650009040A040E1F700C00000D8018C918823B1
:1006600009F70E94F108809126028A3058F0109212
:1006700026028FEF91EEA4E081509040A040E1F778
:1006800000C000000F90CF91DF911F910F9108954E
:10069000CF9383E40E94A2080E940A09C82F0E94F7
:1006A00014090E94F1088C2FCF9108950F931F9386
:1006B000DF93CF9300D00F920F92CDB7DEB790E0CB
:1006C0008E010F5F1F4F9D830E9448039D818823E9
:1006D000D1F38A3259F0833249F0953038F4F80179
:1006E000E90FF11D805380839F5FEDCF923069F059
:1006F000933018F49130E9F505C0933069F09430E7
:10070000C1F51AC0298130E036C029818AE0289FCE
:10071000900111248A810DC0298184E6289F9001CF
:1007200011249A818AE0989FC0011124280F391F53
:100730008B81280F311D1FC0498150E088EE93E066
:10074000489F9001499F300D589F300D11249A8188
:1007500084E6989FC0011124280F391F8C81280F2F
:10076000311D9B818AE0989FC0011124280F391FF9
:1007700002C020E030E0C9010F900F900F900F9061
:100780000F90CF91DF911F910F910895FF920F93DA
:100790001F93CF93DF93FF240E94C8078823E1F3C0
:1007A000CF2DD0E00E94D6078E010A5B1D4FF801C5
:1007B00080830E942C08F80180818A3019F0FF2D77
:1007C000FF3359F4CA5BDD4F188286E492E0DF9173
:1007D000CF911F910F91FF9008958D30E9F28830ED
:1007E00011F4FA94D9CFF394D7CFDF93CF930F922C
:1007F000CDB7DEB789830E94C60360E070E049810F
:1008000050E00E94B90CCB010F90CF91DF91089579
:1008100066E472E04AE050E00E94D60D089590E050
:100820000E940804089590E066E472E040E150E020
:100830000E94D60D08957093320260933102909316
:1008400034028093330208958091310290913202F4
:10085000009751F4209133023091340281E0211548
:10086000310519F080E0089580E0089584B1806634
:1008700084B9EAE0F1E08081806C8083E4E0F1E01B
:100880008081806C8083E0E8F0E08081806A8083F2
:10089000808181608083E1E8F0E080818A608083EC
:1008A000EAE6F0E08081806F80838DB3806C8DBB41
:1008B0000E9449020895909128028091270298177A
:1008C00009F014C180912802882309F40FC12091F6
:1008D000290230912A0240912B0250912C028091E2
:1008E0002D0290912E02A0912F02B0913002281774
:1008F00039074A075B0709F4F9C0809129029091F2
:100900002A02A0912B02B0912C0282309105A10500
:10091000B1050CF4EBC06091280280911102813086
:1009200021F080911102823031F5809111028130E5
:1009300089F48091290290912A02A0912B02B09112
:100940002C0220912D0230912E0240912F025091C5
:1009500030024AC080912D0290912E02A0912F0268
:10096000B09130022091290230912A0240912B024D
:1009700050912C0239C080911102843029F080916D
:100980001102833009F0A2C0809111028430A9F4D1
:100990002091290230912A0240912B0250912C0281
:1009A00080912D0290912E02A0912F02B0913002E1
:1009B000820F931FA41FB51F1BC080912902909125
:1009C0002A02A0912B02B0912C0220912D0230918D
:1009D0002E0240912F0250913002B095A095909533
:1009E00081959F4FAF4FBF4F821B930BA40BB50B4D
:1009F000181619061A061B0684F540918A005091B4
:100A00008B00862F90E09C01275E3F4F42175307D3
:100A100068F420918A0030918B002F3F310530F42B
:100A200080918A0090918B0001964CC020918800A3
:100A3000309189002230310508F448C020918800A7
:100A40003091890049978217930708F03FC0809141
:100A500088009091890001971CC00097A105B105FD
:100A6000A9F14091880050918900862F90E09C0167
:100A7000275E3F4F4217530788F42091880030913A
:100A800089002F3F310550F48091880090918900B2
:100A90000196909389008093880018C020918A0065
:100AA00030918B002230310588F020918A003091FE
:100AB0008B0049978217930748F480918A009091A0
:100AC0008B00019790938B0080938A0010922D02E7
:100AD00010922E0210922F021092300210922902D0
:100AE00010922A0210922B0210922C020895CF939A
:100AF000C62F9FB7F8948093280260932702209115
:100B0000280230E030938B0020938A002091270246
:100B100030E03093890020938800109229021092CF
:100B20002A0210922B0210922C0210922D02109287
:100B30002E0210922F02109230029FBF882319F0CC
:100B400080E061E002C080E060E00E948102CC238E
:100B500019F081E061E002C081E060E00E94810262
:100B6000CF9108951F920F920FB60F920BB60F926E
:100B700011242F933F934F935F936F937F938F93A2
:100B80009F93AF93BF93EF93FF93809111028130B6
:100B900021F080911102833061F480912D029091B7
:100BA0002E02A0912F02B09130020196A11DB11D1D
:100BB00013C080911102823021F0809111028430A3
:100BC00099F480912D0290912E02A0912F02B09164
:100BD00030020197A109B10980932D0290932E0252
:100BE000A0932F02B093300280913302909134028F
:100BF0000097D1F080913302909134020197909345
:100C00003402809333028091330290913402009732
:100C100059F4109228026091270280E00E94770523
:100C200080E060E00E948102FF91EF91BF91AF915F
:100C30009F918F917F916F915F914F913F912F91F4
:100C40000F900BBE0F900FBE0F901F9018951F9224
:100C50000F920FB60F920BB60F9211242F933F9362
:100C60004F935F936F937F938F939F93AF93BF93B4
:100C7000EF93FF9380911102813021F08091110256
:100C8000843061F48091290290912A02A0912B0274
:100C9000B0912C020196A11DB11D13C080911102CB
:100CA000823021F080911102833099F480912902E1
:100CB00090912A02A0912B02B0912C020197A109D8
:100CC000B1098093290290932A02A0932B02B0933A
:100CD0002C0280913102909132020097D1F08091E4
:100CE0003102909132020197909332028093310247
:100CF0008091310290913202009759F410922702AC
:100D00008091280260E00E94770581E060E00E9407
:100D100081020E945B04FF91EF91BF91AF919F917F
:100D20008F917F916F915F914F913F912F910F9094
:100D30000BBE0F900FBE0F901F9018958FB7F894B1
:100D400010928B0010928A001092890010928800F5
:100D500010922802109227021092290210922A0261
:100D600010922B0210922C0210922D0210922E0241
:100D700010922F02109230028FBF80E060E00E943C
:100D8000810281E060E00E9481020895823099F042
:100D9000833018F48130C9F405C0833019F08430F1
:100DA000A1F409C090910B019F7390930B01909156
:100DB0000B01906408C090910B019F7390930B01FD
:100DC00090910B01906890930B01843028F482304D
:100DD00070F48130B1F402C0843099F4909105012F
:100DE0009F739093050190910501906808C09091C0
:100DF00005019F7390930501909105019064909374
:100E000005018093110208951F920F920FB60F9261
:100E10000BB60F9211242F938F939F93EF93FF9311
:100E2000E0913702F09138028091C600E953FD4FFE
:100E30008083809137029091380221E08F3F9207A2
:100E400050F48091370290913802019690933802C5
:100E50008093370204C01092380210923702FF913B
:100E6000EF919F918F912F910F900BBE0F900FBE1E
:100E70000F901F9018951F920F920FB60F920BB6FE
:100E80000F9211242F933F938F939F93EF93FF9390
:100E90002091390230913A0280913B0290913C02BC
:100EA0002817390701F1E0913902F0913A02E9532C
:100EB000FB4F80818093C6008091390290913A0265
:100EC00021E08F3F920750F48091390290913A02CD
:100ED000019690933A02809339020DC010923A0223
:100EE0001092390208C081E0809312028091C10003
:100EF0008F7D8093C100FF91EF919F918F913F91E2
:100F00002F910F900BBE0F900FBE0F901F90189552
:100F10004330D0F5362F35503430B0F5322F3150C4
:100F20003230A0F5442361F03091C200306230933A
:100F3000C200423029F43091C20030613093C200C7
:100F4000223029F42091C20028602093C20065302D
:100F500081F0663011F0683039F42091C2002260CF
:100F60002093C200663029F02091C20024602093B3
:100F7000C2009093C5008093C4008091C10088692D
:100F80008093C10080E0089581E0089581E0089594
:100F9000409135025091360220913702309138024B
:100FA00081E04217530709F480E00895209135024B
:100FB0003091360280913702909138022817390714
:100FC000A9F3E0913502F0913602E953FD4F80819B
:100FD000E0913502F0913602E953FD4F10822091E5
:100FE00035023091360291E02F3F390758F42091B5
:100FF0003502309136022F5F3F4F309336022093F7
:1010000035020895109236021092350208958091AB
:101010003B0290913C022091390230913A020196B4
:101020008217930799F08091390290913A020097C4
:1010300081F420913B0230913C0281E090E041E05C
:101040002F3F340741F080E090E0089581E090E088
:10105000089580E090E0089520913B0230913C0299
:101060004091390250913A022F5F3F4F24173507C4
:1010700099F32091390230913A022115310541F45A
:1010800020913B0230913C0291E02F3F390721F340
:10109000E0913B02F0913C02E953FB4F8083809149
:1010A0003B0290913C0221E08F3F920750F48091E7
:1010B0003B0290913C02019690933C0280933B024C
:1010C00004C010923C0210923B02809112028130C7
:1010D00061F4109212028091C10080628093C1007D
:1010E0008091C00080628093C0000895CF93DF9309
:1010F000C82FD92F02C00E942C0889918823D9F7C4
:10110000DF91CF9108951092C1001092C200109209
:10111000C5001092C400109236021092350210924F
:101120003A0210923902109238021092370210924D
:101130003C0210923B0208951092B90088E480931B
:10114000B800089594EA9093BC009091BC0097FF7A
:10115000FCCF9091B900987F983011F0903199F4BC
:101160008093BB0084E88093BC008091BC0087FF23
:10117000FCCF9091B900987F983139F081E090349C
:1011800029F480E0089581E0089580E0089544EA1C
:1011900034E824E94093BC009091BC0097FFFCCF59
:1011A0009091B900987F983011F0903199F7809321
:1011B000BB003093BC009091BC0097FFFCCF909196
:1011C000B900987F903211F0983539F42093BC0023
:1011D0009091BC0094FDFCCFDDCF08950E94A20841
:1011E000089584E98093BC008091BC0084FDFCCF0D
:1011F00008958093BB0084E88093BC008091BC007C
:1012000087FFFCCF9091B900987F81E0983209F474
:1012100080E0089584EC8093BC008091BC0087FF3F
:10122000FCCF8091BB00089584E88093BC0080913E
:10123000BC0087FFFCCF8091BB000895803148F44B
:10124000883040F0885090917B00986090937B00AC
:1012500001C080E090917C00982B90937C0080915D
:101260007A00806480937A00089590917A0081E0FA
:1012700096FD80E00895CF93C82F0E9435098823FA
:1012800051F080917900CC2339F090917A009064EC
:1012900090937A0001C080E0CF910895809164001E
:1012A0008E7F8093640080E680937C0080917A003A
:1012B000806C80937A000E9435098823E1F380E0F6
:1012C0000E943B090895EAE7F0E080818F7B8083EC
:1012D000A4E6B0E08C9181608C9380818F778083CD
:1012E000089595E39A95F1F70000813011F4119A71
:1012F00009C0882311F4119805C0823019F492B105
:10130000982792B985E38A95F1F70000089512981D
:1013100081E00E94710985E38A95F1F70000129A35
:1013200080E00E9471090895DF93CF930F92CDB7AB
:10133000DEB7882311F0149A01C0149881E0698304
:101340000E94710969816111139A85E38A95F1F709
:10135000000080E00E947109E5E3EA95F1F70000E2
:1013600013980F90CF91DF910895AF92BF92DF92C3
:10137000EF92FF920F931F93DF93CF930F92CDB70E
:10138000DEB75C01DD2481E0E82EF12C8D2D847028
:1013900060E00E9494098D2D827060E00E949409A3
:1013A0008D2D817060E00E94940907E010E090E0CC
:1013B0009701002E02C0220F331F0A94E2F7F501B5
:1013C0008081822361E0973009F060E099830E9478
:1013D000940999819F5F01501040983049F7D39448
:1013E0000894A11CB11CFD2DF83081F60F90CF910F
:1013F000DF911F910F91FF90EF90DF90BF90AF9022
:101400000895159A81E00E94710985E38A95F1F7A4
:101410000000159880E00E94710908950EC081E0D7
:101420000E94710985E38A95F1F7000080E00E942F
:10143000710985E38A95F1F70000009BF0CF0895CC
:1014400080B1817008951F93CF93DF93EC0181B138
:101450008E6381B9089811E010933D020E948709BC
:10146000209721F0CE010E94B50917C088E090E0D6
:101470000E94860BEC018FE7888382E089831A82C1
:101480008AE58B831C831D821E8384E08F83CE01BB
:101490000E94B509CE010E94200C0E94010A0E9400
:1014A0000E0ADF91CF911F91089580913D0288230C
:1014B00029F480E090E00E94230A08950E94010A26
:1014C0000E940E0A089580B180FD02C00E94550A54
:1014D00081E00E94710980E00E9471098BE00E9406
:1014E0001E090E9435098823E1F380E00E943B0930
:1014F000089510923D020E9487090E946309089591
:1015000084B5836084BD84B5806A84BD85B58560FB
:1015100085BD279A9D9A08959FE0899FC001112457
:10152000892F805F87BD08959FE0899FC0011124A6
:10153000892F805F88BD08950E9436040E94800A2A
:1015400084E60E94940A80E00E948C0A08951F930A
:10155000DF93CF930F92CDB7DEB79C01162FB90161
:1015600049830E941B044981842F0E94C606812F53
:10157000612F0E9477050F90CF91DF911F91089501
:101580009C01462F02C02856314081E02936380799
:10159000D0F72115310579F0ECE3F0E02E9FC00182
:1015A0002F9F900D3E9F900D112468E671E00E94E0
:1015B000720B9B0102C020E030E0C90160E80E948C
:1015C000A70A08950E9424040895E0EBF0E08081CA
:1015D00082608083E1EBF0E08081846080838AEF29
:1015E0008093B300E0E7F0E080818260808308951B
:1015F0001F920F920FB60F920BB60F9211242F93DA
:101600003F934F935F936F937F938F939F93AF938A
:10161000EF93FF9340913E0230913F0220914002B0
:101620009091410280914202F0914302E091440284
:10163000A0914502642F6F5F51E0641708F050E0FD
:10164000530F41E0531708F040E0420F31E04217DA
:1016500008F030E0390F21E0391708F020E0280FBA
:1016600091E0281708F090E09F0F81E09F1708F0A5
:1016700080E08E0F71E08E1708F070E07A0F6093B3
:101680003E0250933F024093400230934102209328
:101690004202909343028093440270934502FF916B
:1016A000EF91AF919F918F917F916F915F914F914A
:1016B0003F912F910F900BBE0F900FBE0F901F9078
:1016C000189520913E0230913F0240914002509186
:1016D00041026091420270914302809144029091D4
:1016E00045020895AA1BBB1B51E107C0AA1FBB1FDF
:1016F000A617B70710F0A61BB70B881F991F5A959E
:10170000A9F780959095BC01CD010895CF93DF9303
:101710008230910510F482E090E0E091C906F091EA
:10172000CA0640E050E020E030E026C060817181D0
:1017300068177907E0F06817790781F4828193814F
:101740002115310531F0D90113969C938E93129790
:101750002BC09093CA068093C90626C04115510537
:1017600019F06417750718F4AB01E901DF019F0157
:1017700072816381E72FF62F3097C1F6411551052D
:1017800001F1481B590B4430510580F412968D919C
:101790009C911397209719F09B838A8304C09093A0
:1017A000CA068093C906FD01329646C0FD01E40FCA
:1017B000F51F819391934250504011965C934E9344
:1017C0003BC02091C7063091C8062115310541F470
:1017D00020911502309116023093C8062093C70657
:1017E00020911702309118022115310541F42DB7CF
:1017F0003EB74091130250911402241B350BE09127
:10180000C706F091C806E217F307A0F42E1B3F0BA2
:101810002817390778F0AC014E5F5F4F2417350762
:1018200048F04E0F5F1F5093C8064093C706819340
:10183000919302C0E0E0F0E0CF01DF91CF910895F5
:10184000CF93DF93009709F491C0FC013297138284
:1018500012826091C9067091CA066115710581F402
:1018600020813181280F391F8091C7069091C806C9
:101870008217930799F5F093C806E093C70676C0E0
:10188000DB0180E090E002C0CD01D901AE17BF07B7
:1018900048F412962D913C91139721153105A1F72B
:1018A000CD0121C0B383A283EF01499159919E01DB
:1018B000240F351FA217B30779F42D913C9111978E
:1018C000240F351F2E5F3F4F3183208312962D91B9
:1018D0003C91139733832283009729F4F093CA062F
:1018E000E093C90643C0DC011396FC93EE93129774
:1018F0004D915D91A40FB51FEA17FB0769F4208194
:101900003181240F351F2E5F3F4FEC01398328832F
:10191000228133813B832A83E0E0F0E002C0FB01B7
:10192000BC01DB0112968D919C9113970097B9F73A
:101930009B012E5F3F4F8D919C911197820F931FBA
:101940004091C7065091C8064817590779F4309757
:1019500029F41092CA061092C90602C0138212829C
:10196000225030403093C8062093C706DF91CF91B4
:1019700008952F923F924F925F926F927F929F9223
:10198000AF92BF92CF92DF92EF92FF920F931F938D
:10199000CF93DF933B01EA016115710519F0FB015B
:1019A00080839183209739F09E012250304023326A
:1019B000310508F0D5C0C82ED92EF60111916F015E
:1019C0007F01812F90E00E94C70D0097B1F71D3273
:1019D00031F4F60111917F019924939406C01B32D2
:1019E00019F4F60111917F019924209719F0C03163
:1019F000D105D1F4103389F4F7018081883711F0D3
:101A0000883559F4F701118182E090E0E80EF91E63
:101A100092E0992AC0E1D0E007C0209729F4103362
:101A2000B1F0CAE0D0E02BC0CA30D10541F1C031DD
:101A3000D10521F0C830D105A9F409C02FEFA22E9D
:101A40002FEFB22E2FEFC22E2FE0D22E20C0C8E0F3
:101A5000D0E09FEFA92E9FEFB92E9FEFC92E9FE1F7
:101A6000D92E15C09E01442737FD4095542F6FEFA6
:101A70007FEFCB010E941E0E59016A0108C089E95F
:101A8000A82E89E9B82E89E9C82E89E1D82E60E010
:101A900020E030E0A9011E01442437FC4094542C7E
:101AA000012F00530A3060F0812F81548A3110F4E5
:101AB000075006C0812F81568A3150F5012F0755F6
:101AC000802F90E08C179D071CF56F3FE9F0A21660
:101AD000B306C406D506A8F0CA01B901A201910156
:101AE0000E94FF0D9B01AC01802F90E0A0E0B0E0D0
:101AF000280F391F4A1F5B1F281739074A075B0742
:101B000010F46FEF01C061E0F70111917F01C8CFC0
:101B10006114710481F0662339F00894E108F1083A
:101B2000F301F182E08207C091FE05C0C701029770
:101B3000F3019183808390FE07C0509540953095C6
:101B400021953F4F4F4F5F4F67FF0DC082E290E0FE
:101B50009093CC068093CB062FEF3FEFA90103C0F3
:101B600020E030E0A901B901CA01DF91CF911F91B6
:101B70000F91FF90EF90DF90CF90BF90AF909F902C
:101B80007F906F905F904F903F902F9008959111AC
:101B900023C0803219F089508550D0F70895FB0199
:101BA000DC0105900D920020E1F70895FB019F01F3
:101BB000423074F0453264F4642F77270E94720B30
:101BC000805D8A330CF0895D8193CB010097A1F78A
:101BD0001082C9010C94EF0D992788270895DC0124
:101BE000FC01672F71917723E1F7329704C07C9154
:101BF0006D9370836291AE17BF07C8F30895629F1B
:101C0000D001739FF001829FE00DF11D649FE00DF4
:101C1000F11D929FF00D839FF00D749FF00D659F55
:101C2000F00D9927729FB00DE11DF91F639FB00D54
:101C3000E11DF91FBD01CF0111240895A1E21A2E63
:101C4000AA1BBB1BFD010DC0AA1FBB1FEE1FFF1F60
:101C5000A217B307E407F50720F0A21BB30BE40BB0
:101C6000F50B661F771F881F991F1A9469F76095F7
:101C70007095809590959B01AC01BD01CF010895B1
:041C8000F894FFCF06
:101C84000A00496E697469616C697A6564210A00A5
:0A1C94006401012000CD06000000ED
:00000001FF
