:100000000C9472000C9493000C9493000C94930045
:100010000C9493000C9493000C9493000C947E0524
:100020000C9409050C9493000C9493000C94930089
:100030000C9493000C9493000C9493000C949300F4
:100040000C9493000C9493000C9493000C949300E4
:100050000C9493000C9493000C9493000C949300D4
:100060000C9493000C941A060C9450060C94930074
:100070000C9493000C9493000C9493000C949300B4
:100080000C9493000C9493000C9493000C949300A4
:100090000C9493000C9493000C9493000C94930094
:1000A0000C9493000C9493000C9493000C94930084
:1000B0000C9493000C9493000C9493000C94930074
:1000C0000C9493000C9493000C9493000C94930064
:1000D0000C9493000C9493000C9493000C94930054
:1000E0000C94930011241FBECFEFD1E2DEBFCDBF31
:1000F00000E00CBF12E0A0E0B2E0E4E1F6E100E0D5
:100100000BBF02C007900D92AC3CB107D9F716E0C7
:10011000ACECB2E001C01D92AF3EB107E1F70E9426
:1001200095000C94080B0C9400000E9480010E9422
:100130009D0183E390E068E040E021E00E949C069E
:100140000E948C070E94EC090E9441080E94FC0258
:1001500078940E94C20080E092E00E948E02FBCF61
:100160008BE092E00E948E020E9411028823C1F36C
:10017000089589E192E00E948E020E941102882374
:10018000C1F308950F931F93CF93DF9310E003E023
:1001900001C010E0109FE0011124FE01EE0FFF1FCF
:1001A000EC54FD4F808191810E948E02C330D105B5
:1001B00069F0FE01EE0FFF1FEA54FD4F808191812F
:1001C0000E948E02C230D10531F40DC084E292E06B
:1001D0000E948E0208C0FE01EE0FFF1FE854FD4F83
:1001E0008081918102C084E292E00E948E0286E2C8
:1001F00092E00E948E020E94110290E00097D9F3D3
:100200008033910521F4112321F611E0C3CF8F3300
:10021000910509F4BFCF8A32910509F4BBCF83322F
:10022000910509F4B7CFFC01F097E430F10508F02F
:10023000B1CFEE0FFF1FE454FD4F0190F081E02D90
:10024000309709F4A7CF1995A5CF0F931F93CF939C
:10025000DF9384E392E00E948E020E9411028823C1
:10026000E1F390E0C09784309105A9F085309105C5
:1002700034F4009709F43FC0029759F706C086305E
:10028000910579F0089729F712C088E492E00E945E
:100290008E0211E011C082E592E00E948E0214E00D
:1002A0000BC088E592E00E948E0213E005C08FE546
:1002B00092E00E948E0212E0012F0350023018F4E7
:1002C0008AE692E002C085E792E00E948E020E94D8
:1002D0001F02EC010E94D8010E948E02023028F415
:1002E000CE01612F0E94CA09B4CFCE0168EC412F24
:1002F0000E94B809AECFDF91CF911F910F91089561
:1003000081B1806C81B9249A82B1806C82B92C9AB7
:100310000895813041F0813018F0823069F408C0CE
:1003200082B1805803C082B190E4892782B90895D0
:1003300085B190E1892785B908951F93CF93DF9305
:1003400010E0C0E9D1E080E00E94890181E00E94D4
:10035000890182E00E948901133039F082E09DE03A
:10036000FE013197F1F70197D9F71F5F143059F764
:10037000DF91CF911F910895662369F0813039F0A4
:10038000813018F0823099F404C0179808951698B7
:1003900008952C980895813039F0813018F082301A
:1003A00031F404C0179A0895169A08952C9A089566
:1003B000CF93DF939C0140E010C0EC51FD4FC90189
:1003C0006AE070E00E94EF09805D80834F5FC901A1
:1003D0006AE070E00E94EF099B01E42FF0E0211534
:1003E000310559F74695C4EED2E0DF01AC0FBD1FD1
:1003F000242F30E02C0F3D1F05C098818C918993EC
:100400009C931197C217D307C1F7EC51FD4F10828F
:1004100084EE92E0DF91CF91089590E00E94D801A0
:1004200008951F9383E40E9492070E94FD07182FEE
:100430000E9407080E94E307812F1F910895EF9201
:10044000FF921F93DF93CF9300D00F92CDB7DEB70B
:1004500010E07E010894E11CF11C0E941102882327
:10046000E1F38A3259F0833249F0153038F4F7015C
:10047000E10FF11D805380831F5FEFCF123081F0B9
:10048000133018F4113029F407C0133081F0143000
:10049000F1F040E050E037C08981482F50E033C090
:1004A00089819AE0899FA00111248A810DC09981D8
:1004B00084E6989FA00111248A812AE0829FC001CE
:1004C0001124480F591F8B81480F511D1CC0898171
:1004D00090E028EE33E0829FA001839F500D929F11
:1004E000500D11248A8124E6829FC0011124480FF7
:1004F000591F8C81480F511D8B812AE0829FC001BA
:100500001124480F591FCA010F900F900F900F90A0
:10051000CF91DF911F91FF90EF900895CF93DF93DC
:10052000EC0182E40E94B8070AC08D3041F08A30A5
:1005300021F48DE00E94EB078AE00E94EB072196F0
:100540008A912196882389F70E94E30780ED97E03E
:1005500020E931E0F9013197F1F70197D9F7DF91FF
:10056000CF9108951F93182F82E40E94B807812F1E
:100570000E94EB070E94E30780EA9FE00197F1F7F2
:100580001F9108951F93182F8BE10E94B2028CE4F3
:100590000E94B202112339F480E00E94B2028091DD
:1005A000EA028E7F06C081E00E94B2028091EA02D8
:1005B00081608093EA021F9108958091EA028095FC
:1005C00081700E94C20288E893E120E931E0F901DC
:1005D0003197F1F70197D9F78091EA028095817000
:1005E0000E94C20288E893E120E931E0F9013197E5
:1005F000F1F70197D9F7089581E08093EA028CE042
:100600000E94B2028BE10E94B2028FE40E94B20209
:1006100081E00E94B20281E00E94B2028BE10E945E
:10062000B2028BE70E94B20281E00E94C2020895EA
:100630007093D7026093D6029093D9028093D80228
:1006400008958091D6029091D702892B11F020E075
:100650000AC08091D8029091D90220E0892B09F03C
:1006600021E081E02827822F0895EF92FF920F93D7
:100670001F939091CD028091CC02981709F022C16E
:100680008091CD02882309F41DC12091CE023091C2
:10069000CF024091D0025091D1028091D20290912C
:1006A000D302A091D402B091D502281739074A0786
:1006B0005B0709F407C18091CE029091CF02A0910F
:1006C000D002B091D1020297A105B1050CF4FAC095
:1006D0006091CD028091C402813021F08091C402EA
:1006E0008230B1F58091C402813089F42091CE022C
:1006F0003091CF024091D0025091D1028091D2022C
:100700009091D302A091D402B091D50210C0209153
:10071000D2023091D3024091D4025091D5028091FF
:10072000CE029091CF02A091D002B091D102281BAD
:10073000390B4A0B5B0B12161306140615060CF444
:1007400049C0211531054105510509F4ABC076C0FA
:100750008091C402843029F08091C402833009F072
:10076000A1C08091C4028430A9F48091CE029091FE
:10077000CF02A091D002B091D102E090D202F090CD
:10078000D3020091D4021091D502E80EF91E0A1F7F
:100790001B1F1BC08091CE029091CF02A091D0026E
:1007A000B091D1022091D2023091D3024091D40273
:1007B0005091D502EE24FF248701E81AF90A0A0BAA
:1007C0001B0BE21AF30A040B150B1E141F04100670
:1007D00011067CF520918A0030918B00462F50E065
:1007E000CA0149962817390768F480918A009091C8
:1007F0008B008F3F910530F480918A0090918B009F
:1008000001964CC08091880090918900029708F46D
:1008100049C0809188009091890049515040481703
:10082000590708F03FC08091880090918900019796
:100830001CC0E114F10401051105A1F1209188000B
:1008400030918900462F50E0CA0149962817390790
:1008500088F480918800909189008F3F910550F431
:1008600080918800909189000196909389008093EF
:10087000880018C080918A0090918B00029790F0B8
:1008800080918A0090918B00495150404817590738
:1008900048F480918A0090918B00019790938B008F
:1008A00080938A001092D2021092D3021092D40246
:1008B0001092D5021092CE021092CF021092D00266
:1008C0001092D1021F910F91FF90EF900895982FF1
:1008D000823099F0833018F48130C9F405C0833038
:1008E00019F08430A1F409C080910B018F738093BB
:1008F0000B0180910B01806408C080910B018F7304
:1009000080930B0180910B01806880930B019430E0
:1009100028F4923070F49130B1F402C0943099F41C
:10092000809105018F738093050180910501806896
:1009300008C0809105018F738093050180910501A6
:100940008064809305019093C40208958FB7F89452
:1009500010928B0010928A001092890010928800E9
:100960001092CD021092CC021092CE021092CF02C1
:100970001092D0021092D1021092D2021092D302A1
:100980001092D4021092D5028FBF80E060E00E94E6
:10099000BC0181E060E00E94BC0108951F93162F06
:1009A0009FB7F8948093CD026093CC022091CD0242
:1009B00030E030938B0020938A002091CC0230E00D
:1009C00030938900209388001092CE021092CF02BB
:1009D0001092D0021092D1021092D2021092D30241
:1009E0001092D4021092D5029FBF882319F080E0A4
:1009F00061E002C080E060E00E94BC01112319F0B8
:100A000081E061E002C081E060E00E94BC011F91D2
:100A100008951F920F920FB60F920BB60F921124EA
:100A20002F933F934F935F936F937F938F939F93F6
:100A3000AF93BF93EF93FF938091C402813021F075
:100A40008091C402833061F48091D2029091D302EC
:100A5000A091D402B091D5020196A11DB11D13C081
:100A60008091C402823021F08091C402843099F4D4
:100A70008091D2029091D302A091D402B091D5027C
:100A80000197A109B1098093D2029093D302A09358
:100A9000D402B093D5028091D8029091D902892BCB
:100AA000D1F08091D8029091D90201979093D90208
:100AB0008093D8028091D8029091D902892B59F461
:100AC0001092CD026091CC0280E00E94CE0480E0C2
:100AD00060E00E94BC01FF91EF91BF91AF919F91A7
:100AE0008F917F916F915F914F913F912F910F90D7
:100AF0000BBE0F900FBE0F901F9018951F920F9274
:100B00000FB60F920BB60F9211242F933F934F9372
:100B10005F936F937F938F939F93AF93BF93EF9365
:100B2000FF938091C402813021F08091C40284300F
:100B300061F48091CE029091CF02A091D002B09149
:100B4000D1020196A11DB11D13C08091C402823053
:100B500021F08091C402833099F48091CE0290916B
:100B6000CF02A091D002B091D1020197A109B109A1
:100B70008093CE029093CF02A093D002B093D10283
:100B80008091D6029091D702892BD1F08091D60224
:100B90009091D70201979093D7028093D6028091CB
:100BA000D6029091D702892B59F41092CC028091F1
:100BB000CD0260E00E94CE0481E060E00E94BC01B2
:100BC0000E943503FF91EF91BF91AF919F918F915B
:100BD0007F916F915F914F913F912F910F900BBE3D
:100BE0000F900FBE0F901F90189584B1806684B946
:100BF000EAE0F1E08081806C8083E4E0F1E08081D4
:100C0000806C8083E0E8F0E08081806A808380816E
:100C100081608083E1E8F0E080818A608083EAE699
:100C2000F0E08081806F80838DB3806C8DBB0E94EB
:100C3000800108951F920F920FB60F920BB60F927C
:100C400011242F938F939F93EF93FF93E091DC02F6
:100C5000F091DD028091C600E551FD4F80838091C7
:100C6000DC029091DD028F5F914050F48091DC02B4
:100C70009091DD0201969093DD028093DC0204C026
:100C80001092DD021092DC02FF91EF919F918F9103
:100C90002F910F900BBE0F900FBE0F901F901895C5
:100CA0001F920F920FB60F920BB60F9211242F9333
:100CB0003F938F939F93EF93FF932091DE023091A8
:100CC000DF028091E0029091E10228173907F9F0E4
:100CD000E091DE02F091DF02E551FB4F80818093CD
:100CE000C6008091DE029091DF028F5F914050F448
:100CF0008091DE029091DF0201969093DF02809353
:100D0000DE020DC01092DF021092DE0208C081E008
:100D10008093E2028091C1008F7D8093C100FF919A
:100D2000EF919F918F913F912F910F900BBE0F905C
:100D30000FBE0F901F901895FC01433008F041C082
:100D4000862F85508430E8F5822F81508230C8F597
:100D5000442361F08091C20080628093C2004230DF
:100D600029F48091C20080618093C200223029F46E
:100D70008091C20088608093C2006530B9F066300F
:100D800011F0683028F08091C20082608093C20028
:100D9000673060F08091C20084608093C200693047
:100DA00029F48091C10084608093C100F093C50054
:100DB000E093C4008091C10088698093C10080E005
:100DC000089581E008952091DA023091DB0280914C
:100DD000DC029091DD0240E02817390709F041E07C
:100DE000842F08952091DA023091DB028091DC0299
:100DF0009091DD022817390711F420E023C0E0911B
:100E0000DA02F091DB02E551FD4F2081E091DA0238
:100E1000F091DB02E551FD4F10828091DA02909152
:100E2000DB028F5F914050F48091DA029091DB02F7
:100E300001969093DB028093DA0204C01092DB02E9
:100E40001092DA02822F0895482F8091E00290914B
:100E5000E1022091DE023091DF02019682179307B2
:100E6000A1F38091DE029091DF02892B39F4809109
:100E7000E0029091E1028F5F914039F3E091E0024E
:100E8000F091E102E551FB4F40838091E0029091A7
:100E9000E1028F5F914050F48091E0029091E10275
:100EA00001969093E1028093E00204C01092E10267
:100EB0001092E0028091E202813039F41092E20255
:100EC0008091C10080628093C1000895CF93DF9329
:100ED000EC0103C021960E94240788818823D1F762
:100EE000DF91CF9108951092C1001092C20010922C
:100EF000C5001092C4001092DB021092DA02109228
:100F0000DF021092DE021092DD021092DC021092DB
:100F1000E1021092E00208951092B90088E48093F3
:100F2000B8000895982F84EA8093BC008091BC009B
:100F300087FFFCCF8091B900887F883021F0803115
:100F400011F081E008959093BB0084E88093BC0089
:100F50008091BC0087FFFCCF9091B900987F9831B9
:100F600011F480E0089580E0903409F081E0089564
:100F7000982F44EA34E824E94093BC008091BC00F7
:100F800087FFFCCF8091B900887F883011F08031D5
:100F900099F79093BB003093BC008091BC0087FF11
:100FA000FCCF8091B900887F803211F0883539F408
:100FB0002093BC008091BC0084FDFCCFDDCF089560
:100FC0000E949207089584E98093BC008091BC0040
:100FD00084FDFCCF08958093BB0084E88093BC001F
:100FE0008091BC0087FFFCCF8091B90090E0887FA2
:100FF000883209F091E0892F089584EC8093BC0039
:101000008091BC0087FFFCCF8091BB00089584E8ED
:101010008093BC008091BC0087FFFCCF8091BB0017
:101020000895982F803110F090E008C0883030F09B
:10103000985080917B00886080937B0080917C0039
:10104000892B80937C0080917A00806480937A0061
:10105000089580917A0090E026E0969587952A95EC
:10106000E1F78170089580917A0086FD02C080E0EA
:10107000089580917A00806480937A00809179004D
:101080000895809164008E7F8093640010927C00AC
:1010900080917C00806680937C0080917A00806CD7
:1010A00080937A0080917A0086FFFCCF0E943308FB
:1010B0000895EAE7F0E080818F7B8083E4E6F0E04A
:1010C0008081816080830895982F813011F4119A76
:1010D0000895882311F411980895823019F482B18B
:1010E000892782B90895129881E00E94640885E0FA
:1010F0008A95F1F7129A80E00E94640808951F9380
:10110000162F882311F0149A01C0149881E00E94D0
:1011100064081111139A85E08A95F1F780E00E9426
:10112000640813981F910895AF92BF92CF92DF92F7
:10113000EF92FF920F931F93CF93DF937C0100E018
:1011400011E097E0A92EB12C81E0C82ED12C812F7F
:10115000847060E00E947F08812F827060E00E94AE
:101160007F08812F817060E00E947F08C0E0D0E09E
:10117000C5018C1B9D0B960102C0220F331F8A955F
:10118000E2F7F701EC0FFD1FE081E22360E0C730DA
:1011900009F461E08E2F0E947F082196C830D105A6
:1011A00039F7173010F010E001C01F5F0F5F0830F3
:1011B00071F6DF91CF911F910F91FF90EF90DF902B
:1011C000CF90BF90AF900895159A81E00E94640877
:1011D00085E08A95F1F7159880E00E9464080895EB
:1011E0001F9315E00EC081E00E946408812F8A954C
:1011F000F1F7009908C080E00E946408812F8A9569
:10120000F1F7009BF0CF1F9108951092E3020E9426
:1012100073080895DF92EF92FF920F931F93CF937D
:10122000DF93EC0181B18E6381B90898FF24F394B8
:10123000F092E3020E947308209721F0CE010E94F1
:10124000940817C088E090E00E94030A8C0180E1B6
:10125000F801808311828AE58283F3821482F58209
:1012600016828FEB8783C8010E949408C8010E94F0
:10127000B00A0E94E4080E94F00880E090E40E9416
:10128000030AF92ED82E282F3F2DE90125E0E22E62
:101290008E010050104C81E00E9464088BE00E9497
:1012A00011088E2D8A95F1F70E943308899380E00A
:1012B0000E9464088E2D8A95F1F7C017D10759F75F
:1012C0008D2D9F2DDF91CF911F910F91FF90EF906A
:1012D000DF900895DF92EF92FF920F931F93CF93C9
:1012E000DF938091E302882331F480E090E00E9454
:1012F0000A097C0131C00E94E4080E94F00880E0E5
:1013000090E40E94030A182F092FE82EF92E8BE093
:101310000E941108812F902FEC0135E0D32E8E0111
:101320000050104C0E9429088823E1F30E943308E2
:10133000888381E00E9464088D2D8A95F1F703C0AF
:1013400081E00E94640880E00E9464080099F8CF60
:101350002196C017D10731F7C701DF91CF911F91B7
:101360000F91FF90EF90DF9008950E942103089560
:101370000F931F939C01062F142FB9010E9418038D
:10138000812F0E946704802F602F0E94CE041F913E
:101390000F9108959C01462F02C02856314061E00C
:1013A00029363607D0F72115310519F480E090E091
:1013B0000FC08CE390E0BC01269FC001279F900DD9
:1013C000369F900D112468E671E00E94EF09CB0171
:1013D00060E80E94B80908950E94F5050895AA1BC7
:1013E000BB1B51E107C0AA1FBB1FA617B70710F010
:1013F000A61BB70B881F991F5A95A9F78095909542
:10140000BC01CD010895CF93DF93BC0182309105DB
:1014100010F462E070E0A091ED06B091EE06ED01EF
:10142000E0E0F0E040E050E021C08881998186173B
:10143000970769F48A819B81309719F0938382839F
:1014400004C09093EE068093ED06FE0134C0681749
:10145000790738F44115510519F08417950708F4F8
:10146000AC01FE018A819B819C01E9012097E9F68C
:1014700041155105A9F1CA01861B970B049708F481
:10148000BA01E0E0F0E02AC08D919C911197841799
:101490009507F9F46417750781F412968D919C9164
:1014A0001397309719F09383828304C09093EE06CC
:1014B0008093ED06FD0132964FC0CA01861B970B43
:1014C000FD01E80FF91F6193719302978D939C932F
:1014D00043C0FD01828193819C01D9011097A1F63F
:1014E0008091EB069091EC06892B41F48091C70224
:1014F0009091C8029093EC068093EB064091C9024C
:101500005091CA024115510541F44DB75EB7809123
:10151000C5029091C602481B590B2091EB063091F1
:10152000EC0624173507B0F4CA01821B930B86170B
:10153000970780F0AB014E5F5F4F8417950750F01F
:10154000420F531F5093EC064093EB06F901619351
:10155000719302C0E0E0F0E0CF01DF91CF910895F8
:10156000CF93DF93009709F450C0EC0122971B82C0
:101570001A82A091ED06B091EE06109709F140E0B5
:1015800050E0AC17BD0708F1BB83AA83FE0121918F
:101590003191E20FF31FAE17BF0779F48D919C9143
:1015A0001197280F391F2E5F3F4F398328831296DA
:1015B0008D919C9113979B838A834115510571F4FA
:1015C000D093EE06C093ED0620C012968D919C91AB
:1015D0001397AD01009711F0DC01D3CFFA01D3834B
:1015E000C28321913191E20FF31FCE17DF0769F417
:1015F00088819981280F391F2E5F3F4FFA0131836F
:1016000020838A819B8193838283DF91CF91089588
:04161000F894FFCF7C
:101614000A5245534554204D4521000A426C7565D4
:10162400746F6F74682E2E2E000A43616D657261AB
:101634002E2E2E000A000A3029204E657874207060
:10164400616765000A446972656374696F6E3A2064
:1016540032203420362038000A466F727761726473
:1016640073000A4C656674000A5269676874000A5C
:101674004261636B7761726473000A4465677265E3
:1016840065733F20000A44697374616E63653F208B
:10169400000A7879526F626F742042657461000A9F
:1016A40031292044726976696E67000A3229204321
:1016B400616D657261000A332920426C7565746F2F
:1016C4006F74680081028F029B02A602000025014C
:0C16D400B900B000012000EF060000008B
:00000001FF
