:100000000C9472000C9493000C9493000C94930045
:100010000C9493000C9493000C9493000C9495060C
:100020000C9420060C9493000C9493000C94930071
:100030000C9493000C9493000C9493000C949300F4
:100040000C9493000C9493000C9493000C949300E4
:100050000C9493000C94180B0C94A40A0C94930029
:100060000C9493000C9431070C9467070C94930044
:100070000C9493000C9493000C9493000C949300B4
:100080000C9493000C9493000C9493000C949300A4
:100090000C9493000C9493000C9493000C94930094
:1000A0000C9493000C9493000C9493000C94930084
:1000B0000C9493000C9493000C9493000C94930074
:1000C0000C9493000C9493000C9493000C94930064
:1000D0000C9493000C9493000C9493000C94930054
:1000E0000C94930011241FBECFEFD1E2DEBFCDBF31
:1000F00000E00CBF13E0A0E0B2E0ECEBF9E100E0BF
:100100000BBF02C007900D92A637B107D9F717E0D1
:10011000A6E7B3E001C01D92AE39B107E1F70E9436
:1001200095000C94DC0C0C9400000E94C60283E342
:1001300090E068E040E021E00E94B3070E9481095E
:1001400078940E94E3020E94870BFDCF80E092E04A
:100150000E94B2030E9435038823C1F30895EF92F1
:10016000FF920F931F93CF93DF93FF2443E0E42E7E
:1001700000E911E001C0FF24FE9CE0011124FE0112
:10018000EE0FFF1FE45BFC4F808191810E94B20360
:1001900080ED97E0F8013197F1F70197D9F7FE016B
:1001A000EE0FFF1FE25BFC4F808191810E94B20342
:1001B00080ED97E0F8013197F1F70197D9F7C33057
:1001C000D10589F0FE01EE0FFF1FE05BFC4F80813F
:1001D00091810E94B20380ED97E0F8013197F1F729
:1001E0000197D9F704C08EE092E00E94B20380E14B
:1001F00092E00E94B20380ED97E0F8013197F1F7A9
:100200000197D9F70E94350390E08033910531F4CE
:10021000FF2009F0B0CFFF24F394AECF8F339105C8
:1002200009F4AACF8A32910509F4A6CF8332910549
:1002300009F4A2CF009709F49FCFFC01F097E530B5
:10024000F10508F099CFEE0FFF1FEA5AFC4F01901D
:10025000F081E02D309709F48FCF19958DCFCF9293
:10026000DF92EF92FF921F93CF93DF938EE092E0A5
:100270000E94B203C0E0D0E010E060E9C62E61E069
:10028000D62E53E0E52EF12CEC22FD22E114F104F0
:1002900049F4812F805E0E94CD031E3510F010E0DE
:1002A00001C01F5F8EE192E00E94B2030E948F0A9C
:1002B0000E941E030E94B20383E0E816F10421F0BD
:1002C00080E20E94CD0307C084EF91E0F6013197F0
:1002D000F1F70197D9F7219680E4C030D80789F665
:1002E000DF91CF911F91FF90EF90DF90CF90089515
:1002F000CF93DF93C0E0D0E00E948F0A0E94600895
:10030000219680E4C030D807B9F7DF91CF910895E6
:10031000CF93DF9381E292E00E94B20380E090E00D
:100320000E94490A86E392E00E94B20388EE93E0BD
:1003300020E931E0F9013197F1F70197D9F7C0E9E8
:10034000D1E083E492E00E94B20388EE93E0FE01E4
:100350003197F1F70197D9F789E592E00E94B2034E
:1003600088EE93E0FE013197F1F70197D9F78BE61C
:1003700092E00E94B20388EE93E0FE013197F1F71C
:100380000197D9F70E9435038823E1F38053813028
:1003900029F08130C0F08230A1F609C00E94810AA4
:1003A0008AE792E00E94B2030E947801CACF0E94BD
:1003B000810A0E942F0180E197E2FE013197F1F757
:1003C0000197D9F7BECFDF91CF9108950F931F9377
:1003D000CF93DF9300E911E086E892E00E94B20338
:1003E00088E893E1F8013197F1F70197D9F70E9476
:1003F00035038823E1F390E0C0978130910539F00F
:100400008230910529F1892B09F443C0E5CF83EBB4
:1004100092E00E94B20388EE93E0F8013197F1F781
:100420000197D9F70E944303EC018F3F910509F032
:10043000C8F70E9426030E94B2038C2F0E94DD0A97
:1004400080E197E2F8013197F1F70197D9F7C4CF2E
:100450008AEB92E00E94B20388EE93E0F8013197B4
:10046000F1F70197D9F70E944303EC018F3F910503
:1004700009F0C8F70E9426030E94B2038C2F0E9445
:10048000DF0A80E197E2F8013197F1F70197D9F798
:10049000A3CFDF91CF911F910F910895EF92FF921B
:1004A0000F931F93CF93DF9370E9E72E71E0F72E40
:1004B00081EC92E00E94B20388EE93E0F70131975D
:1004C000F1F70197D9F70E9435038823E1F390E013
:1004D000C09784309105A9F08530910534F40097D8
:1004E00009F44DC0029721F706C08630910579F0D6
:1004F0000897F1F612C085ED92E00E94B20311E078
:1005000011C08FED92E00E94B20314E00BC085EEA3
:1005100092E00E94B20313E005C08CEE92E00E94CC
:10052000B20312E088EE93E0F7013197F1F70197FB
:10053000D9F7012F0350023018F487EF92E002C080
:1005400082E093E00E94B20388EE93E0F7013197D6
:10055000F1F70197D9F70E944303EC010E942603AB
:100560000E94B203023028F4CE01612F0E94F60AE5
:100570009FCFCE0168EC412F0E94E40A99CFDF9112
:10058000CF911F910F91FF90EF90089581B1806CF2
:1005900081B9249A82B1806C82B92C9A08958130F5
:1005A00041F0813018F0823069F408C082B180587F
:1005B00003C082B190E4892782B9089585B190E1A2
:1005C000892785B908951F93CF93DF9310E0C0E981
:1005D000D1E080E00E94CF0281E00E94CF0282E061
:1005E0000E94CF02133039F082E09DE0FE01319786
:1005F000F1F70197D9F71F5F143059F7DF91CF91C9
:100600001F910895662369F0813039F0813018F028
:10061000823099F404C017980895169808952C987C
:100620000895813039F0813018F0823031F404C0FF
:10063000179A0895169A08952C9A089590E061E902
:1006400073E040E150E00E94B60C089561E973E068
:100650004AE050E00E94B60C089590E061E973E032
:100660004AE050E00E94B60C08951F9383E40E9474
:10067000CE080E943909182F0E9443090E941F09C1
:10068000812F1F910895EF92FF921F93DF93CF93D5
:1006900000D00F92CDB7DEB710E07E010894E11CC8
:1006A000F11C0E9435038823E1F38A3259F083322A
:1006B00049F0153038F4F701E10FF11D80538083C4
:1006C0001F5FEFCF123081F0133018F4113029F48E
:1006D00007C0133081F01430F1F040E050E037C033
:1006E0008981482F50E033C089819AE0899FA00119
:1006F00011248A810DC0998184E6989FA00111245C
:100700008A812AE0829FC0011124480F591F8B81E2
:10071000480F511D1CC0898190E028EE33E0829F74
:10072000A001839F500D929F500D11248A8124E6D1
:10073000829FC0011124480F591F8C81480F511D01
:100740008B812AE0829FC0011124480F591FCA01E2
:100750000F900F900F900F90CF91DF911F91FF900E
:10076000EF900895CF93DF93EC0182E40E94F408A8
:100770000AC08D3041F08A3021F48DE00E942709B3
:100780008AE00E94270921968A912196882389F779
:100790000E941F09DF91CF9108951F93182F82E4C3
:1007A0000E94F408812F0E9427090E941F091F91AF
:1007B00008951F93182F8BE10E94CD038CE40E94B3
:1007C000CD03112339F480E00E94CD038091990379
:1007D0008E7F06C081E00E94CD03809199038160E5
:1007E000809399031F91089580919903809581705A
:1007F0000E94D90388E893E120E931E0F9013197BB
:10080000F1F70197D9F780919903809581700E9443
:10081000D90388E893E120E931E0F9013197F1F754
:100820000197D9F7089581E0809399038CE00E94A5
:10083000CD038BE10E94CD038FE40E94CD0381E0C4
:100840000E94CD0381E00E94CD038BE10E94CD0385
:100850008BE70E94CD0381E00E94D9030895709335
:1008600081036093800390938303809382030895B0
:100870008091800390918103892B11F020E00AC0C0
:10088000809182039091830320E0892B09F021E07D
:1008900081E02827822F0895EF92FF920F931F93F4
:1008A0009091770380917603981709F022C1809187
:1008B0007703882309F41DC12091780330917903CF
:1008C00040917A0350917B0380917C0390917D034A
:1008D000A0917E03B0917F03281739074A075B0771
:1008E00009F407C18091780390917903A0917A036C
:1008F000B0917B030297A105B1050CF4FAC0609199
:10090000770380916003813021F080916003823011
:10091000B1F580916003813089F4209178033091A2
:10092000790340917A0350917B0380917C039091ED
:100930007D03A0917E03B0917F0310C020917C03C2
:1009400030917D0340917E0350917F038091780325
:1009500090917903A0917A03B0917B03281B390B06
:100960004A0B5B0B12161306140615060CF449C04D
:10097000211531054105510509F4ABC076C08091C0
:100980006003843029F080916003833009F0A1C0B6
:10099000809160038430A9F4809178039091790369
:1009A000A0917A03B0917B03E0907C03F0907D03EB
:1009B00000917E0310917F03E80EF91E0A1F1B1F92
:1009C0001BC08091780390917903A0917A03B09134
:1009D0007B0320917C0330917D0340917E035091F5
:1009E0007F03EE24FF248701E81AF90A0A0B1B0B88
:1009F000E21AF30A040B150B1E141F04100611064D
:100A00007CF520918A0030918B00462F50E0CA017E
:100A100049962817390768F480918A0090918B00D5
:100A20008F3F910530F480918A0090918B00019660
:100A30004CC08091880090918900029708F449C0C9
:100A4000809188009091890049515040481759077A
:100A500008F03FC0809188009091890001971CC0E8
:100A6000E114F10401051105A1F1209188003091F4
:100A70008900462F50E0CA0149962817390788F4A3
:100A800080918800909189008F3F910550F480916A
:100A90008800909189000196909389008093880046
:100AA00018C080918A0090918B00029790F08091FD
:100AB0008A0090918B00495150404817590748F4DB
:100AC00080918A0090918B00019790938B00809386
:100AD0008A0010927C0310927D0310927E03109284
:100AE0007F03109278031092790310927A03109288
:100AF0007B031F910F91FF90EF900895982F823004
:100B000099F0833018F48130C9F405C0833019F0AE
:100B10008430A1F409C080910B018F7380930B0185
:100B200080910B01806408C080910B018F738093CA
:100B30000B0180910B01806880930B01943028F4A5
:100B4000923070F49130B1F402C0943099F48091F5
:100B500005018F738093050180910501806808C0AD
:100B6000809105018F738093050180910501806458
:100B7000809305019093600308958FB7F8941092C5
:100B80008B0010928A0010928900109288001092B7
:100B900077031092760310927803109279031092E3
:100BA0007A0310927B0310927C0310927D031092C3
:100BB0007E0310927F038FBF80E060E00E940203FB
:100BC00081E060E00E94020308951F93162F9FB7F3
:100BD000F89480937703609376032091770330E055
:100BE00030938B0020938A002091760330E030937D
:100BF0008900209388001092780310927903109254
:100C00007A0310927B0310927C0310927D03109262
:100C10007E0310927F039FBF882319F080E061E07C
:100C200002C080E060E00E940203112319F081E01D
:100C300061E002C081E060E00E9402031F9108951C
:100C40001F920F920FB60F920BB60F9211242F9393
:100C50003F934F935F936F937F938F939F93AF9344
:100C6000BF93EF93FF9380916003813021F08091D7
:100C70006003833061F480917C0390917D03A091A7
:100C80007E03B0917F030196A11DB11D13C0809119
:100C90006003823021F080916003843099F4809168
:100CA0007C0390917D03A0917E03B0917F03019717
:100CB000A109B10980937C0390937D03A0937E03E7
:100CC000B0937F038091820390918303892BD1F0AD
:100CD0008091820390918303019790938303809383
:100CE00082038091820390918303892B59F410929F
:100CF00077036091760380E00E94E50580E060E084
:100D00000E940203FF91EF91BF91AF919F918F914C
:100D10007F916F915F914F913F912F910F900BBEFB
:100D20000F900FBE0F901F9018951F920F920FB645
:100D30000F920BB60F9211242F933F934F935F9313
:100D40006F937F938F939F93AF93BF93EF93FF9393
:100D500080916003813021F080916003843061F4E0
:100D60008091780390917903A0917A03B0917B03ED
:100D70000196A11DB11D13C080916003823021F046
:100D800080916003833099F4809178039091790386
:100D9000A0917A03B0917B030197A109B1098093D7
:100DA000780390937903A0937A03B0937B038091A7
:100DB000800390918103892BD1F0809180039091E1
:100DC0008103019790938103809380038091800336
:100DD00090918103892B59F41092760380917703C7
:100DE00060E00E94E50581E060E00E9402030E944D
:100DF0004C04FF91EF91BF91AF919F918F917F91A3
:100E00006F915F914F913F912F910F900BBE0F907B
:100E10000FBE0F901F90189584B1806684B9EAE0E8
:100E2000F1E08081806C8083E4E0F1E08081806C7F
:100E30008083E0E8F0E08081806A80838081816047
:100E40008083E1E8F0E080818A608083EAE6F0E078
:100E50008081806F80838DB3806C8DBB0E94C602C1
:100E600008951F920F920FB60F920BB60F92112496
:100E70002F938F939F93EF93FF93E0918603F091CD
:100E800087038091C600E656FC4F808380918603DD
:100E9000909187038F5F914050F4809186039091E9
:100EA00087030196909387038093860304C0109272
:100EB000870310928603FF91EF919F918F912F915D
:100EC0000F900BBE0F900FBE0F901F9018951F92A2
:100ED0000F920FB60F920BB60F9211242F933F93E0
:100EE0008F939F93EF93FF93209188033091890311
:100EF00080918A0390918B0328173907F9F0E091CC
:100F00008803F0918903E656FA4F80818093C600EA
:100F100080918803909189038F5F914050F4809174
:100F200088039091890301969093890380938803A5
:100F30000DC0109289031092880308C081E080934D
:100F400061038091C1008F7D8093C100FF91EF917B
:100F50009F918F913F912F910F900BBE0F900FBEDD
:100F60000F901F901895FC01433008F041C0862F68
:100F700085508430E8F5822F81508230C8F54423B3
:100F800061F08091C20080628093C200423029F4F7
:100F90008091C20080618093C200223029F4809148
:100FA000C20088608093C2006530B9F0663011F0ED
:100FB000683028F08091C20082608093C200673060
:100FC00060F08091C20084608093C200693029F48F
:100FD0008091C10084608093C100F093C500E093CC
:100FE000C4008091C10088698093C10080E00895A9
:100FF00081E00895209184033091850380918603D8
:101000009091870340E02817390709F041E0842FC9
:1010100008952091840330918503809186039091F7
:1010200087032817390711F420E023C0E0918403D7
:10103000F0918503E656FC4F2081E0918403F09106
:101040008503E656FC4F10828091840390918503BE
:101050008F5F914050F480918403909185030196B5
:10106000909385038093840304C0109285031092AB
:101070008403822F089580918A0390918B0320919D
:1010800088033091890301968217930719F481E050
:1010900090E008958091880390918903892B19F03D
:1010A00080E090E0089580918A0390918B0320E086
:1010B00030E08F5F914011F421E030E0C9010895E4
:1010C000482F80918A0390918B032091880330915F
:1010D0008903019682179307A1F380918803909169
:1010E0008903892B39F480918A0390918B038F5F58
:1010F000914039F3E0918A03F0918B03E656FA4F61
:10110000408380918A0390918B038F5F914050F4CC
:1011100080918A0390918B03019690938B03809327
:101120008A0304C010928B0310928A03809161039A
:10113000813039F4109261038091C1008062809304
:10114000C1000895CF93DF93EC0103C021960E9464
:10115000600888818823D1F7DF91CF91089510929C
:10116000C1001092C2001092C5001092C4001092EB
:1011700085031092840310928903109288031092C1
:1011800087031092860310928B0310928A030895AE
:101190001092B90088E48093B8000895982F84EAEB
:1011A0008093BC008091BC0087FFFCCF8091B90088
:1011B000887F883021F0803111F081E0089590938C
:1011C000BB0084E88093BC008091BC0087FFFCCF0B
:1011D0009091B900987F983111F480E0089580E0F3
:1011E000903409F081E00895982F44EA34E824E926
:1011F0004093BC008091BC0087FFFCCF8091B90078
:10120000887F883011F0803199F79093BB0030933C
:10121000BC008091BC0087FFFCCF8091B900887F23
:10122000803211F0883539F42093BC008091BC00E5
:1012300084FDFCCFDDCF08950E94CE08089584E997
:101240008093BC008091BC0084FDFCCF0895809306
:10125000BB0084E88093BC008091BC0087FFFCCF7A
:101260008091B90090E0887F883209F091E0892F61
:10127000089584EC8093BC008091BC0087FFFCCF74
:101280008091BB00089584E88093BC008091BC00ED
:1012900087FFFCCF8091BB000895982F803110F01C
:1012A00090E008C0883030F0985080917B008860D2
:1012B00080937B0080917C00892B80937C008091BF
:1012C0007A00806480937A00089580917A008295F4
:1012D000869586958370809581700895982F80916A
:1012E0007A0086FF09C020E005C080917A00806402
:1012F00080937A00822F0895209179009923A9F78D
:10130000F9CF809164008E7F8093640080E68093A3
:101310007C0080917A00806C80937A0080917A00C2
:1013200086FDFCCF80E00E946E090895EAE7F0E0B8
:1013300080818F7B8083A4E6B0E08C9181608C9368
:1013400080818F7780830895982F85E38A95F1F7C0
:10135000913011F4119A09C0992311F4119805C024
:10136000923019F482B1892782B985E38A95F1F721
:101370000895129881E00E94A40985E38A95F1F707
:10138000129A80E00E94A40908951F93162F8823C3
:1013900011F0149A01C0149881E00E94A40911115F
:1013A000139A15E3812F8A95F1F780E00E94A40932
:1013B0001A95F1F713981F910895CF92DF92EF924B
:1013C000FF920F931F93CF93DF937C0100E081E0A6
:1013D000C82ED12C802F847060E00E94C509802F18
:1013E000827060E00E94C509802F817060E00E94D9
:1013F000C50910E0C7E0D0E0C6010C2E02C0880F7E
:10140000991F0A94E2F7F7019081982360E0173062
:1014100009F461E0892F0E94C5091F5F21971830E8
:1014200059F70F5F0894E11CF11C083099F6DF9121
:10143000CF911F910F91FF90EF90DF90CF90089583
:10144000159A81E00E94A40985E38A95F1F7159821
:1014500080E00E94A40908951F9315E30CC081E069
:101460000E94A409812F8A95F1F780E00E94A409C7
:10147000812F8A95F1F7009BF2CF1F91089580B1DB
:101480008170089510928C030E94B9090E949609F8
:101490000895FF920F931F93CF93DF93EC0181B1D7
:1014A0008E6381B90898FF24F394F0928C030E9414
:1014B000B909209721F0CE010E94DD0918C088E00B
:1014C00090E00E94B10B8C018FE7F801808382E0ED
:1014D000818312828AE58383F4821582F68284E016
:1014E0008783C8010E94DD09C8010E945E0C0E942A
:1014F000200A0E942C0ADF91CF911F910F91FF903B
:10150000089580918C03882329F480E090E00E9464
:10151000490A08950E94200A0E942C0A0895009901
:1015200002C00E94810A81E00E94A40980E00E941A
:10153000A4098BE00E944D090E9465098823E1F30C
:1015400080E00E946E0908951F920F920FB60F92CD
:1015500011248F9380919003882331F4809190031C
:101560008F5F809390031AC01092900380918F0335
:101570008F5F80938F038150813049F0813028F054
:10158000823039F0843051F407C0A59A07C0A5987D
:1015900005C08EEF88BD02C010928F038F910F900F
:1015A0000FBE0F901F9018959D9A279A84B5826060
:1015B00084BD85B5836085BD089587BD089588BDC8
:1015C00008950E94380408950F931F939C01062FDD
:1015D000142FB9010E942F04812F0E947E05802FB5
:1015E000602F0E94E5051F910F9108959C01462FE1
:1015F00002C02856314061E029363607D0F7211560
:10160000310519F480E090E00FC08CE390E0BC015C
:10161000269FC001279F900D369F900D112468E6EC
:1016200071E00E949D0BCB0160E80E94E40A0895DE
:101630001F920F920FB60F920BB60F9211242F9399
:101640003F934F935F936F937F938F939F93AF934A
:10165000BF93EF93FF9380918E03843630F4809193
:101660008E038F5F80938E0321C010928E03809132
:101670008D03843038F4823088F4882331F081304F
:10168000A9F407C0843091F40FC02F9A82E060E083
:1016900003C02F9882E061E00E94020380918D03D5
:1016A0008F5F80938D0302C010928D03FF91EF91A5
:1016B000BF91AF919F918F917F916F915F914F916A
:1016C0003F912F910F900BBE0F900FBE0F901F9068
:1016D00018950E940C070E94D40A8CEB88BD87BD28
:1016E0000895CF93DF9380E090E00E94490AC0E024
:1016F000D0E00E948F0A0E946008219680E4C030EA
:10170000D807B9F70E94420ADF91CF9108950E944D
:10171000FA07882389F00E9409088F3319F083366D
:1017200049F405C082E693E00E94A20808950E9451
:10173000710B08950E9460080895AA1BBB1B51E11C
:1017400007C0AA1FBB1FA617B70710F0A61BB70B31
:10175000881F991F5A95A9F780959095BC01CD01D6
:101760000895CF93DF93BC018230910510F462E0BD
:1017700070E0A0919C07B0919D07ED01E0E0F0E0E2
:1017800040E050E021C0888199818617970769F46D
:101790008A819B81309719F09383828304C0909350
:1017A0009D0780939C07FE0134C06817790738F4C1
:1017B0004115510519F08417950708F4AC01FE0195
:1017C0008A819B819C01E9012097E9F64115510529
:1017D000A9F1CA01861B970B049708F4BA01E0E04F
:1017E000F0E02AC08D919C91119784179507F9F428
:1017F0006417750781F412968D919C911397309719
:1018000019F09383828304C090939D0780939C0773
:10181000FD0132964FC0CA01861B970BFD01E80FF0
:10182000F91F6193719302978D939C9343C0FD01BF
:10183000828193819C01D9011097A1F680919A072A
:1018400090919B07892B41F48091720390917303CF
:1018500090939B0780939A0740917403509175036E
:101860004115510541F44DB75EB7809170039091D9
:101870007103481B590B20919A0730919B0724173D
:101880003507B0F4CA01821B930B8617970780F0C7
:10189000AB014E5F5F4F8417950750F0420F531F07
:1018A00050939B0740939A07F9016193719302C08B
:1018B000E0E0F0E0CF01DF91CF910895CF93DF9387
:1018C000009709F450C0EC0122971B821A82A09164
:1018D0009C07B0919D07109709F140E050E0AC17CC
:1018E000BD0708F1BB83AA83FE0121913191E20F6C
:1018F000F31FAE17BF0779F48D919C911197280FB4
:10190000391F2E5F3F4F3983288312968D919C910A
:1019100013979B838A834115510571F4D0939D07DA
:10192000C0939C0720C012968D919C911397AD0196
:10193000009711F0DC01D3CFFA01D383C283219148
:101940003191E20FF31FCE17DF0769F48881998187
:10195000280F391F2E5F3F4FFA01318320838A8180
:101960009B8193838283DF91CF910895FB019F0137
:10197000423074F0453264F4642F77270E949D0B47
:10198000805D8A330CF0895D8193CB010097A1F7CC
:101990001082C9010C94CC0CDC01FC01672F719101
:1019A0007723E1F7329704C07C916D937083629145
:0C19B000AE17BF07C8F30895F894FFCFEE
:1019BC000A426C7565746F6F74682E2E2E000A00C7
:1019CC000A3029204E657874207061676500307884
:1019DC00000A496E697469616C697A696E67206383
:1019EC00616D657261000A496E697469616C697A2E
:1019FC006564000A7879526F622047616D65626F89
:101A0C00792043616D65726100313A2053656E64D3
:101A1C0020426C7565746F6F7468000A323A2050FE
:101A2C0072696E742068657265000A53656E64692C
:101A3C006E672E2E2E000A536572766F20436F6EE2
:101A4C0074726F6C0A312955702D446F776E0A329F
:101A5C00294C6566742D52696768740A302945787B
:101A6C006974000A552D443F20000A4C2D523F202A
:101A7C00000A446972656374696F6E3A20322034CF
:101A8C0020362038000A466F727761726473000A40
:101A9C004C656674000A5269676874000A42616397
:101AAC006B7761726473000A446567726565733F96
:101ABC0020000A44697374616E63653F20000A78E4
:101ACC0079526F626F742042657461000A3129206B
:101ADC0044726976696E67000A32292043616D652C
:101AEC007261000A332920426C7565746F6F7468DB
:101AFC00000A342920536572766F73000E031C03A1
:101B0C0028033303410300004E028801A600E601BE
:101B1C0001017879526F626F7420424554410A007A
:061B2C0020009E070000EE
:00000001FF
