:100000000C94A4000C94C5000C94C5000C94C5007D
:100010000C94C5000C94C5000C94C5000C94D60635
:100020000C9461060C94C5000C94C5000C94C5009A
:100030000C94C5000C94CF0B0C94C5000C94C50017
:100040000C94C5000C94C5000C94C5000C94C5001C
:100050000C94C5000C941E0B0C94C5000C94C500A8
:100060000C94C5000C94B3070C94EA070C94C500DB
:100070000C94C5000C94C5000C94C5000C94C500EC
:100080000C94C5000C94C5000C94C5000C94C500DC
:100090000C94C5000C94C5000C94C5000C94C500CC
:1000A0000C94C5000C94C5000C94C5000C94C500BC
:1000B0000C94C5000C94C5000C94C5000C94C500AC
:1000C0000C94C5000C94C5000C94C5000C94C5009C
:1000D0000C94C5000C94C5000C94C5000C94C5008C
:1000E0000C94C5007879526F626F74204245544178
:1000F0000A000A7879526F626F7420426574610059
:100100000A31292044726976696E67000A32292013
:1001100043616D657261000A332920426C75657414
:100120006F6F7468000A342920536572766F73000C
:10013000F20000010C01170125010A3029204E654B
:10014000787420706167650011241FBECFEFD1E283
:10015000DEBFCDBF00E00CBF13E0A0E0B2E0E2E6FE
:10016000FBE200E00BBF02C007900D92A23AB1077C
:10017000D9F718E0A2EAB3E001C01D92AE34B1078E
:10018000E1F70E94D4020C94AF150C940000882370
:1001900009F05DC02091A20383E0289FC0011124D3
:1001A000853091058CF4E6E02E9FF0011124E05D8E
:1001B000FE4F2591349187EC93E0B9010E947F15A1
:1001C00087EC93E00E94B2032091A20383E0289F72
:1001D000C00111248430910584F4E6E02E9FF001E3
:1001E0001124EE5CFE4F2591349187EC93E0B90128
:1001F0000E947F1587EC93E002C080E092E00E94AD
:10020000B2032091A20383E0289FC0011124833010
:10021000910584F4E6E02E9FF0011124EC5CFE4F82
:100220002591349187EC93E0B9010E947F1587EC0A
:1002300093E002C080E092E00E94B20387EC93E07A
:100240006AE371E00E947F1587EC93E004C081307F
:1002500029F482E092E00E94B2030895823041F0D6
:10026000833031F0843021F481E392E00E94B203C4
:1002700008951F93CF93DF930E94F903C82FD0E016
:100280008091A303882309F041C0C033D10559F4FC
:100290008091A203882321F481E08093A2033EC0D1
:1002A0001092A2033BC0CF33D10509F491C0CA32EA
:1002B000D10509F48DC0C332D10509F489C0209756
:1002C00009F486C0CE01C0974091A20323E0429F6B
:1002D000900111242830310584F0342F330F340F6E
:1002E0003E5F20E002C03A502F5F3A30E0F73AE03C
:1002F000239F90011124820F931F8530910508F0F0
:1003000067C08093A3030E94C70062C0813009F0D8
:1003100046C0C033D10521F41092A30380E0F3CF8F
:10032000CE01C19782309105F0F489E592E00E94F8
:10033000B2030E940704182F84E692E00E94B203E1
:10034000C133D10539F40E940704682F812F90E052
:1003500041E006C00E940704682F812F90E042E030
:100360000E947E0B19C0C333D10591F58CE692E053
:100370000E94B2030E940704EC0186E792E00E940B
:10038000B2030E940704813019F4CE0164E002C078
:10039000CE0163E00E94970B8091A303B4CF82301B
:1003A000B9F08330A9F0843099F4C033D10509F451
:1003B000B3CFC133D10529F40E9407040E94660B14
:1003C00007C0C233D10521F40E9407040E94720BBA
:1003D000DF91CF911F910895EF92FF920F931F939A
:1003E000DF93CF93CDB7DEB728970FB6F894DEBF73
:1003F0000FBECDBF8E010F5F1F4F89E0E82EF12C9D
:10040000EC0EFD1E0E9477088823E1F30E94850808
:10041000F80181938F01EE15FF05A1F7CE0101963A
:100420000E94C40A00E010E40E94EE0A0E94DB0869
:1004300001501040C9F70E94040B28960FB6F8949B
:10044000DEBF0FBECDBFCF91DF911F910F91FF9007
:10045000EF9008951F93DF93CF930F92CDB7DEB740
:100460000E947708882309F49AC00E94850887377C
:1004700079F1883778F4813609F449C0823620F45E
:100480008F3309F08AC019C08436D9F1833709F057
:1004900084C024C0823809F45BC0833838F48038C3
:1004A00009F448C0813809F078C04BC0833809F49A
:1004B00052C0843809F071C061C087EC93E064EEEB
:1004C00070E00E947F1587EC93E00E94250967C0C9
:1004D00080919502803B48F48B5F05C08091950226
:1004E000853018F0855080939502809195020E9486
:1004F000C0040E9425098AE00E94DB0880919502D1
:100500001DC080919602803B48F48B5F05C08091AE
:100510009602853018F0855080939602809196025D
:100520000E94C0040E9425098AE00E94DB08809195
:1005300096020BC00E948508853B88F50E94720BCD
:100540002EC00E948508853B50F50E94660B27C08F
:100550000E94EC0124C00E948508182F0E94850883
:1005600089830E9485086981882311F041E001C0D8
:1005700042E0812F90E00E947E0B11C00E9485080E
:10058000182F0E948508882311F063E001C064E001
:10059000812F90E00E94970B02C00E94DB080F9011
:1005A000CF91DF911F9108950E94FA0282E00E948C
:1005B00003030E94E7040E944B090E94960389E10D
:1005C00090E068E040E021E00E9437080E94FD09C9
:1005D0000E94B60A82E00E940303789480E00E94A1
:1005E000C70087E892E00E9425090E9439010E9415
:1005F0002A02FBCF81B1806C81B9249A82B1806CD0
:1006000082B92C9A0895813041F0813018F08230FF
:1006100069F408C082B1805803C082B190E4892790
:1006200082B9089585B190E1892785B90895CF935E
:10063000C0E080E00E94030381E00E94030382E0A7
:100640000E940303C33049F08FE792E4A0E1815098
:100650009040A040E1F700C00000CF5FC43049F7F0
:10066000CF910895662369F0813039F0813018F018
:10067000823099F404C017980895169808952C981C
:100680000895813039F0813018F0823031F404C09F
:10069000179A0895169A08952C9A0895CF93C82F03
:1006A00082E40E9476098C2F0E94A8090E94A0096A
:1006B000CF910895CF93C82F8BE10E944E038CE415
:1006C0000E944E03CC2339F480E00E944E038091B7
:1006D00047048E7F06C081E00E944E03809147044C
:1006E000816080934704CF9108959091470481E001
:1006F00090FD80E00E945A038FEF99E6A8E18150B7
:100700009040A040E1F700C000009091470481E0D4
:1007100090FD80E00E945A038FEF99E6A8E1815096
:100720009040A040E1F700C00000089581E0809370
:1007300047048CE00E944E038BE10E944E038FE43D
:100740000E944E0381E00E944E0381E00E944E030E
:100750008BE10E944E038BE70E944E0381E00E94D2
:100760005A0308950F931F93DF93CF930F92CDB742
:10077000DEB7082F82E499830E9476099981402F81
:10078000592F8A011BC08091A4038F5F8093A4031B
:10079000D8018D918D018D3041F08A3021F48DE0AA
:1007A0000E94A8098AE00E94A8098FEF99EFA0E0B3
:1007B00081509040A040E1F700C00000D8018C912A
:1007C000882309F70E94A0098091A4038A3058F079
:1007D0001092A4038FEF91EEA4E081509040A040CE
:1007E000E1F700C000000F90CF91DF911F910F91B2
:1007F0000895CF9383E40E9451090E94B909C82F3C
:100800000E94C3090E94A0098C2FCF9108950F93D5
:100810001F93DF93CF9300D00F920F92CDB7DEB727
:1008200090E08E010F5F1F4F9D830E94F9039D8111
:100830008823D1F38A3259F0833249F0953038F465
:10084000F801E90FF11D805380839F5FEDCF923057
:1008500069F0933018F49130E9F505C0933069F0F0
:100860009430C1F51AC0298130E036C029818AE070
:10087000289F900111248A810DC0298184E6289F38
:10088000900111249A818AE0989FC0011124280FB9
:10089000391F8B81280F311D1FC0498150E088EE20
:1008A00093E0489F9001499F300D589F300D1124CF
:1008B0009A8184E6989FC0011124280F391F8C81EA
:1008C000280F311D9B818AE0989FC0011124280FB9
:1008D000391F02C020E030E0C9010F900F900F9047
:1008E0000F900F90CF91DF911F910F910895FF927C
:1008F0000F931F93CF93DF93FF240E9477088823E1
:10090000E1F3CF2DD0E00E9485088E0109531C4FE2
:10091000F80180830E94DB08F80180818A3019F099
:10092000FF2DFF3359F4C953DC4F188287EC93E055
:10093000DF91CF911F910F91FF9008958D30E9F2D3
:10094000883011F4FA94D9CFF394D7CFDF93CF93B3
:100950000F92CDB7DEB789830E94770460E070E024
:10096000498150E00E946914CB010F90CF91DF9133
:10097000089567EC73E04AE050E00E948615089500
:1009800090E00E94B904089590E067EC73E040E1C4
:1009900050E00E94861508957093B0036093AF03F2
:1009A0009093B2038093B10308958091AF03909127
:1009B000B003009751F42091B1033091B20381E06C
:1009C0002115310519F080E0089580E0089584B183
:1009D000806684B9EAE0F1E08081806C8083E4E0A5
:1009E000F1E08081806C8083E0E8F0E08081806AC3
:1009F0008083808181608083E1E8F0E080818A608B
:100A00008083EAE6F0E08081806F80838DB3806C24
:100A10008DBB08959091A6038091A503981709F0C6
:100A200014C18091A603882309F40FC12091A70364
:100A30003091A8034091A9035091AA038091AB0380
:100A40009091AC03A091AD03B091AE032817390784
:100A50004A075B0709F4F9C08091A7039091A803A6
:100A6000A091A903B091AA0382309105A105B10517
:100A70000CF4EBC06091A60380919702813021F0C5
:100A800080919702823031F580919702813089F40C
:100A90008091A7039091A803A091A903B091AA0304
:100AA0002091AB033091AC034091AD035091AE0364
:100AB0004AC08091AB039091AC03A091AD03B0917B
:100AC000AE032091A7033091A8034091A903509150
:100AD000AA0339C080919702843029F0809197024F
:100AE000833009F0A2C0809197028430A9F420914C
:100AF000A7033091A8034091A9035091AA038091C4
:100B0000AB039091AC03A091AD03B091AE03820F03
:100B1000931FA41FB51F1BC08091A7039091A8032A
:100B2000A091A903B091AA032091AB033091AC032B
:100B30004091AD035091AE03B095A09590958195ED
:100B40009F4FAF4FBF4F821B930BA40BB50B1816D3
:100B500019061A061B0684F540918A0050918B00F5
:100B6000862F90E09C01275E3F4F4217530768F4A1
:100B700020918A0030918B002F3F310530F4809115
:100B80008A0090918B0001964CC020918800309192
:100B900089002230310508F448C020918800309146
:100BA000890049978217930708F03FC08091880019
:100BB0009091890001971CC00097A105B105A9F18A
:100BC0004091880050918900862F90E09C01275E1B
:100BD0003F4F4217530788F42091880030918900D5
:100BE0002F3F310550F48091880090918900019643
:100BF000909389008093880018C020918A003091DA
:100C00008B002230310588F020918A0030918B00D2
:100C100049978217930748F480918A0090918B003E
:100C2000019790938B0080938A001092AB031092EF
:100C3000AC031092AD031092AE031092A703109272
:100C4000A8031092A9031092AA030895CF93C62F68
:100C50009FB7F8948093A6036093A5032091A60301
:100C600030E030938B0020938A002091A50330E080
:100C700030938900209388001092A7031092A80354
:100C80001092A9031092AA031092AB031092AC0326
:100C90001092AD031092AE039FBF882319F080E03D
:100CA00061E002C080E060E00E943203CC2319F0D2
:100CB00081E061E002C081E060E00E943203CF91F8
:100CC00008951F920F920FB60F920BB60F92112438
:100CD0002F933F934F935F936F937F938F939F9344
:100CE000AF93BF93EF93FF9380919702813021F0F0
:100CF00080919702833061F48091AB039091AC03B3
:100D0000A091AD03B091AE030196A11DB11D13C01A
:100D100080919702823021F080919702843099F47B
:100D20008091AB039091AC03A091AD03B091AE0361
:100D30000197A109B1098093AB039093AC03A093F1
:100D4000AD03B093AE038091B1039091B2030097CD
:100D5000D1F08091B1039091B20301979093B203C7
:100D60008093B1038091B1039091B203009759F43D
:100D70001092A6036091A50380E00E94260680E001
:100D800060E00E943203FF91EF91BF91AF919F917C
:100D90008F917F916F915F914F913F912F910F9024
:100DA0000BBE0F900FBE0F901F9018951F920F92C1
:100DB0000FB60F920BB60F9211242F933F934F93C0
:100DC0005F936F937F938F939F93AF93BF93EF93B3
:100DD000FF9380919702813021F0809197028430B7
:100DE00061F48091A7039091A803A091A903B09109
:100DF000AA030196A11DB11D13C0809197028230F4
:100E000021F080919702833099F48091A70390910B
:100E1000A803A091A903B091AA030197A109B10960
:100E20008093A7039093A803A093A903B093AA0368
:100E30008091AF039091B0030097D1F08091AF0300
:100E40009091B00301979093B0038093AF0380918A
:100E5000AF039091B003009759F41092A5038091CD
:100E6000A60360E00E94260681E060E00E94320353
:100E70000E940A05FF91EF91BF91AF919F918F91D1
:100E80007F916F915F914F913F912F910F900BBE8A
:100E90000F900FBE0F901F9018958FB7F894109277
:100EA0008B0010928A001092890010928800109294
:100EB000A6031092A5031092A7031092A803109204
:100EC000A9031092AA031092AB031092AC031092E4
:100ED000AD031092AE038FBF80E060E00E9432034A
:100EE00081E060E00E9432030895823099F08330FF
:100EF00018F48130C9F405C0833019F08430A1F4AE
:100F000009C090910B019F7390930B0190910B017D
:100F1000906408C090910B019F7390930B01909186
:100F20000B01906890930B01843028F4823070F4A8
:100F30008130B1F402C0843099F4909105019F731F
:100F40009093050190910501906808C0909105016A
:100F50009F73909305019091050190649093050112
:100F60008093970208951F920F920FB60F920BB6BF
:100F70000F9211242F938F939F93EF93FF93E09100
:100F8000B503F091B6038091C600E85BFB4F808308
:100F90008091B5039091B60321E08F3F920750F402
:100FA0008091B5039091B60301969093B603809318
:100FB000B50304C01092B6031092B503FF91EF91F0
:100FC0009F918F912F910F900BBE0F900FBE0F909E
:100FD0001F9018951F920F920FB60F920BB60F929B
:100FE00011242F933F938F939F93EF93FF9320911F
:100FF000B7033091B8038091B9039091BA032817D1
:10100000390701F1E091B703F091B803E85BF94FBC
:1010100080818093C6008091B7039091B80321E04E
:101020008F3F920750F48091B7039091B8030196D7
:101030009093B8038093B7030DC01092B803109239
:10104000B70308C081E0809398028091C1008F7D32
:101050008093C100FF91EF919F918F913F912F91CC
:101060000F900BBE0F900FBE0F901F90189543303E
:10107000D0F5362F35503430B0F5322F3150323074
:10108000A0F5442361F03091C20030623093C20079
:10109000423029F43091C20030613093C2002230D6
:1010A00029F42091C20028602093C200653081F0AD
:1010B000663011F0683039F42091C200226020932C
:1010C000C200663029F02091C20024602093C20043
:1010D0009093C5008093C4008091C100886980937B
:1010E000C10080E0089581E0089581E00895409175
:1010F000B3035091B4032091B5033091B60381E05E
:101100004217530709F480E008952091B30330910A
:10111000B4038091B5039091B60328173907A9F35A
:10112000E091B303F091B403E85BFB4F8081E09161
:10113000B303F091B403E85BFB4F10822091B3033B
:101140003091B40391E02F3F390758F42091B30355
:101150003091B4032F5F3F4F3093B4032093B30318
:1011600008951092B4031092B30308958091B903C7
:101170009091BA032091B7033091B803019682177A
:10118000930799F08091B7039091B803009781F489
:101190002091B9033091BA0381E090E041E02F3F04
:1011A000340741F080E090E0089581E090E00895F8
:1011B00080E090E008952091B9033091BA03409106
:1011C000B7035091B8032F5F3F4F2417350799F3AA
:1011D0002091B7033091B8032115310541F42091D6
:1011E000B9033091BA0391E02F3F390721F3E09121
:1011F000B903F091BA03E85BF94F80838091B9039A
:101200009091BA0321E08F3F920750F48091B90387
:101210009091BA0301969093BA038093B90304C0E6
:101220001092BA031092B90380919802813061F450
:10123000109298028091C10080628093C1008091D9
:10124000C00080628093C0000895CF93DF93C82FC1
:10125000D92F02C00E94DB0889918823D9F7DF913A
:10126000CF9108951092C1001092C2001092C50053
:101270001092C4001092B4031092B3031092B803FA
:101280001092B7031092B6031092B5031092BA03EE
:101290001092B90308951092B90088E48093B800C1
:1012A000089594EA9093BC009091BC0097FFFCCF06
:1012B0009091B900987F983011F0903199F4809313
:1012C000BB0084E88093BC008091BC0087FFFCCF0A
:1012D0009091B900987F983139F081E0903429F4E9
:1012E00080E0089581E0089580E0089544EA34E8BC
:1012F00024E94093BC009091BC0097FFFCCF9091F3
:10130000B900987F983011F0903199F78093BB0025
:101310003093BC009091BC0097FFFCCF9091B90036
:10132000987F903211F0983539F42093BC00909159
:10133000BC0094FDFCCFDDCF08950E9451090895B3
:1013400084E98093BC008091BC0084FDFCCF0895AB
:101350008093BB0084E88093BC008091BC0087FF31
:10136000FCCF9091B900987F81E0983209F480E039
:10137000089584EC8093BC008091BC0087FFFCCF73
:101380008091BB00089584E88093BC008091BC00EC
:1013900087FFFCCF8091BB000895803148F48830EE
:1013A00040F0885090917B00986090937B0001C042
:1013B00080E090917C00982B90937C0080917A0043
:1013C000806480937A00089590917A0081E096FD80
:1013D00080E00895CF93C82F0E94E409882351F03C
:1013E00080917900CC2339F090917A0090649093A9
:1013F0007A0001C080E0CF910895809164008E7FD3
:101400008093640080E680937C0080917A00806CF9
:1014100080937A000E94E4098823E1F380E00E942F
:10142000EA090895EAE7F0E080818F7B8083A4E6F3
:10143000B0E08C9181608C9380818F778083089558
:101440009AE09A95F1F700C0813011F4119A08954D
:10145000882311F411980895823019F492B19827D5
:1014600092B90895129881E00E94200A129A80E0B1
:101470000E94200A0895DF93CF930F92CDB7DEB775
:10148000882311F0149A01C0149881E069830E94A6
:10149000200A69816111139A80E00E94200A139842
:1014A0000F90CF91DF910895AF92BF92DF92EF92AC
:1014B000FF920F931F93DF93CF930F92CDB7DEB7B9
:1014C0005C01DD2481E0E82EF12C8D2D847060E03C
:1014D0000E943B0A8D2D827060E00E943B0A8D2D98
:1014E000817060E00E943B0A07E010E090E0970105
:1014F000002E02C0220F331F0A94E2F7F50180810B
:10150000822361E0973009F060E099830E943B0AF2
:1015100099819F5F01501040983049F7D394089407
:10152000A11CB11CFD2DF83081F60F90CF91DF91F9
:101530001F910F91FF90EF90DF90BF90AF900895B3
:10154000159A81E00E94200A159880E00E94200AE6
:10155000089506C081E00E94200A80E00E94200ACF
:10156000009BF8CF089580B18170089581B18E639A
:1015700081B9089882B1857C82B9129A08950E9437
:10158000A00A0E94A90A0895CF93DF93EC010E945C
:10159000B60A0E94320A209721F0CE010E94540A16
:1015A00018C088E090E00E943613EC018FE7888332
:1015B00082E089831A828AE58B8381E08C831D8295
:1015C0008E8384E08F83CE010E94540ACE010E9454
:1015D000D0130E94BF0ADF91CF91089580B180FDA2
:1015E00002C00E94BF0A81E00E94200A80E00E949F
:1015F000200A8BE00E94CD090E94E4098823E1F3D0
:1016000080E00E94EA0908950E94320A089584B594
:10161000826084BD85B5816085BD80EA87BDEEE6C8
:10162000F0E0808182608083279A9D9A2F98A59808
:1016300008950E94E7040E94070B08951F920F92DD
:101640000FB60F9211242F933F938F939F93809106
:10165000BD039091BE032091990230E0281739070D
:1016600030F4A59827E0803D920740F401C0A59A88
:1016700001969093BE038093BD0304C01092BE03F5
:101680001092BD038091BB039091BC0320919A02FC
:1016900030E02817390730F42F9827E0803D920773
:1016A00040F401C02F9A01969093BC038093BB0332
:1016B00004C01092BC031092BB039F918F913F9185
:1016C0002F910F900FBE0F901F90189593E5899F53
:1016D000C001112464E670E00E94AA126E5C60935F
:1016E0009902089593E5899FC001112464E670E092
:1016F0000E94AA126E5C60939A0208951F93DF9372
:10170000CF930F92CDB7DEB79C01162FB901498355
:101710000E94CC044981842F0E947507812F612F7C
:101720000E9426060F90CF91DF911F9108959C0192
:10173000462F02C02856314081E029363807D0F7BD
:101740002115310579F0ECE3F0E02E9FC0012F9FC9
:10175000900D3E9F900D112468E671E00E94AA1240
:101760009B0102C020E030E0C90160E80E947E0BCE
:1017700008950E94D5040895E0EBF0E08081826036
:101780008083E1EBF0E08081846080838AEF809346
:10179000B300E0E7F0E080818260808308951F92CB
:1017A0000F920FB60F920BB60F9211242F933F9307
:1017B0004F935F936F937F938F939F93AF93EF9329
:1017C000FF934091BF033091C0032091C1039091DA
:1017D000C2038091C303F091C403E091C503A091BB
:1017E000C603642F6F5F51E0641708F050E0530F99
:1017F00041E0531708F040E0420F31E0421708F093
:1018000030E0390F21E0391708F020E0280F91E08F
:10181000281708F090E09F0F81E09F1708F080E004
:101820008E0F71E08E1708F070E07A0F6093BF039F
:101830005093C0034093C1033093C2032093C3036A
:101840009093C4038093C5037093C603FF91EF91F7
:10185000AF919F918F917F916F915F914F913F9148
:101860002F910F900BBE0F900FBE0F901F901895E9
:101870002091BF033091C0034091C1035091C20336
:101880006091C3037091C4038091C5039091C60316
:101890000895AF92BF92CF92DF92EF92FF920F9393
:1018A0001F932091BF033091C0034091C103509119
:1018B000C2036091C3037091C4038091C5039091EA
:1018C000C603F8EEAF2EE3E0BE2ECC24DD24EE24DA
:1018D000FF2400E010E00E94760C1F910F91FF9012
:1018E000EF90DF90CF90BF90AF900895A8E3B0E065
:1018F000ECE7FCE00C94FF1229833A834B835C8372
:101900006D837E838F839887A986BA86CB86DC8693
:10191000ED86FE860F87188BE984FA840B851C857B
:101920002D853E854F85588929803A804B805C8083
:101930002DA23EA24FA258A6AD80BE80CF80D884F3
:10194000211531054105510509F0A6C3AE14BF04A8
:10195000C006D10608F03FC120E0E21620E0F20602
:1019600021E0020720E0120758F43FEFE316F104EC
:101970000105110509F090F420E030E0A90117C03D
:1019800040E0E41640E0F40640E0040741E01407BC
:1019900050F420E130E040E050E009C028E030E0C1
:1019A00040E050E004C028E130E040E050E0D801E1
:1019B000C701022E04C0B695A795979587950A94FE
:1019C000D2F785569D4FDC016C9180E290E0A0E05B
:1019D000B0E0821B930BA40BB50B861B9109A109E8
:1019E000B1090097A105B105A1F1082E04C0EE0CC4
:1019F000FF1C001F111F0A94D2F7A6019501082EA3
:101A000004C0220F331F441F551F0A94D2F760E20F
:101A100070E0681B790BADA0BEA0CFA0D8A404C015
:101A2000D694C794B794A7946A95D2F7A22AB32AFA
:101A3000C42AD52A2DA03EA04FA058A404C0220C31
:101A4000331C441C551C8A95D2F72DA23EA24FA2EE
:101A500058A6380188249924A80197014070507035
:101A6000298F3A8F4B8F5C8FC601B501A40193017A
:101A70000E94DD12222E532E442E352E6D8F7E8F26
:101A80008F8F98A3C601B501A40193010E94DD12B6
:101A9000822D952DA42DB32D1C012D01C201B10164
:101AA000298D3A8D4B8D5C8D0E94BE125B016C01BD
:101AB0004D8D5E8D6F8D78A1DA01992788274DA114
:101AC0005EA16FA178A59B0144275527822B932BFC
:101AD000A42BB52B8A159B05AC05BD05E0F4089435
:101AE00021083108410851088E0D9F1DA01FB11F0C
:101AF0008E159F05A007B10770F08A159B05AC05F0
:101B0000BD0548F4089421083108410851088E0D9C
:101B10009F1DA01FB11F9C01AD012A193B094C0953
:101B20005D0959016A01CA01B901A40193010E942A
:101B3000DD1229A739A349AB5DA76D8F7E8F8F8FEB
:101B400098A3C601B501A40193010E94DD12A9A4C6
:101B5000B9A0C9A8DDA4C601B501298D3A8D4B8D68
:101B60005C8D0E94BE123B014C016D8D7E8D8F8D70
:101B700098A1AB01332722278DA19EA1AFA1B8A5C3
:101B8000A070B070282B392B4A2B5B2B26153705FC
:101B900048055905C0F40894A108B108C108D10846
:101BA0002E0D3F1D401F511F2E153F0540075107A9
:101BB00050F0261537054805590528F40894A10862
:101BC000B108C108D1088101FF24EE24EA28FB28CE
:101BD0000C291D29A1C4E114F1040105110559F4D2
:101BE00061E070E080E090E0A80197010E94DD12C2
:101BF00079018A0110C070E0E71670E0F70671E025
:101C0000070770E0170758F48FEFE816F104010595
:101C1000110509F090F420E030E0A90117C090E030
:101C2000E91690E0F90690E0090791E0190750F4F1
:101C300020E130E040E050E009C028E030E040E042
:101C400050E004C028E130E040E050E0D801C70196
:101C5000022E04C0B695A795979587950A94D2F75A
:101C600085569D4FDC018C91280F311D411D511D62
:101C700080E290E0A0E0B0E0821B930BA40BB50BD8
:101C800061F4150126012E183F08400A510A81E02F
:101C9000A82EB12CC12CD12C23C1082E04C0EE0CCF
:101CA000FF1C001F111F0A94D2F715012601022EF6
:101CB00004C056944794379427940A94D2F7350178
:101CC0004601082E04C0660C771C881C991C0A94D7
:101CD000D2F76D8E7E8E8F8E98A28DA09EA0AFA023
:101CE000B8A404C0B694A794979487942A95D2F781
:101CF000A5019401AD8CBE8CCF8CD8A0A22AB32AAA
:101D0000C42AD52AAD8EBE8ECF8ED8A22DA13EA1DB
:101D10004FA158A504C0220F331F441F551F8A9599
:101D2000D2F72DA33EA34FA358A7380188249924A6
:101D3000B801A7016070707049A75AA76BA77CA76C
:101D4000C201B101A40193010E94DD12298F39ABB8
:101D50004DA75DAB69A37AA38BA39CA3C201B1017C
:101D6000A40193010E94DD12A98CB9A8CDA4DDA81D
:101D7000A98EBA8ECB8EDC8EC601B50129A53AA5F7
:101D80004BA55CA50E94BE125B016C0129A03AA084
:101D90004BA05CA0D101992788272D8C3E8C4F8CBD
:101DA00058A0920144275527822B932BA42BB52BA7
:101DB0008A159B05AC05BD0530F5298D3A8D4B8DF7
:101DC0005C8D2150304040405040298F3A8F4B8FDE
:101DD0005C8F8E0D9F1DA01FB11F8E159F05A00744
:101DE000B10788F08A159B05AC05BD0560F421504C
:101DF000304040405040298F3A8F4B8F5C8F8E0D82
:101E00009F1DA01FB11FAC01BD014A195B096C09E0
:101E10007D095A016B01CB01BA01A40193010E9413
:101E2000DD12522E432E342E252E69A37AA38BA3C6
:101E30009CA3C601B501A40193010E94DD12652C8B
:101E4000742C832C922CC401B30129A53AA54BA56F
:101E50005CA50E94BE129B01AC0169A17AA18BA175
:101E60009CA16B01BB24AA248D8D9E8DAF8DB8A142
:101E7000A070B070A82AB92ACA2ADB2AA216B30613
:101E8000C406D506E0F40894610871088108910839
:101E9000AE0CBF1CC01ED11EAE14BF04C006D106BE
:101EA00070F0A216B306C406D50648F4089461087B
:101EB000710881089108AE0CBF1CC01ED11E15010F
:101EC0002601221A330A440A550A898D9A8DAB8D50
:101ED000BC8D6C01BB24AA24A628B728C828D92801
:101EE0003801882499246D8E7E8E8F8E98A2A80149
:101EF00097014070507029A73AA74BA75CA7C20171
:101F0000B101A40193010E94DD12922E832E742E42
:101F1000652E69A37AA38BA39CA3C201B1012D8D69
:101F20003E8D4F8D58A10E94DD12892D982DA72D31
:101F3000B62D898F9A8FAB8FBC8FBC01CD0129A59F
:101F40003AA54BA55CA50E94BE123B014C0149A1DC
:101F50005AA16BA17CA1DA01992788272DA03EA068
:101F60004FA058A4920144275527822B932BA42BD2
:101F7000B52B86159705A805B90530F5298D3A8D3D
:101F80004B8D5C8D2150304040405040298F3A8F1E
:101F90004B8F5C8F8E0D9F1DA01FB11F8E159F054F
:101FA000A007B10788F086159705A805B90560F464
:101FB0002150304040405040298F3A8F4B8F5C8FEA
:101FC0008E0D9F1DA01FB11FAC01BD014619570901
:101FD000680979093A014B01CB01BA012D8D3E8D7B
:101FE0004F8D58A10E94DD12522E432E342E252EE5
:101FF00069A37AA38BA39CA3C401B3012D8D3E8D4D
:102000004F8D58A10E94DD12652C742C832C922CCC
:10201000C401B30129A53AA54BA55CA50E94BE1237
:102020001B012C0169A17AA18BA19CA1AB013327D3
:1020300022278DA19EA1AFA1B8A5A070B070282BBA
:10204000392B4A2B5B2B2215330544055505C0F46B
:10205000089461087108810891082E0D3F1D401FEA
:10206000511F2E153F054007510750F0221533052B
:102070004405550528F40894610871088108910801
:10208000898D9A8DAB8DBC8D8C01FF24EE24E628C2
:10209000F7280829192943C2A216B306C406D50693
:1020A00008F42AC2203090E0390791E0490790E017
:1020B000590750F42F3F31054105510509F090F4BF
:1020C00066247724430119C02030A0E03A07A0E03D
:1020D0004A07A1E05A0760F490E1692E712C812C27
:1020E000912C0BC088E0682E712C812C912C05C09E
:1020F000B8E16B2E712C812C912CDA01C901062CD0
:1021000004C0B695A795979587950A94D2F78556FA
:102110009D4FFC018081680E711C811C911C80E226
:1021200090E0A0E0B0E086199709A809B90989F400
:102130002A153B054C055D0508F4E5C12DA03EA020
:102140004FA058A42E143F044006510608F0DBC1EE
:10215000D3C189A719012A0104C0220C331C441CD5
:10216000551C8A95D2F7D801C701062C04C0B69534
:10217000A795979587950A94D2F7282A392A4A2A4B
:102180005B2AA801970109A404C0220F331F441F32
:10219000551F0A94D2F729A33AA34BA35CA3860147
:1021A0007501062C04C016950795F794E7940A94D8
:1021B000D2F7B601A50109A404C0440F551F661F3C
:1021C000771F0A94D2F74D8F5E8F6F8F78A36DA122
:1021D0007EA18FA198A504C0969587957795679560
:1021E0006A94D2F73B014C018D8D9E8DAF8DB8A1C5
:1021F00086299729A829B9298D8F9E8FAF8FB8A3DB
:102200005201CC24DD24A20191014070507029AB11
:102210003AAB4BAB5CABC801B701A60195010E947C
:10222000DD12622E932E842E752E6DA77EA78FA7AA
:1022300098ABC801B701A60195010E94DD12E62CFA
:10224000F92C082D172DE98EFA8E0B8F1C8FC801E3
:10225000B70129A93AA94BA95CA90E94BE126DA495
:102260007EA48FA498A88301FF24EE246D8C7E8C1D
:102270008F8C98A0940144275527E22AF32A042B37
:10228000152BE616F7060807190730F5298D3A8D44
:102290004B8D5C8D2150304040405040298F3A8F0B
:1022A0004B8F5C8FE20CF31C041D151DE214F3042C
:1022B0000405150588F0E616F7060807190760F407
:1022C0002150304040405040298F3A8F4B8F5C8FD7
:1022D000E20CF31C041D151DE61AF70A080B190B76
:1022E000C801B701A60195010E94DD122DAB3EABDE
:1022F0004FAB58AF6DA77EA78FA798ABC801B701AA
:10230000A60195010E94DD126DA87EA88FA898AC49
:10231000C401B30129A93AA94BA95CA90E94BE1224
:102320009B01AC01ADA4BEA4CFA4D8A8D501992728
:102330008827AD8CBE8CCF8CD8A06FEFE62E6FEFC8
:10234000F62E012D112DAE20BF20C022D1228A29C8
:102350009B29AC29BD2982179307A407B507E0F490
:1023600008946108710881089108820D931DA41DCD
:10237000B51D82159305A405B50570F08217930766
:10238000A407B50748F4089461087108810891080A
:10239000820D931DA41DB51D1C012D01221A330AA7
:1023A000440A550A2D8E3E8E4F8E58A2A98CBA8CA7
:1023B000CB8CDC8C8501FF24EE24E628F728082945
:1023C0001929AFEFAA2EAFEFBA2EC12CD12CAE2017
:1023D000BF20C022D12218014424552469A07AA02C
:1023E0008BA09CA02FEF3FEF40E050E062227322D1
:1023F0008422952269A17AA18BA19CA1AC016627B8
:102400007727498F5A8F6B8F7C8FC601B501A40146
:1024100093010E94BE1269A37AA38BA39CA3C60159
:10242000B501298D3A8D4B8D5C8D0E94BE125B01EA
:102430006C01C201B101A40193010E94BE123B01D3
:102440004C01C201B101298D3A8D4B8D5C8D0E94EA
:10245000BE129B01AC01A60CB71CC81CD91C29A03C
:102460003AA04BA05CA0C201AA27BB27A80EB91EA8
:10247000CA1EDB1EA614B704C804D90420F42050D9
:1024800030404F4F5F4FC601AA27BB27820F931FD3
:10249000A41FB51F4D8C5E8C6F8C78A04816590612
:1024A0006A067B0618F184159505A605B705A1F502
:1024B0006501BB24AA2489A19AA1ABA1BCA1A070EB
:1024C000B070A80EB91ECA1EDB1E8DA19EA1AFA1C1
:1024D000B8A509A404C0880F991FAA1FBB1F0A949E
:1024E000D2F78A159B05AC05BD05B0F40894E10848
:1024F000F1080109110910C0AA24BB246501EE24CA
:10250000FF2487010CC0AA24BB24650181E0E82ECA
:10251000F12C012D112D03C0AA24BB246501FE015D
:10252000719688E0DF011D928A95E9F7E98AFA8AB7
:102530000B8B1C8BAD8ABE8ACF8AD88E2E2D3A8902
:102540004B895C896A2D7E898F89988DE896E2E1B6
:102550000C941B13AA1BBB1B51E107C0AA1FBB1F76
:10256000A617B70710F0A61BB70B881F991F5A951F
:10257000A9F780959095BC01CD010895629FD00187
:10258000739FF001829FE00DF11D649FE00DF11D2E
:10259000929FF00D839FF00D749FF00D659FF00DDD
:1025A0009927729FB00DE11DF91F639FB00DE11DCA
:1025B000F91FBD01CF0111240895A1E21A2EAA1B13
:1025C000BB1BFD010DC0AA1FBB1FEE1FFF1FA217E3
:1025D000B307E407F50720F0A21BB30BE40BF50BE0
:1025E000661F771F881F991F1A9469F76095709569
:1025F000809590959B01AC01BD01CF0108952F926C
:102600003F924F925F926F927F928F929F92AF9282
:10261000BF92CF92DF92EF92FF920F931F93CF93CF
:10262000DF93CDB7DEB7CA1BDB0B0FB6F894DEBF66
:102630000FBECDBF19942A88398848885F846E847C
:102640007D848C849B84AA84B984C884DF80EE80D6
:10265000FD800C811B81AA81B981CE0FD11D0FB6DF
:10266000F894DEBF0FBECDBFED010895CF93DF9389
:102670008230910510F482E090E0E0914A08F091F8
:102680004B0840E050E020E030E026C060817181DE
:1026900068177907E0F06817790781F482819381E0
:1026A0002115310531F0D90113969C938E93129721
:1026B0002BC090934B0880934A0826C041155105C2
:1026C00019F06417750718F4AB01E901DF019F01E8
:1026D00072816381E72FF62F3097C1F641155105BE
:1026E00001F1481B590B4430510580F412968D912D
:1026F0009C911397209719F09B838A8304C0909331
:102700004B0880934A08FD01329646C0FD01E40F54
:10271000F51F819391934250504011965C934E93D4
:102720003BC020914808309149082115310541F4FA
:1027300020919D0330919E033093490820934808CF
:1027400020919F033091A0032115310541F42DB74D
:102750003EB740919B0350919C03241B350BE091A5
:102760004808F0914908E217F307A0F42E1B3F0B2D
:102770002817390778F0AC014E5F5F4F24173507F3
:1027800048F04E0F5F1F50934908409348088193CB
:10279000919302C0E0E0F0E0CF01DF91CF91089586
:1027A000CF93DF93009709F491C0FC013297138215
:1027B000128260914A0870914B086115710581F48D
:1027C00020813181280F391F809148089091490854
:1027D0008217930799F5F0934908E093480876C06B
:1027E000DB0180E090E002C0CD01D901AE17BF0748
:1027F00048F412962D913C91139721153105A1F7BC
:10280000CD0121C0B383A283EF01499159919E016B
:10281000240F351FA217B30779F42D913C9111971E
:10282000240F351F2E5F3F4F3183208312962D9149
:102830003C91139733832283009729F4F0934B083C
:10284000E0934A0843C0DC011396FC93EE93129781
:102850004D915D91A40FB51FEA17FB0769F4208124
:102860003181240F351F2E5F3F4FEC0139832883C0
:10287000228133813B832A83E0E0F0E002C0FB0148
:10288000BC01DB0112968D919C9113970097B9F7CB
:102890009B012E5F3F4F8D919C911197820F931F4B
:1028A00040914808509149084817590779F43097E2
:1028B00029F410924B0810924A0802C01382128227
:1028C000225030403093490820934808DF91CF913F
:1028D00008952F923F924F925F926F927F929F92B4
:1028E000AF92BF92CF92DF92EF92FF920F931F931E
:1028F000CF93DF933B01EA016115710519F0FB01EC
:1029000080839183209739F09E01225030402332FA
:10291000310508F0D5C0C82ED92EF60111916F01EE
:102920007F01812F90E00E9477150097B1F71D324B
:1029300031F4F60111917F019924939406C01B3262
:1029400019F4F60111917F019924209719F0C031F3
:10295000D105D1F4103389F4F7018081883711F063
:10296000883559F4F701118182E090E0E80EF91EF4
:1029700092E0992AC0E1D0E007C0209729F41033F3
:10298000B1F0CAE0D0E02BC0CA30D10541F1C0316E
:10299000D10521F0C830D105A9F409C02FEFA22E2E
:1029A0002FEFB22E2FEFC22E2FE0D22E20C0C8E084
:1029B000D0E09FEFA92E9FEFB92E9FEFC92E9FE188
:1029C000D92E15C09E01442737FD4095542F6FEF37
:1029D0007FEFCB010E94DD1259016A0108C089E92D
:1029E000A82E89E9B82E89E9C82E89E1D82E60E0A1
:1029F00020E030E0A9011E01442437FC4094542C0F
:102A0000012F00530A3060F0812F81548A3110F475
:102A1000075006C0812F81568A3150F5012F075586
:102A2000802F90E08C179D071CF56F3FE9F0A216F0
:102A3000B306C406D506A8F0CA01B901A2019101E6
:102A40000E94BE129B01AC01802F90E0A0E0B0E09C
:102A5000280F391F4A1F5B1F281739074A075B07D2
:102A600010F46FEF01C061E0F70111917F01C8CF51
:102A70006114710481F0662339F00894E108F108CB
:102A8000F301F182E08207C091FE05C0C701029701
:102A9000F3019183808390FE07C050954095309557
:102AA00021953F4F4F4F5F4F67FF0DC082E290E08F
:102AB00090934D0880934C082FEF3FEFA90103C07E
:102AC00020E030E0A901B901CA01DF91CF911F9147
:102AD0000F91FF90EF90DF90CF90BF90AF909F90BD
:102AE0007F906F905F904F903F902F90089591113D
:102AF00023C0803219F089508550D0F70895FB012A
:102B0000DC0105900D920020E1F70895FB019F0183
:102B1000423074F0453264F4642F77270E94AA1281
:102B2000805D8A330CF0895D8193CB010097A1F71A
:102B30001082C9010C949F15992788270895DC01FC
:102B4000FC01672F71917723E1F7329704C07C91E4
:102B50006D9370836291AE17BF07C8F30895F89420
:022B6000FFCFA5
:102B62000A000A312920466F7277617264730A3251
:102B720029204261636B77617264730A332920549E
:102B820075726E0A3029204D61696E204D656E7531
:102B9200000A3129204C6566742D52696768740AEF
:102BA20032292055702D446F776E0A0A3029204D44
:102BB20061696E204D656E75000A44697374616EB9
:102BC20063653F000A53706565643F000A446567A8
:102BD200726565733F000A313D4C65667420203290
:102BE2003D526967687400496E697469616C697AFB
:102BF2006564210A005A5A0101825000010202034F
:102C02000303030404040404040404050505050580
:102C1200050505050505050505050506060606065D
:102C22000606060606060606060606060606060642
:102C3200060606060606060606060607070707072D
:102C42000707070707070707070707070707070712
:102C52000707070707070707070707070707070702
:102C620007070707070707070707070707070707F2
:102C720007070707070707070707070808080808DD
:102C820008080808080808080808080808080808C2
:102C920008080808080808080808080808080808B2
:102CA20008080808080808080808080808080808A2
:102CB2000808080808080808080808080808080892
:102CC2000808080808080808080808080808080882
:102CD2000808080808080808080808080808080872
:102CE2000808080808080808080808080808080862
:102CF200080808080808080808080820004E080004
:022D02000000CF
:00000001FF
